:100000000C944C040C9490040C94F5070C949004FC
:100010000C9490040C9490040C9490040C94900410
:100020000C9490040C9490040C9490040C94B20DD5
:100030000C9490040C94281C0C9490040C94900440
:100040000C9490040C9490040C9490040C946E1CEA
:100050000C9490040C9490040C9490040C949004D0
:100060000C9490040C9490040C9490040C949004C0
:100070000C949004D7053F06210665068106870685
:100080008B068F06930697069B069E06A206A6067B
:10009000850EA70E920FA70E920FE90E0C0F920F6E
:1000A000610F740FA112A112CF12CF122B13521590
:1000B00052155215671352155E145E142C15521505
:1000C000521540157502012C022C01E1013702374F
:1000D00002E10138023801E10126022602E101288D
:1000E00002280075020128022801280228011002B6
:1000F0001001190219010B020B0136023601280208
:100100002801E10133023302E1011C021C01160245
:10011000160117021701080208010C020C01110256
:1001200011012802280128022801E1010C020C011A
:100130000E020E010E020E01080208012C022C0113
:100140001602160108020801110211011602160119
:100150000C020C01170217010C020C011902190103
:1001600017021702E101280228015202520152022D
:100170005201520252014D024D01E1014A024A026E
:10018000E1008042803E3C3A3B456843413F3D2B85
:100190003580697A790078141E806A801D16041AE9
:1001A0001F806B061B07082120806C2C190917156E
:1001B00022806D11050B0A1C23806E80100D1824FF
:1001C00025806F360E0C122726807037380F3313B8
:1001D0002D80717534802F2E8072397D28308031CA
:1001E00080738064806776802A773259745C5F669A
:1001F000808062635A5D5E60295344575B56556147
:100200004780808080408080808080808080808067
:100210008080807E80807C808080808080808080E4
:10022000807B800180038080807F808080808080D0
:100230008065808002808080808080808080808057
:1002400080808080808080808080808054808080DA
:1002500080808080808080808080808058808080C6
:1002600080808080808080808080804D80504A8027
:100270008080494C51804F52808080804E80464B18
:100280004880756E6578706563746564207363611A
:100290006E20636F64652061742045305F46303A9C
:1002A00020253032580A00756E6578706563746574
:1002B00064207363616E20636F64652061742046FF
:1002C000303A20253032580A00756E6578706563C3
:1002D000746564207363616E20636F64652061746C
:1002E0002046303A20463028636C65617220616E8A
:1002F0006420636F6E742E290A00756E65787065D0
:1003000063746564207363616E20636F646520614C
:10031000742045303A20253032580A00756E6578D1
:10032000706563746564207363616E20636F6465D8
:1003300020617420494E49543A20253032580A0031
:100340004F76657272756E0A0025690D0A0070623B
:1003500075663A2066756C6C0A004B6579626F6150
:1003600072642073746172742E0A005553422063C4
:100370006F6E666967757265642E0A000D0A696E94
:1003800069740A003003500053002F00320020002F
:100390006B006500790062006F006100720064000C
:1003A000200063006F006E0076006500720074002C
:1003B0006500720000000E0374002E006D002E0018
:1003C0006B002E00000004030904090274000401FC
:1003D00000A03209040000010301010009211101FC
:1003E00000012240000705810308000A09040100FA
:1003F0000103000000092111010001223600070558
:10040000820308000A090402000203000000092117
:1004100011010001222200070583032000010705C6
:100420000303200001090403000103000000092167
:100430001101000122390007058403200001120187
:10044000100100000008EDFE12650100010200012C
:1004500005010906A101050719E029E71500250195
:100460009508750181020508190129059505750191
:1004700091029501750391010507190029F71500EF
:10048000250195F875018102C00631FF0974A101AB
:100490000975150026FF009520750881020976155B
:1004A0000026FF00952075089102C005010980A172
:1004B00001850216810026B7001A81002AB700754F
:1004C0001095018100C0050C0901A10185031601E9
:1004D00000269C021A01002A9C02751095018100D9
:1004E000C005010906A101050719E029E715002546
:1004F00001950875018102950175088101050819AA
:100500000129059505750191029501750391010574
:1005100007190029FF150026FF00950675088100C0
:10052000C0636F6E73756D65723A20253034580A5A
:100530000073797374656D3A20253034580A000AC7
:10054000002530325820006B6579626F6172643A21
:1005500020004C45443A20253032580A00253032DC
:10056000583A202530386225730A00722F632030F4
:10057000313233343536370A0064656C5F6B657928
:100580005F6269743A2063616E27742064656C3A17
:1005900020253032580A006164645F6B65795F62C0
:1005A00069743A2063616E2774206164643A20257F
:1005B0003032580A003F00433E20004C25640A00B8
:1005C0000A092D20436F6E736F6C65202D0A455309
:1005D000432F713A09717569740A000A092D204D7B
:1005E00061676963202D0A643A0964656275670A68
:1005F000783A096465627567206D61747269780A7A
:100600006B3A096465627567206B6579626F617228
:10061000640A6D3A096465627567206D6F7573656C
:100620000A763A0976657273696F6E0A733A0973CE
:1006300074617475730A633A09636F6E736F6C65E6
:10064000206D6F64650A302D343A096C61796572EA
:10065000302D34284631302D4634290A50617573C7
:100660003A09626F6F746C6F616465720A6E3A0961
:100670004E4B524F0A003F004E4B524F3A206F668E
:10068000660A004E4B524F3A206F6E0A0074696D35
:1006900065725F72656164333228293A20253034EF
:1006A0006C580A006B6579626F6172645F6E6B7281
:1006B0006F3A2025580A006B6579626F6172645F3A
:1006C00069646C653A2025580A006B6579626F6130
:1006D00072645F70726F746F636F6C3A2025580A92
:1006E00000686F73745F6B6579626F6172645F6CD1
:1006F00065647328293A2025580A000A092D2053D9
:100700007461747573202D0A004743433A20342ED8
:10071000382E32204156522D4C4942433A20312E38
:10072000382E30204156525F415243483A2061767C
:100730007233350A004F5054494F4E533A204C55AE
:1007400046412045585452414B455920434F4E5342
:100750004F4C4520434F4D4D414E44204E4B524F40
:10076000204B45594D41505F53454354494F4E200E
:10077000343039360A004255494C443A20626164AB
:1007800062643130202831323A33373A3439204AE2
:10079000616E2031372032303137290A0056494402
:1007A0003A2030784645454428742E6D2E6B2E290C
:1007B000205049443A203078363531322850532F72
:1007C00032206B6579626F61726420636F6E76654B
:1007D0007274657229205645523A20307830303094
:1007E000310A00444553433A20636F6E7665727454
:1007F0002050532F32206B6579626F6172642074D0
:100800006F205553420A000A092D205665727369FC
:100810006F6E202D0A000A6D6F7573653A206F6642
:10082000660A000A6D6F7573653A206F6E0A000ADA
:100830006B6579626F6172643A206F66660A000ABE
:100840006B6579626F6172643A206F6E0A000A6D9F
:1008500061747269783A206F66660A000A6D617485
:100860007269783A206F6E0A000A64656275673AA9
:10087000206F6E0A000A64656275673A206F6666CB
:100880000A000A0A626F6F746C6F616465722E2EC3
:100890002E2000433E20000011241FBECFEFD4E0E5
:1008A000DEBFCDBF04B603FE24C0809166029091E6
:1008B0006702A0916802B09169028730904BA7400F
:1008C000B04BB9F41092660210926702109268025F
:1008D0001092690214BE84B7877F84BF88E10FB687
:1008E000F89480936000109260000FBEE0E0F8E39F
:1008F000099511E0A0E0B1E0E0E3F3E402C0059067
:100900000D92A233B107D9F712E0A2E3B1E001C022
:100910001D92A636B107E1F70E94F20A0C949621C7
:100920000C940000FF93EF93E0913201F0913301BA
:10093000309709F00995EF91FF910895FC01859199
:10094000803011F0EFDFFBCF0895FF27E0E230E2C7
:1009500047FF0CC0419597FF09C0EDE26095709587
:1009600080959095611D711D811D911D27FF02C00D
:10097000219530E350E2AA27660F771F881F991F41
:10098000AA1FA41710F0A41B63955A95A9F7AA30C3
:1009900008F0A95FA05DAF93F3956115710581051E
:1009A000910541F7ED3211F4EF93F395F21718F436
:1009B0003F93F395FBCF8F91B5DFFA95E1F708955B
:1009C000E991F9918591803021F0853219F0AADF03
:1009D000F9CF089520E0E89455915532C1F3503392
:1009E00011F4689455915A3348F4505390F3220F00
:1009F000022E220F220F200D250FF4CF0EF4219589
:100A000089919991533619F3533729F1533559F197
:100A1000BC0188279927E8945C3621F48991999143
:100A200068945591543639F446EF7EF077FF0DC047
:100A30008FEF9FEF0AC055374AE039F0583540E153
:100A400021F0523642E009F00895FF93EF937DDFE5
:100A5000EF91FF91B7CFFF93EF93FC01819180302D
:100A6000B9F360DFFBCFFF93EF9368DFF1CFDF9344
:100A7000CF93CDB7DEB72596A3DFCF91DF91089551
:100A8000662319F0613041F00EC0FC018281882399
:100A900051F083EE90E00895FC018281882319F0E3
:100AA00084EC90E0089580E090E00895E82FE695CA
:100AB000E695E695F0E0EA5CFE4F4081877021E024
:100AC00030E002C0220F331F8A95E2F7842F90E0B6
:100AD00082239323892B29F4242B208381E0809384
:100AE00035010895E82FE695E695E695F0E0EA5C95
:100AF000FE4F4081877021E030E002C0220F331F9B
:100B00008A95E2F7842F90E082239323892B31F09A
:100B100020952423208381E08093350108958091DE
:100B20004D02816080934D020E940207E6E3F1E0EE
:100B3000119281E0E635F807D9F70895E82FF0E043
:100B4000EA5CFE4F80810895E6E3F1E0119281E0D6
:100B5000E635F807D9F70895CF93109235018091C3
:100B6000550186FF03C08EEF0E9472050E94DD07CB
:100B7000C82F882361F01F928F9329E433E03F93BD
:100B80002F930E9437050F900F900F900F90809138
:100B900058018111E2C04091340150E04E305105BE
:100BA00008F0D9C0FA01E65CFF4F0C94C01ECA3AA7
:100BB00031F178F4C338F9F0C438F9F0C11134C018
:100BC0000E94A4050E946F1580E493E00E949E0499
:100BD000C2C0C13E71F020F4C03E31F582E094C045
:100BE000C03F29F0CC3F01F582E191E00AC081E0ED
:100BF0008BC084E089C083E8ACC08CEFAAC08FE0D2
:100C000091E09F938F9385E191E09F938F930E9452
:100C1000C61E0E94CC0F0E94B006109234010F90A5
:100C20000F900F900F9099C0C7FD02C08C2F91C0FC
:100C30000E94A4050E946F151F92CF938CE193E050
:100C400057C0C93509F487C020F4C23109F483C004
:100C500008C0CE3721F0C03F21F483E055C08BE0BF
:100C600053C0C7FD03C08C2F806873C00E94A405C9
:100C70000E946F151F92CF938AEF92E039C0C4385B
:100C800031F0C03F31F0C33889F483E812C08CEFF3
:100C900010C00E94A4050E946F1589EC92E09F93FA
:100CA0008F930E9437050F900F9057C0C7FD04C067
:100CB0008C2F0E9472054FC00E94A4050E946F15E0
:100CC0001F92CF9387EA92E013C0C23109F443C068
:100CD000C93509F440C0C7FD03C08C2F8068E9CF37
:100CE0000E94A4050E946F151F92CF9382E892E0A4
:100CF0009F938F930E9437050F900F900F900F9046
:100D00002AC0C43141F585E08093340126C0C7373D
:100D100011F586E0F9CFC13EF1F487E0F5CFC03F91
:100D2000D1F488E0F1CFC431B1F489E0EDCFC03F18
:100D300091F48AE0E9CFC73771F40AC0C03E59F494
:100D40008CE0E2CFC03F39F48DE0DECFCE3719F42E
:100D50008EEF0E9456051092340181E0CF910895E4
:100D6000982F82FB882780F990FD826091FD846036
:100D70000C9486084FB7F8942091590130915A018C
:100D800080915B0190915C018217930781F0F901DA
:100D9000EE0FFF1FE35AFE4F808191812F5F3F4F7F
:100DA0002F71332730935A012093590102C080E0FC
:100DB00090E04FBF0895CF93DF93EC010E94950818
:100DC000882341F0209731F085E08A95F1F7000003
:100DD0002197F4CFCE01DF91CF910895CF93DF9388
:100DE000C2E3D0E00E949508811108C0209731F03D
:100DF00085E08A95F1F700002197F4CFCE01DF91CD
:100E0000CF9108950E9492080E94A208E9E6F0E0BE
:100E1000808188608083E99A08954AE1415019F4FD
:100E20000E94BA0608955FB7F89420915B01309153
:100E30005C018091590190915A015FBF28173907D1
:100E400079F78FE99FE00197F1F700C00000E6CF46
:100E5000EF92FF920F931F93CF93DF93082F10927F
:100E60005801E9980E948F080E94A2088FE891E03B
:100E70000197F1F700C000000E949F080E949208AD
:100E800080E197E20E94DB06892B11F48AE079C0A9
:100E9000C0E0D0E0FF24F39410E0EE24E39490E56A
:100EA0009A95F1F7C8010C2E02C0959587950A9482
:100EB000E2F780FF04C0FE240E94A20802C00E9444
:100EC0009F080E94EE06892B11F482E05AC082E34B
:100ED00090E00E94DB06892B11F483E052C021963A
:100EE000C830D105E1F680E58A95F1F7FF2019F0C9
:100EF0000E94A20802C00E949F080E94EE06892B51
:100F000011F484E03EC082E390E00E94DB06892B6E
:100F100011F485E036C090E59A95F1F70E94A20899
:100F2000C2E3D0E00E94A508882341F0209741F059
:100F300025E02A95F1F700002197F4CFCD2B11F48D
:100F400086E01FC082E390E00E94DB06892B11F44B
:100F500087E017C00E94EE06892B19F0C2E3D0E0AB
:100F600009C088E00EC0209759F085E08A95F1F716
:100F7000000021970E94A5088823A9F3CD2B81F4B6
:100F800089E0809358010E9492080E94A208E99A81
:100F900080E0DF91CF911F910F91FF90EF90089526
:100FA0000E9492080E94A208E99ADF91CF911F91B6
:100FB0000F91FF90EF900C940D074FB7F89420918C
:100FC0005B0130915C018091590190915A014FBFB2
:100FD0002817390729F0109258010E94BA0608957F
:100FE00080E28093580180E008951F920F920FB61F
:100FF0000F9211242F933F934F935F936F937F939F
:101000008F939F93AF93BF93CF93EF93FF930E94E0
:101010009508811169C0809157018F5F80935701B6
:101020008A3028F4823068F4813031F052C08A303E
:10103000D9F08B3029F14DC00E94A508811149C01B
:1010400053C0809156018695809356010E94A50851
:10105000882309F449C08091560180688093560125
:10106000809100018F5F3EC00E94A5089091000111
:10107000882319F090FF2DC037C090FD2AC034C0DE
:101080000E94A508882329F12091560130E0CFB7AE
:10109000F894E0915B01F0915C01CF0101968F71B2
:1010A00099274091590150915A018417950759F099
:1010B000EE0FFF1FE35AFE4F3183208390935C01B4
:1010C00080935B0104C08EE493E00E949E04CFBF36
:1010D00004C08091570180935801109257011092DB
:1010E000560181E080930001FF91EF91CF91BF9174
:1010F000AF919F918F917F916F915F914F913F91B0
:101100002F910F900FBE0F901F901895CF93C82F5F
:101110008DEE0E9428078C2FCF910C9428075998A8
:10112000519A08955198599A08955198599A85E07D
:101130008A95F1F7000089B18695817008955898D5
:10114000509A08955098589A08955098589A85E062
:101150008A95F1F7000089B1817008958091C101ED
:10116000089508959FB7F8941092A0019FBF9091A1
:101170005702943009F058C09091E9009F70209177
:10118000EC0020FF02C020E801C020E0292B93E002
:101190009093E9009091EB0090FF43C09091EE0096
:1011A00097FF3FC090919D01992321F09091E80015
:1011B00095FF37C010929D0196E03091E80035FD13
:1011C00015C030915702343061F53091EB0035FD98
:1011D00028C0915021F481E080939D0122C0EFE965
:1011E000FFE03197F1F700C00000E7CF8093F100F6
:1011F0008091E80085FD0AC08091E80080FFFCCF67
:101200008091E8008E778093E80006C08FB7F8944D
:1012100091E09093A0018FBF2F702093E90080E0B0
:1012200008952F702093E9008FEF0895CF93DF93F7
:1012300000D01F92CDB7DEB720915702243021F5A0
:1012400023E029839B838A8382E08093E9008FEFE8
:101250009091E800815095FD06C095ED9A95F1F7C3
:1012600000008111F5CF8091E80085FF0DC040E0BE
:1012700050E063E070E0CE0101960E94B70B8091D0
:10128000E8008E778093E8000F900F900F90DF9129
:10129000CF910895CF93DF9300D01F92CDB7DEB7E3
:1012A00020915702243019F522E029839B838A83F9
:1012B0002093E9008FEF9091E800815095FD06C0E2
:1012C00095ED9A95F1F700008111F5CF8091E80036
:1012D00085FF0DC040E050E063E070E0CE01019674
:1012E0000E94B70B8091E8008E778093E8000F9002
:1012F0000F900F90DF91CF910895CF93DF93EC0182
:1013000080915702843009F046C090910B019923D7
:10131000D9F090910C019923B9F08093E9008FEFF7
:101320009091E800815095FD06C095E19A95F1F7FE
:1013300000008111F5CF8091E80085FF2CC040E0CE
:1013400050E060E270E017C081E08093E9008FEF29
:101350009091E800815095FD06C095ED9A95F1F7C2
:1013600000008111F5CF8091E80085FF14C040E0B6
:1013700050E068E070E0CE010E94B70B8091E80079
:101380008E778093E80080E2FE01A1EAB1E001904F
:101390000D928A95E1F7DF91CF910895089580919C
:1013A0009E018F5F80939E0162E30E94B41E9111A3
:1013B00035C010929E018091A001882379F180911F
:1013C0005702843049F58091E9008F709091EC00CC
:1013D00090FF02C090E801C090E0982B83E08093DA
:1013E000E9008091EB0080FF14C08091EE0087FF40
:1013F00010C08091E80085FF03C01092F100F9CF82
:101400008091E80080FF05C08091E8008E7780938E
:10141000E8009F709093E9001092A001089542E0C7
:1014200061EC81E00E94C90C42E061EC82E00E9424
:10143000C90C42E261EC83E00E94C90C42E261EC1B
:1014400084E00C94C90C80915902833009F455C092
:1014500030F4813071F0823009F48EC008958A3002
:1014600009F47AC08B3009F460C0893009F09CC05F
:1014700020C080915802813A09F096C08091E8001E
:10148000877F8093E80080915C0290915D02892BB8
:1014900021F060E080E090E003C060E281EA91E04A
:1014A00070E00E94020C8091E8008B778093E80046
:1014B000089580915802813209F076C080915C02D3
:1014C00090915D02009719F0039709F06DC080912B
:1014D000E800877F8093E8008091E80082FD05C0E6
:1014E000809157028111F8CF5FC08091F100809305
:1014F000C1018091E8008B7753C080915802813AF6
:1015000009F052C080915C0290915D02892B09F034
:101510004BC08091E800877F8093E8008091E800CD
:1015200080FFFCCF80910B0136C080915802813240
:10153000D9F580915C0290915D02892BA9F580918B
:10154000E800877F8093E8000E94FE0C80915A0299
:1015500080930B010C946F1580915802813221F514
:101560008091E800877F8093E8000E94FE0C8091C4
:101570005B028093C201089580915802813AA1F4E0
:101580008091E800877F8093E8008091E80080FFE9
:10159000FCCF8091C2018093F1008091E8008E77AA
:1015A0008093E8000C94FE0C0895089508958091AE
:1015B000C10180939F011092C10180E00E94B0069A
:1015C0000E94A4050C946F150C94D70A0E94021C6B
:1015D00080915502882329F00E940F1C81110C94E0
:1015E000A10B089584B7877F84BF88E10FB6F89474
:1015F00080936000109260000FBE90E080E80FB60C
:10160000F89480936100909361000FBE82EB98E0A4
:101610000E94D81B8CE793E00E949E040E94D50A8A
:101620000E9479100E944F0D0E94A20D8091E2004D
:1016300084608093E200789480915702843019F09E
:101640000E94AA0FF9CF8BE693E00E949E040E94AD
:101650007B1081E091E00E94C70F8AE593E00E9431
:101660009E040E94D60A80915702853019F40E9488
:10167000E60AF9CF0E947F100E94AA0FF4CF0E94C1
:10168000241C80919F018093C10108950C943F0B0D
:10169000292F332723303105A9F06CF4213031058F
:1016A00009F442C02230310509F043C084E790E0DC
:1016B0002AEC33E042C021323105C9F02232310533
:1016C00019F137C099278130910541F08230910599
:1016D00041F0892B71F5E6ECF3E005C0E6EBF3E0B1
:1016E00002C0E4E8F3E0849190E09F0126C06430FA
:1016F00000F5E62FF0E0EE0FFF1FE75DFE4F2081C3
:10170000318189E090E019C0643098F4E62FF0E070
:10171000DF01AA0FBB1FAF5DBE4F2D913C91E35E71
:10172000FE4F808190E009C082E190E02EE334E03A
:1017300004C080E090E020E030E0FA0131832083B3
:10174000089584E089BD86E089BD09B400FEFDCF1F
:101750008091D8008F7D8093D8008091E0008260D6
:101760008093E0008091E00081FDFCCF0895CF924E
:10177000DF92EF92FF920F931F93CF93DF937C0141
:101780008B01EA010E941F0D811133C0209731F0B7
:1017900088819981081B190BE80EF91EC12CD12CE8
:1017A0000115110529F18091E80085FD16C0809191
:1017B000E8008E778093E8000E94AA0F209741F0FE
:1017C000888199818C0D9D1D9983888385E011C046
:1017D0000E941F0D882321F30CC0F70181917F0126
:1017E0008093F10001501109FFEFCF1ADF0AD8CF23
:1017F00080E0DF91CF911F910F91FF90EF90DF90EC
:10180000CF90089520915E0230915F02261737072E
:1018100048F06115710539F42091E8002E77209386
:10182000E80001C0B90120E061157105D1F13091E6
:101830005702332309F443C0353009F442C03091D4
:10184000E80033FD40C03091E80032FF06C08091CF
:10185000E80082FF29C080E008953091E80030FF61
:10186000E3CF2091F20030E0FC01281B390BCF01BF
:10187000820F931F6115710549F08830910530F48E
:1018800081918093F10061507109F1CF21E00897B7
:1018900009F020E08091E8008E778093E800CF0186
:1018A000C3CF2111C4CFD3CF80915702882339F001
:1018B000853039F08091E80083FFC9CF04C082E011
:1018C000089583E0089581E0089520915E023091AB
:1018D0005F022617370748F06115710539F420912A
:1018E000E8002E772093E80001C0B90120E06115DF
:1018F0007105D9F130915702332309F444C03530D2
:1019000009F443C03091E80033FD41C03091E80054
:1019100032FF06C08091E80082FF2AC080E008956F
:101920003091E80030FFE3CF2091F20030E0FC017D
:10193000281B390BC9018E0F9F1F6115710551F0CE
:101940008830910538F484918093F100319661508C
:101950007109F0CF21E0089709F020E08091E800BC
:101960008E778093E800CF01C2CF2111C3CFD2CFB1
:1019700080915702882339F0853039F08091E80052
:1019800083FFC8CF04C082E0089583E0089581E01A
:101990000895982F953058F59093E900981739F0ED
:1019A0007091EC002091ED005091F00003C0242FC5
:1019B000762F50E021FF19C03091EB003E7F30932D
:1019C000EB003091ED003D7F3093ED003091EB0066
:1019D00031603093EB007093EC002093ED00509356
:1019E000F0002091EE0027FF07C09F5FD3CF8F70DC
:1019F0008093E90081E0089580E008958091580285
:101A000087FD05C08091E80080FF0EC012C0809164
:101A1000E80082FD05C0809157028111F8CF08953A
:101A20008091E8008B7708C0809157028111EACF3E
:101A300008958091E8008E778093E8000895809162
:101A4000E4009091E50045E62091EC0020FF21C0E4
:101A50002091E80020FD21C020915702222389F027
:101A6000253089F02091EB0025FD0FC02091E40086
:101A70003091E5002817390739F3415041F0C90189
:101A8000E3CF82E0089583E0089581E0089584E043
:101A900008952091E80022FFDFCF80E008950E94A2
:101AA000AC0D0E94AF0DE0EEF0E08081816080839C
:101AB000E8EDF0E080818F77808319BCE3E6F0E009
:101AC0008081816080831092560208950E94AC0D3F
:101AD0000E94AF0D8091D8008F778093D8008091BD
:101AE000D80080688093D8008091D8008F7D809343
:101AF000D80084E089BD86E089BD09B400FEFDCF31
:101B000010925702109253021092550210925402F2
:101B100042E060E080E00E94C90C8091E1008E7F8D
:101B20008093E1008091E20081608093E2008091E7
:101B3000E20088608093E2008091E0008E7F8093D5
:101B4000E0000895E3E6F0E080818E7F808381E00D
:101B5000809356020C94660D1092E2000895109244
:101B6000E10008951F920F920FB60F9211242F9348
:101B70003F934F935F936F937F938F939F93AF9315
:101B8000BF93EF93FF938091E10082FF0BC08091A0
:101B9000E20082FF07C08091E1008B7F8093E1002B
:101BA0000E94CF098091E10080FF19C08091E2007E
:101BB00080FF15C08091E2008E7F8093E2008091CB
:101BC000E20080618093E2008091D800806280937F
:101BD000D80019BC85E0809357020E94E40A8091E6
:101BE000E10084FF30C08091E20084FF2CC084E0DB
:101BF00089BD86E089BD09B400FEFDCF8091D80083
:101C00008F7D8093D8008091E1008F7E8093E100EA
:101C10008091E2008F7E8093E2008091E2008160FB
:101C20008093E20080915302882311F084E007C082
:101C30008091E30087FF02C083E001C081E08093D0
:101C400057020E94460B8091E10083FF24C08091DF
:101C5000E20083FF20C08091E100877F8093E10054
:101C600082E080935702109253028091E1008E7FB0
:101C70008093E1008091E2008E7F8093E20080916A
:101C8000E20080618093E20042E060E080E00E9438
:101C9000C90C0E94CE09FF91EF91BF91AF919F9126
:101CA0008F917F916F915F914F913F912F910F9005
:101CB0000FBE0F901F9018951F93CF93DF93CDB752
:101CC000DEB7AA970FB6F894DEBF0FBECDBFE8E52A
:101CD000F2E08091F100819322E0E036F207C9F74B
:101CE0000E94230A8091E80083FF1CC120915802C2
:101CF00030915902832F90E08A30910508F012C18B
:101D0000FC01E85BFF4F0C94C01E203881F02238A4
:101D100009F008C180915C028F708093E900809186
:101D2000EB0085FB882780F91092E90006C08091BE
:101D3000540290915502911182609091E800977F32
:101D40009093E8008093F1001092F100C5C0822FBB
:101D50008D7F09F0E7C0222319F0223061F0E2C044
:101D600080915A02813009F0DDC0333009F080E003
:101D70008093550228C080915A02811124C020917D
:101D80005C022F7009F4CEC02093E9008091EB0033
:101D900080FF19C08091EB00333011F4806211C0D4
:101DA00080618093EB0081E090E0022E01C0880FFB
:101DB0000A94EAF78093EA001092EA008091EB001F
:101DC00088608093EB001092E9008091E800877FA3
:101DD00086C02111A7C010915A021F778091E3009D
:101DE0008078812B8093E3008091E800877F809347
:101DF000E8000E94FE0C8091E80080FFFCCF8091FB
:101E0000E30080688093E300112311F083E001C0B8
:101E100082E08093570286C02058223008F082C0AA
:101E200080915A0290915B028C3D23E0920779F5F4
:101E300083E08A838AE289834FB7F894DE011396A0
:101E400020E03EE051E2E32FF0E050935700E491B0
:101E500020FF03C0E295EF703F5FEF708E2F90E0A0
:101E6000EA3010F0C79601C0C0968D939D932F5F06
:101E7000243149F74FBF8091E800877F8093E800C5
:101E80006AE270E0CE0101960E94020C14C0AE011D
:101E90004F5F5F4F60915C020E94480B009709F40E
:101EA00041C02091E800277F2093E800BC01898190
:101EB0009A810E94650C8091E8008B778093E800FE
:101EC00031C0203879F58091E800877F8093E80061
:101ED000809153028093F1008091E8008E77809387
:101EE000E8000E94FE0C1EC021111CC090915A02F5
:101EF0009230C0F48091E800877F8093E80090934F
:101F000053020E94FE0C80915302811104C0809103
:101F1000E30087FF02C084E001C081E080935702A4
:101F20000E940F0A8091E80083FF0AC08091E800B8
:101F3000877F8093E8008091EB0080628093EB00C4
:101F4000AA960FB6F894DEBF0FBECDBFDF91CF913A
:101F50001F910895CF93809157028823B1F080910B
:101F6000E9008F709091EC0090FF02C090E801C0F2
:101F700090E0C92FC82B1092E9008091E80083FD02
:101F80000E945C0ECF70C093E900CF9108959093AA
:101F9000C8018093C7010895E091C701F091C8017D
:101FA000309721F00190F081E02D099480E00895B0
:101FB000FF920F931F93CF93DF938C01E091C701A2
:101FC000F091C801309799F10280F381E02D0995D5
:101FD00080914D0282FF2BC080FF04C087E495E012
:101FE0000E949E04E80180E2F82E01E415E0809151
:101FF0004D0280FF0BC088811F928F931F930F9318
:102000000E9437050F900F900F900F90FA94219631
:10201000F110EDCF80914D0280FF09C08FE395E074
:10202000DF91CF911F910F91FF900C949E04DF914F
:10203000CF911F910F91FF900895CF93DF93EC0103
:102040008091C5019091C601C817D90709F1D093B5
:10205000C601C093C501E091C701F091C801309756
:10206000B9F00680F781E02DCE01099580914D02EF
:1020700082FF0EC080FF0CC0DF93CF9381E395E019
:102080009F938F930E9437050F900F900F900F90A2
:10209000DF91CF910895CF93DF93EC018091C3013D
:1020A0009091C401C817D90709F1D093C401C09316
:1020B000C301E091C701F091C8013097B9F00084E5
:1020C000F185E02DCE01099580914D0282FF0EC071
:1020D00080FF0CC0DF93CF9381E295E09F938F93B5
:1020E0000E9437050F900F900F900F90DF91CF91C6
:1020F00008950C943C110E944D1C0C948F05CF92B6
:10210000DF92EF92FF920F931F93CF93DF9300D054
:1021100000D000D0CDB7DEB70E94AC053AECE32E7C
:1021200031E0F32E00E010E0C02E802F0E949E05CB
:10213000F701D1907F01D826B1F40F5F1F4F003215
:10214000110591F78FEF89838A831B820E94561CA9
:102150008160782F9D838C8349815A816B818D8129
:102160000E94731148C090914D0291FF04C08E836C
:102170000E943D118E8120E030E04D2D50E0922FE5
:10218000BA01022E02C0759567950A94E2F760FFC6
:102190002CC02983CA82EE24E394F12C02C0EE0CF9
:1021A000FF1C9A95E2F790E08E219F2121E0892B78
:1021B00009F420E02B830E94561C8160782F9D83B8
:1021C0008C8349815A816B818D810E947311498171
:1021D0005A816B817C818D810E94EF1BF801E6534F
:1021E000FE4F80818E25808306C02F5F3F4F2830B1
:1021F000310529F6A2CF0E94EE1B1091C9010E9461
:10220000CC0F181741F10E94CC0F8093C901909117
:102210004D0292FF0EC090FF0CC01F928F9382E57B
:1022200095E09F938F930E9437050F900F900F902A
:102230000F908091C90126960FB6F894DEBF0FBEAD
:10224000CDBFDF91CF911F910F91FF90EF90DF9065
:10225000CF900C94001C26960FB6F894DEBF0FBEEC
:10226000CDBFDF91CF911F910F91FF90EF90DF9045
:10227000CF9008950C94B0060895EF92FF920F93BB
:102280001F93CF93DF938BE695E00E949E04C0E0FE
:10229000D0E08CE1E82E81E0F82E0DE515E08C2FE2
:1022A0000E949E050E94DD1BFF92EF921F928F936A
:1022B000DF93CF931F930F930E94370521968DB71D
:1022C0009EB708960FB6F8949EBF0FBE8DBFC03262
:1022D000D10529F7DF91CF911F910F91FF90EF90DA
:1022E000089508950895CF93DF93CDB7DEB72B9768
:1022F0000FB6F894DEBF0FBECDBF4F8358876987F6
:102300007A878B878A859B85892B31F05F3F11F017
:1023100080E003C04F3FE1F781E0811107C04F81AA
:10232000588569857A858B850E94EF1BDE011196A1
:1023300086E0FD0111928A95E9F785E0FE01379666
:1023400001900D928A95E1F749815A816B817C81D8
:102350008D819E810E944E182B960FB6F894DEBF99
:102360000FBECDBFDF91CF910895CF93C82F8823A3
:1023700009F464C08CEF8C0F813A20F080E58C0F5B
:102380008E3248F48C2F0E94531E811157C08C2F1F
:102390000E94D01A0CC080E28C0F883058F4C770AD
:1023A00081E001C0880FCA95EAF70E94761BCF91A1
:1023B0000C94B21B8BE58C0F833078F4C53A29F06E
:1023C000C63A31F482E890E005C081E890E002C0AE
:1023D00083E890E0CF910C941D1088E58C0F853137
:1023E00068F5C83A89F0C93A91F0CA3A99F0CB3AFF
:1023F000A1F0CC3AA9F0CD3AB1F0CE3AB9F0CF3A4B
:10240000C1F487EB90E017C082EE90E014C089EE33
:1024100090E011C08AEE90E00EC085EB90E00BC01A
:1024200086EB90E008C083EB90E005C084EB90E081
:1024300002C080E090E0CF910C944B10CF910895B2
:10244000882349F19CEF980F913A20F090E5980F7E
:102450009E3218F40E94211B0DC090E2980F983014
:1024600058F4877091E001C0990F8A95EAF7892F97
:102470000E947C1B0C94B21B9BE5980F933020F4B8
:1024800080E090E00C941D10885A853120F480E0A3
:1024900090E00C944B100895882321F00E94761B45
:1024A0000C94B21B0895882321F00E947C1B0C948D
:1024B000B21B0895CF92DF92EF92FF920F931F937A
:1024C000CF93DF93CDB7DEB728970FB6F894DEBF72
:1024D0000FBECDBF8C0185E0F801DE0111960190A1
:1024E0000D928A95E1F7F80140813181F2802581D2
:1024F00022952F7083819481892B31F03F3F31F4F5
:1025000081E04F3F19F403C081E001C080E080FD0D
:10251000C9C249833A8389819A812F830E948E1A86
:102520009E8388870E948D1A0E94B5194E81E42FE0
:10253000E295EF70F0E0EE5AFF4F2F8168850C9422
:10254000C01E842F807F142F1F70882311F01295D6
:10255000107FFF2059F0112309F459C2812F688799
:102560000E94891B0E94B21B688551C2862F0E945F
:102570002012112309F496C2812F0E948F1B2896E6
:102580000FB6F894DEBF0FBECDBFDF91CF911F9184
:102590000F91FF90EF90DF90CF900C94B21B842F9F
:1025A000807F942F9F70E92E803219F0E29480EFA3
:1025B000E822662319F0613001F129C0FF20A9F05B
:1025C0008E2D222349F1213039F528960FB6F89443
:1025D000DEBF0FBECDBFDF91CF911F910F91FF9056
:1025E000EF90DF90CF900C94991B222319F02130AB
:1025F00009F458C20E949C1B2CC0FF20E9F0263031
:1026000008F050C20E94731B8E2129F022C0FF20C7
:10261000F1F0211115C08E2D28960FB6F894DEBF6B
:102620000FBECDBFDF91CF911F910F91FF90EF9023
:10263000DF90CF900C944C12253008F033C209C0C3
:10264000F801858180FFE3C18F708583E4CF21117C
:10265000F2C18E2D60C1242F26952695237030E07F
:102660002115310521F021303105C9F01BC2FF20B1
:1026700021F0862F942F937002C080E090E028967E
:102680000FB6F894DEBF0FBECDBFDF91CF911F9183
:102690000F91FF90EF90DF90CF900C941D10FF20D2
:1026A00021F0862F942F937002C080E090E028964E
:1026B0000FB6F894DEBF0FBECDBFDF91CF911F9153
:1026C0000F91FF90EF90DF90CF900C944B10842FE0
:1026D000837009F076C0F110E5C1262F229526956A
:1026E0002770220F220F862F8F70C82ED12CE12C3D
:1026F000F12C022E04C0CC0CDD1CEE1CFF1C0A9435
:10270000D2F764FF10C06FE070E080E090E004C09A
:10271000660F771F881F991F2A95D2F760957095CD
:102720008095909503C060E070E0CB01242F269542
:1027300026952370422F50E042305105D1F04330AE
:10274000510559F16C297D298E299F294130510568
:1027500041F128960FB6F894DEBF0FBECDBFDF91D2
:10276000CF911F910F91FF90EF90DF90CF900C943D
:10277000CA196C297D298E299F2928960FB6F894AD
:10278000DEBF0FBECDBFDF91CF911F910F91FF90A4
:10279000EF90DF90CF900C94DC190E94CA19C7010A
:1027A000B60128960FB6F894DEBF0FBECDBFDF91FD
:1027B000CF911F910F91FF90EF90DF90CF900C94ED
:1027C000B819FF2019F0842F817001C086958823E5
:1027D00009F468C1262F229526952770220F220F13
:1027E000862F8F70C82ED12CE12CF12C022E04C024
:1027F000CC0CDD1CEE1CFF1C0A94D2F764FF10C049
:102800006FE070E080E090E004C0660F771F881FE3
:10281000991F2A95D2F7609570958095909503C081
:1028200060E070E0CB01242F269526952370422F7F
:1028300050E042305105D1F04330510559F16C2937
:102840007D298E299F294130510541F128960FB6E7
:10285000F894DEBF0FBECDBFDF91CF911F910F91D6
:10286000FF90EF90DF90CF900C94691A6C297D292E
:102870008E299F2928960FB6F894DEBF0FBECDBFD4
:10288000DF91CF911F910F91FF90EF90DF90CF904C
:102890000C947B1A0E94691AC701B60128960FB6DC
:1028A000F894DEBF0FBECDBFDF91CF911F910F9186
:1028B000FF90EF90DF90CF900C94571A603FD9F1C2
:1028C00028F480E4860F803250F09CC0623F09F407
:1028D00061C008F44BC0633F09F470C093C0162F69
:1028E0001071842F8F716887FF2059F00E94021A9F
:1028F0006885862F112319F08295807F8DCE8F7089
:102900008BCE0E941D1A6885862F112319F082959F
:10291000807F01C08F7028960FB6F894DEBF0FBE7F
:10292000CDBFDF91CF911F910F91FF90EF90DF907E
:10293000CF900C945312FF20A9F0253008F0B2C0BC
:10294000842F8F7128960FB6F894DEBF0FBECDBFCF
:10295000DF91CF911F910F91FF90EF90DF90CF907B
:102960000C943C1A263008F09DC0EACFFF20A1F05D
:10297000842F8F7128960FB6F894DEBF0FBECDBF9F
:10298000DF91CF911F910F91FF90EF90DF90CF904B
:102990000C94021AFF2061F3842F8F7128960FB6D2
:1029A000F894DEBF0FBECDBFDF91CF911F910F9185
:1029B000FF90EF90DF90CF900C941D1AFF2091F0C4
:1029C000842F8F7128960FB6F894DEBF0FBECDBF4F
:1029D000DF91CF911F910F91FF90EF90DF90CF90FB
:1029E0000C94F31928960FB6F894DEBF0FBECDBF36
:1029F000DF91CF911F910F91FF90EF90DF90CF90DB
:102A00000C94EE19FF20A1F0222309F4B1CF862FF8
:102A100028960FB6F894DEBF0FBECDBFDF91CF91E1
:102A20001F910F91FF90EF90DF90CF900C94B51114
:102A3000222309F4B1CF862F28960FB6F894DEBF73
:102A40000FBECDBFDF91CF911F910F91FF90EF90FF
:102A5000DF90CF900C9420124F70C8010E94400567
:102A600028960FB6F894DEBF0FBECDBFDF91CF9191
:102A70001F910F91FF90EF90DF90CF900C94001971
:102A80004F70C80128960FB6F894DEBF0FBECDBFB9
:102A9000DF91CF911F910F91FF90EF90DF90CF903A
:102AA0000C94F61C28960FB6F894DEBF0FBECDBF6F
:102AB000DF91CF911F910F91FF90EF90DF90CF901A
:102AC00008950E94961B0E94651B0E94B21B80E025
:102AD00090E00E941D1080E090E00C944B100E944A
:102AE000861B0C9461150E948E1A292F22952F7037
:102AF00030E02C3031054CF42A303105C4F422503A
:102B000031092230310540F021C02C303105D1F09F
:102B10002F303105B9F01AC0853A28F48430C0F45A
:102B2000823028F415C090E2980F983088F0883EE3
:102B300030F4803E68F48450813A40F409C0803F0C
:102B400029F406C093FB882780F9089580E0089552
:102B500081E00895CF93DF9300D000D01F92CDB7CE
:102B6000DEB70F900F900F900F900F90DF91CF91E5
:102B70000895CF93DF9300D000D000D0CDB7DEB75B
:102B800026960FB6F894DEBF0FBECDBFDF91CF9172
:102B90000895CF93DF93C091EA018091EB01C817AC
:102BA000A1F0D0E0CE0166E070E00E94A31EFC011F
:102BB000E451FE4F4081518162817381848195810E
:102BC0000E94B9152196C770E8CFDF91CF91089583
:102BD00040911C0250911D0260911E0270911F02D3
:102BE00080912002909121020C94B9151F93CF93EC
:102BF000DF938091210282958F7009F060C08091EF
:102C00001E02882309F45BC0A091EA01D091EB0178
:102C100040911C02C0911D0220911F0230912002A0
:102C200081E04F3F09F080E0182FAD1709F447C04D
:102C30002115310521F0CF3F21F4812F03C081E020
:102C400001C080E0B0E080FD37C0CD0166E070E0FB
:102C50000E94A31EFC01E451FE4F8181C8132CC0C9
:102C60008081481329C08281811126C0838194818B
:102C70008217930708F40197821B930B883C9105F8
:102C8000D8F4809121028F70806180932102CD0160
:102C900066E070E00E94A31EFC01EF50FE4F8081B1
:102CA0008F70806180838CE192E00E945A12DF91E4
:102CB000CF911F910C94C9151196A770B6CFDF91D3
:102CC000CF911F910895BF92CF92DF92EF92FF9222
:102CD0000F931F93CF93DF93CDB7DEB761970FB6F6
:102CE000F894DEBF0FBECDBF8C0185E0F801DE0198
:102CF0001D9601900D928A95E1F7D8014C9111969D
:102D0000AC91F801C280E380F48050911C02609184
:102D10001D0220911F02309120022115310531F052
:102D20006F3F31F481E05F3F19F403C081E001C0DF
:102D300080E0F82FF170BF2E80FD6DC1D0901E0293
:102D4000DD2009F4F4C070912102E216F30638F098
:102D5000C701821B930B883C910548F099C02095D0
:102D600030952E0D3F1D283C310508F091C0872F6E
:102D7000807F09F054C06A1315C0541313C0DC2CB3
:102D8000C11010C07F707061709321020E94E8151D
:102D90008CE192E00E945A1280912102D80115968E
:102DA0008C936BC1EF2831F0AF3F31F481E04F3F9E
:102DB00019F403C081E001C080E080FD03C081E020
:102DC0008C2501C080E0B82FB170FB2E80FF1DC0A4
:102DD0002091EA01B091EB012B1709F429C130E0F1
:102DE000C90166E070E00E94A31EFC01E451FE4FA1
:102DF0008181A81306C08081481303C08281C81254
:102E000004C02F5F3F4F2770E7CFDC2CCC2009F4A4
:102E100034C18091210281608093210251C06A13E4
:102E200008C0541306C0C11004C0D80115967C9385
:102E3000ABC04D87AE878D859E850E947315882314
:102E400019F1DC2CCC2001F120912102822F8295F6
:102E50008F7090E002970CF45FC080911C029091FB
:102E60001D0298878F831986FB86EA862C87CE0100
:102E7000079650C06A1731F14D87AE878D859E85C4
:102E80000E94731581112FC0C8010E945A12A5C05B
:102E9000872F807F79F77E2DF98AE88A5A2F6C2D4B
:102EA00089890E94AA158CE192E00E945A12ECE1F5
:102EB000F2E086E0DF011D928A95E9F70E94E815AD
:102EC000D12CDBC05413D8CFC110D6CFF8017583F5
:102ED000C8010E945A12ECE1F2E086E0DF011D9287
:102EE0008A95E9F7CAC0DC2CCC2071F2209121022E
:102EF000822F82958F7090E0029774F080911C026F
:102F000090911D029A8389831B82FD82EC822E831D
:102F1000CE0101960E945A1286E0F801ACE1B2E0BF
:102F200001900D928A95E1F70E94F61571C0E216A4
:102F3000F30628F0F701E21BF30B9F0104C0209574
:102F400030952E0D3F1D283C310508F052C0DC2C79
:102F5000CC2009F499CF6A132CC054132AC0809155
:102F6000210280FD1DC0982F92959F70C9F0D80155
:102F700015968C9315979F3039F09F5F9295907FAF
:102F80008F70892B15968C93C8010E945A1286E087
:102F9000F801ACE1B2E001900D928A95E1F738C0FA
:102FA00086E0F801ACE1B2E001900D928A95E1F77C
:102FB00064C04D87AE878D859E850E9473158823DA
:102FC00079F086E0F801ACE1B2E001900D928A95CB
:102FD000E1F70E94F6150E94E815DD24D3944DC058
:102FE00080912102816080932102C8010E945A12BF
:102FF00044C07E2DF98AE88A5A2F6C2D89890E9457
:10300000AA15ECE1F2E086E0DF011D928A95E9F76E
:103010000E94E81532C0CC2009F436CF4D87AE8728
:103020008D859E850E947315882309F42DCFC9CF05
:103030004D87AE878D859E850E948E1A292F2295F9
:103040002F7030E0223031052CF49F7041F0811157
:1030500006C00CC0243031052CF49F7049F4805E0A
:10306000883020F0C8010E945A12BF2CDB2C05C00A
:10307000F8019581907F99F7F9CF8D2D61960FB664
:10308000F894DEBF0FBECDBFDF91CF911F910F919E
:10309000FF90EF90DF90CF90BF900895CF93DF9394
:1030A000CDB7DEB72C970FB6F894DEBF0FBECDBFFD
:1030B0004F83588769877A878B879C87CE010796CD
:1030C0000E9463168823C1F02F8138858A859B85ED
:1030D000892B31F03F3F11F080E003C02F3FE1F733
:1030E00081E081116FC04F81588569857A858B8514
:1030F0009C850E94B91566C086E0FE013796DE0108
:10310000119601900D928A95E1F7FF81E8854A8535
:103110005B854115510531F0EF3F31F481E0FF3F10
:1031200019F403C081E001C080E080FD4BC08091B4
:10313000EB0190E09C012F5F3F4F27703327609198
:10314000EA0170E02617370709F443C0F983EA83E0
:103150005D834C8366E070E00E94A31EDC01A451F5
:10316000BE4F86E0FE01319601900D928A95E1F7FF
:103170002093EB010E94C91525C090E066E070E045
:103180000E94A31E84519E4F0E946316882379F1EA
:103190008091EA0190E066E070E00E94A31EFC01CD
:1031A000E451FE4F40815181628173818481958118
:1031B0000E94B9158091EA0190E0019687709927E5
:1031C0008093EA018091EA019091EB018913D5CFB8
:1031D0000EC00E946F151092EB011092EA01ECE113
:1031E000F2E086E0DF011D928A95E9F7EBCF2C969D
:1031F0000FB6F894DEBF0FBECDBFDF91CF9108951B
:10320000DF92EF92FF920F931F93CF93DF939C0176
:10321000009709F48AC0E12CF12CDD24D394E90154
:103220002196F9018491853709F462C058F48437F6
:1032300008F04EC0843008F069C08130D1F082308F
:1032400071F173C0883709F45CC050F4863709F413
:1032500054C0873709F069C08E2D0E94831B53C06C
:103260009CE7980F903708F060C08F770E9420127B
:103270004FC089010E5F1F4FFE01C49180E28C0F89
:10328000883048F4C7708D2D01C0880FCA95EAF7C1
:103290000E94891B15C08C2F0E94B51113C0890193
:1032A0000E5F1F4FFE01C49180E28C0F883060F4E6
:1032B000C7708D2D01C0880FCA95EAF70E948F1B39
:1032C0000E94B21BE80124C08C2F0E942012FACF6A
:1032D0002E5F3F4FFE01C491CC2341F08FE99FE068
:1032E0000197F1F700C00000C150F6CFE90110C00E
:1032F000FE01F490E90122960BC00E94731BE82E98
:1033000007C00E94861B0E94B21B02C00E94B5111A
:103310009F2D992341F0EFE9FFE03197F1F700C0CD
:1033200000009150F6CF9E017ACFDF91CF911F918F
:103330000F91FF90EF90DF900895609326027093B5
:10334000270280932802909329020E94FE1B0C946E
:10335000611560932202709323028093240290935C
:1033600025020E94FF1B0C94611508950C949D1971
:103370000F931F930091260210912702209128029B
:1033800030912902602B712B822B932B1F910F916F
:103390000C949D190F931F93009126021091270200
:1033A00020912802309129026023712382239323E4
:1033B0001F910F910C949D190F931F93009126025A
:1033C000109127022091280230912902602771274D
:1033D000822793271F910F910C949D1960E070E054
:1033E000CB010C94A91941E050E060E070E004C00A
:1033F000440F551F661F771F8A95D2F7CB01BA017C
:103400000C94A91941E050E060E070E004C0440F62
:10341000551F661F771F8A95D2F7809122029091DF
:103420002302A0912402B0912502482B592B6A2B2C
:103430007B2BCB01BA010C94A91941E050E060E06C
:1034400070E004C0440F551F661F771F8A95D2F79E
:10345000409550956095709580912202909123023D
:10346000A0912402B0912502482359236A237B238B
:10347000CB01BA010C94A91941E050E060E070E082
:1034800004C0440F551F661F771F8A95D2F780919D
:10349000220290912302A0912402B0912502482794
:1034A00059276A277B27CB01BA010C94A9190F93DE
:1034B0001F93009122021091230220912402309147
:1034C0002502602B712B822B932B1F910F910C9453
:1034D000A9190F931F9300912202109123022091AA
:1034E00024023091250260237123822393231F91AC
:1034F0000F910C94A9190F931F9300912202109120
:10350000230220912402309125026027712782270F
:1035100093271F910F910C94A9190895CF92DF92D0
:10352000EF92FF920F931F93CF93DF93EC01C09024
:103530002602D0902702E0902802F0902902809184
:10354000220290912302A0912402B0912502C82A60
:10355000D92AEA2AFB2A0FE110E0B701A601002EC2
:1035600004C076956795579547950A94D2F740FF22
:1035700007C0BE01802F0E94C71C8130910539F41D
:103580000150110950F7BE0180E00E94C71CDF9175
:10359000CF911F910F91FF90EF90DF90CF90089502
:1035A00090910B01992361F190910C01992341F1C4
:1035B000982F9695969596959F3188F4E0910D01F8
:1035C000F0910E01E90FF11D877021E030E001C09C
:1035D000220F8A95EAF78181822B81830895909149
:1035E0004D0290FF2DC01F928F9387E995E09F9326
:1035F0008F930E9437050F900F900F900F900895B2
:1036000040910D0150910E0120E030E09FEFFA0152
:10361000E20FF31F6281681799F09F3F19F461115F
:1036200001C0922F2F5F3F4F2E31310581F79F3F11
:1036300039F0FA01E90FF11D97FDFA95828308959B
:10364000089590910B01992369F190910C019923B0
:1036500049F1982F9695969596959F3190F4E09123
:103660000D01F0910E01E90FF11D877021E030E0AE
:1036700001C0220F8A95EAF72095818128232183B2
:10368000089590914D0290FF1FC01F928F9389E77C
:1036900095E09F938F930E9437050F900F900F90A6
:1036A0000F90089540910D0150910E0120E030E0FF
:1036B000FA01E20FF31F9281981301C012822F5F6B
:1036C0003F4F2E313105A1F7089581E090E0E09160
:1036D0000D01F0910E01E80FF91F10820196803262
:1036E0009105A9F7089580914C02089590914C029C
:1036F000982B90934C020895809590914C029823BA
:1037000090934C02089580934C02089510924C02BD
:10371000089590914B02982B90934B0208958095B9
:1037200090914B02982390934B02089510924B0274
:10373000089580932A02089510922A0208954091D4
:103740000D0150910E0120E030E080E0FA01E20F1F
:10375000F31F918191118F5F2F5F3F4F2F31310503
:10376000A9F70895E0910D01F0910E0180914C02AE
:103770008083E0910D01F0910E01808190914B02C8
:10378000892B808390912A02992361F0E0910D01A9
:10379000F0910E018081892B80830E949F1B8111F3
:1037A00010922A0280910D0190910E010C94D80F75
:1037B000909333018093320108958295282F2C7CB9
:1037C00026952695982F9373990F990F922B892FF1
:1037D0008A7A86959575990F892B08950895CF93C8
:1037E000DF9300D000D01F92CDB7DEB70F900F90BF
:1037F0000F900F900F90DF91CF9108950895089545
:103800000C943A1183B7817F8C6083BF83B781604A
:1038100083BF7894889583B78E7F83BF0895CF93B5
:103820000E9471110E94AC050E947211C0E08C2FA1
:103830000E949E05811105C0CF5FC032C1F780E0B4
:1038400001C081E0CF9108950E94A4050C946F15EA
:103850001F920F920FB60F9211248F939F93AF93E5
:10386000BF9380914E0290914F02A0915002B0916F
:1038700051024196A11DB11D80934E0290934F02BB
:10388000A0935002B0935102BF91AF919F918F913D
:103890000F900FBE0F901F90189582E084BD93E0AB
:1038A00095BD9AEF97BD80936E0008952FB7F89459
:1038B00080914E0290914F02A0915002B09151021E
:1038C0002FBF08952FB7F89460914E0270914F0268
:1038D00080915002909151022FBF08951F920F9234
:1038E0000FB60F9211248F939F93AF93BF93809144
:1038F0004E0290914F02A0915002B0915102019658
:10390000A11DB11D80934E0290934F02A0935002CF
:10391000B0935102BF91AF919F918F910F900FBEC5
:103920000F901F9018950E944F0DF8942FEF87EA83
:1039300091E6215080409040E1F700C0000087E010
:1039400090EBDC018093660290936702A09368027B
:10395000B09369022CE088E190E00FB6F894A89546
:10396000809360000FBE20936000FFCFE92FF0E04E
:1039700093E0EE0FFF1F9A95E1F7E80FF11DEE5768
:10398000FE4F9491892F8F7092959F700895CF93D9
:10399000C82FCB010E94B61C482F50E0292F30E0E1
:1039A00064E0220F331F6A95E1F7242B352B203872
:1039B000310519F480E090E017C0EC2FF0E023E02F
:1039C000EE0FFF1F2A95E1F79770E90FF11D34E024
:1039D000EE0FFF1F3A95E1F7E40FF51FEE0FFF1F03
:1039E000E050F84985919491CF9108950895CF932F
:1039F000C82F1F928F932BEB35E03F932F930E949C
:103A0000370561E070E080E090E004C0660F771F4A
:103A1000881F991FCA95D2F70E94B6190F900F9070
:103A20000F900F90CF910C946F15CF938732A8F51C
:103A30008E3108F028C1803109F49DC0F8F4873038
:103A400009F464C0A8F4863009F021C180914D02C8
:103A5000817F8E7F80934D0280EC95E00E949E04D2
:103A600083E998E00E949E0481E0809352024CC05A
:103A70008B30F1F18E3009F46BC009C1863109F445
:103A8000ADC020F4813109F4EAC001C1893109F4E3
:103A90008EC08B3109F449C0FAC0883349F150F423
:103AA000893209F4EEC0853309F4EBC0873209F09E
:103AB000EEC0E7C0833409F4E4C028F48A3308F484
:103AC000E6C08953E1C0883409F0E1C00E946F1557
:103AD00082E898E00E949E042FEF83ED90E321504E
:103AE00080409040E1F700C000000E94931C0CC091
:103AF0008BED95E059C089E698E00E949E04809184
:103B00004D02816080934D02C1E0C6C080914D029C
:103B1000C82FC17080FFEFCF85E798E00E949E0418
:103B200080914D02817F8E7F3AC080914D0281FB52
:103B3000CC27C0F991E0C927C0FB81F980934D02E1
:103B4000CC2319F08CE598E025C08EE498E02CC0D9
:103B500080914D0282FBCC27C0F991E0C927C0FBC0
:103B600082F980934D02CC2319F08FE398E012C0C4
:103B70008FE298E019C080914D0283FBCC27C0F9F9
:103B800091E0C927C0FB83F980934D02CC2351F00B
:103B900083E298E00E949E0480914D0281608093B0
:103BA0004D027AC086E198E00E949E04ADCF87E086
:103BB00098E00E949E0483EE97E00E949E048DE9A7
:103BC00097E00E949E0486E797E00E949E0485E3AA
:103BD00097E00E949E0489E097E0E6CF8BEF96E0A5
:103BE0000E949E040E94CC0F1F928F9381EE96E05C
:103BF0009F938F930E94370580910B011F928F93A3
:103C00008AEC96E09F938F930E9437058091C201C2
:103C10001F928F9387EB96E09F938F930E943705B7
:103C200080910C011F928F9384EA96E09F938F936B
:103C30000E9437050E94621C9F938F937F936F931E
:103C40008DE896E09F938F930E9437058DB79EB7BE
:103C500046960FB6F8949EBF0FBE8DBF55CF0E94FB
:103C60006F15C0910C0181E0C827C0930C01CC23D3
:103C700029F083E896E00E949E040EC088E796E053
:103C800093CF80E001C08D510E94F71C3DCF86E7A5
:103C900096E00E949E04C0E08C2FCF91089580E0B2
:103CA000089580E00895CF93C82F80915202882311
:103CB00019F0813059F03FC0E0910D01F0910E01F3
:103CC0008081823261F08434C1F509C0E0910D0138
:103CD000F0910E018081823211F0843449F48C2FEE
:103CE0000E944F1E811124C08C2F0E94151D21C0DF
:103CF0008C2F0E94511E81111BC0C43189F018F411
:103D0000CB3029F010C0C93259F0C83361F480ECCF
:103D100095E00E949E0487EB95E00E949E0408C0F7
:103D2000109252020CC085EB95E00E949E0407C0E1
:103D300081E0817006C01092520280E002C080E0F3
:103D4000F8CFCF9108950024552704C0080E591FBD
:103D5000880F991F009729F076956795B8F371053C
:103D6000B9F7802D952F0895991B79E004C0991F0C
:103D7000961708F0961B881F7A95C9F780950895C5
:103D8000EE0FFF1F0590F491E02D0994A0E0B0E044
:103D9000ECECFEE10C946F21FE013596619171917E
:103DA000AF0180916202909163020E94DA1EE2E00C
:103DB0000C948B21ACE0B0E0E0EEFEE10C945F21CE
:103DC0007C016B018A01FC0117821682838181FFCD
:103DD000BFC1CE0101964C01F7019381F60193FD1D
:103DE000859193FF81916F01882309F4ADC18532DC
:103DF00039F493FD859193FF81916F01853229F408
:103E0000B70190E00E94C420E7CF512C312C20E074
:103E10002032A0F48B3269F030F4803259F08332D2
:103E200069F420612EC08D3239F0803339F421607D
:103E300028C02260246025C0286023C027FD29C037
:103E400030ED380F3A3088F426FF07C0852D6AE040
:103E50000E945621582E530E14C0832D6AE00E94F2
:103E60005621382E330E20620CC08E3221F426FDEE
:103E70006BC1206406C08C3611F4206802C08836FD
:103E800041F4F60193FD859193FF81916F018111BA
:103E9000BFCF982F9F7D9554933028F40C5F1F4F10
:103EA000FFE3F9830DC0833631F0833771F083353A
:103EB00009F05BC022C0F801808189830E5F1F4F2B
:103EC00044244394512C540115C03801F2E06F0E84
:103ED000711CF801A080B18026FF03C0652D70E041
:103EE00002C06FEF7FEFC5012C870E94B9202C0123
:103EF00083012C852F77222E17C03801F2E06F0E38
:103F0000711CF801A080B18026FF03C0652D70E010
:103F100002C06FEF7FEFC5012C870E94AE202C01FD
:103F20002C852068222E830123FC1BC0832D90E06A
:103F300048165906B0F4B70180E290E00E94C42010
:103F40003A94F4CFF50127FC859127FE81915F011A
:103F5000B70190E00E94C42031103A94F1E04F1A6A
:103F600051084114510471F7E5C0843611F08936C7
:103F700039F5F80127FF07C0608171818281938143
:103F80000C5F1F4F08C060817181882777FD809585
:103F9000982F0E5F1F4F2F76B22E97FF09C0909576
:103FA0008095709561957F4F8F4F9F4F2068B22EFF
:103FB0002AE030E0A4010E94F620A82EA81844C0F0
:103FC000853729F42F7EB22E2AE030E025C0F22F6B
:103FD000F97FBF2E8F36C1F018F4883579F0B4C060
:103FE000803719F0883721F0AFC02F2F2061B22E13
:103FF000B4FE0DC08B2D8460B82E09C024FF0AC00A
:104000009F2F9660B92E06C028E030E005C020E161
:1040100030E002C020E132E0F801B7FE07C0608165
:104020007181828193810C5F1F4F06C06081718115
:1040300080E090E00E5F1F4FA4010E94F620A82EA2
:10404000A818FB2DFF77BF2EB6FE0BC02B2D2E7FA1
:10405000A51450F4B4FE0AC0B2FC08C02B2D2E7E6D
:1040600005C07A2C2B2D03C07A2C01C0752C24FF9F
:104070000DC0FE01EA0DF11D8081803311F4297E0F
:1040800009C022FF06C07394739404C0822F8678FF
:1040900009F0739423FD13C020FF06C05A2C73143B
:1040A00018F4530C5718732C731468F4B70180E29A
:1040B00090E02C870E94C42073942C85F5CF731454
:1040C00010F4371801C0312C24FF12C0B70180E36F
:1040D00090E02C870E94C4202C8522FF17C021FF6E
:1040E00003C088E590E002C088E790E0B7010CC00B
:1040F000822F867859F021FD02C080E201C08BE258
:1041000027FD8DE2B70190E00E94C420A51438F489
:10411000B70180E390E00E94C4205A94F7CFAA949C
:10412000F401EA0DF11D8081B70190E00E94C420E6
:10413000A110F5CF332009F44FCEB70180E290E013
:104140000E94C4203A94F6CFF7018681978102C07D
:104150008FEF9FEF2C96E2E10C947B21FC01059000
:10416000615070400110D8F7809590958E0F9F1F79
:104170000895FC016150704001900110D8F78095BE
:1041800090958E0F9F1F08950F931F93CF93DF93EA
:10419000182F092FEB018B8181FD03C08FEF9FEF5B
:1041A00020C082FF10C04E815F812C813D8142176B
:1041B00053077CF4E881F9819F012F5F3F4F3983DA
:1041C0002883108306C0E885F985812F0995892BFE
:1041D00029F72E813F812F5F3F4F3F832E83812F11
:1041E000902FDF91CF911F910F910895FA01AA2787
:1041F000283061F1203191F1E8946F936E7F6E5F0A
:104200007F4F8F4F9F4FAF4FB1E040D0B4E03ED0D3
:10421000670F781F891F9A1FA11D680F791F8A1FBA
:10422000911DA11D6A0F711D811D911DA11D22D01F
:1042300009F468943F91062E000C3019000C000C14
:104240003019305D3193CEF6CF010895462F477077
:10425000405D4193B3E00FD0C9F7F6CF462F4F70C2
:10426000405D4A3318F0495D31FD4052419302D020
:10427000A9F7EACFB4E0A6959795879577956795C6
:10428000BA95C9F700976105710508959B01AC01C6
:104290000A2E06945795479537952795BA95C9F7ED
:1042A000620F731F841F951FA01D0895002480FDB9
:1042B000060E660F11F08695D1F7802D08952F9286
:1042C0003F924F925F926F927F928F929F92AF92A6
:1042D000BF92CF92DF92EF92FF920F931F93CF93F3
:1042E000DF93CDB7DEB7CA1BDB0B0FB6F894DEBF8A
:1042F0000FBECDBF09942A88398848885F846E84B0
:104300007D848C849B84AA84B984C884DF80EE80F9
:10431000FD800C811B81AA81B981CE0FD11D0FB602
:10432000F894DEBF0FBECDBFED010895F894FFCF26
:1043300001AE087D09B1084A09160901012B024F97
:104340004B004E47004241542025730A004036225C
:1043500039E104AB0489045004DC03F5030E042E98
:02436000040057
:106800008800EA44E944E244040033001900070028
:106810000D0009000A00340018000E0011000800E5
:106820000B0064000C001200140015001600170085
:106830001C0005001A0006002F001B001E001F0090
:1068400020002100220023002E0024002500260025
:10685000280029002A002BA22C0027003800130052
:106860002D00310032000F003000350010003600DE
:106870003700F1A33A003B003C003D003E003F00E2
:106880004000410042004300440045004600E30050
:10689000028A49004A004B004C004D004E004F0058
:1068A000500051005200530054005500560057004C
:1068B000580059005A005B005C005D005E005F00FC
:1068C00060006100620063001D00650085006700D4
:1068D000680069006A006B006C006D006E006F005C
:1068E0007000710072007300890087008A008B00BD
:1068F000E000E100E200E300E400E500E600E7007C
:106900008800EA44E944E244040033001900070027
:10691000080009000A00340018000B000D000E00EA
:10692000110064000C00120014001500160017007E
:106930001C0005001A0006002F001B001E001F008F
:1069400020002100220023002E0024002500260024
:10695000280029002A002BA22C0027003800130051
:106960002D00310032000F003000350010003600DD
:106970003700F1A33A003B003C003D003E003F00E1
:106980004000410042004300440045004600E3004F
:10699000028A49004A004B004C004D004E004F0057
:1069A000500051005200530054005500560057004B
:1069B000580059005A005B005C005D005E005F00FB
:1069C00060006100620063001D00650085006700D3
:1069D000680069006A006B006C006D006E006F005B
:1069E0007000710072007300890087008A008B00BC
:1069F000E000E100E200E300E400E500E600E7007B
:106A00008800EA44E944E2445000010019014F00C3
:106A10004D002A00530026025C004E0059005A0027
:106A2000370236005D005E004A004C00510029002C
:106A30004B00F4505200060125021B011E021F02EA
:106A4000200221022202230201005F006000610097
:106A5000280039002A002BA20100550056005700DB
:106A60005400310032005B00580001C06200620037
:106A70006300F1A2CD44B444B344CC4427460000A3
:106A80000000824026468A45944592454600E30030
:106A9000028A49004A004B004C004D004E004F0056
:106AA000500051005200530054005500560057004A
:106AB000580059005A005B005C005D005E005F00FA
:106AC00060006100620063001D01650085006700D1
:106AD000680069006A006B006C006D006E006F005A
:106AE0007000710072007300890087008A008B00BB
:106AF000E000E100E200E300E400E500E600E7007A
:106B00008800EA44E944E244E200FB501901E10054
:106B10002446E000F15049004A004E005000510068
:106B2000F5502A4652004D0029002546FA50F050F3
:106B30004B00F450F950060129001B013A003B00BC
:106B40003C003D003E003F00450040004100420047
:106B50004600390048002B002800430044004C0048
:106B6000FC50650065004F002A0000C0F650F2504E
:106B7000F350F1A3CD44B644B544B744E244EA44EB
:106B8000E944834523462146944592454600E30067
:106B9000028A49004A004B004C004D004E004F0055
:106BA0005000510052005300540055005600570049
:106BB000580059005A005B005C005D005E005F00F9
:106BC00060006100620063001D01650085006700D0
:106BD000680069006A006B006C006D006E006F0059
:106BE0007000710072007300890087008A008B00BA
:106BF000E000E100E200E300E400E500E600E70079
:00000001FF
