:100000000C9417020C9466020C9466020C9466021F
:100010000C9466020C9466020C9466020C946602C0
:100020000C9466020C9466020C944F1D0C94211ED5
:100030000C94602B0C9466020C9466020C9466027D
:100040000C9466020C9466020C9466020C94660290
:100050000C9466020C94620A0C9466020C9466027C
:100060000C9466020C9466020C9466020C94660270
:100070000C9466020C9466020C9466020C94660260
:100080000C9466020C9466020C9466020C94660250
:100090000C9466020C9466020C9466020C94660240
:1000A0000C9466020C9466020C946602861EA81ECE
:1000B000931FA81E931FEA1E0D1F931F621F751F1B
:1000C000D721D7210522052261229D22A024A02428
:1000D000B522A024AC23AC237A24A024A0248E240F
:1000E0007500012C022C01E10133023302E1012DE4
:1000F000022D01E10127022702E1012802280075F3
:1001000000012802280128022801E1011002100242
:10011000E101190219010B020B0136023601280216
:100120002801E201620262015A025A015902590190
:100130005E025E02E2011C021C0116021601170299
:100140001701080208010C020C011102110128021A
:10015000280128022801E1010C020C010E020E0107
:100160000E020E01080208012C022C0116021601D3
:100170000802080111021101160216010C020C01FD
:10018000170217010C020C011902190117021702BC
:10019000E101280228015202520152025201520288
:1001A00052014D024D01E1014A024A02E100808004
:1001B00080800405060708090A0B0C0D0E0F1011AC
:1001C00012131415161718191A1B1C1D1E1F202197
:1001D00022232425262728292A2B2C2D2E2F303187
:1001E00032333435363738393A3B3C3D3E3F404177
:1001F00042434445464748494A4B4C4D4E4F505167
:1002000052535455565758595A5B5C5D5E5F606156
:1002100062636465666768696A6B6C6D6E6F707146
:100220007273808080808080808080808003020163
:100230008080808080750074767780808080808068
:1002400080808080808080808080808080808080AE
:10025000808080808080808080808080808080809E
:10026000808080808080808080808080808080808E
:10027000808080808080808080808080808080807E
:10028000808080808080808080808080808078797D
:100290007A7B7C7D7E7F8080808080808080808073
:1002A00080808080808080808080808080803C030F
:1002B000550053004200200074006F0020005500DC
:1002C0005300420020006B006500790062006F005F
:1002D000610072006400200063006F006E00760011
:1002E0006500720074006500720000000E03740067
:1002F0002E006D002E006B002E0000000403090488
:1003000009025400030100A03209040000010301A6
:1003100001000921110100012240000705810308A5
:10032000000A090401000103010200092111010072
:1003300001224D000705820308000A09040200019A
:100340000300000009211101000122360007058386
:100350000308000A1201100100000008EDFE5B0016
:1003600014080102000105010980A101850216811E
:100370000026B7001A81002AB70075109501810088
:10038000C0050C0901A1018503160100269C021A73
:1003900001002A9C02751095018100C00501090227
:1003A000A1010901A100050919012905150025016F
:1003B00095057501810295017503810105010930DB
:1003C00009311581257F9502750881060938158147
:1003D000257F950175088106050C0A3802158125CF
:1003E0007F950175088106C0C005010906A10105B8
:1003F0000719E029E7150025019508750181029587
:1004000001750881010508190129059505750191F6
:10041000029501750391010507190029FF150026B2
:10042000FF00950675088100C0002009B10911245C
:100430001FBECFEFDAE0DEBFCDBF04B603FE24C09F
:100440008091A0049091A104A091A204B091A30472
:100450008730904BA740B04BB9F41092A004109293
:10046000A1041092A2041092A30414BE84B7877F43
:1004700084BF88E10FB6F89480936000109260000A
:100480000FBEE0E0F8E3099511E0A0E0B1E0EAEC8E
:10049000FEE502C005900D92A23BB107D9F714E02A
:1004A000A2EBB1E001C01D92A03AB107E1F714E060
:1004B000CEE2D4E004C02297FE010E944B2FCA3244
:1004C000D107C9F70E945B090C94632F0C940000BC
:1004D000CF92DF92FF920F931F93CF93DF931F92E0
:1004E000CDB7DEB76C01142F69830E94E32AF82E82
:1004F0006981662321F0613009F441C06DC0F601C5
:100500008281882309F468C0F6FE2FC00E94F62A73
:1005100080E40E94F32A0E94222B21E030E08F2DFC
:10052000827211F420E030E085E0829F6001839FB9
:10053000D00C1124FAE01F9FC00CD11C1124C6015D
:100540008D5E9E4F6C0100E010E0F601E00FF11FA0
:1005500081810E9479210F5F1F4F04301105A9F797
:100560008F2D8F7B0E94F32A2DC09AE0199FF001F6
:100570001124ED5EFE4F80810E94792123C0F60197
:1005800082818823A9F08F2D8073803231F08033EF
:1005900019F1803109F182E001C083E00F90DF9111
:1005A000CF911F910F91FF90DF90CF900C949129E4
:1005B00061E070E080E090E00E94F8290E94F62A55
:1005C0000E94062B0F90DF91CF911F910F91FF900A
:1005D000DF90CF900C94222B0F90DF91CF911F9141
:1005E0000F91FF90DF90CF900895662319F061304E
:1005F00041F00EC0FC018281882351F08FEF90E022
:100600000895FC018281882319F080EE90E008951E
:1006100080E090E0089580E00895089580E00895D6
:1006200081E00895CF93DF93CDB7DEB728970FB65B
:10063000F894DEBF0FBECDBFE22F29833A834B83F0
:100640005C836D837E838F8398878091EA02E82B99
:10065000E093EA02FE0133969E01275F3F4F4191EE
:10066000443088F0ACEEB2E080E090E05D91511152
:1006700006C0DC01A651BD4F12964C9304C00196F2
:100680008630910599F7E217F30749F728960FB6D8
:10069000F894DEBF0FBECDBFDF91CF910895860FD6
:1006A000911D860F911DFC015687458781E00895B5
:1006B000CF93DF93EC018C819D81DC01ED91FC9166
:1006C0000480F581E02D6E8109951F86188A81E0EE
:1006D0008A8B1E821B8A1C8A1D8A1E8A1F8A80E0C2
:1006E000DF91CF910895FC018681089581E0633008
:1006F00009F080E0089581E0613009F080E008951C
:10070000860F911D860F911DFC01858596850895A4
:10071000FC0187890895EF92FF92CF93DF93FC014C
:10072000E7012289223029F16787408B8B81837012
:100730008330F9F48A8187FF1CC08E81908D9817D1
:1007400008F4808F822F90E0DC01AA0FBB1FA80F56
:10075000B91FAE0FBF1F8A818F7017968C931797A2
:100760008C8118968C93189784E019968C932F5F40
:10077000228BDF91CF91FF90EF900895EF92FF923F
:100780000F9302970E948B030F91FF90EF900895B3
:1007900008952F923F924F925F926F927F928F9225
:1007A0009F92AF92BF92CF92DF92EF92FF920F9300
:1007B0001F93CF93DF9300D000D0CDB7DEB76C018D
:1007C0007C836B835A8349834C0180E1880E911CA2
:1007D0005601A7E0AA0EB11C11E044E0442E57E0F8
:1007E000352E3601B2E16B0E711C63E0262E72E0ED
:1007F000572E8B819C81892B09F412C1F60180A1AF
:10080000823061F128F4882349F0813079F0F1CF0A
:10081000833041F1843009F44BC0EBCF54828581A1
:100820009681908787835286518610A3AE014D5FD3
:100830005F4FBE016F5F7F4FC5010E94E3188823A1
:1008400009F4EEC0D6011596ED91FC9116978081C2
:1008500091968C939197818192968C93F6017682F2
:10086000658220A2D60192968C91843081F018F492
:10087000823079F014C0853081F0813281F4D60164
:1008800091968C919197825014968C9308C0F601A2
:1008900013A2D60114963C9202C0F6018483F6019D
:1008A000858196819087878384818287818740A212
:1008B000D60192968C918430B1F0853009F442C013
:1008C000823009F06EC0AE014D5F5F4FBE016F5FB9
:1008D0007F4FC5010E94E318882309F4A1C0F601E7
:1008E000858984A38EC0AE014D5F5F4FBE016F5FEF
:1008F0007F4FC5010E94E318882309F491C0D601F7
:1009000055968C915597833009F07BC056968C9103
:100910005697813009F075C098969C919897579694
:100920008C91992321F0882309F46BC003C0813096
:1009300009F067C0F60113A3928996A3938997A340
:1009400085A35FC0AE014D5F5F4FBE016F5F7F4FFC
:10095000C5010E94E318882309F462C0D60193966A
:100960008C919397882309F44CC012968D919C9199
:100970001397009709F445C0DC01ED91FC910190BB
:10098000F081E02D7401D60195960C91959797967C
:100990002C91979796964C91969794966C91099571
:1009A00030C0F60181A19585992319F0913031F07D
:1009B00023C090E002979787868715872B813C811B
:1009C00089819A81782F692FD6011E964D915C916D
:1009D0001F9741155105E9F001962115310541F0A8
:1009E00041505109F6015787468721503109EACF16
:1009F00079836A831C821B82F60186859785892B01
:100A000079F4D60116969C928E92159790961C9228
:100A1000F0CE9A8389833C832B83F6011586ECCF35
:100A20000F900F900F900F90DF91CF911F910F912A
:100A3000FF90EF90DF90CF90BF90AF909F908F90FE
:100A40007F906F905F904F903F902F900895DF922E
:100A5000EF92FF920F931F93CF93DF93CDB7DEB743
:100A600062970FB6F894DEBF0FBECDBF7C01DC01EC
:100A700057968C91882369F00E94C809F701038971
:100A8000148925893689601B710B820B930B97FFA4
:100A900002C0D12C38C0F701838590E09A8B898BF6
:100AA0008E010F5F1F4F9E012F5E3F4F4285668173
:100AB000848195810E945811D82E811118C02989EE
:100AC0003A892330310598F0D7011D968D919C917C
:100AD0001E97009761F0DC01ED91FC910190F0818F
:100AE000E02D8E010F5F1F4F40E0B70109950E9476
:100AF000C809F701208D620F711D811D911D638B47
:100B0000748B858B968B8D2D62960FB6F894DEBF15
:100B10000FBECDBFDF91CF911F910F91FF90EF904E
:100B2000DF9008953F924F925F926F927F928F92E3
:100B30009F92AF92BF92CF92DF92EF92FF920F936C
:100B40001F93CF93DF93CDB7DEB7EC970FB6F89432
:100B5000DEBF0FBECDBF5C01462E342E522EDC010F
:100B60001496CD90DC90159716968C91169781115E
:100B700039C158961C92D601ED91FC910190F081FB
:100B8000E02D60E0C60109957C01009711F486ED27
:100B90002EC1FC01808091808114910409F424C14C
:100BA0003501F7E06F0E711CDC0111967C926E929C
:100BB00014965C928E01065D1F4F28E030E040E005
:100BC00060E0F501848195810E9457108CAF8111FE
:100BD000FCC01AA5D7018D929C92D601ED91FC9193
:100BE0000280F381E02D232D40E0642DC60109959C
:100BF000F5018683882309F4F9C099A99087282FE5
:100C000040E060E0848195810E9404118CAFD601A0
:100C1000ED91FC91D70114961C92882359F0048021
:100C2000F581E02DD50116966C91C6010995F50167
:100C30001682D6C00190F081E02DD50116966C91F8
:100C4000C6010995009709F4A2CF133108F012E10B
:100C5000FC015482112389F0212F30E08E01065DC2
:100C60001F4F40E0D50116966C91169714968D9102
:100C70009C9115970E9457108CAF8CAD8111A8C024
:100C80004BAC512CAFE3CA2EA1E0DA2E4501B2E005
:100C90008B0E911C7E01E1E1EE0EF11C541449F122
:100CA000DA82C9829C828B821E86188A1F8619A2CC
:100CB0001AA21BA219A6FF82EE82F986E8868D8110
:100CC0008B878A87FD86EC868E010F5F1F4F252D4F
:100CD00040E0D50116966C91169714968D919C91D3
:100CE00015970E94A510F5018289823011F0539466
:100CF000D5CFD50152968C91823019F081ED8CAF11
:100D000067C0930142E0F5016681848195810E946C
:100D1000CE0B8CAF68EE73E080E090E00E94CA09D1
:100D2000D5011F962C911F9740E016966C9116974F
:100D300014968D919C9115970E9433118CAF81115F
:100D400047C068EE73E080E090E00E94CA0940E08E
:100D500060E0C5010E94E4148CAF811139C020E02D
:100D600040E060E0C5010E94BA148CAF85E491E0D8
:100D70009A838983AE014F5F5F4F60E070E0C501E9
:100D80000E94491480E28CAF8CAD8823C1F090E0C2
:100D9000959587958CAFFE01FC966F01EE24E39448
:100DA000F12C00E022E040E060E0C5010E948C14DC
:100DB00069E170E080E090E00E94CA09E5CF81E03F
:100DC000D50157968C9380E012C0F7019182808202
:100DD000D501ED91FC910480F581E02DC5010995C7
:100DE0008CAD05C089ED03C087ED01C084EDEC96A4
:100DF0000FB6F894DEBF0FBECDBFDF91CF911F912C
:100E00000F91FF90EF90DF90CF90BF90AF909F90A9
:100E10008F907F906F905F904F903F900895CF9309
:100E2000DF936091EA017091EB01E091B901F091DB
:100E3000BA014091DE015091DF012091D201309141
:100E4000D3018091C6019091C7016E177F07B1F45D
:100E5000E091B701F091B8014E175F0779F4E09186
:100E6000B501F091B6012E173F0741F4E091B301AF
:100E7000F091B4018E179F0709F463C07093BA0113
:100E80006093B9015093B8014093B7013093B60114
:100E90002093B5019093B4018093B301EAEEF2E0A0
:100EA00088E0DF011D928A95E9F72091E2013091F7
:100EB000E3014091E4015091E5016091E6017091F8
:100EC000E7018091E8019091E9010E9412032091CD
:100ED000D6013091D7014091D8015091D90160914C
:100EE000DA017091DB018091DC019091DD010E94BB
:100EF00012032091CA013091CB014091CC01509155
:100F0000CD016091CE017091CF018091D00190917F
:100F1000D1010E9412032091BE013091BF01409186
:100F2000C0015091C1016091C2017091C3018091D3
:100F3000C4019091C5010E94120381E08093E902EF
:100F400002C01092E9020E94210AEC0182E792E0BD
:100F50000E945013CE010E94390AC091B20182E76B
:100F600092E00E94B90AC81761F082E792E00E94FD
:100F7000B90A8093B201803921F40E94B11F0E9406
:100F8000A82081E0DF91CF910895282F30E0C9019A
:100F9000B4E0880F991FBA95E1F7805E9109089730
:100FA00030F48091EA02882311F090E002C080E0E2
:100FB00090E0ECEEF2E041E050E06191643080F0CE
:100FC000A62FA295AF70B0E02A173B0749F46F70C7
:100FD000DA0102C0AA0FBB1F6A95E2F78A2B9B2B8E
:100FE000B2E0E23FFB0749F708950895CF92DF9200
:100FF000EF92FF920F93CF93DF931F92CDB7DEB79F
:101000008983CE0101966C01EE24E394F12C00E07B
:1010100022E040E060E087E392E00E948C1422E04E
:1010200040E060E08EE192E00E948C1422E040E01B
:1010300060E085E092E00E948C1422E040E060E0F5
:101040008CEE91E00E948C140F90DF91CF910F9164
:10105000FF90EF90DF90CF900895CF93DF93FC0146
:10106000758364838BE491E09183808389E691E0CA
:1010700093838283138A148A158A168A178A1782A1
:1010800088E080878CE381871286138684E08487DA
:1010900081E0828B118A1786168615866115710587
:1010A000B9F0CB01A0E0B0E0EC01CA5ADF4F2881D3
:1010B0003981232B41F49B96AA0FBB1FA60FB71FA4
:1010C000ED93FC9305C011960296A031B10561F72E
:1010D000DF91CF9108952E9A08952E988EBD0DB46C
:1010E00007FEFDCF1EBC0DB407FEFDCF0E946B08AE
:1010F0008EB508952E9882608EBD0DB407FEFDCF8B
:101100006EBD0DB407FEFDCF0C946B0888EF0E94F6
:101110006D08807C8034A1F018F4882301F10895D3
:10112000803819F0803CB9F0089588ED0E946D0870
:1011300081FD0BC069EC88ED0E947A0882E00CC04A
:1011400088ED0E946D0881FDF5CF6BEC88ED0E9463
:101150007A0883E001C081E08093BB01089561EDCE
:1011600088ED0E947A081092BB0108950F931F9397
:10117000CF93DF938C01269A0E946B08219A229AC2
:101180002398209A80E58CBD81E08DBD259868E18B
:1011900088E80E947A0860E288E70E947A0860E0A6
:1011A00088E70E947A08C0E0D0E088E60E946D08D7
:1011B000219680FD06C0CF3F8FEFD807B1F78FEFA4
:1011C0001DC061EC88ED0E947A0860E680ED0E9407
:1011D0007A0864E088EE0E947A0888EE0E946D0822
:1011E00082FFFBCFC8010E94860860E288EC0E9463
:1011F0007A0861E080E80E947A0880E0DF91CF9170
:101200001F910F91089582E792E00E94B60880EE48
:1012100091E0909345028093440284ED91E0909395
:101220002C0280932B0288EC91E090931302809320
:1012300012028CEB91E09093FA018093F9010895EA
:1012400082E792E00E94870A62E772E081E692E01C
:101250000E94721762E772E080E592E00E947217C6
:1012600062E772E087E392E00E942D0862E772E095
:101270008EE192E00E942D0862E772E085E092E044
:101280000E942D0862E772E08CEE91E00E942D082A
:101290008FE691E09093E1018093E0019093D50176
:1012A0008093D4019093C9018093C8019093BD01AC
:1012B0008093BC010895569A5E9A8091880481605B
:1012C00084608093880480E091E00E94AC1F0E94BB
:1012D000FF1F84B7877F84BF88E10FB6F89480939F
:1012E0006000109260000FBE90E080E80FB6F894A6
:1012F00080936100909361000FBE0E94D41C0E94F5
:10130000311D8091E20084608093E20078940E9415
:101310000320FDCF0F931F93CF93DF93EC01DC01EC
:10132000129688E0F80101900D928A95E1F70E94EB
:10133000C8097B876A87DF91CF911F910F9108952C
:10134000089580E090E008958FEF9FEF08958FEF6C
:101350009FEF08950895862F0E94CF1A81E090E0B4
:1013600008951092F5021092F40288EE93E0A0E046
:10137000B0E08093F6029093F702A093F802B09346
:10138000F90285E791E09093F3028093F2020895C9
:101390000C942D0A8F929F92AF92BF92CF92DF92C0
:1013A000EF92FF920E941C2E4B015C0120E030E086
:1013B0004AE755E40E94D22E6B017C0120E030E028
:1013C00040E85FE30E94E72D87FD24C020E03FEF67
:1013D0004FE757E4C701B6010E94CE2E1816ACF4B1
:1013E00020E030E040E251E4C501B4010E94D22E79
:1013F0000E94F02D20E931E06115710581F0C901ED
:101400000197F1F761507109F7CFC701B6010E944A
:10141000F02D02C061E070E0CB010197F1F7FF9081
:10142000EF90DF90CF90BF90AF909F908F900895F6
:1014300082E084BD93E095BD9AEF97BD80936E00E6
:1014400008952FB7F8948091000390910103A09123
:101450000203B09103032FBF08952FB7F894609152
:1014600000037091010380910203909103032FBF49
:101470000895CF92DF92EF92FF920F931F932FB7B1
:10148000F894409100035091010360910203709120
:1014900003032FBF6A017B01EE24FF248C0120E0AF
:1014A00030E0C016D106E206F30610F441505109AF
:1014B000481B590BCA011F910F91FF90EF90DF90CD
:1014C000CF9008951F920F920FB60F9211248F9311
:1014D0009F93AF93BF938091000390910103A091DC
:1014E0000203B09103030196A11DB11D8093000377
:1014F00090930103A0930203B0930303BF91AF91B4
:101500009F918F910F900FBE0F901F901895FC0127
:1015100087E891E0918380831582108681E081873E
:1015200012869F012E5F3F4F37832683128288E009
:1015300083838CE3848380E090E041E0DF01A80FA7
:10154000B91F1D961C921D971E964C931E971F96B1
:101550001C921F971C963C932E931B9705968B34D9
:10156000910561F7EA58FF4F108281E180930803EB
:101570000895809108030895CF92DF92EF92FF9231
:101580000F931F93CF93DF931F92CDB7DEB77C01EC
:101590006623B1F18C01C12CD12CF801EA5AFF4F1E
:1015A00080819181009719F1DC01ED91FC9100841B
:1015B000F185E02D698309956981861318C0F601CC
:1015C000BB96EE0FFF1FEE0DFF1D80819181DC01A8
:1015D000ED91FC910480F581E02D0F90DF91CF918A
:1015E0001F910F91FF90EF90DF90CF900994BFEF84
:1015F000CB1ADB0A0E5F1F4FE0E1CE16D10469F66D
:1016000080E00F90DF91CF911F910F91FF90EF90AD
:10161000DF90CF90089520E030E041E0FC01E20F40
:10162000F31F5585561739F04F5F2B5F3F4F403101
:10163000A9F780E00895842F0895EF92FF921F93F9
:10164000CF93DF9300D0CDB7DEB77C01162F67FDB7
:101650005FC0283008F05CC0442331F0DC011596EF
:101660008C91873009F454C060E0C7012A83498314
:101670000E940B0B2A814981882309F449C0E82F75
:10168000F0E0111123C085E08E9FD0018F9FB00D37
:101690001124AE0DBF1D442359F081E418968C939C
:1016A000D70115968C9115978F5F15968C9303C073
:1016B00081E018968C9385E08E9FD0018F9FB00DAE
:1016C0001124AE0DBF1D18968C9123C0612F677039
:1016D000660F660F660F442361F06064D7011596AC
:1016E0008C9115978F5F15968C938770687F682B08
:1016F00003C02770687B622B85E08E9FD0018F9F8F
:10170000B00D1124AE0DBF1D18966C93862F01C02D
:1017100080E00F900F90DF91CF911F91FF90EF909D
:101720000895CF93DF93EC01611102C006960FC0BC
:101730000E940B0B882349F09E0145E0849F200DF9
:10174000311D1124C901069602C080E090E0DF91AE
:10175000CF910895CF93DF931F92CDB7DEB7498322
:101760000E94910B4981009789F0DC01ED91FC9179
:101770001197309759F013969C9180E0891731F0BA
:101780002081241731F033968F5FF8CF80E090E00E
:1017900001C0CF010F90DF91CF910895EF92FF929A
:1017A0001F93CF93DF931F92CDB7DEB7162F79012A
:1017B0002115310569F049830E94910BFC01498193
:1017C000009741F01283F182E082438380E003C0FE
:1017D00088ED01C086ED0F90DF91CF911F91FF90B2
:1017E000EF9008952E980895CF93DF931F92CDB771
:1017F000DEB789830E94F20B89818EBD0DB407FE8E
:10180000FDCF1EBC0DB407FEFDCF0E946B088EB548
:101810000F90DF91CF910895CF93DF9300D0CDB794
:10182000DEB76A8389830E94F20B898182608EBD54
:101830006A810DB407FEFDCF6EBD0DB407FEFDCF6E
:101840000F900F90DF91CF910C946B088F929F9225
:10185000BF92CF92DF92EF92FF920F931F93CF939D
:10186000DF931F92CDB7DEB74C01B62E69014983D5
:101870000E94910B7C014981009709F443C0FC014F
:1018800080819181892B09F43FC06B2DC4010E9496
:10189000AA0BF601918380830097C1F1FC0122819C
:1018A00026952695822F90E0409764F441E050E021
:1018B00060E070E004C0440F551F661F771F2A9533
:1018C000D2F702C040E050E841505109F80151837D
:1018D00040836B2D80EE0E940C0C88ED0E94F40B6F
:1018E000F7019481992339F0F401EA58FF4F6081A0
:1018F0006260682B02C0682F697F88ED0E940C0C23
:1019000080E005C086ED03C087ED01C08BED0F9030
:10191000DF91CF911F910F91FF90EF90DF90CF90CB
:10192000BF909F908F9008958F929F92AF92BF9299
:10193000CF92DF92EF92FF920F931F93CF93DF939B
:101940001F92CDB7DEB7A62E890149830E94C80930
:101950006B017C0188E8C80E83E1D81EE11CF11CF4
:10196000812C912CB12C20E04981A42A29830E944A
:10197000C8096C197D098E099F09298197FF2DC01F
:101980006A2D80EF0E940C0C0E94C8096C197D0919
:101990008E099F0997FF09C088EC0E94F40B87FF0E
:1019A000F3CF60E888EC0E940C0C88EF0E94F40BE7
:1019B000282F2F70243019F02E3059F00EC0EFEF81
:1019C0008E1A9E0A0115110589F28016910671F68C
:1019D00004C0B394F3E0BF12C9CF822F0F90DF9100
:1019E000CF911F910F91FF90EF90DF90CF90BF901C
:1019F000AF909F908F9008959F92AF92BF92CF9299
:101A0000DF92EF92FF920F931F93CF93DF937C01AE
:101A1000B42E122FAA24A394DC01A60FB11DA60F89
:101A2000B11D6D0186E5C80ED11CC42FD0E0AB9668
:101A3000CC0FDD1FCE0DDF1DD6018D919C91DC01F9
:101A4000ED91FC910280F381E02D202F412F6B2D31
:101A50000995803EC1F4B1100BC061E088EE0E9490
:101A60000C0C66E670E080E090E00E94CA0915C0A8
:101A700088819981DC01ED91FC910284F385E02D50
:101A8000612F09950AC08D3031F48FEF8A0D8330B4
:101A900008F042C017C0811142C0F60180819181D7
:101AA000DC01ED91FC910190F081E02D202F412F80
:101AB0006B2D0995982EBDE08B130CC08FEF8A0D0E
:101AC000833050F464E670E080E090E00E94CA0940
:101AD000A394B2CF882311F1B1100BC061E088EE5E
:101AE0000E940C0C66E670E080E090E00E94CA095B
:101AF00011C0EB2DF0E0BB96EE0FFF1FEE0DFF1DAA
:101B000080819181DC01ED91FC910284F385E02DCF
:101B1000612F0995892D03C08DE001C080E0DF9120
:101B2000CF911F910F91FF90EF90DF90CF90BF90DA
:101B3000AF909F9008950F931F93CF93DF9300D0A2
:101B4000CDB7DEB78A016A8389830E94F20B89814F
:101B500082608EBDF8016A81862F882339F00DB42A
:101B600007FEFDCF91919EBD8150F7CF060F111D4D
:101B70000DB407FEFDCF0E946B08C8010F900F90B7
:101B8000DF91CF911F910F9108952F923F924F9225
:101B90005F926F927F928F929F92AF92BF92CF92FD
:101BA000DF92EF92FF920F931F93CF93DF9300D0BA
:101BB00000D01F92CDB7DEB77D836C835A016901D7
:101BC000FB0121808FEF820D803408F06FC00E94EE
:101BD000C8092B013C01F8E84F0EF3E15F1E611CC0
:101BE000711CEC81FD81828180FF02C060E801C030
:101BF00060E488EE0E940C0C20E0312CC114D1046A
:101C000009F444C076012C143D0408F47101EA8201
:101C1000A8016E2D80E10E949B0D6E2D88E30E942D
:101C20000C0CEC81FD816081606280EF0E940C0CE5
:101C300088EC0E94F40B87FFFBCF60E888EC0E94E1
:101C40000C0C88EF0E94F40B282F2F70812C912C04
:101C50001982222309F46BC02B830E94C8096419DE
:101C60007509860997092B8197FF61C0263001F11C
:101C70002E3009F456C0243049F4FFEF8F1A9F0A22
:101C8000A114B10459F18A149B0441F588EF2B8308
:101C90000E94F40B85FB882780F9EC81FD819281FD
:101CA00080FB90F992832B81822F46C08AED44C03D
:101CB00088EF0E94F40B85FB882780F991E0892743
:101CC000EC81FD81928180FB90F9928390FF02C0AC
:101CD00060E801C060E488EE0E940C0C60E088E3DC
:101CE0000E940C0CF801608180E10E940C0C6A815A
:101CF00088E30E940C0CEC81FD816081606280EFC2
:101D00000E940C0C88EC0E94F40B87FFFBCF60E86C
:101D100088EC0E940C0C88EF0E94F40B282F2F7087
:101D200098CF89818F5F89838330C1F6AFCFCE187A
:101D3000DF080E0D1F1D62CF0F900F900F900F90B8
:101D40000F90DF91CF911F910F91FF90EF90DF9057
:101D5000CF90BF90AF909F908F907F906F905F904B
:101D60004F903F902F9008952F923F924F925F9205
:101D70006F927F928F929F92AF92BF92CF92DF929B
:101D8000EF92FF920F931F93CF93DF9300D000D079
:101D9000CDB7DEB75C017C836B834A017901F90121
:101DA000C080D180FB014180F90111821082FB01CA
:101DB000828181FF02C060E201C060E188EE0E9482
:101DC0000C0C3C2C9401EB81FC81408160E0C5014E
:101DD0000E94940C582EF6E08F1316C088EF0E94D4
:101DE000F40B8295817091E08927EB81FC819281CF
:101DF00080FB91F9928391FF02C060E201C060E133
:101E000088EE0E940C0CDECF81115AC088EC0E9433
:101E1000F40B82FF53C080E30E94F40B282E282F7E
:101E200030E0C216D30608F4232CF701208131815B
:101E3000622C712CA601421B530B57FF02C040E0DD
:101E400050E09301461557050CF49A0129833A8313
:101E50000E94F20BF8E0FEBD3A8129810DB407FE25
:101E6000FDCFF801822F800F8E1739F01EBC0DB404
:101E700007FEFDCF4EB54193F7CF020F131F0E940F
:101E80006B0864E088EC0E940C0CF7012081318122
:101E9000260D371D31832083241420F02C153D0599
:101EA00008F490CF88EF0E94F40B82958170EB814B
:101EB000FC81928180FB91F9928302C030EF532E16
:101EC000852D0F900F900F900F90DF91CF911F9164
:101ED0000F91FF90EF90DF90CF90BF90AF909F90C9
:101EE0008F907F906F905F904F903F902F900895CC
:101EF0002F923F924F925F926F927F928F929F921A
:101F0000AF92BF92CF92DF92EF92FF920F931F9307
:101F1000CF93DF93CDB7DEB762970FB6F894DEBFED
:101F20000FBECDBF3C01542ED22E402E5E2D2FA0D1
:101F300038A4E9A4FAA4188A1F861E861D868E017D
:101F4000035F1F4F9E01215F3F4F598B0E94260C5C
:101F50005989811193C0D9824A825B83CC82BE8227
:101F6000AD8298868F82AE014F5F5F4F68E080E25E
:101F70000E949B0D2D853E85452D60E1C3010E9489
:101F8000940C182F811179C0BD2CBB1CBB24BB1C29
:101F9000E114F10409F465C0EF85F8898281BB2062
:101FA00009F452C0826082836401AA24A394C114FC
:101FB000D10409F454C03C862B864D855E856F851F
:101FC000788987019E01255F3F4FC3010E94B40EAF
:101FD000182F8630B1F42F85388988EF298B3A8BFA
:101FE0000E94F40B85FB882780F98A2529893A8984
:101FF000D90112969C91129780FB91F912969C93AD
:10200000D6CF81113AC0EBA5FCA53097A1F0019085
:10201000F081E02D0190F081E02DC4018C199D0923
:102020009A8789876B857C859E01275F3F4FA70133
:102030008BA59CA509958B859C85C81AD90A821504
:10204000930508F0B4CF0DC0816082834D855E8515
:1020500087019101BF01C3010E94C50D182F111105
:102060000CC02D853E85BB2011F060EA01C060E800
:10207000452DC3010E94940C01C0812F62960FB6BA
:10208000F894DEBF0FBECDBFDF91CF911F910F91AE
:10209000FF90EF90DF90CF90BF90AF909F908F9088
:1020A0007F906F905F904F903F902F9008958F9208
:1020B0009F92AF92BF92CF92EF920F931F931F9276
:1020C0001F921F930F933F932F934901A12CB12C83
:1020D000CC24C394E12C06E020E80E94780F0F90F6
:1020E0000F900F900F900F900F901F910F91EF9006
:1020F000CF90BF90AF909F908F9008958F929F92B6
:10210000AF92BF92CF92EF92FF920F931F921F92C6
:10211000FF92EF923F932F934901A12CB12C52E0F3
:10212000C52EE02E06E020E80E94780F0F900F9059
:102130000F900F900F900F900F91FF90EF90CF9016
:10214000BF90AF909F908F9008953F924F925F9273
:102150006F927F928F929F92AF92BF92CF92DF92B7
:10216000EF92FF920F931F93CF93DF93CDB7DEB71C
:10217000C054D1090FB6F894DEBF0FBECDBF3C01ED
:10218000562E442E322EB02ECE0101966C017C01CB
:10219000022F29E030E0C3010E947E1081111BC094
:1021A0008B809C801F93BF92DF92CF921F9280E41E
:1021B0008F93A12CB12C62E0C62EE32C06E020E820
:1021C000442D652DC3010E94780F0F900F900F9042
:1021D0000F900F900F90C05CDF4F0FB6F894DEBFEA
:1021E0000FBECDBFDF91CF911F910F91FF90EF9068
:1021F000DF90CF90BF90AF909F908F907F906F9027
:102200005F904F903F9008958F929F92AF92BF92B0
:10221000CF92EF920F93CF931F921F921F921F9214
:102220001F921F92812C912CA12CB12CC12CE22E3B
:1022300005E020E00E94780FC82F6CE271E080E09A
:1022400090E00E94CA090F900F900F900F900F908E
:102250000F908C2FCF910F91EF90CF90BF90AF90B8
:102260009F908F9008958F929F92AF92BF92CF923E
:10227000EF920F931F921F921F921F921F921F9215
:10228000812C912CA12CB12CC12CE22E09E020E054
:102290000E94780F0F900F900F900F900F900F905B
:1022A0000F91EF90CF90BF90AF909F908F90089537
:1022B000AF92BF92CF92DF92EF92FF920F931F9354
:1022C000CF93DF9300D000D0CDB7DEB77C0169019A
:1022D00058011C821B821A8219828E010F5F1F4FC8
:1022E0009E012D5F3F4F0E94260C811109C049813C
:1022F0005A816B817C8185019601C7010E94B40ED1
:102300000F900F900F900F90DF91CF911F910F9131
:10231000FF90EF90DF90CF90BF90AF900895CF9255
:10232000DF92FF920F931F93CF93DF9300D0CDB72F
:10233000DEB76C01662309F442C0062F10E085E089
:10234000689FB0011124F601E60FF71F8085282F42
:10235000277086FF19C031E0E5E0FE2EF601F39EFE
:10236000E00DF11D112480858695869586958770F0
:102370008217E1F03F5F303188F3F60185818213E7
:1023800003C02150F601258385E0809FF001819FE5
:10239000F00D1124EC0DFD1D108681E08187128661
:1023A00082E0C80ED11CD782C68209C0632FC60145
:1023B0002A8339830E948F112A813981CFCF0F90D0
:1023C0000F90DF91CF911F910F91FF90DF90CF90F1
:1023D0000895CF93DF93EC016134A1F4FC01855B98
:1023E0009F4F41E09E012E5F3F4F1586468717861F
:1023F000348723873596E817F907B9F71D82DF91EF
:10240000CF9108950E940B0B682FCE01DF91CF91E1
:102410000C948F110F931F93CF93DF93EC01022F36
:10242000CA3F8FEFD80711F486ED29C08E819F81B6
:10243000892B01F12A87242F40E0CE010E941D0B39
:10244000182F8823C9F0682FCE010E94910B0097A6
:1024500059F3FC010483212F40E060E0CE010E948B
:102460000411082F882351F0612FCE010E94E91139
:10247000802F05C087ED03C084ED01C080E0DF91AF
:10248000CF911F910F9108952F923F924F925F929B
:102490006F927F928F929F92AF92BF92CF92DF9274
:1024A000EF92FF920F931F93CF93DF93CDB7DEB7D9
:1024B00066970FB6F894DEBF0FBECDBF7C01862EA7
:1024C000742E922E1B8A88E08C8B8CE38D8BD70127
:1024D000ED91FC910190F081E02D60E0C70109953C
:1024E0006C01009709F4ABC0FC01A080B180CE0163
:1024F00043969183808394828E010F5F1F4F22E168
:1025000030E040E060E0C7010E945710D601AD9274
:10251000BC928111ACC029843A844B845C84BD8117
:10252000BE8B1E815701612C6501E6E5CE0ED11CE4
:10253000D6018D919C91009789F1DC01ED91FC9180
:102540000084F185E02D0995811128C0F601808174
:102550009181DC01ED91FC910088F189E02D612FE2
:1025600009958823D9F0F60180819181DC01ED91F4
:10257000FC910484F585E02DA201B101099581113A
:1025800060C0F60180819181DC01ED91FC910684AF
:10259000F785E02D6E890995811153C06394B2E0EF
:1025A000AB0EB11CE0E16E12BFCF5701612C65018B
:1025B000F6E5CF0ED11CD6018D919C91009789F143
:1025C000DC01ED91FC910084F185E02D09958111EC
:1025D00028C0F60180819181DC01ED91FC91008899
:1025E000F189E02D612F09958823B1F1F6018081F1
:1025F0009181DC01ED91FC910484F585E02DA2012F
:10260000B101099581110DC0F60180819181DC0134
:10261000ED91FC910684F785E02D6E89099588235C
:10262000D9F06394B2E0AB0EB11CE0E16E12BFCF03
:10263000292D472D682DC7010E940A1218C086ED6A
:1026400016C0092D272D482D662DC7010E94FC0CB0
:10265000813D09F4A3CF0BC0092D272D482D662DF0
:10266000C7010E94FC0C982F977F913DD1F266968E
:102670000FB6F894DEBF0FBECDBFDF91CF911F9193
:102680000F91FF90EF90DF90CF90BF90AF909F9011
:102690008F907F906F905F904F903F902F90089514
:1026A000FF920F931F93CF93DF93EC011D990EC000
:1026B00088EC0E94F40B85FF05C0CE010E948608BD
:1026C00060E201C060E088EC0E940C0C8091BB01CC
:1026D000813051F058F0823029F0833039F5FF24F1
:1026E000F3940DC0F12C0BC083E106C08091080368
:1026F000807F8031D9F081E18093080317C08091F9
:102700000803807F803199F40E94C80968537F4F85
:102710008F4F9F4F609304037093050380930603CC
:102720009093070380E28093080301C0F12C00E03E
:1027300010E0FE01E00FF11FEA5AFF4F8081918106
:10274000009739F0DC01ED91FC910680F781E02DD6
:1027500009950E5F1F4F0032110559F7809108034C
:10276000803409F446C070F4803269F18033D9F1C5
:10277000813109F088C0FE01EA58FF4F108200E065
:1027800010E00AC0813509F45AC0803809F46AC0E3
:10279000803509F078C03CC0FE01E00FF11FEA5A15
:1027A000FF4F80819181009739F0DC01ED91FC9120
:1027B0000480F581E02D09950E5F1F4F0032110551
:1027C00059F782E15EC00E94C8090091040310918C
:1027D00005032091060330910703601B710B820BE8
:1027E000930B97FD50C061E088EE0E940C0C80E4D2
:1027F00048C088EE0E94F40B80FD45C088ED0E9421
:10280000F40B682F686088ED0E940C0C80E539C0DD
:1028100088EC0E94F40B86FF36C081E580930803A4
:102820000E94C8096C5E7F4F8F4F9F4F60930403D7
:1028300070930503809306039093070324C00E94BE
:10284000C8090091040310910503209106033091FB
:102850000703601B710B820B930B97FD14C080E87C
:10286000809308032F2D40E060E0CE010E944412C7
:10287000882331F0823D39F08093090380EA01C05A
:1028800080E980930803DF91CF911F910F91FF9012
:1028900008958F929F92AF92BF92CF92EF920F9333
:1028A000CF93DF93CDB7DEB7C054D1090FB6F894FC
:1028B000DEBF0FBECDBF5F934F939E012F5F3F4F93
:1028C0003F932F931F9220E42F9320E8822E912C88
:1028D0005B0132E2C32EE12C06E021E840E0FC017E
:1028E0006681848195810E94780F0F900F900F90E0
:1028F0000F900F900F90C05CDF4F0FB6F894DEBFC3
:102900000FBECDBFDF91CF910F91EF90CF90BF90D1
:10291000AF909F908F9008958F929F92AF92BF92A9
:10292000CF92DF92EF92FF920F938E2CA42EB12CB8
:102930001F921F92DF92CF92FF92EF929F2CC22E96
:10294000E02E09E021E2462FFC0166818481958119
:102950000E94780F0F900F900F900F900F900F9094
:102960000F91FF90EF90DF90CF90BF90AF909F902E
:102970008F9008958F929F92AF92BF92CF92EF92D5
:102980000F93A62EB12C1F921F921F921F921F927F
:102990001F92812C912CC22EE42E0AE021E240E00D
:1029A000FC016681848195810E94780F0F900F90C1
:1029B0000F900F900F900F900F91EF90CF90BF90CE
:1029C000AF909F908F9008958F929F92AF92BF92F9
:1029D000CF92EF920F93A62EB12C1F921F921F92AF
:1029E0001F921F921F92812C912CC12CE42E0BE080
:1029F00021E240E0FC016681848195810E94780F8C
:102A00000F900F900F900F900F900F900F91EF90ED
:102A1000CF90BF90AF909F908F900895FC018285DA
:102A2000089581E0693009F080E00895CF93DF9345
:102A3000EC018A819B81DC01ED91FC910480F581A0
:102A4000E02D6A8509958A85813439F4EA81FB8114
:102A5000EA58FF4F8081846080831A861B861C861B
:102A60001D861E861F86188A80E0DF91CF9108950B
:102A70008F929F92AF92BF92CF92EF920F93A42E1C
:102A8000B12CB22A1F921F921F921F921F921F9267
:102A9000812C912CC12CE62E01E023E240E0FC01C8
:102AA0006285828193810E94780F0F900F900F9022
:102AB0000F900F900F900F91EF90CF90BF90AF902D
:102AC0009F908F9008958F929F92AF92BF92CF92D6
:102AD000EF920F93A62EB12C1F921F923F932F932C
:102AE0005F934F934A01C12CE12C00E023EA40E0C0
:102AF000FC016285828193810E94780F0F900F9074
:102B00000F900F900F900F900F91EF90CF90BF907C
:102B1000AF909F908F9008958F929F92AF92BF92A7
:102B2000CF92EF920F93A42EB12CB22A1F921F9234
:102B30001F921F921F921F92812C912CC12CE62E66
:102B400003E023E240E0FC016285828193810E94E0
:102B5000780F0F900F900F900F900F900F900F9194
:102B6000EF90CF90BF90AF909F908F9008952F924D
:102B70003F924F925F926F927F928F929F92AF920D
:102B8000BF92CF92DF92EF92FF920F931F93CF935A
:102B9000DF93CDB7DEB7E9970FB6F894DEBF0FBE6F
:102BA000CDBF3C01362E242EDC011296ED90FC9018
:102BB00013971A968C91811103C1D701ED91FC9165
:102BC0000190F081E02D60E0C70129AF09956C010B
:102BD00029AD009709F4F6C0FC01A080B180A114D2
:102BE000B10409F4F1C04301F4E08F0E911CDC0143
:102BF00011969C928E9214962C93FE0131962F0181
:102C00008F0128E030E040E060E0D30112968D9122
:102C10009C9113970E945710F60114828111DAC01B
:102C200019818D81893009F0D1C0D701ED91FC91D6
:102C30000280F381E02D222D41E0632DC70109952B
:102C4000F3018287882309F4C3C098859583282FD0
:102C500040E060E0828193810E940411082F882364
:102C600091F0D601AD92BC92D701ED91FC91048018
:102C7000F581E02DD3011A966C91C7010995F301F6
:102C80001286102FABC0113208F010E2D601AD92BF
:102C9000BC9211110BC0940142E0F3016285828164
:102CA00093810E94CE0B811198C011C0212F30E07A
:102CB000820140E0D3011A966C911A9712968D9179
:102CC0009C9113970E945710811187C0E4CF1F92E7
:102CD0001F925F924F921F9288E08F9388E0882E18
:102CE000912CA12CB12C99E2C92EE12C06E020EA0E
:102CF00040E0F3016285828193810E94780F182F52
:102D00000F900F900F900F900F900F90811166C051
:102D10008B81D3011B968C931B97720100E028E0F6
:102D200030E040E01A966C911A9712968D919C9122
:102D300013970E947E10811150C02B813C8140E08E
:102D4000F3016285828193810E947E10811145C0CA
:102D5000298130E0CE0181967C0140E0D3011A96B2
:102D60006C911A9712968D919C9113970E947E10E8
:102D7000811133C02E8140E0F3016285828193810D
:102D80000E943311811129C001E0D3011B968C915F
:102D90001B97801740F020E0402F68E0C3010E949D
:102DA0008C150F5FF2CF1296ED91FC911397EA58B4
:102DB000FF4F80818460808381E050968C930EC0A9
:102DC00019ED0CC016ED0AC017ED08C011ED06C0D4
:102DD00014ED04C0F601B182A082182F812FE9966C
:102DE0000FB6F894DEBF0FBECDBFDF91CF911F911C
:102DF0000F91FF90EF90DF90CF90BF90AF909F909A
:102E00008F907F906F905F904F903F902F9008959C
:102E1000BF92CF92DF92EF92FF920F931F93CF93C7
:102E2000DF9300D000D0CDB7DEB77C01B62E19827B
:102E30001A821B821C8220E0462F61E10E94381515
:102E400020E04B2D60E1C7010E94381520E04B2D9A
:102E500064E0C7010E948C1523E0C22ED12C9E0194
:102E60002F5F3F4F44E050E06B2DC7010E94631578
:102E7000882301F120E04B2D64E1C7010E94381541
:102E800020E04B2D60E1C7010E94381564E170E03D
:102E900080E090E00E94CA090F900F900F900F9071
:102EA000DF91CF911F910F91FF90EF90DF90CF9026
:102EB000BF90089509811A812B813C811D7F0330C9
:102EC000114020413105B1F264E670E080E090E00D
:102ED0000E94CA0981E0C81AD108C114D10409F0BE
:102EE000BECFC8CFCF93DF93FC0181E991E09183FE
:102EF00080837383628312861386148615861686F2
:102F00001786108A148288E085839CE3968391E07B
:102F10009783808784E0818761157105B9F0CB01C3
:102F2000A0E0B0E0EC01CA5ADF4F28813981232BA1
:102F300041F49B96AA0FBB1FA60FB71FED93FC93FE
:102F400005C011960296A031B10561F7DF91CF91CE
:102F50000895DF92EF92FF920F931F93CF93DF9329
:102F6000EC01D62E7A01FA01008111812281338190
:102F70000130F3E01F07F1E02F073105D1F060F4D5
:102F80000115E1E01E072E07310571F101301140F6
:102F90002140310571F062C0033081E0180780E103
:102FA00028073105E1F10330134020413105B9F123
:102FB00055C080910A03811151C020E04D2D61E17F
:102FC000CE010E94381520E04D2D60E1CE010E9417
:102FD000381520E04D2D64E0CE010E948C1581E073
:102FE00080930A0381EB3BC020E0462F61E1CE01D4
:102FF0000E94381520E04D2D60E1CE010E94381569
:1030000010920A036A8567708D2D8770660F660FB0
:10301000660F682B8A819B810E94BC0A1FC020E03A
:103020004D2D64E1CE010E94381520E04D2D60E168
:10303000CE010E94381564E170E080E090E00E94CB
:10304000CA096A85F70121812695217067704D2D87
:103050008A819B810E94441210920A0380E0DF91D2
:10306000CF911F910F91FF90EF90DF900895EF9215
:10307000FF920F931F93CF93DF93CDB7DEB72E97B9
:103080000FB6F894DEBF0FBECDBF7C0181E090E0AB
:103090009E878D878E010F5F1F4F9E01235F3F4FDD
:1030A00041E0F7016285828193810E94581181116C
:1030B00051C002E011E089818023D1F019861A867F
:1030C0001B861C869E01275F3F4F44E050E0612F26
:1030D000C7010E94631581110BC0AE01475F5F4FAE
:1030E000612FC7010E94A917813B99F1811132C05C
:1030F000000F1F5F1830F9F611E0F7018385811783
:1031000040F119861A861B861C869E01275F3F4F59
:1031100044E050E0612FC7010E946315811117C080
:1031200089859A85877091708130914081F48B8573
:103130009C8581609C878B87AE01475F5F4F612FC5
:10314000C7010E94A917813B21F0811103C01F5FB5
:10315000D4CF80E02E960FB6F894DEBF0FBECDBF61
:10316000DF91CF911F910F91FF90EF9008950F93F2
:103170001F93CF93DF93EC0188898823F1F00E949D
:10318000C8090C851D852E853F85601B710B820B40
:10319000930B97FD0FC0CE010E943718182F0E9485
:1031A000C8096C597F4F8F4F9F4F6C877D878E87E3
:1031B0009F8701C010E0812F01C080E0DF91CF9197
:1031C0001F910F910895CF93DF93FC01EA01808155
:1031D0009181892B21F580E028C088819981892BF4
:1031E000D1F3DB018D919C91DC015C91238130E076
:1031F000241B310980819181820F931FDC015C9334
:103200008281815082838881998101979983888303
:10321000DB018D919C91119701968D939C93428136
:103220004111DBCF8381828381E0DF91CF910895CB
:10323000CF92DF92EF92FF920F931F93CF93DF9382
:103240006C017A01EB01E60EF71E00E010E0CE15EE
:10325000DF0561F06991D601ED91FC910190F0815B
:10326000E02DC6010995080F191FF1CFC801DF91A4
:10327000CF911F910F91FF90EF90DF90CF90089525
:10328000809114030895CF93DF9300D01F92CDB7A0
:10329000DEB720919704243019F523E029839B831E
:1032A0008A832093E9008FEF9091E800815095FD8B
:1032B00006C095ED9A95F1F700008111F5CF809148
:1032C000E80085FF0DC040E050E063E070E0CE0113
:1032D00001960E94421B8091E8008E778093E8005F
:1032E0000F900F900F90DF91CF910895CF93DF93C0
:1032F00000D01F92CDB7DEB720919704243021F57E
:1033000022E029839B838A8383E08093E9008FEF07
:103310009091E800815095FD06C095ED9A95F1F7E2
:1033200000008111F5CF8091E80085FF0DC040E0DD
:1033300050E063E070E0CE0101960E94421B809154
:10334000E8008E778093E8000F900F900F90DF9148
:10335000CF910895209197042430F1F422E0209336
:10336000E9002FEF3091E800215035FD06C035ED22
:103370003A95F1F700002111F5CF2091E80025FFE3
:103380000BC040E050E065E070E00E94421B80917D
:10339000E8008E778093E8000895CF93DF93EC01E7
:1033A00080919704843039F581E08093E9008FEFB4
:1033B0009091E800815095FD06C095ED9A95F1F742
:1033C00000008111F5CF8091E80085FF14C040E036
:1033D00050E068E070E0CE010E94421B8091E8005E
:1033E0008E778093E80088E0FE01ACE0B3E00190C6
:1033F0000D928A95E1F7DF91CF910895809196041F
:10340000811109C00E94D41C0E94311D8091E200EC
:1034100084608093E20008951092960408950895C0
:1034200042E061EC81E00E944E1C42E061EC82E0EF
:103430000E944E1C42E061EC83E00C944E1C809193
:103440009904833009F453C030F4813071F0823034
:1034500009F48CC008958A3009F478C08B3009F4DF
:103460005EC0893009F09AC020C080919804813AEA
:1034700009F094C08091E800877F8093E8008091F4
:103480009C0490919D04892B21F060E080E090E005
:1034900003C068E08CE093E070E00E948B1B809199
:1034A000E8008B778093E80008958091980481323A
:1034B00009F074C080919C0490919D04892B09F0BF
:1034C0006DC08091E800877F8093E8008091E800DC
:1034D00082FD05C0809197048111F8CF5FC0809173
:1034E000F100809314038091E8008B7753C08091A2
:1034F0009804813A09F052C080919C0490919D04F7
:10350000892B09F04BC08091E800877F8093E80009
:103510008091E80080FFFCCF80910A0136C0809145
:1035200098048132D9F580919C0490919D04892B57
:10353000A9F58091E800877F8093E8000E94831CB2
:1035400080919A0480930A010C94C124809198047C
:10355000813221F58091E800877F8093E8000E9406
:10356000831C80919B048093150308958091980497
:10357000813AA1F48091E800877F8093E8008091F0
:10358000E80080FFFCCF809115038093F1008091CB
:10359000E8008E778093E8000C94831C089580E007
:1035A00008958091140380930B031092140380E01C
:1035B0000E94F6070E94AA200C94C1240C94D11AF0
:1035C0000E945C2B80910B038093140308950C944C
:1035D000E01A292F332723303105A9F06CF421306C
:1035E000310509F442C02230310509F043C084E5B9
:1035F00090E020E033E042C021323105C9F02232B0
:10360000310519F137C099278130910541F0823099
:10361000910541F0892B71F5ECEFF2E005C0ECEE7D
:10362000F2E002C0EEEAF2E0849190E09F0126C051
:10363000633000F5E62FF0E0EE0FFF1FE455FE4F7C
:103640002081318189E090E019C0633098F4E62F41
:10365000F0E0DF01AA0FBB1FAA55BE4F2D913C9190
:10366000ED55FE4F808190E009C082E190E024E5B5
:1036700033E004C080E090E020E030E0FA013183E4
:1036800020830895CF92DF92EF92FF920F931F93C2
:10369000CF93DF937C018B01EA010E94A41C81116E
:1036A00031C0209731F088819981081B190BE80EF1
:1036B000F91EC12CD12C0115110519F18091E800DA
:1036C00085FD14C08091E8008E778093E8002097F4
:1036D00041F0888199818C0D9D1D9983888385E0B7
:1036E00011C00E94A41C882331F30CC0F701819102
:1036F0007F018093F10001501109FFEFCF1ADF0A1B
:10370000DACF80E0DF91CF911F910F91FF90EF9082
:10371000DF90CF90089520919E0430919F0426174A
:10372000370748F06115710539F42091E8002E77CC
:103730002093E80001C0B901FC0120E0611571058A
:10374000B9F180919704882309F440C0853009F4C9
:103750003FC08091E80083FD3DC08091E80082FF7A
:1037600006C08091E80082FF26C080E00895809125
:10377000E80080FFE3CF2091F3008091F20090E019
:10378000922B6115710551F08830910538F4219123
:103790002093F100615071090196F3CF21E0089761
:1037A00009F020E08091E8008E778093E800C6CF92
:1037B0002111C7CFD6CF80919704882339F0853067
:1037C00039F08091E80083FFCCCF04C082E00895F7
:1037D00083E0089581E0089520919E0430919F0434
:1037E0002617370748F06115710539F42091E80074
:1037F0002E772093E80001C0B901FC0120E061159B
:103800007105C1F180919704882309F441C0853086
:1038100009F440C08091E80083FD3EC08091E8003B
:1038200082FF06C08091E80082FF27C080E00895F3
:103830008091E80080FFE3CF2091F3008091F200B7
:1038400090E0922B6115710559F08830910540F494
:1038500024912093F1003196615071090196F2CFC5
:1038600021E0089709F020E08091E8008E778093AE
:10387000E800C5CF2111C6CFD5CF8091970488230A
:1038800039F0853039F08091E80083FFCBCF04C058
:1038900082E0089583E0089581E00895982F97309D
:1038A00058F59093E900981739F07091EC00209149
:1038B000ED005091F00003C0242F762F50E021FF3F
:1038C00019C03091EB003E7F3093EB003091ED005A
:1038D0003D7F3093ED003091EB0031603093EB0091
:1038E0007093EC002093ED005093F0002091EE00D7
:1038F00027FF07C09F5FD3CF8F708093E90081E0DF
:10390000089580E008958091980487FD05C0809116
:10391000E80080FF0EC012C08091E80082FD05C063
:10392000809197048111F8CF08958091E8008B77FA
:1039300008C0809197048111EACF08958091E80032
:103940008E778093E80008958091E4009091E500DF
:1039500045E62091EC0020FF21C02091E80020FDE9
:1039600021C020919704222389F0253089F02091ED
:10397000EB0025FD0FC02091E4003091E5002817F1
:10398000390739F3415041F0C901E3CF82E008958E
:1039900083E0089581E0089584E008952091E8008F
:1039A00022FFDFCF80E008950E94421D0E944A1D41
:1039B000E0EEF0E0808181608083E8EDF0E08081DE
:1039C0008F77808319BCA7EDB0E08C918E7F8C93AC
:1039D00080818F7E80831092960408950F931F93A9
:1039E000CF93DF930E94421D0E944A1DC8EDD0E094
:1039F00088818F77888388818068888388818F7D9C
:103A0000888319BC10929704109293041092950425
:103A10001092940400EE10E0F80180818B7F808387
:103A200088818160888342E060E080E00E944E1CD3
:103A3000E1EEF0E080818E7F8083E2EEF0E0808135
:103A400081608083808188608083F80180818E7F9F
:103A50008083888180618883DF91CF911F910F914E
:103A60000895E8EDF0E080818F7E8083E7EDF0E05F
:103A700080818160808384E082BF81E080939604AE
:103A80000C94EE1CE8EDF0E080818E7F8083109234
:103A9000E20008951092DA001092E10008951F925A
:103AA0000F920FB60F9211242F933F934F935F9372
:103AB0006F937F938F939F93AF93BF93EF93FF93F6
:103AC0008091E10082FF0BC08091E20082FF07C07D
:103AD0008091E1008B7F8093E1000E94AB1F809179
:103AE000DA0080FF1FC08091D80080FF1BC080914A
:103AF000DA008E7F8093DA008091D90080FF0DC0BC
:103B000080E189BD82E189BD09B400FEFDCF81E07D
:103B1000809397040E94FE1905C019BC1092970467
:103B20000E940C1A8091E10080FF19C08091E20090
:103B300080FF15C08091E2008E7F8093E20080912B
:103B4000E20080618093E2008091D80080628093DF
:103B5000D80019BC85E0809397040E94DE1A8091FA
:103B6000E10084FF30C08091E20084FF2CC080E13E
:103B700089BD82E189BD09B400FEFDCF8091D800E6
:103B80008F7D8093D8008091E1008F7E8093E1004B
:103B90008091E2008F7E8093E2008091E20081605C
:103BA0008093E20080919304882311F084E007C0A1
:103BB0008091E30087FF02C083E001C081E0809331
:103BC00097040E94E71A8091E10083FF29C0809149
:103BD000E20083FF25C08091E100877F8093E100B0
:103BE00082E080939704109293048091E1008E7F8D
:103BF0008093E1008091E2008E7F8093E2008091CB
:103C0000E20080618093E20042E060E080E00E9498
:103C10004E1C8091F00088608093F0000E940F1A83
:103C2000FF91EF91BF91AF919F918F917F916F9194
:103C30005F914F913F912F910F900FBE0F901F906A
:103C400018951F920F920FB60F9211242F933F9346
:103C50004F935F936F937F938F939F93AF93BF9394
:103C6000CF93EF93FF93C091E900CF708091EC0068
:103C70001092E9008091F000877F8093F0007894A3
:103C80000E945D1E1092E9008091F0008860809390
:103C9000F000C093E900FF91EF91CF91BF91AF91F8
:103CA0009F918F917F916F915F914F913F912F9154
:103CB0000F900FBE0F901F9018951F93CF93DF9317
:103CC000CDB7DEB7AA970FB6F894DEBF0FBECDBF53
:103CD000E8E9F4E08091F100819324E0E03AF20712
:103CE000C9F70E941F1A8091E80083FF1CC1209130
:103CF000980430919904832F90E08A30910508F060
:103D000012C1FC01EA5AFF4F0C94492F203881F070
:103D1000223809F008C180919C048F708093E900DB
:103D20008091EB0085FB882780F91092E90006C09E
:103D30008091940490919504911182609091E80093
:103D4000977F9093E8008093F1001092F100C5C036
:103D5000822F8D7F09F0E7C0222319F0223061F015
:103D6000E2C080919A04813009F0DDC0333009F05F
:103D700080E08093950428C080919A04811124C02A
:103D800020919C042F7009F4CEC02093E90080910B
:103D9000EB0080FF19C08091EB00333011F480629A
:103DA00011C080618093EB0081E090E0022E01C0A1
:103DB000880F0A94EAF78093EA001092EA00809153
:103DC000EB0088608093EB001092E9008091E8009E
:103DD000877F86C02111A7C010919A041F77809118
:103DE000E3008078812B8093E3008091E800877F57
:103DF0008093E8000E94831C8091E80080FFFCCF44
:103E00008091E30080688093E300112311F083E048
:103E100001C082E08093970486C02058223008F0C9
:103E200082C080919A0490919B048C3D23E092077C
:103E300079F583E08A838AE289834FB7F894DE01BB
:103E4000139620E03EE051E2E32FF0E0509357005C
:103E5000E49120FF03C0E295EF703F5FEF708E2F7B
:103E600090E0EA3010F0C79601C0C0968D939D9304
:103E70002F5F243149F74FBF8091E800877F8093FF
:103E8000E8006AE270E0CE0101960E948B1B14C02C
:103E9000AE014F5F5F4F60919C040E94E91A00974A
:103EA00009F441C02091E800277F2093E800BC017D
:103EB00089819A810E94EC1B8091E8008B77809326
:103EC000E80031C0203879F58091E800877F809341
:103ED000E800809193048093F1008091E8008E7750
:103EE0008093E8000E94831C1EC021111CC0909189
:103EF0009A049230C0F48091E800877F8093E800B4
:103F0000909393040E94831C80919304811104C0B8
:103F10008091E30087FF02C084E001C081E08093CC
:103F200097040E94101A8091E80083FF0AC08091D4
:103F3000E800877F8093E8008091EB0080628093A7
:103F4000EB00AA960FB6F894DEBF0FBECDBFDF918F
:103F5000CF911F910895089590931B0380931A03A6
:103F60000895E0911A03F0911B03309721F001901E
:103F7000F081E02D099480E00895E0911A03F0911A
:103F80001B03309721F00280F381E02D09940895FE
:103F9000E0911A03F0911B03309721F00480F58122
:103FA000E02D099408952091180330911903821788
:103FB000930771F09093190380931803E0911A030B
:103FC000F0911B03309721F00680F781E02D0994D2
:103FD000089520911603309117038217930771F00B
:103FE0009093170380931603E0911A03F0911B033B
:103FF000309721F00084F185E02D099408950E9406
:10400000180A0C9403098F929F92AF92BF92CF929D
:10401000DF92EF92FF920F931F93CF93DF9300D025
:1040200000D01F92CDB7DEB70E940F070DE113E05D
:10403000912C892D0E94C5075C01F801C080D180B8
:10404000C826D926C114D10439F493940E5F1F4FAA
:10405000F0E19F12EECF39C08091880481FD0E946B
:10406000F507812CEE24E394F12C97012C213D21BE
:10407000232B21F189829A8281E097012A213B2119
:10408000232B09F480E08B830E94210A8160782F22
:104090009D838C8349815A816B818D810E94AB20E5
:1040A00049815A816B817C818D810E94492BF80165
:1040B000208131812E253F25318320838394EE0C8E
:1040C000FF1CF0E18F12D1CFC0CF8FEF89838A839D
:1040D0001B820E94210A8160782F9D838C834981F5
:1040E0005A816B818D810E94AB200E94482B0E94D7
:1040F0003A2D10911C030E94B11F1817B9F00E94AD
:10410000B11F80931C030F900F900F900F900F9092
:10411000DF91CF911F910F91FF90EF90DF90CF90A3
:10412000BF90AF909F908F900C945A2B0F900F9050
:104130000F900F900F90DF91CF911F910F91FF90F3
:10414000EF90DF90CF90BF90AF909F908F900895A9
:104150000C94F6070895CF93DF93CDB7DEB72B9776
:104160000FB6F894DEBF0FBECDBF4F835887698767
:104170007A878B878A859B85892B31F05F3F11F089
:1041800080E003C04F3FE1F781E0811107C04F811C
:10419000588569857A858B850E94492BDE011196A9
:1041A00086E0FD0111928A95E9F785E0FE013796D8
:1041B00001900D928A95E1F749815A816B817C814A
:1041C0008D819E810E94DA272B960FB6F894DEBF70
:1041D0000FBECDBFDF91CF910895882309F45CC055
:1041E0009CEF980F913A20F090E5980F9E3218F4CA
:1041F0000E94A12A0DC090E2980F983058F4877061
:1042000091E001C0990F8A95EAF7892F0E94E62A6A
:104210000C94222B9BE5980F933070F4853A29F08B
:10422000863A31F482E890E005C081E890E002C06F
:1042300083E890E00C94D31F98E5980F953160F5D2
:10424000883A89F0893A91F08A3A99F08B3AA1F04C
:104250008C3AA9F08D3AB1F08E3AB9F08F3AC1F4A8
:1042600087EB90E017C082EE90E014C089EE90E0FA
:1042700011C08AEE90E00EC085EB90E00BC086EB9B
:1042800090E008C083EB90E005C084EB90E002C0B2
:1042900080E090E00C94E91F0895882349F19CEF99
:1042A000980F913A20F090E5980F9E3218F40E94F2
:1042B000C22A0DC090E2980F983058F4877091E0B0
:1042C00001C0990F8A95EAF7892F0E94EC2A0C9475
:1042D000222B9BE5980F933020F480E090E00C9423
:1042E000D31F885A853120F480E090E00C94E91FB8
:1042F0000895CF93C82F0E94ED208C2FCF910C945E
:104300004D21882321F00E94E62A0C94222B089547
:10431000882321F00E94EC2A0C94222B0895CF923E
:10432000DF92EF92FF920F931F93CF93DF93CDB75E
:10433000DEB728970FB6F894DEBF0FBECDBF8C0155
:1043400085E0F801DE01119601900D928A95E1F762
:10435000F80140815181F2808381948125812295E9
:104360002F70009731F05F3F31F431E04F3F19F487
:1043700003C031E001C030E030FDE2C2782F9D8300
:104380008C836F2D8D812F830E941D2A9E838887A9
:104390000E941C2A0E942E294E81E42FE295EF7084
:1043A000F0E0E05AFF4F2F8168850C94492F842F4D
:1043B000807F142F1F70882311F01295107FFF202B
:1043C00059F0112309F471C2812F68870E94F92ADC
:1043D0000E94222B688569C2862F0E944D211123DD
:1043E00009F4AEC2812F0E94FF2A28960FB6F894D6
:1043F000DEBF0FBECDBFDF91CF911F910F91FF9018
:10440000EF90DF90CF900C94222B842F807F942FFD
:104410009F70E92E803219F0E29480EFE822662343
:1044200019F0613001F129C0FF20A9F08E2D22235F
:1044300049F1213039F528960FB6F894DEBF0FBE4A
:10444000CDBFDF91CF911F910F91FF90EF90DF9043
:10445000CF900C94092B222319F0213009F470C25B
:104460000E940C2B2CC0FF20E9F0263008F068C217
:104470000E94E32A8E2129F022C0FF20F1F02111B1
:1044800015C08E2D28960FB6F894DEBF0FBECDBF97
:10449000DF91CF911F910F91FF90EF90DF90CF9020
:1044A0000C948121253008F04BC209C0F8018581A8
:1044B00080FFFBC18F708583E4CF21110AC28E2D4E
:1044C00078C1242F26952695237030E021153105DB
:1044D00021F021303105C9F033C2FF2021F0862FB1
:1044E000942F937002C080E090E028960FB6F89465
:1044F000DEBF0FBECDBFDF91CF911F910F91FF9017
:10450000EF90DF90CF900C94D31FFF2021F0862FE7
:10451000942F937002C080E090E028960FB6F89434
:10452000DEBF0FBECDBFDF91CF911F910F91FF90E6
:10453000EF90DF90CF900C94E91F862FFF2019F0A9
:104540000E94422C02C00E94AA2C28960FB6F89412
:10455000DEBF0FBECDBFDF91CF911F910F91FF90B6
:10456000EF90DF90CF900C942F2D842F837009F063
:1045700076C0F110E5C1262F229526952770220FCF
:10458000220F862F8F70C82ED12CE12CF12C022EF9
:1045900004C0CC0CDD1CEE1CFF1C0A94D2F764FF97
:1045A00010C06FE070E080E090E004C0660F771FFD
:1045B000881F991F2A95D2F76095709580959095E0
:1045C00003C060E070E0CB01242F26952695237070
:1045D000422F50E042305105D1F04330510559F19E
:1045E0006C297D298E299F294130510541F128965A
:1045F0000FB6F894DEBF0FBECDBFDF91CF911F91F4
:104600000F91FF90EF90DF90CF900C9449296C2987
:104610007D298E299F2928960FB6F894DEBF0FBEFC
:10462000CDBFDF91CF911F910F91FF90EF90DF9061
:10463000CF900C9463290E944929C701B60128969E
:104640000FB6F894DEBF0FBECDBFDF91CF911F91A3
:104650000F91FF90EF90DF90CF900C942F29FF20C7
:1046600019F0842F817001C08695882309F468C1F0
:10467000262F229526952770220F220F862F8F70C6
:10468000C82ED12CE12CF12C022E04C0CC0CDD1C48
:10469000EE1CFF1C0A94D2F764FF10C06FE070E0BC
:1046A00080E090E004C0660F771F881F991F2A954D
:1046B000D2F7609570958095909503C060E070E0AA
:1046C000CB01242F269526952370422F50E04230AF
:1046D0005105D1F04330510559F16C297D298E29BE
:1046E0009F294130510541F128960FB6F894DEBF5D
:1046F0000FBECDBFDF91CF911F910F91FF90EF9033
:10470000DF90CF900C94F8296C297D298E299F2960
:1047100028960FB6F894DEBF0FBECDBFDF91CF91C4
:104720001F910F91FF90EF90DF90CF900C940A2A89
:104730000E94F829C701B60128960FB6F894DEBF8B
:104740000FBECDBFDF91CF911F910F91FF90EF90E2
:10475000DF90CF900C94E629603FD9F128F480E4F3
:10476000860F803250F09CC0623F09F461C008F4AB
:104770004BC0633F09F470C093C0162F1071842F93
:104780008F716887FF2059F00E9491296885862FD4
:10479000112319F08295807F75CE8F7073CE0E94A1
:1047A000AC296885862F112319F08295807F01C07E
:1047B0008F7028960FB6F894DEBF0FBECDBFDF9185
:1047C000CF911F910F91FF90EF90DF90CF900C94BD
:1047D0008821FF20A9F0253008F0B2C0842F8F7106
:1047E00028960FB6F894DEBF0FBECDBFDF91CF91F4
:1047F0001F910F91FF90EF90DF90CF900C94CB29F9
:10480000263008F09DC0EACFFF20A1F0842F8F71E1
:1048100028960FB6F894DEBF0FBECDBFDF91CF91C3
:104820001F910F91FF90EF90DF90CF900C94912902
:10483000FF2061F3842F8F7128960FB6F894DEBFA6
:104840000FBECDBFDF91CF911F910F91FF90EF90E1
:10485000DF90CF900C94AC29FF2091F0842F8F71C2
:1048600028960FB6F894DEBF0FBECDBFDF91CF9173
:104870001F910F91FF90EF90DF90CF900C948229C1
:1048800028960FB6F894DEBF0FBECDBFDF91CF9153
:104890001F910F91FF90EF90DF90CF900C947D29A6
:1048A000FF20A1F0222309F4B1CF862F28960FB65E
:1048B000F894DEBF0FBECDBFDF91CF911F910F9156
:1048C000FF90EF90DF90CF900C94ED20222309F41D
:1048D000B1CF862F28960FB6F894DEBF0FBECDBF9E
:1048E000DF91CF911F910F91FF90EF90DF90CF90CC
:1048F0000C944D214F70C8010E94F50228960FB606
:10490000F894DEBF0FBECDBFDF91CF911F910F9105
:10491000FF90EF90DF90CF900C9487284F70C801E4
:1049200028960FB6F894DEBF0FBECDBFDF91CF91B2
:104930001F910F91FF90EF90DF90CF900C94680241
:1049400028960FB6F894DEBF0FBECDBFDF91CF9192
:104950001F910F91FF90EF90DF90CF9008950E94EC
:10496000062B0E94D52A0E94222B0E94DB2D0E943A
:104970002F2D80E090E00E94D31F80E090E00C9407
:10498000E91F0E94F62A0C94AF241F93CF93DF9364
:1049900000D000D01F92CDB7DEB749835A836B8316
:1049A0007C838D838C819D81892B31F05F3F11F059
:1049B00010E003C04F3FE1F711E01170C9F54981E4
:1049C0005A816B817C818D810E941D2A482F292F5D
:1049D00022952F7030E02C3031054CF42A3031050F
:1049E000C4F4225031092230310540F024C02C306B
:1049F0003105D1F02F303105B9F01DC0853A28F4CA
:104A00008430C0F4823028F415C080E2840F8830EE
:104A100088F0483E30F4403E68F44450413A58F43F
:104A200009C0403F41F406C093FB112710F903C0B1
:104A300010E001C011E0812F0F900F900F900F90A8
:104A40000F90DF91CF911F910895CF93DF9300D006
:104A500000D01F92CDB7DEB70F900F900F900F9040
:104A60000F90DF91CF910895CF93DF9300D000D0C6
:104A700000D0CDB7DEB726960FB6F894DEBF0FBED6
:104A8000CDBFDF91CF9108951F93CF93DF93C09156
:104A90003D0316E080913E03C81799F0D0E01C9FBB
:104AA000F0011D9FF00D1124E15CFC4F408151810C
:104AB00062817381848195810E9434252196C7701B
:104AC000E9CFDF91CF911F91089540916F035091ED
:104AD00070036091710370917203809173039091E0
:104AE00074030C943425CF938091740382958F7056
:104AF00009F05FC080917103882309F45AC02091A6
:104B00003D03A0913E0360916F037091700380910B
:104B100072039091730331E06F3F09F030E0B32FDF
:104B2000C6E02A1709F445C0009721F07F3F21F421
:104B30004B2F03C041E001C040E030E040FD35C0F4
:104B4000C29FF001C39FF00D1124E15CFC4F418135
:104B500074132BC04081641328C04281411125C0C9
:104B6000438154814817590710F441505109481B9B
:104B7000590B483C5105C8F4809174038F708061D3
:104B80008093740386E0829FF001839FF00D1124CF
:104B9000EC5BFC4F80818F70806180838FE693E0B7
:104BA0000E948F21CF910C9444252F5F3F4F277097
:104BB000B8CFCF910895BF92CF92DF92EF92FF923C
:104BC0000F931F93CF93DF93CDB7DEB761970FB6E7
:104BD000F894DEBF0FBECDBF8C0185E0F801DE0189
:104BE0001D9601900D928A95E1F7D8014C9111968E
:104BF0005C9111971296CC9012971396ED90FC90C1
:104C0000149760916F03709170032091720330913B
:104C100073032115310531F07F3F31F481E06F3F9F
:104C200019F403C081E001C080E0B82FB170BB2E41
:104C300080FD77C1D0907103DD2009F4FBC0E091C5
:104C40007403E216F30638F0C701821B930B883C0D
:104C5000910548F0A0C0209530952E0D3F1D283CB1
:104C6000310508F098C08E2F807F09F053C075136E
:104C700014C0641312C0DC2CC1100FC0EF70E061CF
:104C8000E09374030E9465258FE693E00E948F21D4
:104C900080917403F80185837CC1E114F10431F043
:104CA0005F3F31F481E04F3F19F403C081E001C060
:104CB00080E080FD03C081E08C2501C080E0F82FFA
:104CC000F170DF2E80FF1CC080913D0320913E03D8
:104CD00036E0821709F436C190E0389FF001399F21
:104CE000F00D1124E15CFC4F6181561306C0608118
:104CF000461303C06281C61203C001968770E9CFD4
:104D0000DC2CCC2009F445C1809174038160809330
:104D1000740358C0751308C0641306C0C11004C0E2
:104D2000D8011596EC93B3C04D875E87CF867E2D54
:104D3000F98AE88A6C2D89890E94C524882339F173
:104D4000DC2CCC2021F120917403822F82958F706E
:104D500090E002970CF463C080916F039091700310
:104D600098878F831986FB86EA862C87CE01079663
:104D700054C0751749F14D875E87CF867E2DF98A1D
:104D8000E88A6C2D89890E94C52481112FC0C80131
:104D90000E948F21A9C08E2F807F59F77E2DF98A1E
:104DA000E88A6C2D89890E9425258FE693E00E9470
:104DB0008F21EFE6F3E086E0DF011D928A95E9F7A7
:104DC0000E946525D12CE5C06413D5CFC110D3CF87
:104DD000D8011596EC93C8010E948F21EFE6F3E00D
:104DE00086E0DF011D928A95E9F7D3C0DC2CCC2048
:104DF00071F220917403822F82958F7090E0029758
:104E000074F080916F03909170039A8389831B8261
:104E1000FD82EC822E83CE0101960E948F2186E0D6
:104E2000F801AFE6B3E001900D928A95E1F70E9498
:104E3000732574C0E216F30628F0F701E21BF30BAA
:104E40009F0104C0209530952E0D3F1D283C310553
:104E500008F056C0DC2CCC2009F499CF75132CC077
:104E600064132AC08091740380FD1DC0982F929511
:104E70009F70C9F0D80115968C9315979F3039F023
:104E80009F5F9295907F8F70892B15968C93C801A8
:104E90000E948F2186E0F801AFE6B3E001900D9209
:104EA0008A95E1F73BC086E0F801AFE6B3E00190F8
:104EB0000D928A95E1F76DC04D875E87CF867E2D76
:104EC000F98AE88A6C2D89890E94C524882379F0A3
:104ED00086E0F801AFE6B3E001900D928A95E1F724
:104EE0000E9473250E946525DD24D39452C08091D1
:104EF0007403816080937403C8010E948F2149C0AC
:104F00007E2DF98AE88A6C2D89890E942525EFE695
:104F1000F3E086E0DF011D928A95E9F70E9465259E
:104F200038C0CC2009F433CF4D875E87CF867E2DE5
:104F3000F98AE88A6C2D89890E94C524882309F49E
:104F400026CFC6CF7E2DF98AE88A6C2D89890E94EA
:104F50001D2A292F22952F7030E0223031052CF4A4
:104F60009F7041F0811106C00CC0243031052CF433
:104F70009F7049F4805E883020F0C8010E948F2124
:104F8000BD2CDB2C06C0D80115969C91907F91F723
:104F9000F8CF8D2D61960FB6F894DEBF0FBECDBF52
:104FA000DF91CF911F910F91FF90EF90DF90CF9005
:104FB000BF9008951F93CF93DF93CDB7DEB72C97A3
:104FC0000FB6F894DEBF0FBECDBF4F8358876987F9
:104FD0007A878B879C87CE0107960E94DB258823E2
:104FE000C1F02F8138858A859B85892B31F03F3F21
:104FF00011F080E003C02F3FE1F781E0811147C04D
:105000004F81588569857A858B859C850E943425DA
:105010003EC086E0FE013796DE01119601900D92AA
:105020008A95E1F7FF81E8854A855B854115510541
:1050300031F0EF3F31F481E0FF3F19F403C081E02C
:1050400001C080E080FD23C020913E0330E0C90113
:1050500001968770992760913D0370E08617970746
:10506000F1F1F983EA835D834C8396E0929FD0014E
:10507000939FB00D1124A15CBC4FFE0131960190AD
:105080000D929A95E1F780933E030E94442516E025
:1050900080913D0390913E03891779F1189FC001DB
:1050A0001124815C9C4F0E94DB25882331F1E09123
:1050B0003D031E9FF0011124E15CFC4F40815181B2
:1050C00062817381848195810E94342580913D03A2
:1050D00090E001968770992780933D03D9CF0E9475
:1050E000C12410923E0310923D03EFE6F3E086E008
:1050F000DF011D928A95E9F7CACF2C960FB6F89476
:10510000DEBF0FBECDBFDF91CF911F910895DF921B
:10511000EF92FF920F931F93CF93DF939C01009721
:1051200009F48AC0E12CF12CDD24D394E901219605
:10513000F9018491853709F462C058F4843708F086
:105140004EC0843008F069C08130D1F0823071F1F6
:1051500073C0883709F45CC050F4863709F454C032
:10516000873709F069C08E2D0E94F32A53C09CE74F
:10517000980F903708F060C08F770E944D214FC084
:1051800089010E5F1F4FFE01C49180E28C0F8830B1
:1051900048F4C7708D2D01C0880FCA95EAF70E94A8
:1051A000F92A15C08C2F0E94ED2013C089010E5FD3
:1051B0001F4FFE01C49180E28C0F883060F4C770ED
:1051C0008D2D01C0880FCA95EAF70E94FF2A0E9420
:1051D000222BE80124C08C2F0E944D21FACF2E5F94
:1051E0003F4FFE01C491CC2341F08FE99FE001972E
:1051F000F1F700C00000C150F6CFE90110C0FE0178
:10520000F490E90122960BC00E94E32AE82E07C021
:105210000E94F62A0E94222B02C00E94ED209F2DA0
:10522000992341F0EFE9FFE03197F1F700C000006A
:105230009150F6CF9E017ACFDF91CF911F910F91C0
:10524000FF90EF90DF90089560937504709376045B
:1052500080937704909378040C94592B08950F93BE
:105260001F930091790410917A0420917B0430916E
:105270007C04602B712B822B932B609379047093A9
:105280007A0480937B0490937C041F910F910C947B
:10529000582B0F931F930091790410917A04209159
:1052A0007B0430917C0460237123822393236093D9
:1052B000790470937A0480937B0490937C041F910B
:1052C0000F910C94582B0F931F9300917904109118
:1052D0007A0420917B0430917C0460277127822717
:1052E00093276093790470937A0480937B0490935E
:1052F0007C041F910F910C94582B60E070E0CB015F
:105300000C94242941E050E060E070E004C0440FB8
:10531000551F661F771F8A95D2F7CB01BA010C94EF
:10532000242941E050E060E070E004C0440F551FC4
:10533000661F771F8A95D2F7809175049091760445
:10534000A0917704B0917804482B592B6A2B7B2BC2
:10535000CB01BA010C94242941E050E060E070E0F8
:1053600004C0440F551F661F771F8A95D2F74095DA
:105370005095609570958091750490917604A091F8
:105380007704B0917804482359236A237B23CB0107
:10539000BA010C94242941E050E060E070E004C0C0
:1053A000440F551F661F771F8A95D2F780917504A9
:1053B00090917604A0917704B091780448275927FA
:1053C0006A277B27CB01BA010C9424290F931F93E2
:1053D000009175041091760420917704309178043F
:1053E000602B712B822B932B1F910F910C942429EE
:1053F0000F931F9300917504109176042091770408
:105400003091780460237123822393231F910F919D
:105410000C9424290F931F93009175041091760426
:105420002091770430917804602771278227932791
:105430001F910F910C94242908959F92AF92BF92CF
:10544000CF92DF92EF92FF920F931F93CF93DF9350
:1054500000D000D01F92CDB7DEB76B837C838D83E5
:105460005A018C819D81892B41F08FEFB81207C0C2
:1054700081E09FEF491303C003C081E001C080E0D9
:1054800080FF03C080E090E04BC08B818823C1F196
:10549000C0907904D0907A04E0907B04F0907C0472
:1054A0008091750490917604A0917704B09178046E
:1054B000C82AD92AEA2AFB2A0FE110E0D701C6013F
:1054C000002E04C0B695A795979587950A94D2F7B4
:1054D00080FD05C00150110988F7912C07C0902E5E
:1054E000B501802F0E94972B0197A1F390E1B99EFF
:1054F000F0011124EA0DF11DEB58FC4F908209C018
:1055000080E1B89EF0011124EA0DF11DEB58FC4F2B
:105510009080A982BA8269817A81892D0E94972B15
:105520000F900F900F900F900F90DF91CF911F91E0
:105530000F91FF90EF90DF90CF90BF90AF909F9032
:10554000089540910B0150910C0120E030E09FEF55
:10555000FA01E20FF31F6281681799F09F3F19F477
:10556000611101C0922F2F5F3F4F2630310581F727
:105570009F3F39F0FA01E90FF11D97FDFA958283FB
:105580000895089540910B0150910C0120E030E006
:10559000FA01E20FF31F9281981301C012822F5F6C
:1055A0003F4F26303105A1F7089581E090E0E0916A
:1055B0000B01F0910C01E80FF91F10820196883061
:1055C0009105A9F708958091870408959091870423
:1055D000982B909387040895809590918704982341
:1055E0009093870408958093870408951092870408
:1055F000089590918604982B909386040895809541
:1056000090918604982390938604089510928604BE
:10561000089580937D04089510927D04089540912B
:105620000B0150910C0120E030E080E0FA01E20F24
:10563000F31F918191118F5F2F5F3F4F273031050D
:10564000A9F70895E0910B01F0910C018091870476
:105650008083E0910B01F0910C0180819091860490
:10566000892B808390917D04992361F0E0910B0157
:10567000F0910C018081892B80830E940F2B811176
:1056800010927D0480910B0190910C010C94BD1F30
:105690000895CF93DF9300D000D01F92CDB7DEB72F
:1056A0000F900F900F900F900F90DF91CF91089572
:1056B000089508950C94A8200E94AA200C94C12457
:1056C0001F920F920FB60F9211248F939F93AF9357
:1056D000BF9380918904811113C080910003909140
:1056E0000103A0910203B09103034196A11DB11DD6
:1056F0008093000390930103A0930203B0930303EC
:10570000BF91AF919F918F910F900FBE0F901F90FF
:10571000189520E1929FF0011124E80FF11DE25548
:10572000FE4F9491892F8F7092959F700895CF931B
:10573000C82FCB010E94892B482F50E080E1989F11
:1057400090011124242B352B2038310519F480E0E9
:1057500090E015C09770E92FF0E088E0C89FE00D59
:10576000F11D112484E0EE0FFF1F8A95E1F7E40F8D
:10577000F51FEE0FFF1FE050F84985919491CF91EE
:10578000089580918C0480FF0BC06091100185E02A
:10579000689FB001112475956795759567952AC026
:1057A00081FF09C06091100185E0689FB00111245C
:1057B000759567951FC082FF07C06091100185E055
:1057C000689FB001112416C040918D044423C9F094
:1057D00060910F01461788F72091100185E0289FFE
:1057E00090011124429FC001439F900D112470E04D
:1057F0000E94352F6038710540F46115710539F04C
:1058000002C065E070E0862F08958FE7089581E07B
:10581000089580918C0480FF08C060910E0170E0B3
:10582000759567957595679521C081FF06C0609154
:105830000E0170E07595679519C082FF04C06091F4
:105840000E0170E010C080918D048823C1F060913A
:105850000D018617A0F790910E01989FC0011124A9
:1058600070E00E94352F6038710528F461157105CC
:1058700021F0862F08958FE7089581E0089561E073
:1058800070E0F4CF803F21F40E94C12B819504C0C9
:10589000813F29F40E94C12B809390040895823F98
:1058A00021F40E94C12B819504C0833F29F40E94FA
:1058B000C12B80938F040895893F19F40E94092C0D
:1058C00005C08A3F31F40E94092C81958093910490
:1058D00008958B3F21F40E94092C819504C08C3FD0
:1058E00029F40E94092C809392040895843F21F4A6
:1058F00080918E04816017C0853F21F480918E04D1
:10590000826011C0863F21F480918E0484600BC0B8
:10591000873F21F480918E04886005C0883F31F470
:1059200080918E04806180938E0408958D3F21F4D0
:1059300080918C0481600BC08E3F21F480918C0497
:10594000826005C08F3F29F480918C04846080932D
:105950008C040895803F39F48091900487FF6CC0D7
:105960001092900469C0813F29F480919004181628
:10597000BCF362C090918F04823F29F497FF5CC012
:1059800010928F0459C0833F19F41916CCF354C0F8
:10599000893F41F48091910418160CF04DC010928B
:1059A00091044AC08A3F29F48091910487FF44C042
:1059B000F6CF8B3F39F48091920487FF3DC010925F
:1059C00092043AC08C3F29F4809192041816BCF3DB
:1059D00033C0843F21F480918E048E7F17C0853FB1
:1059E00021F480918E048D7F11C0863F21F4809137
:1059F0008E048B7F0BC0873F21F480918E04877FBC
:105A000005C0883F31F480918E048F7E80938E0490
:105A100013C08D3F21F480918C048E7F0BC08E3F8C
:105A200021F480918C048D7F05C08F3F29F48091F3
:105A30008C048B7F80938C0480918F0481110EC025
:105A40008091900481110AC080919104811106C057
:105A500080919204811102C010928D0408958EE805
:105A600094E00E94C81F0E94210A90938B048093A7
:105A70008A0408951F93CF93DF9380918A049091B5
:105A80008B040E94390A40918D04442321F0209117
:105A9000110130E006C0209112015AE0259F9001CB
:105AA00011248217930708F482C080918F0410910B
:105AB0009004D0919104C0919204811107C01111FA
:105AC00005C0D11103C0CC2309F471C04F3F19F0B8
:105AD0004F5F40938D04181624F40E94C12B8093CD
