:100000000C94BC020C940B030C940B030C940B0388
:100010000C940B030C940B030C940B030C940B0328
:100020000C940B030C940B030C94CD1F0C949F2089
:100030000C940E2E0C940B030C940B030C940B03DA
:100040000C940B030C940B030C940B030C940B03F8
:100050000C940B030C94310C0C940B030C940B03B9
:100060000C940B030C940B030C940B030C940B03D8
:100070000C940B030C940B030C940B030C940B03C8
:100080000C940B030C940B030C940B030C940B03B8
:100090000C940B030C940B030C940B030C940B03A8
:1000A0000C940B030C940B030C940B0304212621DA
:1000B00011222621112268218B211122E021F32116
:1000C000DB24DB24092509256525A125A427A427F0
:1000D000B925A427B026B0267E27A427A4279227D7
:1000E0007502012C022C01E10137023702E10138CF
:1000F000023801E10126022602E1012802280075EA
:100100000201280228012802280110021001190208
:1001100019010B020B013602360128022801E10108
:1001200033023302E1011C021C0116021601170200
:100130001701080208010C020C011102110128022A
:10014000280128022801E1010C020C010E020E0117
:100150000E020E01080208012C022C0116021601E3
:100160000802080111021101160216010C020C010D
:10017000170217010C020C011902190117021702CC
:10018000E101280228015202520152025201520298
:1001900052014D024D01E1014A024A02E100000113
:1001A00002030405060708090A0B0C0D0E0F1011B7
:1001B00012131415161718191A1B1C1D1E1F2021A7
:1001C00022232425262728292A2B2C2D2E2F303197
:1001D00032333435363738393A3B3C3D3E3F404187
:1001E00042434445464748494A4B4C4D4E4F505177
:1001F00052535455565758595A5B5C5D5E5F606167
:1002000062636465666768696A6B6C6D6E6F707156
:1002100072738080808080808080808080808080F9
:1002200080808080807580747677808080808080F8
:1002300080808080808080808080808080808080BE
:1002400080808080808080808080808080808080AE
:10025000808080808080808080808080808080809E
:10026000808080808080808080808080808080808E
:10027000808080808080808080808080808078798D
:100280007A7B7C7D7E7F8080808080808080808083
:1002900080808080808080808080808080800A0054
:1002A000253031366200253032643A20000A722F40
:1002B00063203031323334353637383941424344A4
:1002C00045460A007573625F73746174653A202550
:1002D0003032580A00686F73742E5461736B3A2081
:1002E00025640A000D0A002025303258007374611D
:1002F00074653A2020253032582025303258006964
:100300006E69743A20646F6E650A000D0A0020253C
:1003100030325800696E7075742025643A202025AB
:100320003032582025303258005B445D005B435D1D
:10033000003C03550053004200200074006F002071
:100340000055005300420020006B006500790062F8
:10035000006F00610072006400200063006F006E97
:100360000076006500720074006500720000000EE7
:100370000374002E006D002E006B002E00000004A0
:1003800003090409027400040100A03209040000FA
:1003900001030101000921110100012240000705AC
:1003A000810308000A090401000103010200092178
:1003B00011010001224D000705820308000A09040B
:1003C0000200010300000009211101000122360092
:1003D0000705830308000A09040300020300000064
:1003E00009211101000122220007058403200001D8
:1003F000070504032000011201100100000008EDB0
:10040000FE5B001408010200010631FF0974A1011E
:100410000975150026FF00952075088102097615DB
:100420000026FF00952075089102C005010980A1F2
:1004300001850216810026B7001A81002AB70075CF
:100440001095018100C0050C0901A1018503160169
:1004500000269C021A01002A9C0275109501810059
:10046000C005010902A1010901A10005091901291D
:10047000051500250195057501810295017503811A
:10048000010501093009311581257F950275088123
:100490000609381581257F950175088106050C0A26
:1004A00038021581257F950175088106C0C00501B8
:1004B0000906A101050719E029E71500250195089E
:1004C0007501810295017508810105081901290549
:1004D00095057501910295017503910105071900B4
:1004E00029FF150026FF00950675088100C0636F7F
:1004F0006E73756D65723A20253034580A00737931
:100500007374656D3A20253034580A000A0025308E
:10051000325820006B6579626F6172643A20004C3A
:1005200045443A20253032580A00290A0025750032
:100530002F002575005D280025640020002564003B
:10054000200025640020002564007C0025303258FE
:10055000006D6F7573656B6579205B62746E7C7876
:100560002079207620685D287265702F61636C2980
:100570003A205B00800A800B11241FBECFEFDAE027
:10058000DEBFCDBF04B603FE24C0809183039091EB
:100590008403A0918503B09186038730904BA740D8
:1005A000B04BB9F410928303109284031092850328
:1005B0001092860314BE84B7877F84BF88E10FB68C
:1005C000F89480936000109260000FBEE0E0F8E3C2
:1005D000099511E0A0E0B1E0E4E4F5E602C0059081
:1005E0000D92A039B107D9F713E0A0E9B1E001C03D
:1005F0001D92A338B107E1F715E0C8E7D5E004C0C4
:100600002297FE010E948832C437D107C9F70E94A1
:10061000BB0A0C94A0320C940000FF93EF93E0917E
:100620009001F0919101309709F00995EF91FF91B8
:100630000895FC018591803011F0EFDFFBCF089524
:10064000FF27E0E230E247FF0CC0419597FF09C069
:10065000EDE26095709580959095611D711D811DED
:10066000911D27FF02C0219530E350E2AA27660FB3
:10067000771F881F991FAA1FA41710F0A41B63954A
:100680005A95A9F7AA3008F0A95FA05DAF93F3953A
:10069000611571058105910541F7ED3211F4EF9374
:1006A000F395F21718F43F93F395FBCF8F91B5DFD5
:1006B000FA95E1F70895E991F9918591803021F05B
:1006C000853219F0AADFF9CF089520E0E89455911A
:1006D0005532C1F3503311F4689455915A3348F4AC
:1006E000505390F3220F022E220F220F200D250FC0
:1006F000F4CF0EF4219589919991533619F353371C
:1007000029F1533559F1BC0188279927E8945C36C3
:1007100021F48991999168945591543639F446EFB2
:100720007EF077FF0DC08FEF9FEF0AC055374AE08C
:1007300039F0583540E121F0523642E009F0089591
:10074000FF93EF937DDFEF91FF91B7CFFF93EF938F
:10075000FC0181918030B9F360DFFBCFFF93EF9311
:1007600068DFF1CFDF93CF93CDB7DEB72596A3DF58
:10077000CF91DF910895662319F0613041F00EC0EA
:10078000FC018281882351F08FEF90E00895FC01F5
:100790008281882319F080EE90E0089580E090E057
:1007A000089580E00895089580E0089581E0089517
:1007B000CF93DF93CDB7DEB728970FB6F894DEBF9F
:1007C0000FBECDBFE22F29833A834B835C836D83B9
:1007D0007E838F8398878091CA02E82BE093CA02B8
:1007E000FE0133969E01275F3F4F4191443088F0D0
:1007F000ACECB2E080E090E05D91511106C0DC010C
:10080000A653BD4F12964C9304C0019686309105B5
:1008100099F7E217F30749F728960FB6F894DEBF69
:100820000FBECDBFDF91CF910895860F911D860F2A
:10083000911DFC015687458781E00895CF93DF9392
:10084000EC018C819D81DC01ED91FC910480F581AE
:10085000E02D6E8109951F86188A81E08A8B1E82A1
:100860001B8A1C8A1D8A1E8A1F8A80E0DF91CF9115
:100870000895FC018681089581E0633009F080E0ED
:10088000089581E0613009F080E00895860F911DA0
:10089000860F911DFC01858596850895FC01878949
:1008A0000895EF92FF92CF93DF93FC01E701228935
:1008B000223029F16787408B8B8183708330F9F474
:1008C0008A8187FF1CC08E81908D981708F4808FD5
:1008D000822F90E0DC01AA0FBB1FA80FB91FAE0F3B
:1008E000BF1F8A818F7017968C9317978C811896EB
:1008F0008C93189784E019968C932F5F228BDF914D
:10090000CF91FF90EF900895EF92FF920F9302978F
:100910000E9451040F91FF90EF90089508952F9237
:100920003F924F925F926F927F928F929F92AF927F
:10093000BF92CF92DF92EF92FF920F931F93CF93CC
:10094000DF9300D000D0CDB7DEB76C017C836B8322
:100950005A8349834C0180E1880E911C5601A7E01F
:10096000AA0EB11C11E044E0442E57E0352E3601AA
:10097000B2E16B0E711C63E0262E72E0572E8B8164
:100980009C81892B09F412C1F60180A1823061F1AA
:1009900028F4882349F0813079F0F1CF833041F198
:1009A000843009F44BC0EBCF5482858196819087C7
:1009B00087835286518610A3AE014D5F5F4FBE0103
:1009C0006F5F7F4FC5010E94B21A882309F4EEC001
:1009D000D6011596ED91FC911697808191968C9396
:1009E0009197818192968C93F6017682658220A2FE
:1009F000D60192968C91843081F018F4823079F08F
:100A000014C0853081F0813281F4D60191968C91A9
:100A10009197825014968C9308C0F60113A2D601C8
:100A200014963C9202C0F6018483F601858196817A
:100A30009087878384818287818740A2D60192969E
:100A40008C918430B1F0853009F442C0823009F0D5
:100A50006EC0AE014D5F5F4FBE016F5F7F4FC5013E
:100A60000E94B21A882309F4A1C0F601858984A3E3
:100A70008EC0AE014D5F5F4FBE016F5F7F4FC501FE
:100A80000E94B21A882309F491C0D60155968C9120
:100A90005597833009F07BC056968C9156978130DC
:100AA00009F075C098969C91989757968C919923C8
:100AB00021F0882309F46BC003C0813009F067C0BE
:100AC000F60113A3928996A3938997A385A35FC088
:100AD000AE014D5F5F4FBE016F5F7F4FC5010E944A
:100AE000B21A882309F462C0D60193968C91939729
:100AF000882309F44CC012968D919C91139700970E
:100B000009F445C0DC01ED91FC910190F081E02DEC
:100B10007401D60195960C91959797962C9197977D
:100B200096964C91969794966C91099530C0F601E3
:100B300081A19585992319F0913031F023C090E07F
:100B400002979787868715872B813C8189819A81B7
:100B5000782F692FD6011E964D915C911F974115F4
:100B60005105E9F001962115310541F04150510937
:100B7000F6015787468721503109EACF79836A8386
:100B80001C821B82F60186859785892B79F4D60114
:100B900016969C928E92159790961C92F0CE9A8300
:100BA00089833C832B83F6011586ECCF0F900F9041
:100BB0000F900F90DF91CF911F910F91FF90EF90C9
:100BC000DF90CF90BF90AF909F908F907F906F906D
:100BD0005F904F903F902F900895DF92EF92FF9299
:100BE0000F931F93CF93DF93CDB7DEB762970FB606
:100BF000F894DEBF0FBECDBF7C01DC0157968C910F
:100C0000882369F00E94970BF701038914892589CD
:100C10003689601B710B820B930B97FF02C0D12C9E
:100C200038C0F701838590E09A8B898B8E010F5F26
:100C30001F4F9E012F5E3F4F4285668184819581C3
:100C40000E942713D82E811118C029893A89233090
:100C5000310598F0D7011D968D919C911E970097B4
:100C600061F0DC01ED91FC910190F081E02D8E01AD
:100C70000F5F1F4F40E0B70109950E94970BF701E6
:100C8000208D620F711D811D911D638B748B858B6F
:100C9000968B8D2D62960FB6F894DEBF0FBECDBF3A
:100CA000DF91CF911F910F91FF90EF90DF9008950A
:100CB0003F924F925F926F927F928F929F92AF92EC
:100CC000BF92CF92DF92EF92FF920F931F93CF9339
:100CD000DF93CDB7DEB7EC970FB6F894DEBF0FBE4B
:100CE000CDBF5C01462E342E522EDC011496CD90E1
:100CF000DC90159716968C911697811139C15896EC
:100D00001C92D601ED91FC910190F081E02D60E004
:100D1000C60109957C01009711F486ED2EC1FC01F6
:100D2000808091808114910409F424C13501F7E099
:100D30006F0E711CDC0111967C926E9214965C927F
:100D40008E01065D1F4F28E030E040E060E0F501D5
:100D5000848195810E9426128CAF8111FCC01AA556
:100D6000D7018D929C92D601ED91FC910280F38186
:100D7000E02D232D40E0642DC6010995F501868301
:100D8000882309F4F9C099A99087282F40E060E0F2
:100D9000848195810E94D3128CAFD601ED91FC9194
:100DA000D70114961C92882359F00480F581E02D18
:100DB000D50116966C91C6010995F5011682D6C02B
:100DC0000190F081E02DD50116966C91C601099530
:100DD000009709F4A2CF133108F012E1FC0154820C
:100DE000112389F0212F30E08E01065D1F4F40E076
:100DF000D50116966C91169714968D919C91159726
:100E00000E9426128CAF8CAD8111A8C04BAC512C26
:100E1000A7E1CA2EA1E0DA2E4501B2E08B0E911CAB
:100E20007E01E1E1EE0EF11C541449F1DA82C9822F
:100E30009C828B821E86188A1F8619A21AA21BA268
:100E400019A6FF82EE82F986E8868D818B878A87D4
:100E5000FD86EC868E010F5F1F4F252D40E0D501EA
:100E600016966C91169714968D919C9115970E94E9
:100E70007412F5018289823011F05394D5CFD501D7
:100E800052968C91823019F081ED8CAF67C093013E
:100E900042E0F5016681848195810E949D0D8CAFB1
:100EA00068EE73E080E090E00E94990BD5011F96F8
:100EB0002C911F9740E016966C91169714968D9181
:100EC0009C9115970E9402138CAF811147C068EE68
:100ED00073E080E090E00E94990B40E060E0C50183
:100EE0000E94B3168CAF811139C020E040E060E071
:100EF000C5010E9489168CAF8DE191E09A838983A8
:100F0000AE014F5F5F4F60E070E0C5010E941816B0
:100F100080E28CAF8CAD8823C1F090E095958795E9
:100F20008CAFFE01FC966F01EE24E394F12C00E0FF
:100F300022E040E060E0C5010E945B1669E170E0DC
:100F400080E090E00E94990BE5CF81E0D5015796B3
:100F50008C9380E012C0F70191828082D501ED91DF
:100F6000FC910480F581E02DC50109958CAD05C08B
:100F700089ED03C087ED01C084EDEC960FB6F894BF
:100F8000DEBF0FBECDBFDF91CF911F910F91FF90BC
:100F9000EF90DF90CF90BF90AF909F908F907F9019
:100FA0006F905F904F903F9008950F931F93CF9352
:100FB000DF936091CA017091CB01E0919901F091AA
:100FC0009A014091BE015091BF012091B201309130
:100FD000B3018091A6019091A7016E177F07B1F42C
:100FE000E0919701F09198014E175F0779F4E09135
:100FF0009501F09196012E173F0741F4E09193017E
:10100000F09194018E179F0709F49BC070939A0189
:101010006093990150939801409397013093960102
:10102000209395019093940180939301EAECF2E070
:1010300088E0DF011D928A95E9F72091C201309185
:10104000C3014091C4015091C5016091C6017091E6
:10105000C7018091C8019091C9010E94D8032091D5
:10106000B6013091B7014091B8015091B90160913A
:10107000BA017091BB018091BC019091BD010E94A9
:10108000D8032091AA013091AB014091AC0150915D
:10109000AD016091AE017091AF018091B00190916E
:1010A000B1010E94D80320919E0130919F0140918F
:1010B000A0015091A1016091A2017091A3018091C2
:1010C000A4019091A5010E94D80381E08093C902F8
:1010D00080916B0380FF14C08091CB021F928F938D
:1010E0008091CA021F928F938DEE92E09F938F930F
:1010F0000E94B2030F900F900F900F900F900F90DF
:10110000CCECD2E007EE12E080916B0380FF0BC0C5
:1011100088811F928F931F930F930E94B2030F90A9
:101120000F900F900F902196B2E0C23DDB0761F760
:1011300080916B0380FF07C084EE92E00E94190348
:1011400002C01092C9020E94F00BEC0182E592E00D
:101150000E941F15CE010E94080C8536910580F073
:1011600020916B0320FF0CC09F938F9385ED92E03D
:101170009F938F930E94B2030F900F900F900F9048
:10118000C091920182E592E00E94880CC817F1F0AC
:1011900082E592E00E94880C8093920190916B030B
:1011A00090FF0CC01F928F9384EC92E09F938F93DB
:1011B0000E94B2030F900F900F900F9080919201B8
:1011C000803921F40E942E220E94B52381E0DF9114
:1011D000CF911F910F910895282F30E0C901B4E0FD
:1011E000880F991FBA95E1F7805E9109089730F44E
:1011F0008091CA02882311F090E002C080E090E064
:10120000ECECF2E041E050E06191643080F0A62F18
:10121000A295AF70B0E02A173B0749F46F70DA016E
:1012200002C0AA0FBB1F6A95E2F78A2B9B2BB2E084
:10123000E23DFB0749F70895EF92FF920F931F934A
:10124000CF93DF938DEA92E00E941903C0E0D0E0D3
:1012500016EAE12E12E0F12E00EA12E0DF93CF93BE
:10126000FF92EF920E94B2038C2F0E94EC080E9422
:10127000DC2D9F938F931F930F930E94B2038EE9EF
:1012800092E00E94190321968DB79EB708960FB67B
:10129000F8949EBF0FBE8DBFC031D105F9F6DF9126
:1012A000CF911F910F91FF90EF900895CF92DF9211
:1012B000EF92FF920F93CF93DF931F92CDB7DEB7DC
:1012C0008983CE0101966C01EE24E394F12C00E0B9
:1012D00022E040E060E087E192E00E945B1622E0BD
:1012E00040E060E08EEF91E00E945B1622E040E07B
:1012F00060E085EE91E00E945B1622E040E060E055
:101300008CEC91E00E945B160F90DF91CF910F91D2
:10131000FF90EF90DF90CF900895CF93DF93FC0183
:101320007583648383E291E09183808381E491E01B
:1013300093838283138A148A158A168A178A1782DE
:1013400088E080878CE381871286138684E0848717
:1013500081E0828B118A17861686158661157105C4
:10136000B9F0CB01A0E0B0E0EC01CA5ADF4F288110
:101370003981232B41F49B96AA0FBB1FA60FB71FE1
:10138000ED93FC9305C011960296A031B10561F76B
:10139000DF91CF9108952E9A08952E988EBD0DB4A9
:1013A00007FEFDCF1EBC0DB407FEFDCF0E94CB098A
:1013B0008EB508952E9882608EBD0DB407FEFDCFC8
:1013C0006EBD0DB407FEFDCF0C94CB0988EF0E94D3
:1013D000CD09807C8034A1F018F4882301F10895B0
:1013E000803819F0803CB9F0089588ED0E94CD094D
:1013F00081FD0BC069EC88ED0E94DA0982E00CC027
:1014000088ED0E94CD0981FDF5CF6BEC88ED0E943F
:10141000DA0983E001C081E080939B01089561EDCA
:1014200088ED0E94DA0910929B0108950F931F9393
:10143000CF93DF938C01269A0E94CB09219A229A9E
:101440002398209A80E58CBD81E08DBD259868E1C8
:1014500088E80E94DA0960E288E70E94DA0960E021
:1014600088E70E94DA09C0E0D0E088E60E94CD0952
:10147000219680FD06C0CF3F8FEFD807B1F78FEFE1
:101480001DC061EC88ED0E94DA0960E680ED0E94E3
:10149000DA0964E088EE0E94DA0988EE0E94CD093C
:1014A00082FFFBCFC8010E94E60960E288EC0E943F
:1014B000DA0961E080E80E94DA0980E0DF91CF91EB
:1014C0001F910F91089582E592E00E94160A80EC28
:1014D00091E0909325028093240284EB91E0909315
:1014E0000C0280930B0288EA91E09093F3018093C1
:1014F000F2018CE991E09093DA018093D90108958B
:1015000082E592E00E94560C62E572E081E492E08E
:101510000E94411962E572E080E392E00E94411965
:1015200062E572E087E192E00E948D0962E572E077
:101530008EEF91E00E948D0962E572E085EE91E008
:101540000E948D0962E572E08CEC91E00E948D09A9
:1015500087E491E09093C1018093C0019093B5011D
:101560008093B4019093A9018093A80190939D0169
:1015700080939C010895569A5E9A80916B038160D6
:10158000846080936B0380E091E00E9429220E9496
:10159000E62284B7877F84BF88E10FB6F8948093F2
:1015A0006000109260000FBE90E080E80FB6F894E3
:1015B00080936100909361000FBE0E94521F0E94B1
:1015C000AF1F8091E20084608093E20082E19BE1A2
:1015D0000E94C52D789480917A038430E1F7809140
:1015E0006B0380FF09C02FEF83ED90E32150804013
:1015F0009040E1F700C0000080916B0380FF04C0C1
:101600008FEF92E00E9419030E94EA22FDCFEF9231
:10161000FF920F931F93CF93DF93EC017B01DC01CB
:10162000129688E0F80101900D928A95E1F70E94E8
:10163000970B7B876A8780916B0380FF1EC00B81AD
:101640001A81D701ED91FC910084F185E02DC7014D
:1016500009951F920F931F921F931F928F9384E1FE
:1016600093E09F938F930E94B2038DB79EB7089625
:101670000FB6F8949EBF0FBE8DBF00E010E08EE065
:10168000E82E83E0F82E80916B0380FF0EC0FE01F0
:10169000E00FF11F84811F928F93FF92EF920E94BF
:1016A000B2030F900F900F900F900F5F1F4F0630F7
:1016B000110549F780916B0380FF0AC08BE093E02E
:1016C000DF91CF911F910F91FF90EF900C94190330
:1016D000DF91CF911F910F91FF90EF9008950895A2
:1016E00080E090E008958FEF9FEF08958FEF9FEFD8
:1016F00008950895862F0E94121B81E090E00895BE
:101700001092D5021092D40288EE93E0A0E0B0E0EF
:101710008093D6029093D702A093D802B093D902B7
:101720008DE491E09093D3028093D20208950C94BB
:10173000FC0B8F929F92AF92BF92CF92DF92EF926B
:10174000FF920E944D314B015C0120E030E04AE7FE
:1017500055E40E9403326B017C0120E030E040E858
:101760005FE30E94183187FD24C020E03FEF4FE780
:1017700057E4C701B6010E94FF311816ACF420E00F
:1017800030E040E251E4C501B4010E9403320E94FE
:10179000213120E931E06115710581F0C90101971E
:1017A000F1F761507109F7CFC701B6010E942131ED
:1017B00002C061E070E0CB010197F1F7FF90EF907C
:1017C000DF90CF90BF90AF909F908F90089582E070
:1017D00084BD93E095BD9AEF97BD80936E00089508
:1017E0002FB7F8948091E0029091E102A091E2027B
:1017F000B091E3022FBF08952FB7F8946091E002F3
:101800007091E1028091E2029091E3022FBF08956E
:10181000CF92DF92EF92FF920F931F932FB7F8941E
:101820004091E0025091E1026091E2027091E30286
:101830002FBF6A017B01EE24FF248C0120E030E001
:10184000C016D106E206F30610F441505109481BB8
:10185000590BCA011F910F91FF90EF90DF90CF902D
:1018600008951F920F920FB60F9211248F939F939A
:10187000AF93BF938091E0029091E102A091E202C8
:10188000B091E3020196A11DB11D8093E0029093F7
:10189000E102A093E202B093E302BF91AF919F9166
:1018A0008F910F900FBE0F901F901895FC018FE540
:1018B00091E0918380831582108681E08187128672
:1018C0009F012E5F3F4F37832683128288E08383F8
:1018D0008CE3848380E090E041E0DF01A80FB91F32
:1018E0001D961C921D971E964C931E971F961C9238
:1018F0001F971C963C932E931B9705968B3491054E
:1019000061F7EA58FF4F108281E18093E802089561
:101910008091E8020895CF92DF92EF92FF920F93A9
:101920001F93CF93DF931F92CDB7DEB77C01662361
:10193000B1F18C01C12CD12CF801EA5AFF4F808102
:101940009181009719F1DC01ED91FC910084F18502
:10195000E02D698309956981861318C0F601BB964D
:10196000EE0FFF1FEE0DFF1D80819181DC01ED91D7
:10197000FC910480F581E02D0F90DF91CF911F91B4
:101980000F91FF90EF90DF90CF900994BFEFCB1AAB
:10199000DB0A0E5F1F4FE0E1CE16D10469F680E04E
:1019A0000F90DF91CF911F910F91FF90EF90DF90FB
:1019B000CF90089520E030E041E0FC01E20FF31FFA
:1019C0005585561739F04F5F2B5F3F4F4031A9F7D0
:1019D00080E00895842F0895EF92FF921F93CF9394
:1019E000DF9300D0CDB7DEB77C01162F67FD5FC057
:1019F000283008F05CC0442331F0DC0115968C914E
:101A0000873009F454C060E0C7012A8349830E94EB
:101A1000DA0C2A814981882309F449C0E82FF0E0D3
:101A2000111123C085E08E9FD0018F9FB00D11242E
:101A3000AE0DBF1D442359F081E418968C93D70155
:101A400015968C9115978F5F15968C9303C081E046
:101A500018968C9385E08E9FD0018F9FB00D112436
:101A6000AE0DBF1D18968C9123C0612F6770660F55
:101A7000660F660F442361F06064D70115968C9160
:101A800015978F5F15968C938770687F682B03C0BE
:101A90002770687B622B85E08E9FD0018F9FB00DF1
:101AA0001124AE0DBF1D18966C93862F01C080E0E7
:101AB0000F900F90DF91CF911F91FF90EF900895BD
:101AC000CF93DF93EC01611102C006960FC00E9414
:101AD000DA0C882349F09E0145E0849F200D311DDA
:101AE0001124C901069602C080E090E0DF91CF91F9
:101AF0000895CF93DF931F92CDB7DEB749830E943D
:101B0000600D4981009789F0DC01ED91FC911197FE
:101B1000309759F013969C9180E0891731F020811D
:101B2000241731F033968F5FF8CF80E090E001C04A
:101B3000CF010F90DF91CF910895EF92FF921F9305
:101B4000CF93DF931F92CDB7DEB7162F7901211502
:101B5000310569F049830E94600DFC0149810097BD
:101B600041F01283F182E082438380E003C088ED7C
:101B700001C086ED0F90DF91CF911F91FF90EF9004
:101B800008952E980895CF93DF931F92CDB7DEB7B7
:101B900089830E94C10D89818EBD0DB407FEFDCFE2
:101BA0001EBC0DB407FEFDCF0E94CB098EB50F9071
:101BB000DF91CF910895CF93DF9300D0CDB7DEB7FB
:101BC0006A8389830E94C10D898182608EBD6A818A
:101BD0000DB407FEFDCF6EBD0DB407FEFDCF0F9017
:101BE0000F90DF91CF910C94CB098F929F92BF926F
:101BF000CF92DF92EF92FF920F931F93CF93DF93D9
:101C00001F92CDB7DEB74C01B62E690149830E9401
:101C1000600D7C014981009709F443C0FC0180817B
:101C20009181892B09F43FC06B2DC4010E94790D6D
:101C3000F601918380830097C1F1FC0122812695F2
:101C40002695822F90E0409764F441E050E060E0F8
:101C500070E004C0440F551F661F771F2A95D2F706
:101C600002C040E050E841505109F80151834083DF
:101C70006B2D80EE0E94DB0D88ED0E94C30DF701F5
:101C80009481992339F0F401EA58FF4F6081626032
:101C9000682B02C0682F697F88ED0E94DB0D80E011
:101CA00005C086ED03C087ED01C08BED0F90DF917D
:101CB000CF911F910F91FF90EF90DF90CF90BF9049
:101CC0009F908F9008958F929F92AF92BF92CF92E4
:101CD000DF92EF92FF920F931F93CF93DF931F92A8
:101CE000CDB7DEB7A62E890149830E94970B6B0101
:101CF0007C0188E8C80E83E1D81EE11CF11C812C10
:101D0000912CB12C20E04981A42A29830E94970BB1
:101D10006C197D098E099F09298197FF2DC06A2DB5
:101D200080EF0E94DB0D0E94970B6C197D098E09D4
:101D30009F0997FF09C088EC0E94C30D87FFF3CF6E
:101D400060E888EC0E94DB0D88EF0E94C30D282F0D
:101D50002F70243019F02E3059F00EC0EFEF8E1A8C
:101D60009E0A0115110589F28016910671F604C0CC
:101D7000B394F3E0BF12C9CF822F0F90DF91CF91C0
:101D80001F910F91FF90EF90DF90CF90BF90AF9099
:101D90009F908F9008959F92AF92BF92CF92DF92C3
:101DA000EF92FF920F931F93CF93DF937C01B42E9A
:101DB000122FAA24A394DC01A60FB11DA60FB11DFA
:101DC0006D0186E5C80ED11CC42FD0E0AB96CC0FB8
:101DD000DD1FCE0DDF1DD6018D919C91DC01ED91B3
:101DE000FC910280F381E02D202F412F6B2D09956E
:101DF000803EC1F4B1100BC061E088EE0E94DB0DA3
:101E000066E670E080E090E00E94990B15C0888142
:101E10009981DC01ED91FC910284F385E02D612F25
:101E200009950AC08D3031F48FEF8A0D833008F0A8
:101E300042C017C0811142C0F60180819181DC014E
:101E4000ED91FC910190F081E02D202F412F6B2D21
:101E50000995982EBDE08B130CC08FEF8A0D83304F
:101E600050F464E670E080E090E00E94990BA39447
:101E7000B2CF882311F1B1100BC061E088EE0E944F
:101E8000DB0D66E670E080E090E00E94990B11C0E7
:101E9000EB2DF0E0BB96EE0FFF1FEE0DFF1D8081D6
:101EA0009181DC01ED91FC910284F385E02D612F9D
:101EB0000995892D03C08DE001C080E0DF91CF91AD
:101EC0001F910F91FF90EF90DF90CF90BF90AF9058
:101ED0009F9008950F931F93CF93DF9300D0CDB7BA
:101EE000DEB78A016A8389830E94C10D898182607D
:101EF0008EBDF8016A81862F882339F00DB407FE64
:101F0000FDCF91919EBD8150F7CF060F111D0DB4ED
:101F100007FEFDCF0E94CB09C8010F900F90DF9103
:101F2000CF911F910F9108952F923F924F925F9200
:101F30006F927F928F929F92AF92BF92CF92DF92D9
:101F4000EF92FF920F931F93CF93DF9300D000D0B7
:101F50001F92CDB7DEB77D836C835A016901FB0107
:101F600021808FEF820D803408F06FC00E94970BA4
:101F70002B013C01F8E84F0EF3E15F1E611C711C60
:101F8000EC81FD81828180FF02C060E801C060E4D5
:101F900088EE0E94DB0D20E0312CC114D10409F43D
:101FA00044C076012C143D0408F47101EA82A801B2
:101FB0006E2D80E10E946A0F6E2D88E30E94DB0D7A
:101FC000EC81FD816081606280EF0E94DB0D88EC16
:101FD0000E94C30D87FFFBCF60E888EC0E94DB0DF9
:101FE00088EF0E94C30D282F2F70812C912C19820D
:101FF000222309F46BC02B830E94970B6419750987
:10200000860997092B8197FF61C0263001F12E3098
:1020100009F456C0243049F4FFEF8F1A9F0AA11427
:10202000B10459F18A149B0441F588EF2B830E9477
:10203000C30D85FB882780F9EC81FD81928180FBAF
:1020400090F992832B81822F46C08AED44C088EF9D
:102050000E94C30D85FB882780F991E08927EC81D8
:10206000FD81928180FB90F9928390FF02C060E82D
:1020700001C060E488EE0E94DB0D60E088E30E940E
:10208000DB0DF801608180E10E94DB0D6A8188E34D
:102090000E94DB0DEC81FD816081606280EF0E9417
:1020A000DB0D88EC0E94C30D87FFFBCF60E888EC56
:1020B0000E94DB0D88EF0E94C30D282F2F7098CF50
:1020C00089818F5F89838330C1F6AFCFCE18DF0857
:1020D0000E0D1F1D62CF0F900F900F900F900F905D
:1020E000DF91CF911F910F91FF90EF90DF90CF90F4
:1020F000BF90AF909F908F907F906F905F904F9028
:102100003F902F9008952F923F924F925F926F923F
:102110007F928F929F92AF92BF92CF92DF92EF9277
:10212000FF920F931F93CF93DF9300D000D0CDB7D2
:10213000DEB75C017C836B834A017901F901C080C1
:10214000D180FB014180F90111821082FB01828163
:1021500081FF02C060E201C060E188EE0E94DB0DF9
:102160003C2C9401EB81FC81408160E0C5010E9420
:10217000630E582EF6E08F1316C088EF0E94C30D31
:102180008295817091E08927EB81FC81928180FBAF
:1021900091F9928391FF02C060E201C060E188EE94
:1021A0000E94DB0DDECF81115AC088EC0E94C30D66
:1021B00082FF53C080E30E94C30D282E282F30E0F9
:1021C000C216D30608F4232CF70120813181622C3A
:1021D000712CA601421B530B57FF02C040E050E098
:1021E0009301461557050CF49A0129833A830E94FE
:1021F000C10DF8E0FEBD3A8129810DB407FEFDCF87
:10220000F801822F800F8E1739F01EBC0DB407FE27
:10221000FDCF4EB54193F7CF020F131F0E94CB099C
:1022200064E088EC0E94DB0DF70120813181260DEE
:10223000371D31832083241420F02C153D0508F42C
:1022400090CF88EF0E94C30D82958170EB81FC8155
:10225000928180FB91F9928302C030EF532E852D3D
:102260000F900F900F900F90DF91CF911F910F91D2
:10227000FF90EF90DF90CF90BF90AF909F908F90A6
:102280007F906F905F904F903F902F9008952F9286
:102290003F924F925F926F927F928F929F92AF92F6
:1022A000BF92CF92DF92EF92FF920F931F93CF9343
:1022B000DF93CDB7DEB762970FB6F894DEBF0FBEDF
:1022C000CDBF3C01542ED22E402E5E2D2FA038A41F
:1022D000E9A4FAA4188A1F861E861D868E01035F54
:1022E0001F4F9E01215F3F4F598B0E94F50D598969
:1022F000811193C0D9824A825B83CC82BE82AD8237
:1023000098868F82AE014F5F5F4F68E080E20E9447
:102310006A0F2D853E85452D60E1C3010E94630E45
:10232000182F811179C0BD2CBB1CBB24BB1CE11430
:10233000F10409F465C0EF85F8898281BB2009F4B6
:1023400052C0826082836401AA24A394C114D10480
:1023500009F454C03C862B864D855E856F8578894F
:1023600087019E01255F3F4FC3010E948310182FF4
:102370008630B1F42F85388988EF298B3A8B0E94FB
:10238000C30D85FB882780F98A2529893A89D901D7
:1023900012969C91129780FB91F912969C93D6CF3E
:1023A00081113AC0EBA5FCA53097A1F00190F08116
:1023B000E02D0190F081E02DC4018C199D099A87D0
:1023C00089876B857C859E01275F3F4FA7018BA581
:1023D0009CA509958B859C85C81AD90A82159305F9
:1023E00008F0B4CF0DC0816082834D855E85870182
:1023F0009101BF01C3010E94940F182F11110CC04D
:102400002D853E85BB2011F060EA01C060E8452DB6
:10241000C3010E94630E01C0812F62960FB6F8942B
:10242000DEBF0FBECDBFDF91CF911F910F91FF9007
:10243000EF90DF90CF90BF90AF909F908F907F9064
:102440006F905F904F903F902F9008958F929F9242
:10245000AF92BF92CF92EF920F931F931F921F9252
:102460001F930F933F932F934901A12CB12CCC24A0
:10247000C394E12C06E020E80E9447110F900F90D2
:102480000F900F900F900F901F910F91EF90CF90A2
:10249000BF90AF909F908F9008958F929F92AF9230
:1024A000BF92CF92EF92FF920F931F921F92FF92D3
:1024B000EF923F932F934901A12CB12C52E0C52EEE
:1024C000E02E06E020E80E9447110F900F900F9039
:1024D0000F900F900F900F91FF90EF90CF90BF90C3
:1024E000AF909F908F9008953F924F925F926F921E
:1024F0007F928F929F92AF92BF92CF92DF92EF9294
:10250000FF920F931F93CF93DF93CDB7DEB7C054E5
:10251000D1090FB6F894DEBF0FBECDBF3C01562ED9
:10252000442E322EB02ECE0101966C017C01022F7A
:1025300029E030E0C3010E944D1281111BC08B8045
:102540009C801F93BF92DF92CF921F9280E48F9363
:10255000A12CB12C62E0C62EE32C06E020E8442D2D
:10256000652DC3010E9447110F900F900F900F909F
:102570000F900F90C05CDF4F0FB6F894DEBF0FBE18
:10258000CDBFDF91CF911F910F91FF90EF90DF9022
:10259000CF90BF90AF909F908F907F906F905F9003
:1025A0004F903F9008958F929F92AF92BF92CF929B
:1025B000EF920F93CF931F921F921F921F921F9221
:1025C0001F92812C912CA12CB12CC12CE22E05E064
:1025D00020E00E944711C82F6CE271E080E090E09B
:1025E0000E94990B0F900F900F900F900F900F90EB
:1025F0008C2FCF910F91EF90CF90BF90AF909F9085
:102600008F9008958F929F92AF92BF92CF92EF9248
:102610000F931F921F921F921F921F921F92812C45
:10262000912CA12CB12CC12CE22E09E020E00E94BB
:1026300047110F900F900F900F900F900F900F91E8
:10264000EF90CF90BF90AF909F908F900895AF92F2
:10265000BF92CF92DF92EF92FF920F931F93CF938F
:10266000DF9300D000D0CDB7DEB77C0169015801FF
:102670001C821B821A8219828E010F5F1F4F9E01DE
:102680002D5F3F4F0E94F50D811109C049815A818C
:102690006B817C8185019601C7010E9483100F9098
:1026A0000F900F900F90DF91CF911F910F91FF909E
:1026B000EF90DF90CF90BF90AF900895CF92DF92D0
:1026C000FF920F931F93CF93DF9300D0CDB7DEB768
:1026D0006C01662309F442C0062F10E085E0689F74
:1026E000B0011124F601E60FF71F8085282F27700F
:1026F00086FF19C031E0E5E0FE2EF601F39EE00D05
:10270000F11D1124808586958695869587708217A0
:10271000E1F03F5F303188F3F6018581821303C019
:102720002150F601258385E0809FF001819FF00D07
:102730001124EC0DFD1D108681E08187128682E058
:10274000C80ED11CD782C68209C0632FC6012A8356
:1027500039830E945E132A813981CFCF0F900F9069
:10276000DF91CF911F910F91FF90DF90CF9008954F
:10277000CF93DF93EC016134A1F4FC01855B9F4FA3
:1027800041E09E012E5F3F4F1586468717863487AE
:1027900023873596E817F907B9F71D82DF91CF91A6
:1027A00008950E94DA0C682FCE01DF91CF910C942E
:1027B0005E130F931F93CF93DF93EC01022FCA3F59
:1027C0008FEFD80711F486ED29C08E819F81892B68
:1027D00001F12A87242F40E0CE010E94EC0C182F33
:1027E0008823C9F0682FCE010E94600D009759F32D
:1027F000FC010483212F40E060E0CE010E94D3124F
:10280000082F882351F0612FCE010E94B813802F2A
:1028100005C087ED03C084ED01C080E0DF91CF915A
:102820001F910F9108952F923F924F925F926F9256
:102830007F928F929F92AF92BF92CF92DF92EF9250
:10284000FF920F931F93CF93DF93CDB7DEB76697B9
:102850000FB6F894DEBF0FBECDBF7C01862E742E5E
:10286000922E1B8A88E08C8B8CE38D8BD701ED91A7
:10287000FC910190F081E02D60E0C70109956C01A9
:10288000009709F4ABC0FC01A080B180CE01439653
:102890009183808394828E010F5F1F4F22E130E08D
:1028A00040E060E0C7010E942612D601AD92BC92C2
:1028B0008111ACC029843A844B845C84BD81BE8B79
:1028C0001E815701612C6501E6E5CE0ED11CD601B3
:1028D0008D919C91009789F1DC01ED91FC91008430
:1028E000F185E02D0995811128C0F6018081918143
:1028F000DC01ED91FC910088F189E02D612F0995B3
:102900008823D9F0F60180819181DC01ED91FC9161
:102910000484F585E02DA201B1010995811160C003
:10292000F60180819181DC01ED91FC910684F785AF
:10293000E02D6E890995811153C06394B2E0AB0E0E
:10294000B11CE0E16E12BFCF5701612C6501F6E5C5
:10295000CF0ED11CD6018D919C91009789F1DC019D
:10296000ED91FC910084F185E02D0995811128C03D
:10297000F60180819181DC01ED91FC910088F18963
:10298000E02D612F09958823B1F1F60180819181B5
:10299000DC01ED91FC910484F585E02DA201B101EB
:1029A000099581110DC0F60180819181DC01ED91C5
:1029B000FC910684F785E02D6E8909958823D9F06E
:1029C0006394B2E0AB0EB11CE0E16E12BFCF292DD3
:1029D000472D682DC7010E94D91318C086ED16C077
:1029E000092D272D482D662DC7010E94CB0E813D54
:1029F00009F4A3CF0BC0092D272D482D662DC70143
:102A00000E94CB0E982F977F913DD1F266960FB61C
:102A1000F894DEBF0FBECDBFDF91CF911F910F9114
:102A2000FF90EF90DF90CF90BF90AF909F908F90EE
:102A30007F906F905F904F903F902F900895FF92FE
:102A40000F931F93CF93DF93EC011D990EC088EC79
:102A50000E94C30D85FF05C0CE010E94E60960E219
:102A600001C060E088EC0E94DB0D80919B01813009
:102A700051F058F0823029F0833039F5FF24F39477
:102A80000DC0F12C0BC083E106C08091E802807F6D
:102A90008031D9F081E18093E80217C08091E8028B
:102AA000807F803199F40E94970B68537F4F8F4F3E
:102AB0009F4F6093E4027093E5028093E602909347
:102AC000E70280E28093E80201C0F12C00E010E010
:102AD000FE01E00FF11FEA5AFF4F808191810097BC
:102AE00039F0DC01ED91FC910680F781E02D09952C
:102AF0000E5F1F4F0032110559F78091E8028034B4
:102B000009F446C070F4803269F18033D9F1813123
:102B100009F088C0FE01EA58FF4F108200E010E083
:102B20000AC0813509F45AC0803809F46AC080357A
:102B300009F078C03CC0FE01E00FF11FEA5AFF4FD8
:102B400080819181009739F0DC01ED91FC91048046
:102B5000F581E02D09950E5F1F4F0032110559F7E1
:102B600082E15EC00E94970B0091E4021091E502A1
:102B70002091E6023091E702601B710B820B930BF0
:102B800097FD50C061E088EE0E94DB0D80E448C0F4
:102B900088EE0E94C30D80FD45C088ED0E94C30DE4
:102BA000682F686088ED0E94DB0D80E539C088ECF5
:102BB0000E94C30D86FF36C081E58093E8020E9423
:102BC000970B6C5E7F4F8F4F9F4F6093E402709323
:102BD000E5028093E6029093E70224C00E94970BDF
:102BE0000091E4021091E5022091E6023091E702A3
:102BF000601B710B820B930B97FD14C080E88093D0
:102C0000E8022F2D40E060E0CE010E9413148823DB
:102C100031F0823D39F08093E90280EA01C080E919
:102C20008093E802DF91CF911F910F91FF9008955B
:102C30008F929F92AF92BF92CF92EF920F93CF93CA
:102C4000DF93CDB7DEB7C054D1090FB6F894DEBF1D
:102C50000FBECDBF5F934F939E012F5F3F4F3F93BA
:102C60002F931F9220E42F9320E8822E912C5B015A
:102C700032E2C32EE12C06E021E840E0FC0166814F
:102C8000848195810E9447110F900F900F900F90B3
:102C90000F900F90C05CDF4F0FB6F894DEBF0FBEF1
:102CA000CDBFDF91CF910F91EF90CF90BF90AF90BC
:102CB0009F908F9008958F929F92AF92BF92CF92E4
:102CC000DF92EF92FF920F938E2CA42EB12C1F92C5
:102CD0001F92DF92CF92FF92EF929F2CC22EE02E96
:102CE00009E021E2462FFC016681848195810E94E2
:102CF00047110F900F900F900F900F900F900F9122
:102D0000FF90EF90DF90CF90BF90AF909F908F900B
:102D100008958F929F92AF92BF92CF92EF920F93AE
:102D2000A62EB12C1F921F921F921F921F921F92CC
:102D3000812C912CC22EE42E0AE021E240E0FC011D
:102D40006681848195810E9447110F900F900F90AA
:102D50000F900F900F900F91EF90CF90BF90AF908A
:102D60009F908F9008958F929F92AF92BF92CF9233
:102D7000EF920F93A62EB12C1F921F921F921F92BB
:102D80001F921F92812C912CC12CE42E0BE021E28A
:102D900040E0FC016681848195810E9447110F907B
:102DA0000F900F900F900F900F900F91EF90CF908A
:102DB000BF90AF909F908F900895FC0182850895F9
:102DC00081E0693009F080E00895CF93DF93EC0152
:102DD0008A819B81DC01ED91FC910480F581E02DDD
:102DE0006A8509958A85813439F4EA81FB81EA583C
:102DF000FF4F8081846080831A861B861C861D8617
:102E00001E861F86188A80E0DF91CF9108958F92E9
:102E10009F92AF92BF92CF92EF920F93A42EB12CBC
:102E2000B22A1F921F921F921F921F921F92812CF3
:102E3000912CC12CE62E01E023E240E0FC016285EA
:102E4000828193810E9447110F900F900F900F90F5
:102E50000F900F900F91EF90CF90BF90AF909F90F9
:102E60008F9008958F929F92AF92BF92CF92EF92E0
:102E70000F93A62EB12C1F921F923F932F935F9317
:102E80004F934A01C12CE12C00E023EA40E0FC0111
:102E90006285828193810E9447110F900F900F905D
:102EA0000F900F900F900F91EF90CF90BF90AF9039
:102EB0009F908F9008958F929F92AF92BF92CF92E2
:102EC000EF920F93A42EB12CB22A1F921F921F9241
:102ED0001F921F921F92812C912CC12CE62E03E091
:102EE00023E240E0FC016285828193810E944711C8
:102EF0000F900F900F900F900F900F900F91EF90F9
:102F0000CF90BF90AF909F908F9008952F923F9257
:102F10004F925F926F927F928F929F92AF92BF92E9
:102F2000CF92DF92EF92FF920F931F93CF93DF9395
:102F3000CDB7DEB7E9970FB6F894DEBF0FBECDBFB1
:102F40003C01362E242EDC011296ED90FC90139756
:102F50001A968C91811103C1D701ED91FC910190DA
:102F6000F081E02D60E0C70129AF09956C0129AD22
:102F7000009709F4F6C0FC01A080B180A114B1044F
:102F800009F4F1C04301F4E08F0E911CDC011196AD
:102F90009C928E9214962C93FE0131962F018F01F4
:102FA00028E030E040E060E0D30112968D919C91E2
:102FB00013970E942612F60114828111DAC019813A
:102FC0008D81893009F0D1C0D701ED91FC9102804B
:102FD000F381E02D222D41E0632DC7010995F30116
:102FE0008287882309F4C3C098859583282F40E001
:102FF00060E0828193810E94D312082F882391F090
:10300000D601AD92BC92D701ED91FC910480F5817F
:10301000E02DD3011A966C91C7010995F301128630
:10302000102FABC0113208F010E2D601AD92BC9265
:1030300011110BC0940142E0F301628582819381FA
:103040000E949D0D811198C011C0212F30E0820196
:1030500040E0D3011A966C911A9712968D919C912B
:1030600013970E942612811187C0E4CF1F921F92EE
:103070005F924F921F9288E08F9388E0882E912C68
:10308000A12CB12C99E2C92EE12C06E020EA40E007
:10309000F3016285828193810E944711182F0F905E
:1030A0000F900F900F900F900F90811166C08B8141
:1030B000D3011B968C931B97720100E028E030E04F
:1030C00040E01A966C911A9712968D919C911397E5
:1030D0000E944D12811150C02B813C8140E0F301D0
:1030E0006285828193810E944D12811145C02981A0
:1030F00030E0CE0181967C0140E0D3011A966C91BC
:103100001A9712968D919C9113970E944D128111DE
:1031100033C02E8140E0F3016285828193810E9459
:103120000213811129C001E0D3011B968C911B97DA
:10313000801740F020E0402F68E0C3010E945B1739
:103140000F5FF2CF1296ED91FC911397EA58FF4F63
:1031500080818460808381E050968C930EC019ED4D
:103160000CC016ED0AC017ED08C011ED06C014ED35
:1031700004C0F601B182A082182F812FE9960FB604
:10318000F894DEBF0FBECDBFDF91CF911F910F919D
:10319000FF90EF90DF90CF90BF90AF909F908F9077
:1031A0007F906F905F904F903F902F900895BF92C7
:1031B000CF92DF92EF92FF920F931F93CF93DF9303
:1031C00000D000D0CDB7DEB77C01B62E19821A82AE
:1031D0001B821C8220E0462F61E10E94071720E03D
:1031E0004B2D60E1C7010E94071720E04B2D64E0E2
:1031F000C7010E945B1723E0C22ED12C9E012F5FD6
:103200003F4F44E050E06B2DC7010E9432178823E6
:1032100001F120E04B2D64E1C7010E94071720E077
:103220004B2D60E1C7010E94071764E170E080E068
:1032300090E00E94990B0F900F900F900F90DF91EC
:10324000CF911F910F91FF90EF90DF90CF90BF90A3
:10325000089509811A812B813C811D7F0330114023
:1032600020413105B1F264E670E080E090E00E9418
:10327000990B81E0C81AD108C114D10409F0BECF5E
:10328000C8CFCF93DF93FC0189E691E091838083DF
:1032900073836283128613861486158616861786B4
:1032A000108A148288E085839CE3968391E097835B
:1032B000808784E0818761157105B9F0CB01A0E0BA
:1032C000B0E0EC01CA5ADF4F28813981232B41F449
:1032D0009B96AA0FBB1FA60FB71FED93FC9305C0CB
:1032E00011960296A031B10561F7DF91CF91089553
:1032F000DF92EF92FF920F931F93CF93DF93EC0136
:10330000D62E7A01FA0100811181228133810130A8
:10331000F3E01F07F1E02F073105D1F060F401154C
:10332000E1E01E072E07310571F101301140214007
:10333000310571F062C0033081E0180780E1280791
:103340003105E1F10330134020413105B9F155C099
:103350008091EA02811151C020E04D2D61E1CE0142
:103360000E94071720E04D2D60E1CE010E94071753
:1033700020E04D2D64E0CE010E945B1781E0809338
:10338000EA0281EB3BC020E0462F61E1CE010E94C2
:10339000071720E04D2D60E1CE010E940717109223
:1033A000EA026A8567708D2D8770660F660F660F5B
:1033B000682B8A819B810E948B0C1FC020E04D2DC1
:1033C00064E1CE010E94071720E04D2D60E1CE019F
:1033D0000E94071764E170E080E090E00E94990B82
:1033E0006A85F70121812695217067704D2D8A81AC
:1033F0009B810E9413141092EA0280E0DF91CF912A
:103400001F910F91FF90EF90DF900895EF92FF9240
:103410000F931F93CF93DF93CDB7DEB72E970FB6E1
:10342000F894DEBF0FBECDBF7C0181E090E09E87A7
:103430008D878E010F5F1F4F9E01235F3F4F41E03D
:10344000F7016285828193810E942713811151C007
:1034500002E011E089818023D1F019861A861B864B
:103460001C869E01275F3F4F44E050E0612FC7015B
:103470000E94321781110BC0AE01475F5F4F612F71
:10348000C7010E947819813B99F1811132C0000F68
:103490001F5F1830F9F611E0F7018385811740F1BD
:1034A00019861A861B861C869E01275F3F4F44E0C3
:1034B00050E0612FC7010E943217811117C0898522
:1034C0009A85877091708130914081F48B859C85BD
:1034D00081609C878B87AE01475F5F4F612FC7017B
:1034E0000E947819813B21F0811103C01F5FD4CF66
:1034F00080E02E960FB6F894DEBF0FBECDBFDF91F1
:10350000CF911F910F91FF90EF9008950F931F930C
:10351000CF93DF93EC0188898823F1F00E94970B09
:103520000C851D852E853F85601B710B820B930BCF
:1035300097FD0FC0CE010E94061A182F0E94970B0C
:103540006C597F4F8F4F9F4F6C877D878E879F87EA
:1035500001C010E0812F01C080E0DF91CF911F9169
:103560000F910895CF93DF93FC01EA01808191814F
:10357000892B21F580E028C088819981892BD1F39E
:10358000DB018D919C91DC015C91238130E0241B57
:10359000310980819181820F931FDC015C938281CC
:1035A0008150828388819981019799838883DB0187
:1035B0008D919C91119701968D939C93428141111D
:1035C000DBCF8381828381E0DF91CF910895CF9219
:1035D000DF92EF92FF920F931F93CF93DF936C01D3
:1035E0007A01EB01E60EF71E00E010E0CE15DF05D4
:1035F00061F06991D601ED91FC910190F081E02D8F
:10360000C6010995080F191FF1CFC801DF91CF91AD
:103610001F910F91FF90EF90DF90CF9008958091D0
:10362000F70208959FB7F8941092EE029FBF909111
:103630007A03943009F058C09091E9009F7020916E
:10364000EC0020FF02C020E801C020E0292B94E01C
:103650009093E9009091EB0090FF43C09091EE00B1
:1036600097FF3FC09091EB02992321F09091E800E1
:1036700095FF37C01092EB0296E03091E80035FDDF
:1036800015C030917A03343061F53091EB0035FD8F
:1036900028C0915021F481E08093EB0222C0EFE931
:1036A000FFE03197F1F700C00000E7CF8093F10011
:1036B0008091E80085FD0AC08091E80080FFFCCF82
:1036C0008091E8008E778093E80006C08FB7F89469
:1036D00091E09093EE028FBF2F702093E90080E07D
:1036E00008952F702093E9008FEF0895CF93DF9313
:1036F00000D01F92CDB7DEB720917A03243019F5A0
:1037000023E029839B838A832093E9008FEF9091A4
:10371000E800815095FD06C095ED9A95F1F70000FF
:103720008111F5CF8091E80085FF0DC040E050E0A9
:1037300063E070E0CE0101960E94C01D8091E80018
:103740008E778093E8000F900F900F90DF91CF91CC
:103750000895CF93DF9300D01F92CDB7DEB72091AD
:103760007A03243021F522E029839B838A8383E036
:103770008093E9008FEF9091E800815095FD06C09D
:1037800095ED9A95F1F700008111F5CF8091E80051
:1037900085FF0DC040E050E063E070E0CE0101968F
:1037A0000E94C01D8091E8008E778093E8000F9002
:1037B0000F900F90DF91CF91089520917A032430DC
:1037C000F1F422E02093E9002FEF3091E80021503E
:1037D00035FD06C035ED3A95F1F700002111F5CF22
:1037E0002091E80025FF0BC040E050E065E070E06C
:1037F0000E94C01D8091E8008E778093E8000895B4
:10380000CF93DF93EC0180917A03843039F581E026
:103810008093E9008FEF9091E800815095FD06C0FC
:1038200095ED9A95F1F700008111F5CF8091E800B0
:1038300085FF14C040E050E068E070E0CE010E94D7
:10384000C01D8091E8008E778093E80088E0FE013B
:10385000AFEEB2E001900D928A95E1F7DF91CF9142
:1038600008958DE293E00E941903809179038111FC
:1038700009C00E94521F0E94AF1F8091E200846025
:103880008093E200089589E293E00E941903109268
:103890007903089508958091EC028F5F8093EC0284
:1038A00062E30E946632911135C01092EC02809161
:1038B000EE02882379F180917A03843049F5809172
:1038C000E9008F709091EC0090FF02C090E801C079
:1038D00090E0982B84E08093E9008091EB0080FFDA
:1038E00014C08091EE0087FF10C08091E80085FF32
:1038F00003C01092F100F9CF8091E80080FF05C06D
:103900008091E8008E778093E8009F709093E900A3
:103910001092EE02089542E061EC81E00E94CC1E1C
:1039200042E061EC82E00E94CC1E42E061EC83E068
:103930000E94CC1E42E261EC84E00C94CC1E80918B
:103940007C03833009F453C030F4813071F082304D
:1039500009F48CC008958A3009F478C08B3009F4DA
:103960005EC0893009F09AC020C080917B03813A03
:1039700009F094C08091E800877F8093E8008091EF
:103980007F0390918003892B21F060E080E090E03C
:1039900003C068E08FEE92E070E00E94091E809103
:1039A000E8008B778093E800089580917B03813253
:1039B00009F074C080917F0390918003892B09F0F6
:1039C0006DC08091E800877F8093E8008091E800D7
:1039D00082FD05C080917A038111F8CF5FC080918C
:1039E000F1008093F7028091E8008B7753C08091BB
:1039F0007B03813A09F052C080917F03909180034C
:103A0000892B09F04BC08091E800877F8093E80004
:103A10008091E80080FFFCCF80910A0136C0809140
:103A20007B038132D9F580917F0390918003892BAC
:103A3000A9F58091E800877F8093E8000E94011F2C
:103A400080917D0380930A010C94C52780917B03AC
:103A5000813221F58091E800877F8093E8000E9401
:103A6000011F80917E038093F802089580917B036B
:103A7000813AA1F48091E800877F8093E8008091EB
:103A8000E80080FFFCCF8091F8028093F1008091E4
:103A9000E8008E778093E8000C94011F08958091D0
:103AA000F7028093ED021092F70280E00E9456091F
:103AB0000E94B7230C94C5270C944F1D0E940A2E18
:103AC0008091ED028093F70208950C945E1D292FDA
:103AD000332723303105A9F06CF42130310509F486
:103AE00042C02230310509F043C084E790E023E86A
:103AF00033E042C021323105C9F02232310519F1DB
:103B000037C099278130910541F08230910541F00D
:103B1000892B71F5EFE7F3E005C0EFE6F3E002C0B3
:103B2000E1E3F3E0849190E09F0126C0643000F56A
:103B3000E62FF0E0EE0FFF1FE957FE4F20813181A5
:103B400089E090E019C0643098F4E62FF0E0DF01DE
:103B5000AA0FBB1FA158BE4F2D913C91E558FE4FB7
:103B6000808190E009C082E190E027EF33E004C05B
:103B700080E090E020E030E0FA0131832083089576
:103B8000CF92DF92EF92FF920F931F93CF93DF9329
:103B90007C018B01EA010E94221F811131C0209714
:103BA00031F088819981081B190BE80EF91EC12C90
:103BB000D12C0115110519F18091E80085FD14C083
:103BC0008091E8008E778093E800209741F088810B
:103BD00099818C0D9D1D9983888385E011C00E9479
:103BE000221F882331F30CC0F70181917F0180935C
:103BF000F10001501109FFEFCF1ADF0ADACF80E0A0
:103C0000DF91CF911F910F91FF90EF90DF90CF90B8
:103C1000089520918103309182032617370748F0D9
:103C20006115710539F42091E8002E772093E800A2
:103C300001C0B901FC0120E061157105B9F1809165
:103C40007A03882309F440C0853009F43FC080918D
:103C5000E80083FD3DC08091E80082FF06C08091AE
:103C6000E80082FF26C080E008958091E80080FF90
:103C7000E3CF2091F3008091F20090E0922B611548
:103C8000710551F08830910538F421912093F100AD
:103C9000615071090196F3CF21E0089709F020E007
:103CA0008091E8008E778093E800C6CF2111C7CFBE
:103CB000D6CF80917A03882339F0853039F080910E
:103CC000E80083FFCCCF04C082E0089583E008952C
:103CD00081E00895209181033091820326173707F0
:103CE00048F06115710539F42091E8002E77209392
:103CF000E80001C0B901FC0120E061157105C1F1C6
:103D000080917A03882309F441C0853009F440C0CA
:103D10008091E80083FD3EC08091E80082FF06C0EC
:103D20008091E80082FF27C080E008958091E8003C
:103D300080FFE3CF2091F3008091F20090E0922B7E
:103D40006115710559F08830910540F42491209354
:103D5000F1003196615071090196F2CF21E0089788
:103D600009F020E08091E8008E778093E800C5CFCD
:103D70002111C6CFD5CF80917A03882339F08530C1
:103D800039F08091E80083FFCBCF04C082E0089532
:103D900083E0089581E00895982F973058F5909327
:103DA000E900981739F07091EC002091ED005091E6
:103DB000F00003C0242F762F50E021FF19C030916E
:103DC000EB003E7F3093EB003091ED003D7F309370
:103DD000ED003091EB0031603093EB007093EC001C
:103DE0002093ED005093F0002091EE0027FF07C0D4
:103DF0009F5FD3CF8F708093E90081E0089580E0CA
:103E0000089580917B0387FD05C08091E80080FFC5
:103E10000EC012C08091E80082FD05C080917A0337
:103E20008111F8CF08958091E8008B7708C08091C8
:103E30007A038111EACF08958091E8008E7780930C
:103E4000E80008958091E4009091E50045E6209116
:103E5000EC0020FF21C02091E80020FD21C020912E
:103E60007A03222389F0253089F02091EB0025FD8B
:103E70000FC02091E4003091E5002817390739F38D
:103E8000415041F0C901E3CF82E0089583E00895F5
:103E900081E0089584E008952091E80022FFDFCFBB
:103EA00080E008950E94C01F0E94C81FE0EEF0E06D
:103EB000808181608083E8EDF0E080818F7780836E
:103EC00019BCA7EDB0E08C918E7F8C9380818F7EA2
:103ED00080831092790308950F931F93CF93DF93FC
:103EE0000E94C01F0E94C81FC8EDD0E088818F7754
:103EF000888388818068888388818F7D888319BCC6
:103F000010927A031092760310927803109277033E
:103F100000EE10E0F80180818B7F808388818160D2
:103F2000888342E060E080E00E94CC1EE1EEF0E099
:103F300080818E7F8083E2EEF0E0808181608083EB
:103F4000808188608083F80180818E7F8083888172
:103F500080618883DF91CF911F910F910895E8EDE3
:103F6000F0E080818F7E8083E7EDF0E080818160EA
:103F7000808384E082BF81E0809379030C946C1F7E
:103F8000E8EDF0E080818E7F80831092E20008955A
:103F90001092DA001092E10008951F920F920FB66E
:103FA0000F9211242F933F934F935F936F937F93BF
:103FB0008F939F93AF93BF93EF93FF938091E10013
:103FC00082FF0BC08091E20082FF07C08091E10078
:103FD0008B7F8093E1000E944B1C8091DA0080FF70
:103FE0001FC08091D80080FF1BC08091DA008E7FB7
:103FF0008093DA008091D90080FF0DC080E189BDF7
:1040000082E189BD09B400FEFDCF81E080937A038F
:104010000E94311C05C019BC10927A030E94431CF7
:104020008091E10080FF19C08091E20080FF15C0FF
:104030008091E2008E7F8093E2008091E2008061B7
:104040008093E2008091D80080628093D80019BCF0
:1040500085E080937A030E945C1D8091E10084FFDB
:1040600030C08091E20084FF2CC080E189BD82E1F4
:1040700089BD09B400FEFDCF8091D8008F7D80936B
:10408000D8008091E1008F7E8093E1008091E20072
:104090008F7E8093E2008091E20081608093E20055
:1040A00080917603882311F084E007C08091E300BB
:1040B00087FF02C083E001C081E080937A030E9401
:1040C000651D8091E10083FF29C08091E20083FF9C
:1040D00025C08091E100877F8093E10082E080939A
:1040E0007A03109276038091E1008E7F8093E10045
:1040F0008091E2008E7F8093E2008091E2008061F7
:104100008093E20042E060E080E00E94CC1E80915B
:10411000F00088608093F0000E944A1CFF91EF91AC
:10412000BF91AF919F918F917F916F915F914F91CF
:104130003F912F910F900FBE0F901F9018951F92D7
:104140000F920FB60F9211242F933F934F935F93CB
:104150006F937F938F939F93AF93BF93CF93EF937F
:10416000FF93C091E900CF708091EC001092E900BC
:104170008091F000877F8093F00078940E94DB208C
:104180001092E9008091F00088608093F000C09365
:10419000E900FF91EF91CF91BF91AF919F918F91E6
:1041A0007F916F915F914F913F912F910F900FBE33
:1041B0000F901F9018951F93CF93DF93CDB7DEB765
:1041C000AA970FB6F894DEBF0FBECDBFEBE7F3E0C2
:1041D0008091F100819323E0E338F207C9F70E9450
:1041E0009F1C8091E80083FF1CC120917B033091CC
:1041F0007C03832F90E08A30910508F012C1FC0106
:10420000EA5AFF4F0C948632203881F0223809F0A8
:1042100008C180917F038F708093E9008091EB004B
:1042200085FB882780F91092E90006C0809177030A
:1042300090917803911182609091E800977F90931C
:10424000E8008093F1001092F100C5C0822F8D7FAD
:1042500009F0E7C0222319F0223061F0E2C080911A
:104260007D03813009F0DDC0333009F080E08093B8
:10427000780328C080917D03811124C020917F03A1
:104280002F7009F4CEC02093E9008091EB0080FFED
:1042900019C08091EB00333011F4806211C080614D
:1042A0008093EB0081E090E0022E01C0880F0A9419
:1042B000EAF78093EA001092EA008091EB008860B0
:1042C0008093EB001092E9008091E800877F86C020
:1042D0002111A7C010917D031F778091E3008078A2
:1042E000812B8093E3008091E800877F8093E80032
:1042F0000E94011F8091E80080FFFCCF8091E300C5
:1043000080688093E300112311F083E001C082E014
:1043100080937A0386C02058223008F082C08091B2
:104320007D0390917E038C3D23E0920779F583E035
:104330008A838AE289834FB7F894DE01139620E0DE
:104340003EE051E2E32FF0E050935700E49120FF6C
:1043500003C0E295EF703F5FEF708E2F90E0EA3080
:1043600010F0C79601C0C0968D939D932F5F2431A6
:1043700049F74FBF8091E800877F8093E8006AE2A9
:1043800070E0CE0101960E94091E14C0AE014F5F7D
:104390005F4F60917F030E94671D009709F441C041
:1043A0002091E800277F2093E800BC0189819A8151
:1043B0000E946A1E8091E8008B778093E80031C0EC
:1043C000203879F58091E800877F8093E80080911C
:1043D00076038093F1008091E8008E778093E80067
:1043E0000E94011F1EC021111CC090917D039230BC
:1043F000C0F48091E800877F8093E8009093760373
:104400000E94011F80917603811104C08091E30016
:1044100087FF02C084E001C081E080937A030E949C
:104420008B1C8091E80083FF0AC08091E800877FA1
:104430008093E8008091EB0080628093EB00AA9665
:104440000FB6F894DEBF0FBECDBFDF91CF911F91A5
:1044500008959093FE028093FD020895E091FD027D
:10446000F091FE02309721F00190F081E02D099447
:1044700080E00895FF920F931F93CF93DF938C01F9
:10448000E091FD02F091FE02309799F10280F381F4
:10449000E02D099580916B0382FF2BC080FF04C043
:1044A00084E195E00E941903E80188E0F82E0EE00F
:1044B00015E080916B0380FF0BC088811F928F9362
:1044C0001F930F930E94B2030F900F900F900F90C5
:1044D000FA942196F110EDCF80916B0380FF09C013
:1044E0008CE095E0DF91CF911F910F91FF900C949C
:1044F0001903DF91CF911F910F91FF900895E091E3
:10450000FD02F091FE02309721F00480F581E02D4C
:1045100009940895CF93DF93EC018091FB02909171
:10452000FC02C817D90709F1D093FC02C093FB0223
:10453000E091FD02F091FE023097B9F00680F7811C
:10454000E02DCE01099580916B0382FF0EC080FFA4
:104550000CC0DF93CF938EEF94E09F938F930E94D4
:10456000B2030F900F900F900F90DF91CF910895AD
:10457000CF93DF93EC018091F9029091FA02C81772
:10458000D90709F1D093FA02C093F902E091FD0234
:10459000F091FE023097B9F00084F185E02DCE0154
:1045A000099580916B0382FF0EC080FF0CC0DF93E2
:1045B000CF938EEE94E09F938F930E94B2030F905F
:1045C0000F900F900F90DF91CF9108950E94E70B0D
:1045D0000C94630A5F926F927F928F929F92AF9238
:1045E000BF92CF92DF92EF92FF920F931F93CF93E0
:1045F000DF9300D000D01F92CDB7DEB70E94D50761
:1046000000E013E0512C88248394912C852D0E9486
:10461000EC085C01F801C080D180C826D926C114FD
:10462000D10439F453940E5F1F4FF0E15F12EECFC7
:104630003FC080916B0381FD0E941C09E12CF12C8D
:1046400034010E2C02C0660C771C0A94E2F7C301F9
:104650008C219D21892B21F1E9825A8221E0C3011D
:104660008A219B21892B09F420E02B830E94F00BE7
:104670008160782F9D838C8349815A816B818D81E4
:104680000E94B82349815A816B817C818D810E946F
:10469000F72DF801208131812625372531832083AC
:1046A000FFEFEF1AFF0A80E1E816F10449F6BACFEE
:1046B0008FEF89838A831B820E94F00B8160782FA1
:1046C0009D838C8349815A816B818D810E94B8239F
:1046D0000E94F62D0E946B301091FF020E942E2244
:1046E000181771F10E942E228093FF0290916B03A4
:1046F00092FF0EC090FF0CC01F928F938FE195E048
:104700009F938F930E94B2030F900F900F900F9082
:104710008091FF020F900F900F900F900F90DF91FC
:10472000CF911F910F91FF90EF90DF90CF90BF90AE
:10473000AF909F908F907F906F905F900C94082E19
:104740000F900F900F900F900F90DF91CF911F91CE
:104750000F91FF90EF90DF90CF90BF90AF909F9020
:104760008F907F906F905F9008950C9456090895F4
:10477000CF93DF93CDB7DEB72B970FB6F894DEBF9C
:104780000FBECDBF4F83588769877A878B878A850D
:104790009B85892B31F05F3F11F080E003C04F3FD4
:1047A000E1F781E0811107C04F81588569857A85DD
:1047B0008B850E94F72DDE01119686E0FD01119296
:1047C0008A95E9F785E0FE01379601900D928A956A
:1047D000E1F749815A816B817C818D819E810E94A4
:1047E000A32A2B960FB6F894DEBF0FBECDBFDF9184
:1047F000CF910895882309F45CC09CEF980F913AFB
:1048000020F090E5980F9E3218F40E941E2D0DC0E6
:1048100090E2980F983058F4877091E001C0990F9A
:104820008A95EAF7892F0E94632D0C949F2D9BE5B2
:10483000980F933070F4853A29F0863A31F482E883
:1048400090E005C081E890E002C083E890E00C941D
:104850008A2298E5980F953160F5883A89F0893A6F
:1048600091F08A3A99F08B3AA1F08C3AA9F08D3AFE
:10487000B1F08E3AB9F08F3AC1F487EB90E017C0EF
:1048800082EE90E014C089EE90E011C08AEE90E0D4
:104890000EC085EB90E00BC086EB90E008C083EB88
:1048A00090E005C084EB90E002C080E090E00C94C2
:1048B000B8220895882349F19CEF980F913A20F08F
:1048C00090E5980F9E3218F40E943F2D0DC090E2A3
:1048D000980F983058F4877091E001C0990F8A952D
:1048E000EAF7892F0E94692D0C949F2D9BE5980F64
:1048F000933020F480E090E00C948A22885A85312D
:1049000020F480E090E00C94B8220895882321F0F0
:104910000E94632D0C949F2D0895882321F00E94FE
:10492000692D0C949F2D0895CF92DF92EF92FF9204
:104930000F931F93CF93DF93CDB7DEB728970FB6B2
:10494000F894DEBF0FBECDBF8C0185E0F801DE011B
:10495000119601900D928A95E1F7F801408131811D
:10496000F280258122952F7083819481892B31F0EB
:104970003F3F31F481E04F3F19F403C081E001C0B3
:1049800080E080FDE1C249833A8389819A812F8347
:104990000E94DC2C9E8388870E94DB2C0E94052CC1
:1049A0004E81E42FE295EF70F0E0E05AFF4F2F8147
:1049B00068850C948632842F807F142F1F70882383
:1049C00011F01295107FFF2059F0112309F471C2E4
:1049D000812F68870E94762D0E949F2D688569C26D
:1049E000862F0E945A24112309F4AEC2812F0E94FF
:1049F0007C2D28960FB6F894DEBF0FBECDBFDF9199
:104A0000CF911F910F91FF90EF90DF90CF900C947A
:104A10009F2D842F807F942F9F70E92E803219F074
:104A2000E29480EFE822662319F0613001F129C099
:104A3000FF20A9F08E2D222349F1213039F5289647
:104A40000FB6F894DEBF0FBECDBFDF91CF911F919F
:104A50000F91FF90EF90DF90CF900C94862D222342
:104A600019F0213009F470C20E94892D2CC0FF205A
:104A7000E9F0263008F068C20E94602D8E2129F0EE
:104A800022C0FF20F1F0211115C08E2D28960FB6FF
:104A9000F894DEBF0FBECDBFDF91CF911F910F9174
:104AA000FF90EF90DF90CF900C948624253008F093
:104AB0004BC209C0F801858180FFFBC18F708583DF
:104AC000E4CF21110AC28E2D78C1242F2695269578
:104AD000237030E02115310521F021303105C9F076
:104AE00033C2FF2021F0862F942F937002C080E004
:104AF00090E028960FB6F894DEBF0FBECDBFDF91D1
:104B0000CF911F910F91FF90EF90DF90CF900C9479
:104B10008A22FF2021F0862F942F937002C080E01C
:104B200090E028960FB6F894DEBF0FBECDBFDF91A0
:104B3000CF911F910F91FF90EF90DF90CF900C9449
:104B4000B822862FFF2019F00E94F12E02C00E9489
:104B5000592F28960FB6F894DEBF0FBECDBFDF9158
:104B6000CF911F910F91FF90EF90DF90CF900C9419
:104B7000DE2F842F837009F076C0F110E5C1262F57
:104B8000229526952770220F220F862F8F70C82E10
:104B9000D12CE12CF12C022E04C0CC0CDD1CEE1C1F
:104BA000FF1C0A94D2F764FF10C06FE070E080E051
:104BB00090E004C0660F771F881F991F2A95D2F7CF
:104BC000609570958095909503C060E070E0CB0192
:104BD000242F269526952370422F50E04230510510
:104BE000D1F04330510559F16C297D298E299F2937
:104BF0004130510541F128960FB6F894DEBF0FBE43
:104C0000CDBFDF91CF911F910F91FF90EF90DF907B
:104C1000CF900C94182C6C297D298E299F292896D9
:104C20000FB6F894DEBF0FBECDBFDF91CF911F91BD
:104C30000F91FF90EF90DF90CF900C942A2C0E9460
:104C4000182CC701B60128960FB6F894DEBF0FBE28
:104C5000CDBFDF91CF911F910F91FF90EF90DF902B
:104C6000CF900C94062CFF2019F0842F817001C086
:104C70008695882309F468C1262F229526952770EA
:104C8000220F220F862F8F70C82ED12CE12CF12CF1
:104C9000022E04C0CC0CDD1CEE1CFF1C0A94D2F7C3
:104CA00064FF10C06FE070E080E090E004C0660F29
:104CB000771F881F991F2A95D2F760957095809568
:104CC000909503C060E070E0CB01242F26952695D7
:104CD0002370422F50E042305105D1F0433051054E
:104CE00059F16C297D298E299F294130510541F1C7
:104CF00028960FB6F894DEBF0FBECDBFDF91CF91DF
:104D00001F910F91FF90EF90DF90CF900C94B72CF4
:104D10006C297D298E299F2928960FB6F894DEBF2D
:104D20000FBECDBFDF91CF911F910F91FF90EF90FC
:104D3000DF90CF900C94C92C0E94B72CC701B6010C
:104D400028960FB6F894DEBF0FBECDBFDF91CF918E
:104D50001F910F91FF90EF90DF90CF900C94A52CB6
:104D6000603FD9F128F480E4860F803250F09CC077
:104D7000623F09F461C008F44BC0633F09F470C09E
:104D800093C0162F1071842F8F716887FF2059F000
:104D90000E94502C6885862F112319F08295807F00
:104DA00075CE8F7073CE0E946B2C6885862F112371
:104DB00019F08295807F01C08F7028960FB6F89405
:104DC000DEBF0FBECDBFDF91CF911F910F91FF903E
:104DD000EF90DF90CF900C948D24FF20A9F0253028
:104DE00008F0B2C0842F8F7128960FB6F894DEBFFA
:104DF0000FBECDBFDF91CF911F910F91FF90EF902C
:104E0000DF90CF900C948A2C263008F09DC0EACF1A
:104E1000FF20A1F0842F8F7128960FB6F894DEBF83
:104E20000FBECDBFDF91CF911F910F91FF90EF90FB
:104E3000DF90CF900C94502CFF2061F3842F8F7162
:104E400028960FB6F894DEBF0FBECDBFDF91CF918D
:104E50001F910F91FF90EF90DF90CF900C946B2CEF
:104E6000FF2091F0842F8F7128960FB6F894DEBF43
:104E70000FBECDBFDF91CF911F910F91FF90EF90AB
:104E8000DF90CF900C94412C28960FB6F894DEBF9B
:104E90000FBECDBFDF91CF911F910F91FF90EF908B
:104EA000DF90CF900C943C2CFF20A1F0222309F43A
:104EB000B1CF862F28960FB6F894DEBF0FBECDBFB8
:104EC000DF91CF911F910F91FF90EF90DF90CF90E6
:104ED0000C94FA23222309F4B1CF862F28960FB61B
:104EE000F894DEBF0FBECDBFDF91CF911F910F9120
:104EF000FF90EF90DF90CF900C945A244F70C80130
:104F00000E94BB0328960FB6F894DEBF0FBECDBF3C
:104F1000DF91CF911F910F91FF90EF90DF90CF9095
:104F20000C94502B4F70C80128960FB6F894DEBF32
:104F30000FBECDBFDF91CF911F910F91FF90EF90EA
:104F4000DF90CF900C946F2E28960FB6F894DEBFAA
:104F50000FBECDBFDF91CF911F910F91FF90EF90CA
:104F6000DF90CF9008950E94832D0E94522D0E94C1
:104F70009F2D0E940C310E94DE2F80E090E00E9465
:104F80008A2280E090E00C94B8220E94732D0C9449
:104F9000B3270E94DC2C292F22952F7030E02C3073
:104FA00031054CF42A303105C4F422503109223045
:104FB000310540F021C02C303105D1F02F303105C2
:104FC000B9F01AC0853A28F48430C0F4823028F44D
:104FD00015C090E2980F983088F0883E30F4803EFB
:104FE00068F48450813A40F409C0803F29F406C037
:104FF00093FB882780F9089580E0089581E0089563
:10500000CF93DF9300D000D01F92CDB7DEB70F90C3
:105010000F900F900F900F90DF91CF910895CF9345
:10502000DF9300D000D000D0CDB7DEB726960FB604
:10503000F894DEBF0FBECDBFDF91CF9108951F93CF
:10504000CF93DF93C091200316E080912103C8170E
:1050500099F0D0E01C9FF0011D9FF00D1124EE5D32
:10506000FC4F4081518162817381848195810E94CE
:105070000F282196C770E9CFDF91CF911F91089536
:105080004091520350915303609154037091550322
:1050900080915603909157030C940F28CF938091E1
:1050A000570382958F7009F05FC080915403882365
:1050B00009F45AC020912003A0912103609152036A
:1050C00070915303809155039091560331E06F3FE7
:1050D00009F030E0B32FC6E02A1709F445C0009765
:1050E00021F07F3F21F44B2F03C041E001C040E09D
:1050F00030E040FD35C0C29FF001C39FF00D112488
:10510000EE5DFC4F418174132BC04081641328C0B5
:105110004281411125C0438154814817590710F439
:1051200041505109481B590B483C5105C8F4809126
:1051300057038F7080618093570386E0829FF00150
:10514000839FF00D1124E95DFC4F80818F70806199
:10515000808382E593E00E949424CF910C941F28D1
:105160002F5F3F4F2770B8CFCF910895CF92DF9236
:10517000EF92FF920F931F93CF93DF93CDB7DEB7DC
:1051800062970FB6F894DEBF0FBECDBF8C0185E0ED
:10519000F801DE011D9601900D928A95E1F7D80184
:1051A0004C9111965C91119712966C9112971396EF
:1051B000ED90FC90149770915203E091530320916D
:1051C0005503309156032115310531F0EF3F31F48D
:1051D00081E07F3F19F403C081E001C080E0B82F77
:1051E000B170CB2E80FD6CC1D0905403DD2009F44A
:1051F000F5C0F0915703E216F30638F0C701821BA1
:10520000930B883C910548F09BC0209530952E0D5E
:105210003F1D283C310508F093C08F2F807F09F097
:1052200052C0E51314C0741312C0D62E61110FC002
:10523000FF70F061F09357030E94402882E593E0ED
:105240000E94942480915703F80185836CC1EF2854
:1052500031F05F3F31F481E04F3F19F403C081E04A
:1052600001C080E080FD03C081E0862701C080E0AE
:10527000F82FF170FF2E80FF1CC080912003209139
:10528000210336E0821709F428C190E0389FF0012D
:10529000399FF00D1124EE5DFC4F7181571306C04C
:1052A0007081471303C07281671303C00196877032
:1052B000E9CFD62E662309F436C180915703816069
:1052C0008093570353C0E51308C0741306C06111DF
:1052D00004C0D8011596FC93AEC04D875E878D85BE
:1052E0009E856A8B0E94C9276A89882329F1D62E58
:1052F000662311F120915703822F82958F7090E0E1
:1053000002970CF460C080915203909153039887E8
:105310008F831986FB86EA862C87CE01079651C0BB
:10532000E51731F14D875E878D859E856A8B0E94DA
:10533000C9276A8981112EC0C8010E949424A4C083
:105340008F2F807F69F77E2DF98AE88A89890E94EC
:10535000002882E593E00E949424E2E5F3E086E0F1
:10536000DF011D928A95E9F70E944028D12CDBC00D
:105370007413D8CF6111D6CFD8011596FC93C8010C
:105380000E949424E2E5F3E086E0DF011D928A9515
:10539000E9F7C9C0D62E662379F220915703822FF0
:1053A00082958F7090E0029774F0809152039091F3
:1053B00053039A8389831B82FD82EC822E83CE0164
:1053C00001960E94942486E0F801A2E5B3E00190E2
:1053D0000D928A95E1F70E944E286FC0E216F306FF
:1053E00028F0C701821B930B9C0104C020953095C7
:1053F0002E0D3F1D283C310508F052C0D62E6623E5
:1054000009F49ACFE5132CC074132AC08091570376
:1054100080FD1DC0982F92959F70C9F0D8011596F8
:105420008C9315979F3039F09F5F9295907F8F7086
:10543000892B15968C93C8010E94942486E0F8016C
:10544000A2E5B3E001900D928A95E1F736C086E0BF
:10545000F801A2E5B3E001900D928A95E1F763C0EF
:105460004D875E878D859E850E94C927882379F0A8
:1054700086E0F801A2E5B3E001900D928A95E1F78C
:105480000E944E280E944028DD24D3944CC0809175
:105490005703816080935703C8010E94942443C03E
:1054A0007E2DF98AE88A89890E940028E2E5F3E0E6
:1054B00086E0DF011D928A95E9F70E94402833C0FB
:1054C000662309F439CF4D875E878D859E850E94BE
:1054D000C927882309F430CFCBCF4D875E878D85D0
:1054E0009E850E94DC2C292F22952F7030E02230DF
:1054F00031052CF49F7041F0811106C00CC024309E
:1055000031052CF49F7049F4805E883020F0C8018A
:105510000E949424CF2CDC2C06C0D80115969C91B7
:10552000907F91F7F8CF8D2D62960FB6F894DEBF7D
:105530000FBECDBFDF91CF911F910F91FF90EF90E4
:10554000DF90CF9008951F93CF93DF93CDB7DEB751
:105550002C970FB6F894DEBF0FBECDBF4F83588790
:1055600069877A878B879C87CE0107960E94B62829
:105570008823C1F02F8138858A859B85892B31F05E
:105580003F3F11F080E003C02F3FE1F781E0811140
:1055900047C04F81588569857A858B859C850E9497
:1055A0000F283EC086E0FE013796DE01119601907D
:1055B0000D928A95E1F7FF81E8854A855B85411563
:1055C000510531F0EF3F31F481E0FF3F19F403C0A2
:1055D00081E001C080E080FD23C02091210330E004
:1055E000C9010196877099276091200370E08617A2
:1055F0009707F1F1F983EA835D834C8396E0929FEC
:10560000D001939FB00D1124AE5DBC4FFE013196C9
:1056100001900D929A95E1F7809321030E941F2833
:1056200016E08091200390912103891779F1189F4A
:10563000C00111248E5D9C4F0E94B628882331F151
:10564000E09120031E9FF0011124EE5DFC4F40818C
:10565000518162817381848195810E940F2880919C
:10566000200390E001968770992780932003D9CF7B
:105670000E94C5271092210310922003E2E5F3E077
:1056800086E0DF011D928A95E9F7CACF2C960FB606
:10569000F894DEBF0FBECDBFDF91CF911F9108956B
:1056A000DF92EF92FF920F931F93CF93DF939C01B2
:1056B000009709F48AC0E12CF12CDD24D394E90190
:1056C0002196F9018491853709F462C058F4843732
:1056D00008F04EC0843008F069C08130D1F08230CB
:1056E00071F173C0883709F45CC050F4863709F44F
:1056F00054C0873709F069C08E2D0E94702D53C0A9
:105700009CE7980F903708F060C08F770E945A246A
:105710004FC089010E5F1F4FFE01C49180E28C0FC4
:10572000883048F4C7708D2D01C0880FCA95EAF7FC
:105730000E94762D15C08C2F0E94FA2313C0890178
:105740000E5F1F4FFE01C49180E28C0F883060F421
:10575000C7708D2D01C0880FCA95EAF70E947C2D75
:105760000E949F2DE80124C08C2F0E945A24FACF5A
:105770002E5F3F4FFE01C491CC2341F08FE99FE0A3
:105780000197F1F700C00000C150F6CFE90110C049
:10579000FE01F490E90122960BC00E94602DE82ED4
:1057A00007C00E94732D0E949F2D02C00E94FA2301
:1057B0009F2D992341F0EFE9FFE03197F1F700C009
:1057C00000009150F6CF9E017ACFDF91CF911F91CB
:1057D0000F91FF90EF90DF90089560935C037093BA
:1057E0005D0380935E0390935F030E94062E0C94EA
:1057F000B327609358037093590380935A0390938F
:105800005B030E94072E0C94B32708950F931F93F8
:1058100000915C0310915D0320915E0330915F0362
:10582000602B712B822B932B1F910F910C94ED2BDE
:105830000F931F9300915C0310915D0320915E0311
:1058400030915F0360237123822393231F910F9173
:105850000C94ED2B0F931F9300915C0310915D034B
:1058600020915E0330915F03602771278227932781
:105870001F910F910C94ED2B60E070E0CB010C9424
:10588000F92B41E050E060E070E004C0440F551F88
:10589000661F771F8A95D2F7CB01BA010C94F92BBA
:1058A00041E050E060E070E004C0440F551F661F07
:1058B000771F8A95D2F78091580390915903A09150
:1058C0005A03B0915B03482B592B6A2B7B2BCB01DE
:1058D000BA010C94F92B41E050E060E070E004C0A4
:1058E000440F551F661F771F8A95D2F74095509534
:1058F000609570958091580390915903A0915A0337
:10590000B0915B03482359236A237B23CB01BA015F
:105910000C94F92B41E050E060E070E004C0440FCB
:10592000551F661F771F8A95D2F780915803909173
:105930005903A0915A03B0915B03482759276A275E
:105940007B27CB01BA010C94F92B0F931F93009185
:1059500058031091590320915A0330915B03602B37
:10596000712B822B932B1F910F910C94F92B0F937A
:105970001F93009158031091590320915A033091BD
:105980005B0360237123822393231F910F910C9457
:10599000F92B0F931F9300915803109159032091F5
:1059A0005A0330915B0360277127822793271F9149
:1059B0000F910C94F92B0895CF92DF92EF92FF9202
:1059C0000F931F93CF93DF93EC01C0905C03D090B3
:1059D0005D03E0905E03F0905F0380915803909127
:1059E0005903A0915A03B0915B03C82AD92AEA2A25
:1059F000FB2A0FE110E0B701A601002E04C0769546
:105A00006795579547950A94D2F740FF07C0BE01A6
:105A1000802F0E94452E8130910539F401501109E3
:105A200050F7BE0180E00E94452EDF91CF911F917B
:105A30000F91FF90EF90DF90CF90089540910B0170
:105A400050910C0120E030E09FEFFA01E20FF31FCC
:105A50006281681799F09F3F19F4611101C0922F7C
:105A60002F5F3F4F2630310581F79F3F39F0FA0114
:105A7000E90FF11D97FDFA958283089508954091ED
:105A80000B0150910C0120E030E0FA01E20FF31F0E
:105A90009281981301C012822F5F3F4F263031054B
:105AA000A1F7089581E090E0E0910B01F0910C01E5
:105AB000E80FF91F1082019688309105A9F7089523
:105AC00080916A03089590916A03982B90936A03DA
:105AD0000895809590916A03982390936A0308959E
