:100000000C94FD010C944F020C944F020C944F027F
:100010000C944F020C944F020C944F020C944F021C
:100020000C944F020C944F020C94081C0C94DB1C93
:100030000C94292A0C944F020C944F020C944F02FA
:100040000C944F020C944F020C944F020C944F02EC
:100050000C944F020C94D4090C944F020C944F0250
:100060000C944F020C944F020C944F020C944F02CC
:100070000C944F020C944F020C944F020C944F02BC
:100080000C944F020C944F020C944F020C944F02AC
:100090000C944F020C944F020C944F020C944F029C
:1000A0000C944F020C944F020C944F027500012CDB
:1000B000022C01E10133023302E1012D022D01E1A5
:1000C0000127022702E10128022800750001280209
:1000D000280128022801E10110021002E1011902A1
:1000E00019010B020B013602360128022801E20138
:1000F000620262015A025A01590259015E025E020D
:10010000E2011C021C011602160117021701080267
:1001100008010C020C011102110128022801280219
:100120002801E1010C020C010E020E010E020E016B
:10013000080208012C022C0116021601080208010F
:1001400011021101160216010C020C01170217010F
:100150000C020C011902190117021702E101280211
:1001600028015202520152025201520252014D0222
:100170004D01E1014A024A02E100808080800405CD
:10018000060708090A0B0C0D0E0F10111213141597
:10019000161718191A1B1C1D1E1F20212223242587
:1001A000262728292A2B2C2D2E2F30313233343577
:1001B000363738393A3B3C3D3E3F40414243444567
:1001C000464748494A4B4C4D4E4F50515253545557
:1001D000565758595A5B5C5D5E5F60616263646547
:1001E000666768696A6B6C6D6E6F70717273808020
:1001F0008080808080808080800302018080808079
:100200008075007476778080808080808080808098
:1002100080808080808080808080808080808080DE
:1002200080808080808080808080808080808080CE
:1002300080808080808080808080808080808080BE
:1002400080808080808080808080808080808080AE
:100250008080808080808080808078797A7B7C7DBF
:100260007E7F808080808080808080808080808091
:10027000808080808080808080803C035500530097
:100280004200200074006F0020005500530042001F
:1002900020006B006500790062006F006100720051
:1002A0006400200063006F006E007600650072003D
:1002B00074006500720000000E0374002E006D00D3
:1002C0002E006B002E0000000403090409025400F4
:1002D000030100A03209040000010301010009210B
:1002E000110100012240000705810308000A0904EA
:1002F00001000103010200092111010001224D004A
:100300000705820308000A09040200010300000037
:100310000921110100012236000705830308000AA4
:100320001201100100000008EDFE5B00140801023C
:10033000000105010980A101850216810026B70090
:100340001A81002AB700751095018100C0050C09BB
:1003500001A1018503160100269C021A01002A9CB6
:1003600002751095018100C005010902A101090172
:10037000A10005091901290515002501950575013B
:10038000810295017503810105010930093115814B
:10039000257F95027508810609381581257F95010D
:1003A00075088106050C0A38021581257F950175AF
:1003B000088106C0C005010906A101050719E02949
:1003C000E7150025019508750181029501750881E1
:1003D0000105081901290595057501910295017519
:1003E0000391010507190029FF150026FF00950656
:1003F00075088100C0009708270911241FBECFEFA0
:10040000DAE0DEBFCDBF04B603FE27C080919F04B3
:100410009091A004A091A104B091A2048730904BC8
:10042000A740B04BD1F410929F041092A0041092F8
:10043000A1041092A20414BE84B7877F84BF0FB6B4
:10044000F894A89580916000886180936000109274
:1004500060000FBEE0E0F8E3099511E0A0E0B1E034
:10046000E8E8FCE502C005900D92A23BB107D9F780
:1004700024E0A2EBB1E001C01D92AF39B207E1F771
:1004800011E0CDEFD1E004C02197FE010E94282E9B
:10049000CB3FD107C9F70E94D2080C94422E0C948E
:1004A0000000EF92FF920F931F93CF93DF938C0185
:1004B000F62ED42F0E94AD29C82FFF2059F081E0DD
:1004C000F81609F44FC0DF91CF911F910F91FF9063
:1004D000EF900895F80182818823A9F38D2F90E091
:1004E000C6FF34C00E94C12980E40E94BE290E9438
:1004F000EB2921E030E08C2F827211F430E020E013
:1005000085E0829F7001839FF00C1124FAE0DF9F49
:10051000E00CF11C112401E010E0F801EE0DFF1DCC
:10052000ED5EFE4F80810E9437200F5F1F4F053028
:10053000110599F78C2F8F7B0E94BE29DF91CF91F7
:100540001F910F91FF90EF900C94EB292AE0289FC8
:10055000F001299FF00D1124ED5EFE4F80810E9475
:100560003720ECCFF80182818823A1F0C073C0321C
:1005700079F0C03309F4A7CF82E0C03109F4A3CFEA
:10058000DF91CF911F910F91FF90EF900C942B284A
:1005900083E0F6CF61E070E080E090E00E94A22866
:1005A0000E94C1290E94D229C9CF662329F0613057
:1005B00051F090E080E00895FC0182818823C9F326
:1005C0008BEC90E00895FC018281882391F38CEA02
:1005D00090E0089580E00895089580E00895CF9315
:1005E000DF93CDB7DEB728970FB6F894DEBF0FBE06
:1005F000CDBFE22F29833A834B835C836D837E8357
:100600008F8398872091EA022E2B2093EA02FE0125
:100610003396AE01475F5F4F2191243060F0ACEE1E
:10062000B2E090E080E03D91311111C086519D4FC4
:10063000DC0112962C93E417F50771F728960FB694
:10064000F894DEBF0FBECDBFDF91CF910895019624
:100650008630910541F7EFCF70E0660F771F860F68
:10066000971FFC015687458781E00895CF93DF935C
:10067000EC018C819D81DC01ED91FC910480F58180
:10068000E02D6E8109951F86188A81E08A8B1E8273
:100690001B8A1C8A1D8A1E8A1F8A80E0DF91CF91E7
:1006A0000895FC018681089581E0633009F080E0BF
:1006B000089581E0613009F080E0089570E0660FF0
:1006C000771F860F971FFC01858596850895FC018D
:1006D00087890895EF92FF92CF93DF93FC01E701A2
:1006E0008289823021F16787408B9B8193709330A0
:1006F000F1F49A8197FF1BC02E81308D321708F4D8
:10070000208F282F30E0D901AA0FBB1FA20FB31FE3
:10071000AE0FBF1F9F7017969C9317979C811896DA
:100720009C93189794E019969C938F5F828BDF912E
:10073000CF91FF90EF900895EF92FF920F93029761
:100740000E946A030F91FF90EF90089508953F92E1
:100750004F925F926F927F928F929F92AF92BF92D1
:10076000CF92DF92EF92FF920F931F93CF93DF937D
:10077000CDB7DEB7EC970FB6F894DEBF0FBECDBF96
:10078000DC0116963C91311150C1522E342E462E6A
:100790005C01FC0184809580108ED401ED91FC9168
:1007A0000190F081E02D60E0C40109957C01009783
:1007B000C9F486EDEC960FB6F894DEBF0FBECDBF40
:1007C000DF91CF911F910F91FF90EF90DF90CF902D
:1007D000BF90AF909F908F907F906F905F904F9061
:1007E0003F900895FC016080718087ED6114710471
:1007F00009F36501F7E0CF0ED11CD7011196DC9209
:10080000CE9214965C928E01065D1F4F28E030E078
:1008100040E060E0F501848195810E94AC0F8CAFCF
:10082000811107C11AA5D7016D927C92D401ED9177
:10083000FC910280F381E02D232D40E0642DC40162
:100840000995F5018683882309F4F1C099A9908759
:10085000282F40E060E0848195810E9457108CAF82
:10086000D401ED91FC91882379F0D70114961C9264
:100870000480F581E02DD50116966C91C40109958F
:10088000F50116828CAD96CFD50116966C91D701E5
:1008900014961C920190F081E02DC40109950097F7
:1008A00009F487CFFC015482112399F0133108F029
:1008B00012E1212F30E08E01065D1F4F40E0D5018F
:1008C00016966C91169714968D919C910E94AC0F80
:1008D0008CAF5CAC51103EC04BAC4FE3842E41E07A
:1008E000942E3501B2E06B0E711C7E01E1E1EE0E3B
:1008F000F11C451441F19A8289827C826B821E86AA
:10090000188A1F8619A21AA21BA219A6FF82EE82BC
:10091000F986E8868D818B878A87FD86EC868E0135
:100920000F5F1F4F252D40E0D50116966C9116974D
:1009300014968D919C910E94FA0FF5018289823064
:1009400011F05394D6CFD50152968C91823059F044
:1009500081ED8CAFD501ED91FC910480F581E02D06
:10096000C50109958FCF960142E0F501668184812A
:1009700095810E94280B8CAF68EE73E080E090E0D8
:100980000E943A09D5011F962C911F9740E01696B8
:100990006C91169714968D919C910E94C6118CAF04
:1009A0008111D8CF68EE73E080E090E00E943A09B0
:1009B00040E060E0C5010E94B4138CAF8111CACF42
:1009C00020E040E060E0C5010E948A138CAF85E41E
:1009D00091E09A838983AE014F5F5F4F70E060E0E2
:1009E000C5010E941A1380E28CAF8CAD8823C1F040
:1009F00090E0959587958CAFFE01FC966F01EE24F3
:100A0000E394F12C00E022E040E060E0C5010E94A8
:100A10005D1369E170E080E090E00E943A09E5CF63
:100A200091E0D50157969C93C5CE89EDC3CE84ED58
:100A3000C1CEF701718260828DCFDF92EF92FF927B
:100A40000F931F93CF93DF93CDB7DEB762970FB6A7
:100A5000F894DEBF0FBECDBFDC0157962C9121115B
:100A600010C0D12C8D2D62960FB6F894DEBF0FBE4C
:100A7000CDBFDF91CF911F910F91FF90EF90DF904D
:100A800008957C010E943809F7010389148925899A
:100A90003689601B710B820B930B97FDE2CF428569
:100AA000838590E09A8B898B8E010F5F1F4F9E018B
:100AB0002F5E3F4F6681848195810E94EB11D82E75
:100AC000811114C029893A892330310578F0D70182
:100AD0001D968D919C91009749F0DC01ED91FC9160
:100AE0000190F081E02D40E0B70109950E9438099E
:100AF000F701208D620F711D811D911D638B748B19
:100B0000858B968BAFCFCF93DF936091EA01709185
:100B1000EB014091DE015091DF012091D201309133
:100B2000D3018091C6019091C701E091BA01F09183
:100B3000BB016E177F07B1F4E091B801F091B901E4
:100B4000E417F50779F4E091B601F091B701E217E7
:100B5000F30741F4E091B401F091B501E817F9070A
:100B600009F484C07093BB016093BA015093B9013A
:100B70004093B8013093B7012093B6019093B5012B
:100B80008093B40188E0EAEEF2E0DF011D928A95DD
:100B9000E9F72091E2013091E3014091E4015091A5
:100BA000E5016091E6017091E7018091E801909183
:100BB000E9010E94EF022091D6013091D7014091C6
:100BC000D8015091D9016091DA017091DB018091D7
:100BD000DC019091DD010E94EF022091CA01309169
:100BE000CB014091CC015091CD016091CE0170912B
:100BF000CF018091D0019091D1010E94EF0220910C
:100C0000BE013091BF014091C0015091C10160917E
:100C1000C2017091C3018091C4019091C5010E94ED
:100C2000EF0281E08093E9020E949209EC0182E7E1
:100C300092E00E942212CE010E94AA0982E792E06D
:100C40000E94090B9091B301891761F082E792E04D
:100C50000E94090B8093B301803921F40E94711E18
:100C60000E94681F81E0DF91CF9108951092E90200
:100C7000DBCF482F80E1489F90011124205E31098D
:100C80002830310508F59091EA029923E9F0892F7F
:100C900090E0ECEEF2E061E070E02191243078F039
:100CA000322F32953F7034130AC02F70DB0102C01F
:100CB000AA0FBB1F2A95E2F79D018A2B932BB2E066
:100CC000E23FFB0751F7089590E080E0E2CF0895FE
:100CD000CF92DF92EF92FF920F93CF93DF931F9209
:100CE000CDB7DEB78983CE0101966C01EE24E39483
:100CF000F12C00E022E040E060E087E392E00E9417
:100D00005D1322E040E060E08EE192E00E945D131E
:100D100022E040E060E085E092E00E945D1322E086
:100D200040E060E08CEE91E00E945D130F90DF9157
:100D3000CF910F91FF90EF90DF90CF900895FC013D
:100D4000758364838BE491E09183808389E691E0ED
:100D500093838283138A148A158A168A178A81E0FC
:100D6000828B118A178288E080878CE381871286C4
:100D7000138684E0848715861686178661157105AB
:100D8000B1F0DB01AA5ABF4F90E080E02D913D9178
:100D9000232B49F4DC019B96AA0FBB1FA60FB71F9C
:100DA000ED93FC93089501968031910579F70895AC
:100DB0002E9A08952E988EBD0DB407FEFDCF1EBC51
:100DC0000DB407FEFDCF0E94D8068EB508952E986B
:100DD00082608EBD0DB407FEFDCF6EBD0DB407FE63
:100DE000FDCF0C94D80688EF0E94DA06807C803410
:100DF000B1F018F4882301F10895803819F0803C8F
:100E0000C9F0089588ED0E94DA0681FD0DC069ECF5
:100E100088ED0E94E70682E08093B201089588ED94
:100E20000E94DA0681FDF3CF6BEC88ED0E94E706A5
:100E300083E0F2CF81E0F0CF61ED88ED0E94E7061C
:100E40001092B20108950F931F93CF93DF938C01FB
:100E5000269A0E94D806219A229A2398209A80E501
:100E60008CBD81E08DBD259868E188E80E94E70689
:100E700060E288E70E94E70660E088E70E94E706F4
:100E8000D0E0C0E088E60E94DA06219680FF22C00A
:100E900061EC88ED0E94E70660E680ED0E94E706BF
:100EA00064E088EE0E94E70688EE0E94DA0682FF80
:100EB000FBCFC8010E94F30660E288EC0E94E706BF
:100EC00061E080E80E94E70680E0DF91CF911F910A
:100ED0000F910895CF3FDC07A9F68FEFF6CF82E799
:100EE00092E00E94230780EE91E090934502809368
:100EF000440284ED91E090932C0280932B0288ECC5
:100F000091E090931302809312028CEB91E0909306
:100F1000FA018093F9010895EF92FF920F931F93C6
:100F2000CF93DF93EC017B018A0188A1823009F421
:100F300046C030F4882319F1813059F181E032C084
:100F4000833009F442C08430C9F78AA1843009F49F
:100F500057C0853009F477C0823009F096C0A801E7
:100F6000B701CE0107960E94A2178823D1F08D8980
:100F70008CA3CE0140969E838D8318A2DFCF82E0A2
:100F80008C832D813E8138872F838A87898781E0F2
:100F900088A3A801B701CE0107960E94A21781116C
:100FA00008C080E0DF91CF911F910F91FF90EF90EB
:100FB0000895ED81FE81808189A381818AA3CE017C
:100FC00042969E838D8383E088A38AA18430A1F01A
:100FD00060F4823091F08D819E8198878F838C811F
:100FE0008A87898784E088A3B0CF853039F0813241
:100FF00091F789A1825002C01BA287E08C83EBCFBE
:10100000A801B701CE0107960E94A217882349F2D2
:101010008D89833009F0ADCF8E89813009F0A9CF59
:1010200098A58F89992359F0882309F4A2CF91E0DC
:101030009BA39A899EA39B899FA38DA39ACF81305E
:1010400009F097CFF4CFA801B701CE0107960E940F
:10105000A217882309F4A5CF8BA1882309F489CF8F
:101060008A819B81009709F484CFDC01ED91FC918A
:101070000190F081E02D7E01B0E1EB0EF11C0DA19D
:101080002FA14EA16CA1099574CF8D85882341F0C5
:10109000813069F08E859F85892B09F46ACF81CFD5
:1010A00089A18250990B9F878E8781E08D878E85DD
:1010B0009F850097A9F0F80120813181232B51F3FE
:1010C00001979F878E87D7018D919C9111970196EB
:1010D0008D939C9380819181019791838083E7CF49
:1010E0001D86D8CF0F931F93CF93DF9300D000D0EE
:1010F000CDB7DEB78C017C836B835A8349838B81A8
:101100009C81892B59F0AE014D5F5F4FBE016F5F2F
:101110007F4FC8010E948C078111F1CF0F900F9073
:101120000F900F90DF91CF911F910F91089582E75B
:1011300092E00E94D90A62E772E081E692E00E94A2
:101140002F1662E772E080E592E00E942F1662E7B8
:1011500072E087E392E00E949F0662E772E08EE110
:1011600092E00E949F0662E772E085E092E00E94B2
:101170009F0662E772E08CEE91E00E949F068FE688
:1011800091E09093E1018093E0019093D5018093E9
:10119000D4019093C9018093C8019093BD018093BD
:1011A000BC010895569A5E9A80918704816084609C
:1011B0008093870480E091E00E946C1E0E94BF1E15
:1011C00084B7877F84BF0FB6F894A895809160009C
:1011D000886180936000109260000FBE80E890E00C
:1011E0000FB6F89480936100909361000FBE0E9447
:1011F0008D1B0E94EA1B8091E20084608093E200D4
:1012000078940E94C31EFDCF0F931F93CF93DF935B
:10121000EC01DC01129688E0F80101900D928A95AC
:10122000E1F70E9438097B876A87DF91CF911F9190
:101230000F910895089590E080E008958FEF9FEF5B
:101240000895862F0E948E1981E090E00895E2EFC4
:10125000F2E01382128288EE93E0A0E0B0E0848393
:101260009583A683B78385E791E091838083089572
:101270000C949E098F929F92AF92BF92CF92DF9271
:10128000EF92FF920E94F02C4B015C0120E030E0D5
:101290004AE755E40E94A72D6B017C0120E030E075
:1012A00040E85FE30E94B52C87FD30C020E03FEFAF
:1012B0004FE757E4C701B6010E94A22D1816F4F4B7
:1012C00020E030E040E251E4C501B4010E94A72DC6
:1012D0000E94C12C20E931E06115710549F4FF90AD
:1012E000EF90DF90CF90BF90AF909F908F90089538
:1012F000C9010197F1F761507109EECFC701B6013D
:101300000E94C12CCB010197F1F7E9CF61E070E0B9
:10131000F9CF82E084BD93E095BD9AEF97BD8093AD
:101320006E0008952FB7F894809100039091010307
:10133000A0910203B09103032FBF08952FB7F89433
:101340006091000370910103809102039091030367
:101350002FBF0895CF92DF92EF92FF920F931F93CA
:101360002FB7F8944091000350910103609102035C
:10137000709103032FBF6A017B01EE24FF248C01CF
:1013800030E020E0C016D106E206F30650F0481B1C
:10139000590BCA011F910F91FF90EF90DF90CF90F2
:1013A000089541505109F3CF1F920F920FB60F923B
:1013B00011248F939F93AF93BF93809100039091DB
:1013C0000103A0910203B09103030196A11DB11D79
:1013D0008093000390930103A0930203B09303034F
:1013E000BF91AF919F918F910F900FBE0F901F9063
:1013F0001895CF93DF93FC0167FD12C0283080F46D
:10140000442319F08581873059F0EF01A1E0B0E065
:101410008D85882349F111962596A031B105C1F734
:1014200080E018C085E08A9FE0018B9FD00D1124D9
:10143000CE0FDF1F442389F081E4888785818F5F89
:10144000858325E02A9FC0012B9F900D1124E80F72
:10145000F91F8085DF91CF91089581E08887F1CFD2
:101460002770687B622B0FC06623E1F26770660FFE
:10147000660F660F4423A1F3606485818F5F8583C7
:101480008770687F682B25E02A9FC0012B9F900DF5
:101490001124E80FF91F6087862FDCCFDF92EF92CF
:1014A000FF920F931F93CF93DF93EC0185E0E62E1D
:1014B000F12CFE01869FE00DF11D1124908596FF11
:1014C00024C0192F177001E085E0D82E8FEF800F10
:1014D0008F3008F001E0602F70E0062FD69EF001FB
:1014E000D79EF00D1124EC0FFD1F80858695869503
:1014F00086958770181701F16F5F7F4F603168F331
:101500008D81811302C011501D8385E08E9DF001F5
:101510008F9DF00D1124EC0FFD1F108681E0818757
:1015200012862296D783C683DF91CF911F910F91A8
:10153000FF90EF90DF900895CE010E944E0AC6CF33
:10154000FC0121E0611102C00696089535856317FC
:1015500039F02F5F35962031C9F790E080E008958B
:10156000069635E0239F800D911D11240895FC01FE
:1015700021E0613499F49C01255B3F4F61E0AC01AF
:101580004E5F5F4F1586668717865487438735966B
:101590002E173F07B9F7FC011582089535856317AB
:1015A00029F02F5F35962031C9F70895622F0C94EA
:1015B0004E0AFC0187E891E091838083108681E0E8
:1015C00081871286CF01029697838683128228E054
:1015D00023832CE324831582DF019F01255B3F4F8A
:1015E00041E01D961C921D971E964C931E971F96C8
:1015F0001C921F971C969C938E931B971596A2176F
:10160000B30779F7EA58FF4F108281E1809308030E
:101610000895809108030895CF93C42F0E94A00AD3
:10162000009789F0DC01ED91FC911197309769F0FA
:1016300013969C9180E0981731F020812C1729F0A7
:1016400033968F5FF8CFF0E0E0E0CF01CF910895BF
:101650000F931F93CF93DF932115310599F0E90183
:10166000042F162F0E94A00AFC0186ED309729F066
:101670001283D183C083038380E0DF91CF911F91D8
:101680000F91089588EDF9CFCF92DF92FF920F93DB
:101690001F93CF93DF93662381F1F62E8C016C01AB
:1016A00086E5C80ED11CD0E0C0E0D6018D919D9199
:1016B0006D010097F1F0DC01ED91FC910084F18562
:1016C000E02D09958F1115C0AB96CC0FDD1FC00F13
:1016D000D11F88819981DC01ED91FC910480F58115
:1016E000E02DDF91CF911F910F91FF90DF90CF9070
:1016F00009942196C031D105C1F680E0DF91CF91E8
:101700001F910F91FF90DF90CF9008952E9808952C
:10171000CF93C82F0E94860BCEBD0DB407FEFDCF20
:101720001EBC0DB407FEFDCF0E94D8068EB5CF912A
:101730000895CF93DF93C82FD62F0E94860BC260E7
:10174000CEBD0DB407FEFDCFDEBD0DB407FEFDCF4F
:10175000DF91CF910C94D806AF92BF92CF92DF92D7
:10176000EF92FF920F931F93CF93DF93EC01D62E4E
:10177000C42E59010E94A00A7C0186EDE114F104F7
:10178000E1F1F70180819181892B09F441C04C2D51
:101790006D2DCE010E940C0BF50191838083009783
:1017A000C9F1FC01228126952695203108F02FE011
:1017B00081E090E0A0E0B0E004C0880F991FAA1F6C
:1017C000BB1F2A95D2F70197F801918380836D2D75
:1017D00080EE0E94990B88ED0E94880BF70194819E
:1017E000682F697F992329F0CA58DF4F68816260AA
:1017F000682B88ED0E94990B80E0DF91CF911F91BB
:101800000F91FF90EF90DF90CF90BF90AF90089531
:1018100087EDF3CF8BEDF1CF8F929F92AF92BF9276
:10182000CF92DF92EF92FF920F931F93CF93DF93AC
:10183000862E942E59010E9438096B017C0128E8FC
:10184000C20E23E1D21EE11CF11CC0E010E000E05A
:10185000D0E098280E9438096C197D098E099F09EB
:1018600097FF1EC0692D80EF0E94990B0E943809D6
:101870006C197D098E099F0997FF09C088EC0E94A9
:10188000880B87FFF3CF60E888EC0E94990B88EF04
:101890000E94880BC82FCF70C43081F0CE30B9F0D1
:1018A0008C2FDF91CF911F910F91FF90EF90DF90E0
:1018B000CF90BF90AF909F908F9008950F5F1F4F74
:1018C000A114B10439F20A151B0521F6E9CFDF5F37
:1018D000D33009F0BFCFE4CF9F92AF92BF92CF92A7
:1018E000DF92EF92FF920F931F93CF93DF936C01E0
:1018F000C42FD22F99249394E62EF12CEE0CFF1CCA
:10190000E80EF91E86E5E80EF11CA42EB12CABE220
:10191000AA0EB11CAA0CBB1CAC0CBD1CF70180812B
:101920009181DC01ED91FC910280F381E02D202F6B
:101930004D2F6C2F0995182F803EC9F5C1112BC072
:1019400061E088EE0E94990B66E670E080E090E02E
:101950000E943A09F70180819181DC01ED91FC91AF
:101960000190F081E02D202F4D2F6C2F0995182F1D
:101970008D30D1F58FEF890D8330F8F0C11137C06C
:1019800061E088EE0E94990B66E670E080E090E0EE
:101990000E943A091CC0F50180819181DC01ED9122
:1019A000FC910284F385E02D6D2F0995D3CF8D3006
:1019B00061F48FEF890D833050F464E670E080E0CD
:1019C00090E00E943A099394A9CF882319F2812FBD
:1019D000DF91CF911F910F91FF90EF90DF90CF900B
:1019E000BF90AF909F900895882389F3C7CF8C2F25
:1019F00090E08B96880F991F8C0D9D1DFC018081B6
:101A00009181DC01ED91FC910284F385E02D6D2F35
:101A10000995DDCF0F931F93CF93DF93D82FC62F58
:101A20008A010E94860BD260DEBDF8018C2F8823CC
:101A300039F00DB407FEFDCF91919EBD8150F7CFD7
:101A4000C00FD12FD11D0DB407FEFDCF0E94D806C7
:101A5000CE01DF91CF911F910F9108952F923F9268
:101A60004F925F926F927F928F929F92AF92BF92AE
:101A7000CF92DF92EF92FF920F931F93CF93DF935A
:101A800000D000D01F92CDB7DEB77D836C835A01A2
:101A90006901FB01F1808FEF8F0D803408F0C4C025
:101AA0000E9438092B013C01F8E84F0EF3E15F1E5C
:101AB000611C711CEC81FD81828160E480FD60E825
:101AC00088EE0E94990B312C8F2D90E09A838983A8
:101AD000C114D10409F445C0E980FA80CE14DF04B2
:101AE00008F47601EB82A8016E2D80E10E940A0DB8
:101AF0006E2D88E30E94990BEC81FD81608160620C
:101B000080EF0E94990B88EC0E94880B87FFFBCF27
:101B100060E888EC0E94990B88EF0E94880B8F7018
:101B2000382E912C812C212C3320E9F10E94380988
:101B3000641975098609970997FF35C0F6E03F16C5
:101B400009F45DC02EE0321699F184E0381209C024
:101B50009FEF891A990AA114B10471F18A149B04A8
:101B600059F588EF0E94880BEC81FD81928185FBFD
:101B700090F99283832D0F900F900F900F900F90FC
:101B8000DF91CF911F910F91FF90EF90DF90CF9059
:101B9000BF90AF909F908F907F906F905F904F908D
:101BA0003F902F900895CE18DF080E0D1F1D90CF87
:101BB0002394E3E02E16A9F260E088E30E94990BDB
:101BC000F801608180E10E94990B6B8188E30E949B
:101BD000990BEC81FD816081606280EF0E94990B1E
:101BE00088EC0E94880B87FFFBCF60E888EC0E949E
:101BF000990B88EF0E94880B8F70382E95CF88EF55
:101C00000E94880B85FB882780F9F1E08F27EC8103
:101C1000FD81928180FB90F9928360E490FD60E801
:101C200088EE0E94990BC8CF8AED382EA3CF2F9251
:101C30003F924F925F926F927F928F929F92AF925C
:101C4000BF92CF92DF92EF92FF920F931F93CF93A9
:101C5000DF9300D000D0CDB7DEB73C017B012A0175
:101C60005901F90180809180FB01F181F983F9012B
:101C700011821082FB01828160E181FD60E288EEC9
:101C80000E94990B8A829201F701408160E0C301B2
:101C90000E940C0C382EF6E08F1313C088EF0E94C0
:101CA000880B8295817021E08227F701928180FB69
:101CB00091F9928360E191FD60E288EE0E94990BB8
:101CC000E2CF811156C088EC0E94880B82FF69C068
:101CD00080E30E94880B282E8815190411F008F063
:101CE0002A80F501808191819401281B390B3C8366
:101CF0002B8337FF02C01C821B82C22CD12C8B810C
:101D00009C81C816D90614F4DC82CB823B800E94E9
:101D1000860B98E09EBD0DB407FEFDCFF801332081
:101D200041F01EBC3A940DB407FEFDCF8EB58193F1
:101D3000F6CFEB81FC810E0F1F1F0E94D80664E0D6
:101D400088EC0E94990BF50180819181C80ED91E03
:101D5000D182C082F9812F1620F0C814D90408F46A
:101D600092CF88EF0E94880BF701928184FB91F952
:101D70009283832D0F900F900F900F90DF91CF9152
:101D80001F910F91FF90EF90DF90CF90BF90AF9099
:101D90009F908F907F906F905F904F903F902F908B
:101DA000089580EF382EE5CF2F923F924F925F92A9
:101DB0006F927F928F929F92AF92BF92CF92DF925B
:101DC000EF92FF920F931F93CF93DF93CDB7DEB7C0
:101DD00061970FB6F894DEBF0FBECDBF3C01D42E85
:101DE000322E202EE98A4EA05FA0E8A4F9A4188A1A
:101DF0001F861E861D868E01035F1F4F9E01215F79
:101E00003F4F0E94AC0B182F811180C039822A826B
:101E100089898B83CC82BE82AD8298868F82AE0107
:101E20004F5F5F4F68E080E20E940A0D2D853E857E
:101E30004D2D60E1C3010E940C0C182F811166C06A
:101E4000E114F10409F44DC0EF85F889828137FE71
:101E50004EC0826082835401CC24C394A114B10487
:101E600009F475C05C864B864D855E856F857889E3
:101E700087019E01255F3F4FC3010E94170E182F57
:101E8000863071F488EF0E94880BEF85F88985FB16
:101E9000882780F98C25928180FB91F99283DECF8F
:101EA000811134C0AAA5BBA5109799F06B857C85DC
:101EB000ED91FC9111970190F081E02DC4018A19F8
:101EC0009B099A8789879E01275F3F4FA701CD0114
:101ED00009958B859C85A81AB90A8415950508F083
:101EE000BDCF2D853E8537FE2BC060EA2AC08160BC
:101EF00082834D855E8587019201BF01C3010E94E7
:101F00002E0D182F2D853E858823D1F0812F6196C7
:101F10000FB6F894DEBF0FBECDBFDF91CF911F91FA
:101F20000F91FF90EF90DF90CF90BF90AF909F9078
:101F30008F907F906F905F904F903F902F9008957B
:101F400060E84D2DC3010E940C0C182FDFCF11113A
:101F5000DDCF2D853E85C9CF8F929F92AF92BF92E4
:101F6000CF92EF920F931F931F921F921F930F9385
:101F70003F932F934901B12CA12CCC24C394E12C85
:101F800006E020E80E94D40E0F900F900F900F9063
:101F90000F900F901F910F91EF90CF90BF90AF9047
:101FA0009F908F9008958F929F92AF92BF92CF9201
:101FB000EF92FF920F931F921F92FF92EF923F9327
:101FC0002F934901B12CA12C22E0C22EE02E06E075
:101FD00020E80E94D40E0F900F900F900F900F905A
:101FE0000F900F91FF90EF90CF90BF90AF909F9088
:101FF0008F9008954F925F926F927F928F929F92EF
:10200000AF92BF92CF92DF92EF92FF920F931F9306
:10201000CF93DF93CDB7DEB7C054D1090FB6F89494
:10202000DEBF0FBECDBF3C01D62E542E422EC02E99
:10203000CE0101965C017C01022F29E030E0C30152
:102040000E94D30F81111BC08B809C801F93CF9265
:10205000BF92AF921F9280E48F93B12CA12C82E0AB
:10206000C82EE42C06E020E8452D6D2DC3010E940A
:10207000D40E0F900F900F900F900F900F90C05CA8
:10208000DF4F0FB6F894DEBF0FBECDBFDF91CF910B
:102090001F910F91FF90EF90DF90CF90BF90AF9086
:1020A0009F908F907F906F905F904F9008958F9248
:1020B0009F92AF92BF92CF92EF920F93CF931F92C6
:1020C0001F921F921F921F921F92912C812CB12C54
:1020D000A12CC12CE22E05E020E00E94D40EC82FD6
:1020E0006CE271E080E090E00E943A090F900F905E
:1020F0000F900F900F900F908C2FCF910F91EF902A
:10210000CF90BF90AF909F908F9008950F931F93A3
:10211000CF93DF938A3F3FEF930739F416ED812F7A
:10212000DF91CF911F910F910895DC011696ED91EB
:10213000FC9117EDEF2B99F3122F242FEC011A8746
:1021400040E00E94F909082F8823B1F0682FCE01E2
:102150000E94A00A009711F3FC011483202F40E095
:1021600060E0CE010E945710182F8823C1F2602F23
:10217000CE010E94B70AD3CF14EDD1CF2F923F9258
:102180004F925F926F927F928F929F92AF92BF9287
:10219000CF92DF92EF92FF920F931F93CF93DF9333
:1021A000CDB7DEB768970FB6F894DEBF0FBECDBFD0
:1021B0001B8A38E03C8B3CE33D8B8A3F3FEF930723
:1021C00009F4E2C0622E342E262E7C01DC01169624
:1021D000CD90DC901797CE01439617969C938E93E3
:1021E00016971A962C938E010F5F1F4F22E130E055
:1021F00040E060E0C7010E94AC0F782EF701D78263
:10220000C68281115AC049845A848B849C84FD8182
:10221000FF8B3E81388F670186E5C80ED11C5601C1
:102220001E8AD5018D919D915D010097B9F4BE89FB
:10223000BF5FBE8BB031A9F7F601819191916F011B
:10224000009709F061C07394F0E17F12F5CF262D5D
:10225000432D622DC7010E9486102FC0DC01ED9135
:10226000FC910084F185E02D09958111E0CFF50105
:10227000929182918F01DC01ED91FC910088F189AE
:10228000E02D688D0995882391F2F8018081918174
:10229000DC01ED91FC910484F585E02DA401B201EF
:1022A0000995882319F1062D232D422D6E89C7012A
:1022B0000E946C0C813D09F4BACF68960FB6F89471
:1022C000DEBF0FBECDBFDF91CF911F910F91FF9069
:1022D000EF90DF90CF90BF90AF909F908F907F90C6
:1022E0006F905F904F903F902F900895F8018081FC
:1022F0009181DC01ED91FC910684F785E02D6F89D9
:1023000009958111D0CF93CFDC01ED91FC91008430
:10231000F185E02D0995811196CFF6019291829178
:102320008F01DC01ED91FC910088F189E02D688D31
:10233000099581110DC0062D232D422D672DC70152
:102340000E946C0C982F977F913D09F0B6CF7BCF00
:10235000F80180819181DC01ED91FC910484F58587
:10236000E02DA401B201099581116DCFF8018081A2
:102370009181DC01ED91FC910684F785E02D6F8958
:1023800009958823C1F25FCF86ED97CF8F929F92F8
:10239000AF92BF92CF92EF920F931F921F921F9214
:1023A0001F921F921F92912C812CB12CA12CC12C19
:1023B000E22E09E020E00E94D40E0F900F900F90C3
:1023C0000F900F900F900F91EF90CF90BF90AF9024
:1023D0009F908F900895AF92BF92CF92DF92EF922D
:1023E000FF920F931F93CF93DF9300D000D0CDB710
:1023F000DEB77C01690158011C821B821A82198296
:102400008E010F5F1F4F9E012D5F3F4F0E94AC0B4F
:10241000811109C049815A816B817C8185019601B6
:10242000C7010E94170E0F900F900F900F90DF9131
:10243000CF911F910F91FF90EF90DF90CF90BF90C1
:10244000AF900895AF92BF92CF92DF92EF92FF923A
:102450000F931F93CF937C0183B1C82FC07285FD6A
:102460000DC088EC0E94880B85FF04C0C7010E9444
:10247000F306C0E26C2F88EC0E94990B8091B201A8
:10248000813041F058F0823009F463C0833069F044
:10249000C0E022C083E180930803FACF8091080353
:1024A000807F8031A9F381E1F6CFC1E080910803FC
:1024B000807F803189F40E94380968537F4F8F4FA5
:1024C0009F4F6093040370930503809306039093DA
:1024D000070380E280930803670186E5C80ED11CDC
:1024E0005701A6E7AA0EB11C8601F80181919191CE
:1024F0008F01009739F0DC01ED91FC910680F781A6
:10250000E02D09950A151B0581F780910803803499
:1025100009F45FC000F5803209F445C0803309F446
:1025200052C08131B1F5F8011082D6018D919D9193
:102530006D01009739F0DC01ED91FC910480F5818B
:10254000E02D09950C151D0581F782E180930803A4
:1025500020C0C0E0ABCF813509F44AC0803809F40F
:102560005AC08035B1F488EC0E94880B86FF11C0F8
:1025700081E5809308030E9438096C5E7F4F8F4F7E
:102580009F4F609304037093050380930603909319
:102590000703CF911F910F91FF90EF90DF90CF90A5
:1025A000BF90AF9008950E943809009104031091E4
:1025B00005032091060330910703601B710B820B0A
:1025C000930B97FDE6CF61E088EE0E94990B80E4C3
:1025D000BDCF88EE0E94880B80FDDBCF88ED0E9486
:1025E000880B682F686088ED0E94990B80E5AECF5C
:1025F0000E943809009104031091050320910603FD
:1026000030910703601B710B820B930B97FDC1CFB9
:1026100080E8809308032C2F40E060E0C7010E940F
:10262000BE10882329F0823D09F4B3CF80EA8ECF13
:1026300080E98CCF8F929F92AF92BF92CF92EF9210
:102640000F93CF93DF93CDB7DEB7C054D1090FB648
:10265000F894DEBF0FBECDBF5F934F939E012F5FF7
:102660003F4F3F932F931F9220E42F9320E8822E19
:10267000912C5B0132E2C32EE12C06E021E840E020
:10268000FC016681848195810E94D40E0F900F9089
:102690000F900F900F900F90C05CDF4F0FB6F89423
:1026A000DEBF0FBECDBFDF91CF910F91EF90CF90E6
:1026B000BF90AF909F908F9008958F929F92AF920E
:1026C000BF92CF92DF92EF92FF920F93A42EB12C84
:1026D0001F921F92DF92CF92FF92EF924701C22E7C
:1026E000E02E09E021E2462FFC016681848195817C
:1026F0000E94D40E0F900F900F900F900F900F909C
:102700000F91FF90EF90DF90CF90BF90AF909F9090
:102710008F9008958F929F92AF92BF92CF92EF9237
:102720000F93A62EB12C1F921F921F921F921F92E1
:102730001F92912C812CC22EE42E0AE021E240E06F
:10274000FC016681848195810E94D40E0F900F90C8
:102750000F900F900F900F900F91EF90CF90BF9030
:10276000AF909F908F9008958F929F92AF92BF925B
:10277000CF92EF920F93A62EB12C1F921F921F9211
:102780001F921F921F92912C812CC12CE42E0BE0E2
:1027900021E240E0FC016681848195810E94D40E93
:1027A0000F900F900F900F900F900F900F91EF9050
:1027B000CF90BF90AF909F908F90089581E0089543
:1027C000FC018285089581E0693009F080E0089578
:1027D000CF93DF93EC018A819B81DC01ED91FC9129
:1027E0000480F581E02D6A8509958A85813439F464
:1027F000EA81FB81EA58FF4F8081846080831A86DA
:102800001B861C861D861E861F86188A80E0DF9127
:10281000CF9108958F929F92AF92BF92CF92EF92F5
:102820000F93B22EA42E1F921F921F921F921F92DF
:102830001F92912C812CC12CE62E01E023E240E076
:10284000FC016285828193810E94D40E0F900F90CB
:102850000F900F900F900F900F91EF90CF90BF902F
:10286000AF909F908F9008958F929F92AF92BF925A
:10287000CF92EF920F93A62EB12C1F921F923F93EF
:102880002F935F934F934A01C12CE12C00E023EA80
:1028900040E0FC016285828193810E94D40E0F90FA
:1028A0000F900F900F900F900F900F91EF90CF908F
:1028B000BF90AF909F908F9008958F929F92AF920C
:1028C000BF92CF92EF920F93B22EA42E1F921F921F
:1028D0001F921F921F921F92912C812CC12CE62EC9
:1028E00003E023E240E0FC016285828193810E9443
:1028F000D40E0F900F900F900F900F900F900F919C
:10290000EF90CF90BF90AF909F908F9008952F92AF
:102910003F924F925F926F927F928F929F92AF926F
:10292000BF92CF92DF92EF92FF920F931F93CF93BC
:10293000DF93CDB7DEB7E8970FB6F894DEBF0FBED2
:10294000CDBFDC011A963C9119ED311169C0122FEF
:10295000242E362E3C01FC01C280D380D601ED919D
:10296000FC910190F081E02D60E0C60109957C01A9
:10297000009709F40BC1FC01A080B180A114B1043F
:1029800009F406C14301F4E08F0E911CDC0111969D
:102990009C928E9214961C93FE0131962F018F010A
:1029A00028E030E040E060E0D30112968D919C91E8
:1029B0000E94AC0F182FF70114828111EBC08D819A
:1029C00011ED893069F50981D601ED91FC91028004
:1029D000F381E02D222D41E0632DC6010995F3011D
:1029E000828714ED8823E1F098859583282F40E0B5
:1029F00060E0828193810E945710182FD701AD9219
:102A0000BC92882339F1D601ED91FC910480F581C7
:102A1000E02DD3011A966C91C6010995F301128637
:102A2000812FE8960FB6F894DEBF0FBECDBFDF91C1
:102A3000CF911F910F91FF90EF90DF90CF90BF90BB
:102A4000AF909F908F907F906F905F904F903F904E
:102A50002F900895011179C0940142E0F30162853D
:102A6000828193810E94280B182F8111D9CF1F9248
:102A70001F925F924F921F9288E08F9388E0882E7A
:102A8000912CB12CA12C99E2C92EE12C06E020EA70
:102A900040E0F3016285828193810E94D40E182F59
:102AA0000F900F900F900F900F900F908111B8CF53
:102AB0008B81D3011B968C931B97720100E028E059
:102AC00030E040E01A966C911A9712968D919C9185
:102AD0000E94D30F182F8111A3CF2B813C8140E09E
:102AE000F3016285828193810E94D30F182F811197
:102AF00097CF298130E0CE0181967C0140E0D3015F
:102B00001A966C911A9712968D919C910E94D30FF0
:102B1000182F811185CF2E8140E0F30162858281DB
:102B200093810E94C611182F81117ACF01E0D30141
:102B30001B968C911B978017E0F020E0402F68E0F7
:102B4000C3010E945D140F5FF2CF013208F000E272
:102B5000202F30E0820140E0D3011A966C911A9741
:102B600012968D919C910E94AC0F182F811158CF15
:102B700073CF1296ED91FC911397EA58FF4F808125
:102B80008460808381E050968C934ACF16ED48CFC5
:102B900017ED46CFB182A08243CFCF92DF92FF9252
:102BA0000F931F93CF93DF9300D000D0CDB7DEB744
:102BB0008C01F62E19821A821B821C8220E0462F7D
:102BC00061E10E940A1420E04F2D60E1C8010E94DB
:102BD0000A1420E04F2D64E0C8010E945D1483E0D8
:102BE000C82ED12C9E012F5F3F4F44E050E06F2D47
:102BF000C8010E943414811114C089819A81AB816B
:102C0000BC819D7F83309140A041B10551F064E6C5
:102C100070E080E090E00E943A0981E0C81AD10893
:102C200009F720E04F2D64E1C8010E940A1420E05A
:102C30004F2D60E1C8010E940A1464E170E080E059
:102C400090E00E943A090F900F900F900F90DF9143
:102C5000CF911F910F91FF90DF90CF900895FC01CD
:102C600081E991E091838083738362831286138666
:102C70001486158616861786108A148288E0858346
:102C80009CE3968391E09783808784E08187611538
:102C90007105B1F0DB01AA5ABF4F90E080E02D91A1
:102CA0003D91232B49F4DC019B96AA0FBB1FA60F75
:102CB000B71FED93FC93089501968031910579F744
:102CC0000895EF92FF921F93CF93DF93EC01162F9D
:102CD0007A01FA0180819181A281B3818130F3E090
:102CE0009F07F1E0AF07B105D9F170F48115E1E07C
:102CF0009E07AE07B10509F453C081309140A14051
:102D0000B10571F180E046C0833021E0920720E1F7
:102D1000A207B10529F083309340A041B10591F796
:102D200020E0412F64E1CE010E940A1420E0412FEF
:102D300060E1CE010E940A1464E170E080E090E05E
:102D40000E943A096A85F7012181269521706770F2
:102D5000412F8A819B810E94BE1010920903D2CF1D
:102D6000809109038111CECF20E0412F61E1CE0196
:102D70000E940A1420E0412F60E1CE010E940A1453
:102D800020E0412F64E0CE010E945D1481E0809339
:102D9000090381EBDF91CF911F91FF90EF90089590
:102DA00020E0462F61E1CE010E940A1420E0412F6D
:102DB00060E1CE010E940A14109209036A856770CF
:102DC0001770660F660F660F612B8A819B810E94C8
:102DD000440B98CFCF92DF92EF92FF920F931F9305
:102DE000CF93DF93CDB7DEB72E970FB6F894DEBF43
:102DF0000FBECDBF7C0181E090E09E878D878E0164
:102E00000F5F1F4F9E01235F3F4F41E0F701628537
:102E1000828193810E94EB11082F811123C082E0EF
:102E2000D82E11E089818D2169F119861A861B86B9
:102E30001C869E01275F3F4F44E050E0612FC70191
:102E40000E943414C82E81111DC0AE01475F5F4F30
:102E5000612FC7010E946116813B19F0882391F010
:102E6000C82E0C2D802F2E960FB6F894DEBF0FBE05
:102E7000CDBFDF91CF911F910F91FF90EF90DF9029
:102E8000CF900895DD0C1F5F183061F611E0F70157
:102E90008385811738F319861A861B861C869E0146
:102EA000275F3F4F44E050E0612FC7010E94341478
:102EB000D82E811117C089859A85877091708130CD
:102EC000914081F48B859C8581609C878B87AE01C6
:102ED000475F5F4F612FC7010E946116813B29F058
:102EE000811102C01F5FD3CFD82E0D2DBBCF0F9302
:102EF0001F93CF93DF93FC012089211107C010E0BD
:102F0000812FDF91CF911F910F910895EC010E94C5
:102F100038090C851D852E853F85601B710B820B42
:102F2000930B97FDECCFCE010E94EA16182F0E945A
:102F300038096C597F4F8F4F9F4F6C877D878E87E5
:102F40009F87DECF0F931F93CF93DF93FC018B01FD
:102F5000EA0180819181892B31F19281992349F194
:102F600028813981232BF9F0D8012D913C91D90189
:102F70004C918381682F691B770B80819181860F2B
:102F8000971FDC014C9382818150828388819981D3
:102F9000019799838883D8018D919C91119701960F
:102FA0008D939C93DACF80E0DF91CF911F910F91A9
:102FB00008958381828381E0F7CFCF92DF92EF92F1
:102FC000FF920F931F93CF93DF936C01EB017B0173
:102FD000E40EF51E10E000E0CE15DF0561F069910A
:102FE000D601ED91FC910190F081E02DC60109958B
:102FF000080F191FF1CFC801DF91CF911F910F91D9
:10300000FF90EF90DF90CF90089580911303089583
:10301000CF93DF9300D01F92CDB7DEB79C01809194
:103020009604843019F593E099833B832A83909327
:10303000E9008FEF9091E800815095FD06C095ED75
:103040009A95F1F700008111F5CF8091E80085FF96
:103050000DC050E040E063E070E0CE0101960E94B8
:10306000FD198091E8008E778093E8000F900F9013
:103070000F90DF91CF910895CF93DF9300D01F92EF
:10308000CDB7DEB720919604243021F522E02983C4
:103090009B838A8383E08093E9008FEF9091E8001F
:1030A000815095FD06C095ED9A95F1F700008111CC
:1030B000F5CF8091E80085FF0DC050E040E063E06F
:1030C00070E0CE0101960E94FD198091E8008E7794
:1030D0008093E8000F900F900F90DF91CF910895AB
:1030E000209196042430F1F422E02093E9002FEFA0
:1030F0003091E800215035FD06C035ED3A95F1F7E5
:1031000000002111F5CF2091E80025FF0BC050E011
:1031100040E065E070E00E94FD198091E8008E7744
:103120008093E8000895CF93DF9320919604243094
:1031300039F521E02093E9002FEF3091E80021508C
:1031400035FD06C035ED3A95F1F700002111F5CFB8
:103150002091E80025FF14C0EC0150E040E068E059
:1031600070E00E94FD198091E8008E778093E8005E
:1031700088E0FE01ABE0B3E001900D928A95E1F7A3
:10318000DF91CF91089580919504811109C00E942B
:103190008D1B0E94EA1B8091E20084608093E20014
:1031A0000895109295040895089542E061EC81E03D
:1031B0000E940B1B42E061EC82E00E940B1B42E08C
:1031C00061EC83E00C940B1B80919804833009F42C
:1031D00052C030F4813059F1823009F48EC0089524
:1031E0008A3009F47AC08B3009F460C0893009F064
:1031F00041C0809197048132E9F580919B049091C0
:103200009C04892BB9F58091E800877F8093E800C2
:103210008091E80082FF2AC08091F100809313031F
:103220008091E8008B778093E8000C943F1B80919D
:103230009704813AF9F48091E800877F8093E80051
:1032400080919B0490919C04892B61F468E08BE051
:1032500093E070E00E944C1A8091E8008B77809395
:10326000E800089560E090E080E0F3CF809196045C
:103270008111CECF089580919704813AD9F780913A
:103280009B0490919C04892BA9F78091E800877F8B
:103290008093E8008091E80080FFFCCF80910A01D4
:1032A0008093F1008091E8008E77BDCF80919704E4
:1032B000813201F780919B0490919C04892BD1F677
:1032C0008091E800877F8093E8000E943F1B8091F7
:1032D000990480930A010C948C2380919704813285
:1032E00049F68091E800877F8093E8000E943F1BA9
:1032F00080919A0480931403089580919704813AF1
:1033000009F0B8CF8091E800877F8093E800809132
:10331000E80080FFFCCF80911403C2CF80E00895C5
:103320008091130380930A031092130380E00E949C
:1033300068060E946A1F0C948C230C9490190E94BA
:10334000252A80910A038093130308950C949F19F2
:10335000292F33272330310579F158F421303105F5
:10336000F1F02230310519F190E080E030E020E00A
:103370001AC02132310599F122323105A9F76330A3
:1033800098F770E0FB01EE0FFF1FEA55FE4F20811A
:1033900031816D557E4FFB01808190E004C082E158
:1033A00090E020E233E0FA0131832083089584E540
:1033B00090E02CEC32E0F7CF99278130910561F055
:1033C00028F0029789F6EAE7F2E002C0E8ECF2E0C2
:1033D000849190E09F01E7CFE8EBF2E0F9CF633012
:1033E00008F0C2CFE62FF0E0EE0FFF1FE455FE4FCE
:1033F0002081318189E090E0D6CFAF92BF92CF9209
:10340000DF92FF920F931F93CF93DF936C01EB0139
:103410008A010E945E1BF82E811123C0011511053F
:1034200039F0F80180819181C81BD90BC80ED91ED3
:10343000B12CA12C2097A9F08091E80085FD22C035
:103440008091E8008E778093E80001151105A1F0C6
:10345000F80180819181A80EB91EB182A08285E019
:10346000F82E8F2DDF91CF911F910F91FF90DF905C
:10347000CF90BF90AF9008950E945E1B8823D1F239
:10348000F82EEFCFF60181916F018093F100219723
:10349000FFEFAF1ABF0ACECFFC0180919D0490913F
:1034A0009E0486179707A0F06115710529F4909185
:1034B000E8009E779093E80090E06115710551F463
:1034C000911108C08091E80082FF35C080E0089526
:1034D000BC01F2CF809196048823C9F18530C9F1EF
:1034E0008091E80083FD31C08091E80082FDEACF41
:1034F0008091E80080FFE1CF2091F3008091F200FD
:10350000322F282F6115710519F02830310558F038
:1035100091E02830310509F090E02091E8002E7705
:103520002093E800CACF81918093F1006150710926
:103530002F5F3F4FE7CF80919604882341F085307D
:1035400041F08091E80083FFBDCF81E0089582E0E3
:10355000089583E00895FC0180919D0490919E045C
:1035600086179707A0F06115710529F48091E8008E
:103570008E778093E80090E06115710551F4911108
:1035800008C08091E80082FF36C080E00895BC0149
:10359000F2CF809196048823D1F18530D1F18091CA
:1035A000E80083FD32C08091E80082FDEACF80917F
:1035B000E80080FFE1CF2091F3008091F200322FEC
:1035C000282F6115710519F02830310558F091E068
:1035D0002830310509F090E08091E8008E778093E3
:1035E000E800CACF84918093F1003196615071094F
:1035F0002F5F3F4FE6CF80919604882341F08530BE
:1036000041F08091E80083FFBCCF81E0089582E023
:10361000089583E00895982F973028F08F70809355
:10362000E90081E008959093E900242F762F50E07F
:10363000981731F07091EC002091ED005091F0005E
:1036400021FD02C09F5FE8CF3091EB003E7F3093B9
:10365000EB003091ED003D7F3093ED003091EB00B9
:1036600031603093EB007093EC002093ED005093A9
:10367000F0002091EE0027FDE5CF80E008958091D5
:10368000970487FF13C08091E80082FF06C08091F5
:10369000E8008B778093E80004C080919604811144
:1036A000F2CF0895809196048823D9F38091E800A1
:1036B00080FFF8CF8091E8008E77ECCF2091E40076
:1036C0003091E50085E69091EC0090FF06C0909166
:1036D000E80090FF06C080E008959091E80092FD18
:1036E000FACF90919604992391F0953091F09091B2
:1036F000EB0095FD10C04091E4005091E5002417C7
:10370000350709F381509A01F1F684E0089582E0CB
:10371000089583E0089581E008950E94FB1B0E94B4
:10372000031CE0EEF0E0808181608083E8EDF0E052
:1037300080818F77808319BCA7EDB0E08C918E7F5C
:103740008C9380818F7E80831092950408950F93CF
:103750001F93CF93DF930E94FB1B0E94031CC8EDB5
:10376000D0E088818F77888388818068888388818A
:103770008F7D888319BC1092960410929204109247
:1037800094041092930400EE10E0F80180818B7F86
:10379000808388818160888342E060E080E00E94CD
:1037A0000B1BE1EEF0E080818E7F8083E2EEF0E0A3
:1037B000808181608083808188608083F80180813E
:1037C0008E7F8083888180618883DF91CF911F9174
:1037D0000F910895E8EDF0E080818F7E8083E7ED22
:1037E000F0E080818160808384E082BF81E080930B
:1037F00095040C94A71BE8EDF0E080818E7F808318
:103800001092E20008951092DA001092E1000895FB
:103810001F920F920FB60F9211242F933F934F9345
:103820005F936F937F938F939F93AF93BF93EF9328
:10383000FF938091E10082FF0BC08091E20082FF44
:1038400007C08091E1008B7F8093E1000E946B1E96
:103850008091DA0080FF19C08091D80080FF15C0E8
:103860008091DA008E7F8093DA008091D90080FF0A
:1038700094C080E189BD82E189BD09B400FEFDCF1D
:1038800081E0809396040E94C3188091E10080FF3C
:1038900019C08091E20080FF15C08091E2008E7F08
:1038A0008093E2008091E20080618093E200809149
:1038B000D80080628093D80019BC85E0809396047C
:1038C0000E949D198091E10084FF29C08091E2004F
:1038D00084FF25C080E189BD82E189BD09B400FE75
:1038E000FDCF8091D8008F7D8093D8008091E1003A
:1038F0008F7E8093E1008091E2008F7E8093E200D2
:103900008091E20081608093E2008091920488239C
:1039100009F449C084E0809396040E94A61980911E
:10392000E10083FF29C08091E20083FF25C08091E0
:10393000E100877F8093E10082E0809396041092FB
:1039400092048091E1008E7F8093E1008091E200FB
:103950008E7F8093E2008091E20080618093E2009C
:1039600042E060E080E00E940B1B8091F0008860E4
:103970008093F0000E94D418FF91EF91BF91AF9116
:103980009F918F917F916F915F914F913F912F9177
:103990000F900FBE0F901F90189519BC10929604AF
:1039A0000E94D11872CF8091E30087FD02C081E0B0
:1039B000B2CF83E0B0CF1F920F920FB60F921124B7
:1039C0002F933F934F935F936F937F938F939F9327
:1039D000AF93BF93CF93EF93FF93C091E900CF7064
:1039E0008091EC001092E9008091F000877F809335
:1039F000F00078940E94171D1092E9008091F00069
:103A000088608093F000C093E900FF91EF91CF911F
:103A1000BF91AF919F918F917F916F915F914F91E6
:103A20003F912F910F900FBE0F901F9018951F93ED
:103A3000CF93DF93CDB7DEB7AA970FB6F894DEBF6A
:103A40000FBECDBFE7E9F4E08091F100819324E05F
:103A5000EF39F207C9F70E94E4188091E80083FF6C
:103A600042C080919704909198049A3008F03BC02E
:103A7000E92FF0E0E25CF24E0C94282E481D6C1DFC
:103A8000731D6C1D731DC71DE91D731D3E1E4B1E4E
:103A9000803879F0823839F580919B048F7080935B
:103AA000E9008091EB0085FB882780F91092E900FE
:103AB00006C080919304909194049111826090913A
:103AC000E800977F9093E8008093F1001092F10056
:103AD0008091E8008E772DC0282F2D7F21F4882338
:103AE000D1F0823059F18091E80083FF0AC08091C3
:103AF000E800877F8093E8008091EB0080628093EC
:103B0000EB00AA960FB6F894DEBF0FBECDBFDF91D3
:103B1000CF911F91089580919904813021F79330BE
:103B200009F080E0809394041092E9008091E8000D
:103B3000877F8093E8000E943F1BD5CF8091990436
:103B40008111F2CF80919B048F7069F28093E9001C
:103B50002091EB0020FFE8CF933031F48091EB000F
:103B600080628093EB00E0CF9091EB0090619093A6
:103B7000EB0021E030E001C0220F8A95EAF72093A4
:103B8000EA001092EA008091EB008860EACF811190
:103B9000AACF109199041F778091E3008078812B40
:103BA0008093E3008091E800877F8093E8000E9483
:103BB0003F1B8091E80080FFFCCF8091E30080688C
:103BC0008093E30083E0111101C082E080939604AA
:103BD0008ACF8058823008F086CF809199049091E6
:103BE0009A048C3D23E09207A1F583E08A838AE260
:103BF00089834FB7F894DE01139620E03EE051E24E
:103C0000E32FF0E050935700E49120FF03C0E295CA
:103C1000EF703F5FEF708E2F90E0EA30C0F0C796F4
:103C20008D939D932F5F243159F74FBF8091E8000A
:103C3000877F8093E8006AE270E0CE0101960E94DF
:103C40004C1A8091E8008B778093E8004CCFC096A7
:103C5000E7CFAE014F5F5F4F60919B040E94A819B0
:103C6000BC01892B09F43FCF9091E800977F909396
:103C7000E80089819A810E94AB1AE3CF803809F06D
:103C800032CF8091E800877F8093E8008091920492
:103C90008093F1001DCF811126CF9091990492302D
:103CA00008F021CF8091E800877F8093E80090930F
:103CB00092040E943F1B80919204882331F084E09B
:103CC000809396040E94D5180ECF8091E30087FD63
:103CD000F6CF81E0F5CF089590931A0380931903EE
:103CE0000895E0911903F0911A03309721F00190A3
:103CF000F081E02D099480E00895E0911903F0919E
:103D00001A03309721F00280F381E02D0994089581
:103D1000E0911903F0911A03309721F00480F581A6
:103D2000E02D099408952091170330911803281766
:103D3000390771F09093180380931703E0911903EA
:103D4000F0911A03309721F00680F781E02D099455
:103D5000089520911503309116032817390771F043
:103D60009093160380931503E0911903F0911A03C1
:103D7000309721F00084F185E02D099408950E9488
:103D800089090C946F078F929F92AF92BF92CF9246
:103D9000DF92EF92FF920F931F93CF93DF9300D0A8
:103DA00000D01F92CDB7DEB70E9483052CE1E22E32
:103DB00023E0F22E10E0812F0E9439064C01F7011A
:103DC000A080B180A816B906C9F18091870481FD51
:103DD0000E94670600E0CC24C394D12CA824B92407
:103DE000C5018C219D21892B21F109831A8321E0B2
:103DF000C4018C219D21892B09F420E02B830E9492
:103E000092098160782F9D838C8349815A816B81CF
:103E10008D810E946B1F49815A816B817C818D81CC
:103E20000E94122AF701808191818C259D25918322
:103E300080830F5FCC0CDD1C003191F61F5FF2E038
:103E4000EF0EF11C103109F0B6CF8FEF89838A8312
:103E50001B820E9492098160782F9D838C83498107
:103E60005A816B818D810E946B1F0E94112A0E94D2
:103E7000072C0E94711E90911B038917B9F00E94B4
:103E8000711E80931B030F900F900F900F900F9057
:103E9000DF91CF911F910F91FF90EF90DF90CF9026
:103EA000BF90AF909F908F900C94232A0F900F900B
:103EB0000F900F900F90DF91CF911F910F91FF9076
:103EC000EF90DF90CF90BF90AF909F908F9008952C
:103ED0000C9468060895CF93DF93CDB7DEB72B9788
:103EE0000FB6F894DEBF0FBECDBF942F4F83252FA2
:103EF000588769877A878B874A855B8581E0452B60
:103F000031F02F3F19F481E09F3F09F080E080FD00
:103F100007C04F81588569857A858B850E94122A52
:103F20001E821D8285E0FE013796DE01119601900A
:103F30000D928A95E1F749815A816B817C818D814F
:103F40009E812B960FB6F894DEBF0FBECDBFDF91DA
:103F5000CF910C947A26882309F45CC09CEF980FCB
:103F6000913A20F090E5980F9E3220F40E9470293B
:103F70000C94EB2990E2980F983050F4877091E000
:103F800001C0990F8A95EAF7892F0E94B029F0CFD6
:103F90009BE5980F933070F4853A31F0863A39F00A
:103FA00083E890E00C94931E81E890E0FBCF82E8D8
:103FB00090E0F8CF98E5980F953160F5883A91F048
:103FC000893A99F08A3AA1F08B3AA9F08C3AB1F08B
:103FD0008D3AB9F08E3AC1F08F3AC9F090E080E0A6
:103FE0000C94A91E82EE90E0FBCF89EE90E0F8CF12
:103FF0008AEE90E0F5CF85EB90E0F2CF86EB90E093
:10400000EFCF83EB90E0ECCF84EB90E0E9CF87EB50
:1040100090E0E6CF0895882349F19CEF980F913AFC
:1040200020F090E5980F9E3220F40E948D290C9488
:10403000EB2990E2980F983050F4877091E001C01E
:10404000990F8A95EAF7892F0E94B629F0CF9BE550
:10405000980F933020F490E080E00C94931E885ADF
:10406000853120F490E080E00C94A91E0895CF9350
:10407000C82F0E94AB1F8C2FCF910C940B2088234C
:1040800021F00E94B0290C94EB290895882321F097
:104090000E94B6290C94EB290895AF92BF92CF925B
:1040A000DF92EF92FF920F931F93CF93DF9300D095
:1040B00000D01F92CDB7DEB75C0185E0F501DE01CF
:1040C000119601900D928A95E1F7F5014081518199
:1040D0002381348191E02115310531F05F3F19F4DE
:1040E00091E04F3F09F090E090FDC5C0F501F280EE
:1040F000E580E2946FE0E622722F3D832C836F2DE2
:104100008D810E94C7288C010E94C6280E94C22768
:10411000E12FE295EF70F0E0E057FF4D0C94282E70
:10412000A020A020DD20DD206E21A3213B213B210A
:10413000BC213B21A822A8224E233B213B21652301
:10414000F12FFF70EF2E107F19F0E29490EFE9222B
:10415000FF20C9F0EE2029F08E2D0E94C4290E9474
:10416000EB29802F0F900F900F900F900F90DF9101
:10417000CF911F910F91FF90EF90DF90CF90BF9064
:10418000AF900C94AB1F802F0E940B20EE2009F4FF
:1041900072C08E2D0E94CA290F900F900F900F9021
:1041A0000F90DF91CF911F910F91FF90EF90DF90D3
:1041B000CF90BF90AF900C94EB29812F8F70D82EA9
:1041C000107F103219F0D29480EFD822002379F0BA
:1041D000013009F460C0FF2009F46CC0EE2059F0F2
:1041E000F501858180FFBDCF8F70858304C0FF20DE
:1041F00049F1E11012C08D2D0F900F900F900F908C
:104200000F90DF91CF911F910F91FF90EF90DF9072
:10421000CF90BF90AF900C943F20E1E08D2DEE1237
:10422000EBCF0F900F900F900F900F90DF91CF91E9
:104230001F910F91FF90EF90DF90CF90BF90AF90C4
:104240000C94D529E11014C00E94D8298D2D0F900F
:104250000F900F900F900F90DF91CF911F910F91C2
:10426000FF90EF90DF90CF90BF90AF900C944620DE
:10427000F1E0EF12E9CF0F900F900F900F900F9099
:10428000DF91CF911F910F91FF90EF90DF90CF9032
:10429000BF90AF900895FF2049F085E08E1558F348
:1042A0000E94AD298D2109F4A6CFD0CFE4E0EE1510
:1042B00010F3CCCFEE2051F2802F0F900F900F9083
:1042C0000F900F90DF91CF911F910F91FF90EF9082
:1042D000DF90CF90BF90AF900C940B20812F8695EC
:1042E00086958370C9F0813031F6C8019370F11062
:1042F00002C090E080E00F900F900F900F900F9011
:10430000DF91CF911F910F91FF90EF90DF90CF90B1
:10431000BF90AF900C94A91EC8019370F11002C019
:1043200090E080E00F900F900F900F900F90DF9132
:10433000CF911F910F91FF90EF90DF90CF90BF90A2
:10434000AF900C94931E802FFF2099F00E94102BA9
:104350000F900F900F900F900F90DF91CF911F91C2
:104360000F91FF90EF90DF90CF90BF90AF900C94A3
:10437000FC2B0E94782BECCF812F837009F071C049
:10438000F11079CF202F229526952770220F220F2A
:10439000602F6F70C62ED12CF12CE12C022E04C0A0
:1043A000CC0CDD1CEE1CFF1C0A94D2F760E070E020
:1043B000CB0104FF0FC06FE070E080E090E004C02C
:1043C000660F771F881F991F2A95D2F76095709501
:1043D000809590951695169513701230C1F060F582
:1043E0006C297D298E299F29113051F10F900F9052
:1043F0000F900F900F90DF91CF911F910F91FF9031
:10440000EF90DF90CF90BF90AF900C94DD276C2998
:104410007D298E299F290F900F900F900F900F905C
:10442000DF91CF911F910F91FF90EF90DF90CF9090
:10443000BF90AF900C94F7270E94DD27C701B6010B
:104440000F900F900F900F900F90DF91CF911F91D1
:104450000F91FF90EF90DF90CF90BF90AF900C94B2
:10446000C3278695FF2011F0812F8170882309F4DE
:1044700002CF202F229526952770220F220F602F22
:104480006F70C62ED12CF12CE12C022E04C0CC0C66
:10449000DD1CEE1CFF1C0A94D2F760E070E0CB013B
:1044A00004FF0FC06FE070E080E090E004C0660F92
:1044B000771F881F991F2A95D2F760957095809570
:1044C00090951695169513701230C1F060F56C2911
:1044D0007D298E299F29113051F10F900F900F9057
:1044E0000F900F90DF91CF911F910F91FF90EF9060
:1044F000DF90CF90BF90AF900C94A2286C297D29BB
:104500008E299F290F900F900F900F900F90DF91A1
:10451000CF911F910F91FF90EF90DF90CF90BF90C0
:10452000AF900C94B4280E94A228C701B6010F9046
:104530000F900F900F900F90DF91CF911F910F91DF
:10454000FF90EF90DF90CF90BF90AF900C949028A9
:10455000003F09F445C060F480E4800F803228F108
:10456000FF2009F496C0E110FCCD812F8F715AC055
:10457000023F09F468C008F451C0033F89F7FF20E7
:1045800009F476C0812F8F710F900F900F900F90CC
:104590000F90DF91CF911F910F91FF90EF90DF90DF
:1045A000CF90BF90AF900C941628C02E812F8F71A2
:1045B000102F1071FF2051F00E942B288C2D829516
:1045C000807F111119CE802F8F7016CE0E944C283B
:1045D0008C2D8295807F11113ACE802F8F7037CE2F
:1045E000FF20B9F0F4E0FE1508F445CE812F8F715D
:1045F0000F900F900F900F900F90DF91CF911F9120
:104600000F91FF90EF90DF90CF90BF90AF900C9400
:104610006F2885E08E1508F42ECEE8CF812F8F719C
:10462000FF20A9F00F900F900F900F900F90DF9147
:10463000CF911F910F91FF90EF90DF90CF90BF909F
:10464000AF900C942B28812F8F71FF2059F30F907E
:104650000F900F900F900F90DF91CF911F910F91BE
:10466000FF90EF90DF90CF90BF90AF900C944C28CC
:104670000F900F900F900F900F90DF91CF911F919F
:104680000F91FF90EF90DF90CF90BF90AF900C9480
:104690001128E11011CE812F8F71D9CF412F4F708A
:1046A000602FC5010E94D5020F900F900F900F90C0
:1046B0000F90DF91CF911F910F91FF90EF90DF90BE
:1046C000CF90BF90AF900C942327412F4F70602F55
:1046D000C5010F900F900F900F900F90DF91CF9129
:1046E0001F910F91FF90EF90DF90CF90BF90AF9010
:1046F0000C9451020E94D2290E949F290E94EB290A
:104700000E94A92C0E94FC2B90E080E00E94931E46
:1047100090E080E00C94A91E0E94C1290C947A2399
:104720001F93CF93DF9300D000D01F92CDB7DEB799
:10473000942F4983252F5A836B837C838D834C81EF
:104740005D8181E0452B31F02F3F19F481E09F3FDF
:1047500009F080E0182F117080FD3AC049815A811C
:104760006B817C818D810E94C728292F22952F7013
:104770002C3078F42A3008F52250223090F0812F26
:104780000F900F900F900F900F90DF91CF911F918E
:1047900008952C3011F02F3091F793FB112710F969
:1047A000EECF853A30F4843010F4823030F411E0EA
:1047B000E6CF90E2980F9830D0F3883E30F4803EF8
:1047C000B0F78450813AD8F6F2CF803FC1F6EFCFF0
:1047D00010E0D5CFCF93DF9300D000D01F92CDB79C
:1047E000DEB70F900F900F900F900F90DF91CF9149
:1047F0000895CF93DF9300D000D000D0CDB7DEB7BF
:1048000026960FB6F894DEBF0FBECDBFDF91CF91D5
:1048100008951F93CF93DF93C0913C0316E08091DE
:104820003D038C1304C0DF91CF911F910895D0E018
:104830001C9FF0011D9FF00D1124E25CFC4F408194
:10484000518162817381848195810E94F92321962F
:10485000C770E5CF40916E0350916F036091700374
:104860007091710380917203909173030C94F923FA
:104870001F93CF93DF9380917303807FD1F4809156
:1048800070038823B1F080913C03D0913D03B09137
:104890006E03C0916F034091710350917203A1E0C8
:1048A000BF3F09F0A0E0BA016095709516E0D813FB
:1048B00004C0DF91CF911F91089521E0411551056A
:1048C00021F02A2FCF3F09F020E090E020FD38C0F2
:1048D000189FF001199FF00D1124E25CFC4F21811B
:1048E0002C132EC020812B132BC02281211128C014
:1048F000238134812417350700F1241B350B283C14
:104900003105F0F4209173032F702061209373031D
:1049100026E0289FF001299FF00D1124ED5BFC4F4C
:1049200080818F70806180838EE693E00E944D20AD
:10493000DF91CF911F910C940924260F371FDFCFF1
:1049400001968770B4CFAF92BF92CF92DF92EF9271
:10495000FF920F931F93CF93DF93CDB7DEB761978D
:104960000FB6F894DEBF0FBECDBF7C0185E0F70126
:10497000DE011D9601900D928A95E1F7D7014C91C9
:1049800011965C9111971296DC90129713960D91E7
:104990001C9130916E0360916F038091710390912F
:1049A000720321E0009731F06F3F19F421E03F3F9F
:1049B00009F020E0B22FB170BB2E20FD89C1A0907C
:1049C0007003AA2009F425C108171907D8F1F801C6
:1049D000E81BF90BCF01CC24C394883C910508F067
:1049E000C12C80917303982F907FCC2009F4C4C010
:1049F000911189C0CD2C65132AC0341328C0D11061
:104A000026C08F708061809373030E942A248EE6F3
:104A100093E00E944D2080917303D70115968C93EB
:104A20008C2D61960FB6F894DEBF0FBECDBFDF911F
:104A3000CF911F910F91FF90EF90DF90CF90BF909B
:104A4000AF90089580959095800F911FC4CF81E01D
:104A50000115110531F05F3F19F481E04F3F09F076
:104A600080E080FD24C081E08D25B82FB170AB2E91
:104A700080FF3FC080913C0320913D0336E08213CC
:104A800018C0702F198B088B6D2D89890E94C7283B
:104A9000292F22952F70223000F1243028F59F70A5
:104AA00001F1F7019581907FE1F4CB2CB9CF80E043
:104AB000DCCF90E0389FF001399FF00D1124E25CCB
:104AC000FC4F6181561306C06081461303C06281AA
:104AD0006D110FC001968770D2CF9F7011F088239F
:104AE00021F3805E883008F3C7010E944D20BA2C64
:104AF000DCCFDD2009F494CF809173038160809333
:104B00007303C12C8DCF651306C0341304C0D701C5
:104B1000DD2009F4A4C04D875E87DF86702F198BD6
:104B2000088B6D2D89890E949023882309F4DEC0AB
:104B3000DD2009F4DBC080917303803270F0209196
:104B40006E0330916F0338872F8319861B870A877E
:104B50008C87CE0107960E944D2086E0F701AEE6D5
:104B6000B3E001900D928A95E1F70E9438240E94EB
:104B70002A24CC24C39454CF911115C0702F198BC3
:104B8000088B6D2D89890E94EA238EE693E00E94AE
:104B90004D2086E0EEE6F3E0DF011D928A95E9F70D
:104BA0000E942A243DCF651312C0341310C0D110C7
:104BB0000EC0F7018583C7010E944D20EEE6F3E0A9
:104BC00086E0DF011D928A95E9F7CA2C29CF4D872F
:104BD0005E87DF86702F198B088B6D2D89890E9467
:104BE0009023882309F482C0DD2009F47FC08091DE
:104BF0007303803208F4B1CF20916E0330916F03BC
:104C00003A8329831B821D830C838E83CE010196F8
:104C1000A2CF0817190788F1F801E81BF90BCF019B
:104C2000C12C883C910508F04BC0CD2CDD2009F447
:104C30005DC0651330C034132EC08091730380FDB6
:104C400021C0982F907FF1F0D70115968C9315977E
:104C5000903F39F0982F907F905F8F70892B159639
:104C60008C93C7010E944D2086E0F701AEE6B3E0C9
:104C700001900D928A95E1F793CF80959095800FE2
:104C8000911FCECF86E0F701AEE6B3E001900D9222
:104C90008A95E1F7C5CE4D875E87DF86702F198B29
:104CA000088B6D2D89890E949023811156CF8091A8
:104CB0007303816080937303C7010E944D20B0CEBF
:104CC000702F198B088B6D2D89890E94EA2361CF83
:104CD000DD2061F04D875E87DF86702F198B088B92
:104CE0006D2D89890E949023811137CFC7010E94C1
:104CF0004D203FCF1F93CF93DF93CDB7DEB72C97D7
:104D00000FB6F894DEBF0FBECDBF4F8358876987BB
:104D10007A878B879C87CE0107960E94A3248823DD
:104D200009F442C09F8188852A853B85232B39F071
:104D30008F3F19F481E09F3F19F080E001C081E0CE
:104D400080FD08C04F81588569857A858B859C8553
:104D50000E94F92316E080913C0390913D0389174E
:104D600009F467C0819FC0011124825C9C4F0E949E
:104D7000A324882309F45DC0E0913C031E9FF00149
:104D80001124E25CFC4F40815181628173818481F6
:104D900095810E94F92380913C0390E001968770F1
:104DA000992780933C03D7CF86E0FE013796DE013A
:104DB000119601900D928A95E1F79F8188852A8549
:104DC0003B85232B39F08F3F19F481E09F3F19F089
:104DD00080E001C081E080FDBDCF20913D0330E047
:104DE000C90101968770992740913C03481719061D
:104DF00099F096E0929FD001939FB00D1124A25C90
:104E0000BC4FFE01319601900D929A95E1F7809387
:104E10003D030E9409249ECF0E948C2310923D03E3
:104E200010923C0386E0EEE6F3E0DF011D928A95E6
:104E3000E9F72C960FB6F894DEBF0FBECDBFDF9119
:104E4000CF911F910895DF92EF92FF920F931F93DE
:104E5000CF93DF938C01892BB9F0E12CF12CDD2469
:104E6000D394E8012196F8018491853709F46AC04A
:104E700098F4843708F059C0843008F06FC081304E
:104E800011F1823009F43CC0DF91CF911F910F9155
:104E9000FF90EF90DF900895883709F45CC058F4D4
:104EA000863709F454C0873779F78E2D0E94BE29C2
:104EB0000E94EB291FC09CE7980F903728F78F7747
:104EC0000E940B2017C00E5F1F4FFE01849190E2DD
:104ED000980F983060F48770FD2D01C0FF0F8A9500
:104EE000EAF78F2F0E94C4290E94EB2902C00E947A
:104EF000AB1FE8018F2D815008F033C08E01B1CF78
:104F00000E5F1F4FFE01849190E2980F983050F48D
:104F10008770FD2D01C0FF0F8A95EAF78F2F0E9441
:104F2000CA29E2CF0E940B20E4CF0E5F1F4FFE0183
:104F3000C491C150F0F28FE99FE00197F1F700C0F2
:104F40000000F7CF0E5F1F4FFE01F490D2CF0E94FA
:104F5000AD29E82ECFCF0E94C129AACF0E94AB1F56
:104F6000C9CFEFE9FFE03197F1F700C00000C3CFF0
:104F7000609374047093750480937604909377041F
:104F80000C94222A08950F931F9300917804109196
:104F9000790420917A0430917B04602B712B822B51
:104FA000932B609378047093790480937A049093A0
:104FB0007B041F910F910C94212A0F931F93009152
:104FC00078041091790420917A0430917B04602355
:104FD00071238223932360937804709379048093E0
:104FE0007A0490937B041F910F910C94212A0F93C4
:104FF0001F93009178041091790420917A043091E4
:105000007B0460277127822793276093780470932D
:10501000790480937A0490937B041F910F910C94F0
:10502000212A60E070E0CB010C94B8270F931F9306
:1050300041E050E060E070E08A019B0104C0000F95
:10504000111F221F331F8A95D2F7C901B8011F9182
:105050000F910C94B8270F931F9341E050E060E04C
:1050600070E004C0440F551F661F771F8A95D2F762
:105070008091740490917504A0917604B0917704A6
:105080008A019B01082B192B2A2B3B2BC901B80144
:105090001F910F910C94B8270F931F9341E050E09C
:1050A00060E070E004C0440F551F661F771F8A95AB
:1050B000D2F7CB01BA0160957095809590950091DB
:1050C0007404109175042091760430917704602364
:1050D0007123822393231F910F910C94B8270F9370
:1050E0001F9341E050E060E070E004C0440F551FA2
:1050F000661F771F8A95D2F780917404909175048A
:10510000A0917604B09177048A019B0108271927A2
:105110002A273B27C901B8011F910F910C94B8278A
:105120000F931F93009174041091750420917604DD
:1051300030917704602B712B822B932B1F910F9151
:105140000C94B8270F931F93009174041091750469
:105150002091760430917704602371238223932376
:105160001F910F910C94B8270F931F930091740413
:10517000109175042091760430917704602771278F
:10518000822793271F910F910C94B82708954F926F
:105190005F926F927F929F92AF92BF92CF92DF9277
:1051A000EF92FF920F931F93CF93DF9300D000D025
:1051B0001F92CDB7DEB76B837C838D837A018C81A0
:1051C0009D81892B49F08FEFF81204C081E09FEF99
:1051D000491719F080E001C081E080FD6AC00F2D01
:1051E00010E0CE2CD12C8B81882309F456C040903E
:1051F00074045090750460907604709077048091E8
:10520000780490917904A0917A04B0917B04482AA3
:10521000592A6A2A7B2A2FE1A22EB12C9A2CD3017B
:10522000C2010A2C04C0B695A795979587950A9454
:10523000D2F780FD2BC081E0A81AB10878F7912C35
:10524000F80194E0EE0FFF1F9A95E1F7EC58FC4F40
:10525000EC0DFD1D9082E982FA8269817A81892DA7
:105260000F900F900F900F900F90DF91CF911F91A3
:105270000F91FF90EF90DF90CF90BF90AF909F90F5
:105280007F906F905F904F900C94602AB7018A2DA9
:105290000E94602A019779F2D3CFF80184E0EE0FE3
:1052A000FF1F8A95E1F7EC58FC4FEC0DFD1D908037
:1052B000D2CF90E080E00F900F900F900F900F9062
:1052C000DF91CF911F910F91FF90EF90DF90CF90E2
:1052D000BF90AF909F907F906F905F904F90089598
:1052E00020910B0130910C01F90132969FEF40E0C3
:1052F0005191851751F09F3F19F4511101C0942F1E
:105300004F5F4630A9F79F3F09F40895290F311DDB
:1053100097FD3A95F9018283089520910B01309110
:105320000C01F9013296285F3F4F9191891303C018
:10533000DF0111971C92E217F307B9F7089581E096
:1053400090E0E0910B01F0910C01E80FF91F108241
:10535000019688309105A9F70895809186040895F3
:1053600090918604892B809386040895982F9095B8
:10537000809186048923809386040895809386040F
:10538000089510928604089590918504892B809346
:1053900085040895982F90958091850489238093A2
:1053A0008504089510928504089580937C040895DF
:1053B00010927C04089520910B0130910C01F901A9
:1053C0003196285F3F4F80E0919191118F5FE217F6
:1053D000F307D1F70895E0910B01F0910C01809152
:1053E00086048083E0910B01F0910C018081909103
:1053F0008504892B808390917C04992361F0E0914E
:105400000B01F0910C018081892B80830E94DB29A4
:10541000811110927C0480910B0190910C010C94ED
:105420007D1E0895CF93DF9300D000D01F92CDB79B
:10543000DEB70F900F900F900F900F90DF91CF91EC
:105440000895089508950C94681F0E946A1F0C9493
:105450008C231F920F920FB60F9211248F939F935C
:10546000AF93BF9380918804811113C08091000392
:1054700090910103A0910203B09103034196A11DF5
:10548000B11D8093000390930103A0930203B09396
:105490000303BF91AF919F918F910F900FBE0F901B
:1054A0001F90189520E1929FF0011124E80FF11D43
:1054B000E658FE4F9491892F8F7092959F700895B2
:1054C000CF93DF93C82FCB010E94522A20E1929FF5
:1054D000A0011124282F30E0482B532B40385105D0
:1054E00029F480E090E0DF91CF91089588E0C89F93
:1054F000E0011124E92FE770EC0FFD2FF11D84E08E
:10550000EE0FFF1F8A95E1F7E20FF31FEE0FFF1F6B
:10551000E050F84985919491E6CF80918B0480FF0B
:1055200012C06091100185E0689FB001112475954B
:1055300067957595679560387105A8F561157105D2
:10554000A1F1862F089581FF09C06091100185E0C7
:10555000689FB001112475956795EDCF82FF07C054
:105560006091100185E0689FB0011124E4CF209183
:105570008C042223A9F090910F016091100185E025
:10558000689FB00111242917B0F6269FA001279F1C
:10559000500D1124692F70E0CA010E94142ECBCF48
:1055A00065E070E0CECF8FE7089581E008958091A7
:1055B0008B0480FF0CC060910E0170E075956795BB
:1055C000759567956115710549F1862F089581FFDD
:1055D00006C060910E0170E075956795F3CF6091FC
:1055E0000E0182FD0BC090918C049923A1F0609173
:1055F0000D0180910E01961738F0682F70E0603829
:10560000710500F38FE70895899FC001112470E0B0
:105610000E94142EF4CF61E070E0D7CF81E00895AE
:10562000803F31F40E948D2A819580938F040895E4
:10563000813F19F40E948D2AF8CF823F31F40E94F5
:105640008D2A819580938E040895833F19F40E94DA
:105650008D2AF8CF893F29F40E94D72A809390049D
:1056600008958A3F21F40E94D72A8195F7CF8B3F76
:1056700031F40E94D72A81958093910408958C3F3C
:1056800019F40E94D72AF8CF843F31F480918D0419
:10569000816080938D040895853F21F480918D046D
:1056A0008260F7CF863F21F480918D048460F1CF32
:1056B000873F21F480918D048860EBCF883F21F4EF
:1056C00080918D048061E5CF8D3F31F480918B0412
:1056D000816080938B0408958E3F21F480918B0428
:1056E0008260F7CF8F3FB9F780918B048460F1CF50
:1056F000803FC1F480918F0487FD10928F048091C8
:105700008E0481110EC080918F0481110AC0809196
:105710009004811106C080919104811102C0109201
:105720008C040895813F29F480918F0418162CF37E
:10573000E6CF90918E04823F29F497FFE0CF10923C
:105740008E04DDCF833F19F41916CCF3D8CF893FEF
:1057500039F480919004181694F610929004CFCFEB
:105760008A3F29F48091900487FFC9CFF6CF8B3F01
:1057700039F48091910487FFC2CF10929104BFCF7A
:105780008C3F29F4809191041816BCF3B8CF843F64
:1057900031F480918D048E7F80938D04B0CF853F4E
:1057A00021F480918D048D7FF7CF863F21F4809185
:1057B0008D048B7FF1CF873F21F480918D04877F0B
:1057C000EBCF883F21F480918D048F7EE5CF8D3F14
:1057D00031F480918B048E7F80938B0490CF8E3F29
:1057E00021F480918B048D7FF7CF8F3F09F087CF15
:1057F00080918B048B7FF0CF8DE894E00E94881E0F
:105800000E94920990938A048093890408951F93BB
:10581000CF93DF938091890490918A040E94AA0912
:10582000AC0190918C042091110130E0911106C0DF
:10583000209112018AE0289F9001112442175307FA
:1058400080F080918E04C0918F0410919004D091CB
:10585000910481110AC0C11178C0111176C0D11113
:1058600074C0DF91CF911F9108959F3F19F09F5F02
:1058700090938C04181624F40E948D2A80938E0431
:1058800080918E0487FF05C00E948D2A81958093A8
:105890008E041C1624F40E948D2A80938F0480911C
:1058A0008F0487FF05C00E948D2A819580938F0405
:1058B00060918E04662331F1C0918F04CC2311F1E5
:1058C000062E000C770B880B990B0E94F22C23E319
:1058D00033E343E35FE30E94A72D0E94BA2C609359
:1058E0008E046C2FCC0F770B880B990B0E94F22C37
:1058F00023E333E343E35FE30E94A72D0E94BA2C26
:1059000060938F04111624F40E94D72A8093900488
:105910008091900487FF05C00E94D72A81958093CB
:1059200090041D1624F40E94D72A8093910480913C
:10593000910487FF05C00E94D72A81958093910426
:10594000DF91CF911F910C94FC2B9F3F09F08FCFDB
:10595000A0CF85E0EDE8F4E0DF011D928A95E9F73C
:1059600010928C0410928B0408950E942D2D08F43F
:1059700081E008950E94C12C6894B1110C949C2D73
:1059800008950E94812D88F09F5798F0B92F99278C
:10599000B751B0F0E1F0660F771F881F991F1AF01A
:1059A000BA95C9F714C0B13091F00E949B2DB1E0B7
:1059B00008950C949B2D672F782F8827B85F39F0B6
:1059C000B93FCCF3869577956795B395D9F73EF4B3
:1059D00090958095709561957F4F8F4F9F4F08955B
:1059E000E89409C097FB3EF4909580957095619579
:1059F0007F4F8F4F9F4F9923A9F0F92F96E9BB272F
:105A00009395F695879577956795B795F111F8CFAA
:105A1000FAF4BB0F11F460FF1BC06F5F7F4F8F4F15
:105A20009F4F16C0882311F096E911C0772321F00B
:105A30009EE8872F762F05C0662371F096E8862FA3
:105A400070E060E02AF09A95660F771F881FDAF7FA
:105A5000880F9695879597F90895990F0008550F27
:105A6000AA0BE0E8FEEF16161706E807F907C0F0E4
:105A700012161306E407F50798F0621B730B840BEC
:105A8000950B39F40A2661F0232B242B252B21F4C6
:105A900008950A2609F4A140A6958FEF811D811D66
:105AA000089597F99F6780E870E060E008959FEFA0
:105AB00080EC089500240A941616170618060906A5
:105AC000089500240A941216130614060506089574
:105AD000092E0394000C11F4882352F0BB0F40F4FC
