:100000000C94CA020C9419030C9419030C94190350
:100010000C9419030C9419030C9419030C941903F0
:100020000C9419030C9419030C9443200C9415217F
:100030000C940C2F0C9419030C9419030C941903B1
:100040000C9419030C9419030C9419030C941903C0
:100050000C9419030C94A70C0C9419030C94190319
:100060000C9419030C9419030C9419030C941903A0
:100070000C9419030C9419030C9419030C94190390
:100080000C9419030C9419030C9419030C94190380
:100090000C9419030C9419030C9419030C94190370
:1000A0000C9419030C9419030C9419037A219C21C4
:1000B00087229C218722DE21012287225622692263
:1000C0005225522580258025DC2518261B281B2833
:1000D00030261B2827272727F5271B281B28092818
:1000E0007500012C022C01E10133023302E1012DE4
:1000F000022D01E10127022702E1012802280075F3
:1001000000012802280128022801E1011002100242
:10011000E101190219010B020B0136023601280216
:100120002801E201620262015A025A015902590190
:100130005E025E02E2011C021C0116021601170299
:100140001701080208010C020C011102110128021A
:10015000280128022801E1010C020C010E020E0107
:100160000E020E01080208012C022C0116021601D3
:100170000802080111021101160216010C020C01FD
:10018000170217010C020C011902190117021702BC
:10019000E101280228015202520152025201520288
:1001A00052014D024D01E1014A024A02E100808004
:1001B00080800405060708090A0B0C0D0E0F1011AC
:1001C00012131415161718191A1B1C1D1E1F202197
:1001D00022232425262728292A2B2C2D2E2F303187
:1001E00032333435363738393A3B3C3D3E3F404177
:1001F00042434445464748494A4B4C4D4E4F505167
:1002000052535455565758595A5B5C5D5E5F606156
:1002100062636465666768696A6B6C6D6E6F707146
:100220007273808080808080808080808003020163
:100230008080808080750074767780808080808068
:1002400080808080808080808080808080808080AE
:10025000808080808080808080808080808080809E
:10026000808080808080808080808080808080808E
:10027000808080808080808080808080808080807E
:10028000808080808080808080808080808078797D
:100290007A7B7C7D7E7F8080808080808080808073
:1002A00080808080808080808080808080800A0044
:1002B000253031366200253032643A20000A722F30
:1002C0006320303132333435363738394142434494
:1002D00045460A0073706565643A2025730A007507
:1002E00073625F73746174653A20253032580A0076
:1002F000686F73742E5461736B3A2025640A000D85
:100300000A0020253032580073746174653A202049
:1003100025303258202530325800696E69743A20F1
:10032000646F6E650A000D0A00202530325800699E
:100330006E7075742025643A2020253032582025AF
:10034000303258005B445D005B435D003C03550068
:1003500053004200200074006F002000550053003D
:10036000420020006B006500790062006F006100B0
:1003700072006400200063006F006E00760065006C
:10038000720074006500720000000E0374002E00FD
:100390006D002E006B002E0000000403090409020A
:1003A0007400040100A032090400000103010100EF
:1003B0000921110100012240000705810308000AFC
:1003C00009040100010301020009211101000122B9
:1003D0004D000705820308000A090402000103001A
:1003E00000000921110100012236000705830308DE
:1003F000000A0904030002030000000921110100A2
:1004000001222200070584032000010705040320C0
:1004100000011201100100000008EDFE5B0014084D
:10042000010200010631FF0974A1010975150026BA
:10043000FF009520750881020976150026FF0095BA
:100440002075089102C005010980A101850216816D
:100450000026B7001A81002AB700751095018100A7
:10046000C0050C0901A1018503160100269C021A92
:1004700001002A9C02751095018100C00501090246
:10048000A1010901A100050919012905150025018E
:1004900095057501810295017503810105010930FA
:1004A00009311581257F9502750881060938158166
:1004B000257F950175088106050C0A3802158125EE
:1004C0007F950175088106C0C005010906A10105D7
:1004D0000719E029E71500250195087501810295A6
:1004E0000175088101050819012905950575019116
:1004F000029501750391010507190029FF150026D2
:10050000FF00950675088100C0636F6E73756D6599
:10051000723A20253034580A0073797374656D3A45
:1005200020253034580A000A002530325820006B4C
:100530006579626F6172643A20004C45443A202527
:100540003032580A00290A002575002F0025750051
:100550005D2800256400200025640020002564003B
:1005600020002564007C0025303258006D6F7573C3
:10057000656B6579205B62746E7C782079207620CB
:10058000685D287265702F61636C293A205B0000FA
:10059000070BF60B11241FBECFEFDAE0DEBFCDBF95
:1005A00004B603FE24C08091B3049091B404A091DA
:1005B000B504B091B6048730904BA740B04BB9F466
:1005C0001092B3041092B4041092B5041092B604C1
:1005D00014BE84B7877F84BF88E10FB6F8948093F8
:1005E0006000109260000FBEE0E0F8E3099511E0B2
:1005F000A0E0B1E0EEE3F7E602C005900D92A03C6A
:10060000B107D9F714E0A0ECB1E001C01D92A33B03
:10061000B107E1F715E0C4E9D5E004C02297FE0177
:100620000E948533C039D107C9F70E94420B0C9450
:100630009D330C940000FF93EF93E091C001F09183
:10064000C101309709F00995EF91FF910895FC01E0
:100650008591803011F0EFDFFBCF0895FF27E0E2B6
:1006600030E247FF0CC0419597FF09C0EDE260956D
:10067000709580959095611D711D811D911D27FFBD
:1006800002C0219530E350E2AA27660F771F881F2A
:10069000991FAA1FA41710F0A41B63955A95A9F7D8
:1006A000AA3008F0A95FA05DAF93F39561157105BD
:1006B0008105910541F7ED3211F4EF93F395F217AF
:1006C00018F43F93F395FBCF8F91B5DFFA95E1F7DF
:1006D0000895E991F9918591803021F0853219F0E2
:1006E000AADFF9CF089520E0E89455915532C1F37F
:1006F000503311F4689455915A3348F4505390F3A1
:10070000220F022E220F220F200D250FF4CF0EF400
:10071000219589919991533619F3533729F153351E
:1007200059F1BC0188279927E8945C3621F4899116
:10073000999168945591543639F446EF7EF077FFDD
:100740000DC08FEF9FEF0AC055374AE039F058359A
:1007500040E121F0523642E009F00895FF93EF9313
:100760007DDFEF91FF91B7CFFF93EF93FC01819174
:100770008030B9F360DFFBCFFF93EF9368DFF1CFF9
:10078000DF93CF93CDB7DEB72596A3DFCF91DF916F
:100790000895CF93C82F0E9470248C2FCF910C9472
:1007A000D024FF920F931F93CF93DF93142F6111E7
:1007B0004AC0FC018281882309F445C00E945E2E54
:1007C000F82E86FF30C00E94712E84E00E94742EA5
:1007D0000E949D2E21E030E08F2D827211F420E0E6
:1007E00030E085E0829FE001839FD00D1124FAE084
:1007F0001F9FC00DD11D1124CD5EDE4F00E010E023
:10080000FE01E00FF11F81810E94C9030F5F1F4F9E
:1008100004301105A9F784E00E947A2E8F2D8F7B7A
:100820000E946E2E09C08AE0189FF0011124ED5E2F
:10083000FE4F80810E94C903DF91CF911F910F91DC
:10084000FF900C949D2EDF91CF911F910F91FF90FF
:100850000895662319F0613041F00EC0FC018281D9
:10086000882351F08FEF90E00895FC018281882366
:1008700019F080EE90E0089580E090E0089580E027
:100880000895089580E0089581E00895CF93DF935F
:10089000CDB7DEB728970FB6F894DEBF0FBECDBF39
:1008A000E22F29833A834B835C836D837E838F831E
:1008B00098878091FA02E82BE093FA02FE013396C2
:1008C0009E01275F3F4F4191443088F0ACEFB2E08A
:1008D00080E090E05D91511106C0DC01A650BD4F53
:1008E00012964C9304C001968630910599F7E21751
:1008F000F30749F728960FB6F894DEBF0FBECDBFB9
:10090000DF91CF910895860F911D860F911DFC01F7
:100910005687458781E00895CF93DF93EC018C8162
:100920009D81DC01ED91FC910480F581E02D6E81CB
:1009300009951F86188A81E08A8B1E821B8A1C8A71
:100940001D8A1E8A1F8A80E0DF91CF910895FC01E5
:100950008681089581E0633009F080E0089581E0A8
:10096000613009F080E00895860F911D860F911D7A
:10097000FC01858596850895FC0187890895EF928D
:10098000FF92CF93DF93FC01E7012289223029F106
:100990006787408B8B8183708330F9F48A8187FF6E
:1009A0001CC08E81908D981708F4808F822F90E064
:1009B000DC01AA0FBB1FA80FB91FAE0FBF1F8A8192
:1009C0008F7017968C9317978C8118968C93189725
:1009D00084E019968C932F5F228BDF91CF91FF904B
:1009E000EF900895EF92FF920F9302970E94BF0439
:1009F0000F91FF90EF90089508952F923F924F929C
:100A00005F926F927F928F929F92AF92BF92CF929E
:100A1000DF92EF92FF920F931F93CF93DF9300D05B
:100A200000D0CDB7DEB76C017C836B835A834983DA
:100A30004C0180E1880E911C5601A7E0AA0EB11C62
:100A400011E044E0442E57E0352E3601B2E16B0E42
:100A5000711C63E0262E72E0572E8B819C81892BBE
:100A600009F412C1F60180A1823061F128F48823D3
:100A700049F0813079F0F1CF833041F1843009F4CD
:100A80004BC0EBCF548285819681908787835286B5
:100A9000518610A3AE014D5F5F4FBE016F5F7F4F68
:100AA000C5010E94281B882309F4EEC0D6011596C3
:100AB000ED91FC911697808191968C93919781810D
:100AC00092968C93F6017682658220A2D601929648
:100AD0008C91843081F018F4823079F014C0853024
:100AE00081F0813281F4D60191968C919197825058
:100AF00014968C9308C0F60113A2D60114963C926A
:100B000002C0F6018483F6018581968190878783F0
:100B100084818287818740A2D60192968C9184300D
:100B2000B1F0853009F442C0823009F06EC0AE01E8
:100B30004D5F5F4FBE016F5F7F4FC5010E94281B55
:100B4000882309F4A1C0F601858984A38EC0AE0173
:100B50004D5F5F4FBE016F5F7F4FC5010E94281B35
:100B6000882309F491C0D60155968C91559783300E
:100B700009F07BC056968C915697813009F075C06C
:100B800098969C91989757968C91992321F0882359
:100B900009F46BC003C0813009F067C0F60113A3EC
:100BA000928996A3938997A385A35FC0AE014D5FF9
:100BB0005F4FBE016F5F7F4FC5010E94281B8823D6
:100BC00009F462C0D60193968C919397882309F417
:100BD0004CC012968D919C911397009709F445C0D3
:100BE000DC01ED91FC910190F081E02D7401D601C2
:100BF00095960C91959797962C91979796964C91E0
:100C0000969794966C91099530C0F60181A19585CF
:100C1000992319F0913031F023C090E00297978723
:100C2000868715872B813C8189819A81782F692F4E
:100C3000D6011E964D915C911F9741155105E9F023
:100C400001962115310541F041505109F6015787B0
:100C5000468721503109EACF79836A831C821B823F
:100C6000F60186859785892B79F4D60116969C9294
:100C70008E92159790961C92F0CE9A8389833C832E
:100C80002B83F6011586ECCF0F900F900F900F90ED
:100C9000DF91CF911F910F91FF90EF90DF90CF9058
:100CA000BF90AF909F908F907F906F905F904F908C
:100CB0003F902F900895DF92EF92FF920F931F9332
:100CC000CF93DF93CDB7DEB762970FB6F894DEBF50
:100CD0000FBECDBF7C01DC0157968C91882369F053
:100CE0000E940D0CF7010389148925893689601B40
:100CF000710B820B930B97FF02C0D12C38C0F70108
:100D0000838590E09A8B898B8E010F5F1F4F9E0128
:100D10002F5E3F4F42856681848195810E949D139D
:100D2000D82E811118C029893A892330310598F0CD
:100D3000D7011D968D919C911E97009761F0DC0163
:100D4000ED91FC910190F081E02D8E010F5F1F4F1E
:100D500040E0B70109950E940D0CF701208D620F4C
:100D6000711D811D911D638B748B858B968B8D2DD1
:100D700062960FB6F894DEBF0FBECDBFDF91CF9164
:100D80001F910F91FF90EF90DF9008953F924F9247
:100D90005F926F927F928F929F92AF92BF92CF920B
:100DA000DF92EF92FF920F931F93CF93DF93CDB714
:100DB000DEB7EC970FB6F894DEBF0FBECDBF5C0177
:100DC000462E342E522EDC011496CD90DC901597D1
:100DD00016968C911697811139C158961C92D6019E
:100DE000ED91FC910190F081E02D60E0C601099544
:100DF0007C01009711F486ED2EC1FC01808091806A
:100E00008114910409F424C13501F7E06F0E711CBF
:100E1000DC0111967C926E9214965C928E01065DB6
:100E20001F4F28E030E040E060E0F50184819581CB
:100E30000E949C128CAF8111FCC01AA5D7018D9223
:100E40009C92D601ED91FC910280F381E02D232D3F
:100E500040E0642DC6010995F5018683882309F4D5
:100E6000F9C099A99087282F40E060E0848195819E
:100E70000E9449138CAFD601ED91FC91D7011496D5
:100E80001C92882359F00480F581E02DD501169637
:100E90006C91C6010995F5011682D6C00190F081CA
:100EA000E02DD50116966C91C6010995009709F4BD
:100EB000A2CF133108F012E1FC015482112389F012
:100EC000212F30E08E01065D1F4F40E0D5011696C0
:100ED0006C91169714968D919C9115970E949C1277
:100EE0008CAF8CAD8111A8C04BAC512CA8E4CA2E9C
:100EF000A1E0DA2E4501B2E08B0E911C7E01E1E10A
:100F0000EE0EF11C541449F1DA82C9829C828B8264
:100F10001E86188A1F8619A21AA21BA219A6FF8272
:100F2000EE82F986E8868D818B878A87FD86EC863E
:100F30008E010F5F1F4F252D40E0D50116966C9155
:100F4000169714968D919C9115970E94EA12F501BF
:100F50008289823011F05394D5CFD50152968C916D
:100F6000823019F081ED8CAF67C0930142E0F5014A
:100F70006681848195810E94130E8CAF68EE73E0C8
:100F800080E090E00E940F0CD5011F962C911F97D6
:100F900040E016966C91169714968D919C9115973A
:100FA0000E9478138CAF811147C068EE73E080E037
:100FB00090E00E940F0C40E060E0C5010E942917FC
:100FC0008CAF811139C020E040E060E0C5010E9493
:100FD000FF168CAF8EE491E09A838983AE014F5F58
:100FE0005F4F60E070E0C5010E948E1680E28CAF1A
:100FF0008CAD8823C1F090E0959587958CAFFE016C
:10100000FC966F01EE24E394F12C00E022E040E036
:1010100060E0C5010E94D11669E170E080E090E0D7
:101020000E940F0CE5CF81E0D50157968C9380E0AC
:1010300012C0F70191828082D501ED91FC9104806C
:10104000F581E02DC50109958CAD05C089ED03C082
:1010500087ED01C084EDEC960FB6F894DEBF0FBEAD
:10106000CDBFDF91CF911F910F91FF90EF90DF9057
:10107000CF90BF90AF909F908F907F906F905F9038
:101080004F903F9008950F931F93CF93DF936091FC
:10109000FA017091FB01E091C901F091CA01409100
:1010A000EE015091EF012091E2013091E301809136
:1010B000D6019091D7016E177F07B1F4E091C70177
:1010C000F091C8014E175F0779F4E091C501F091E6
:1010D000C6012E173F0741F4E091C301F091C4010E
:1010E0008E179F0709F49BC07093CA016093C901D2
:1010F0005093C8014093C7013093C6012093C501A6
:101100009093C4018093C301EAEFF2E088E0DF012D
:101110001D928A95E9F72091F2013091F3014091F7
:10112000F4015091F5016091F6017091F701809101
:10113000F8019091F9010E9446042091E601309156
:10114000E7014091E8015091E9016091EA01709155
:10115000EB018091EC019091ED010E9446042091F9
:10116000DA013091DB014091DC015091DD016091A9
:10117000DE017091DF018091E0019091E1010E9418
:1011800046042091CE013091CF014091D001509181
:10119000D1016091D2017091D3018091D4019091DD
:1011A000D5010E94460481E08093F90280919B045E
:1011B00080FF14C08091FB021F928F938091FA02EE
:1011C0001F928F9388E093E09F938F930E94C003B8
:1011D0000F900F900F900F900F900F90CCEFD2E0E8
:1011E00002E013E080919B0480FF0BC088811F9276
:1011F0008F931F930F930E94C0030F900F900F9037
:101200000F902196B3E0C230DB0761F780919B0419
:1012100080FF07C08FEF92E00E94270302C0109268
:10122000F9020E94660CEC0182E892E00E9495159A
:10123000CE010E947E0C8536910580F020919B04A2
:1012400020FF0CC09F938F9380EF92E09F938F932A
:101250000E94C0030F900F900F900F90C091C20199
:1012600082E892E00E94FE0CC817B9F182E892E091
:101270000E94FE0C8093C20190919B0490FF0CC0D1
:101280001F928F938FED92E09F938F930E94C003E4
:101290000F900F900F900F908091C2018039E9F468
:1012A00080919B0480FF15C08091CB01823019F49E
:1012B0008BE391E002C080E491E09F938F9384EDF3
:1012C00092E09F938F930E94C0030F900F900F9016
:1012D0000F900E94A4220E942B2481E0DF91CF91E5
:1012E0001F910F910895282F30E0C901B4E0880FB5
:1012F000991FBA95E1F7805E9109089730F48091C3
:10130000FA02882311F090E002C080E090E0ECEF58
:10131000F2E041E050E06191643080F0A62FA295A8
:10132000AF70B0E02A173B0749F46F70DA0102C0D2
:10133000AA0FBB1F6A95E2F78A2B9B2BB3E0E23022
:10134000FB0749F70895EF92FF920F931F93CF93F6
:10135000DF938DEB92E00E942703C0E0D0E016EB14
:10136000E12E12E0F12E00EB12E0DF93CF93FF921B
:10137000EF920E94C0038C2F0E9473090E94DA2E04
:101380009F938F931F930F930E94C0038EEA92E066
:101390000E94270321968DB79EB708960FB6F89442
:1013A0009EBF0FBE8DBFC031D105F9F6DF91CF9141
:1013B0001F910F91FF90EF900895CF92DF92EF92DF
:1013C000FF920F93CF93DF931F92CDB7DEB7898340
:1013D000CE0101966C01EE24E394F12C00E022E0B2
:1013E00040E060E087E492E00E94D11622E040E015
:1013F00060E08EE292E00E94D11622E040E060E0E0
:1014000085E192E00E94D11622E040E060E08CEF9E
:1014100091E00E94D1160F90DF91CF910F91FF9034
:10142000EF90DF90CF900895CF93DF93FC01758309
:10143000648384E591E09183808382E791E09383E4
:101440008283138A148A158A168A178A178288E07B
:1014500080878CE381871286138684E0848781E00D
:10146000828B118A17861686158661157105B9F06B
:10147000CB01A0E0B0E0EC01CA5ADF4F28813981EE
:10148000232B41F49B96AA0FBB1FA60FB71FED930A
:10149000FC9305C011960296A031B10561F7DF916A
:1014A000CF9108952E9A08952E988EBD0DB407FE03
:1014B000FDCF1EBC0DB407FEFDCF0E94520A8EB5B3
:1014C00008952E9882608EBD0DB407FEFDCF6EBDCF
:1014D0000DB407FEFDCF0C94520A88EF0E94540A07
:1014E000807C8034A1F018F4882301F108958038BD
:1014F00019F0803CB9F0089588ED0E94540A81FDEE
:101500000BC069EC88ED0E94610A82E00CC088ED96
:101510000E94540A81FDF5CF6BEC88ED0E94610AB0
:1015200083E001C081E08093CB01089561ED88EDF7
:101530000E94610A1092CB0108950F931F93CF93DD
:10154000DF938C01269A0E94520A219A229A2398AC
:10155000209A80E58CBD81E08DBD259868E188E802
:101560000E94610A60E288E70E94610A60E088E701
:101570000E94610AC0E0D0E088E60E94540A2196E9
:1015800080FD06C0CF3F8FEFD807B1F78FEF1DC0AA
:1015900061EC88ED0E94610A60E680ED0E94610ABC
:1015A00064E088EE0E94610A88EE0E94540A82FF7D
:1015B000FBCFC8010E946D0A60E288EC0E94610ABC
:1015C00061E080E80E94610A80E0DF91CF911F9185
:1015D0000F91089582E892E00E949D0A80EF91E0C9
:1015E000909355028093540284EE91E090933C02D4
:1015F00080933B0288ED91E0909323028093220236
:101600008CEC91E090930A0280930902089582E89D
:1016100092E00E94CC0C62E872E081E792E00E94C6
:10162000B71962E872E080E692E00E94B71962E8BA
:1016300072E087E492E00E94140A62E872E08EE2AF
:1016400092E00E94140A62E872E085E192E00E9452
:10165000140A62E872E08CEF91E00E94140A88E7B5
:1016600091E09093F1018093F0019093E5018093D4
:10167000E4019093D9018093D8019093CD01809398
:10168000CC010895569A5E9A80919B048160846093
:1016900080939B0480E091E00E949F220E945C2343
:1016A00084B7877F84BF88E10FB6F8948093600089
:1016B000109260000FBE90E080E80FB6F89480931F
:1016C0006100909361000FBE0E94C81F0E942520F8
:1016D0008091E20084608093E20088E89BE10E94B0
:1016E000C32E789480919B0480FF04C08AE193E02C
:1016F0000E9427030E946023FDCFEF92FF920F9379
:101700001F93CF93DF93EC017B01DC01129688E0FD
:10171000F80101900D928A95E1F70E940D0C7B87EC
:101720006A8780919B0480FF1EC00B811A81D701BC
:10173000ED91FC910084F185E02DC70109951F9280
:101740000F931F921F931F928F938FE293E09F93AB
:101750008F930E94C0038DB79EB708960FB6F8947A
:101760009EBF0FBE8DBF00E010E089E2E82E83E04F
:10177000F82E80919B0480FF0EC0FE01E00FF11F48
:1017800084811F928F93FF92EF920E94C0030F906B
:101790000F900F900F900F5F1F4F0630110549F704
:1017A00080919B0480FF0AC086E293E0DF91CF9195
:1017B0001F910F91FF90EF900C942703DF91CF9131
:1017C0001F910F91FF90EF900895089580E090E0B1
:1017D00008958FEF9FEF08958FEF9FEF089508957D
:1017E000862F0E94881B81E090E0089510920503E7
:1017F0001092040388EE93E0A0E0B0E0809306032B
:1018000090930703A0930803B09309038EE791E038
:10181000909303038093020308950C94720C8F92AB
:101820009F92AF92BF92CF92DF92EF92FF920E946F
:101830004A324B015C0120E030E04AE755E40E9467
:1018400000336B017C0120E030E040E85FE30E9460
:10185000153287FD24C020E03FEF4FE757E4C70172
:10186000B6010E94FC321816ACF420E030E040E2F1
:1018700051E4C501B4010E9400330E941E3220E9E8
:1018800031E06115710581F0C9010197F1F76150EF
:101890007109F7CFC701B6010E941E3202C061E094
:1018A00070E0CB010197F1F7FF90EF90DF90CF90C0
:1018B000BF90AF909F908F90089582E084BD93E099
:1018C00095BD9AEF97BD80936E0008952FB7F89459
:1018D0008091100390911103A0911203B091130312
:1018E0002FBF08952FB7F8946091100370911103E2
:1018F00080911203909113032FBF0895CF92DF922E
:10190000EF92FF920F931F932FB7F894409110031B
:101910005091110360911203709113032FBF6A015C
:101920007B01EE24FF248C0120E030E0C016D106BC
:10193000E206F30610F441505109481B590BCA0145
:101940001F910F91FF90EF90DF90CF9008951F921D
:101950000F920FB60F9211248F939F93AF93BF9363
:101960008091100390911103A0911203B091130381
:101970000196A11DB11D8093100390931103A093B4
:101980001203B0931303BF91AF919F918F910F906A
:101990000FBE0F901F901895FC0180E991E0918394
:1019A00080831582108681E0818712869F012E5FD9
:1019B0003F4F37832683128288E083838CE38483BE
:1019C00080E090E041E0DF01A80FB91F1D961C9256
:1019D0001D971E964C931E971F961C921F971C9640
:1019E0003C932E931B9705968B34910561F7EA582B
:1019F000FF4F108281E180931803089580911803AE
:101A00000895CF92DF92EF92FF920F931F93CF939F
:101A1000DF931F92CDB7DEB77C016623B1F18C0155
:101A2000C12CD12CF801EA5AFF4F80819181009797
:101A300019F1DC01ED91FC910084F185E02D6983C1
:101A400009956981861318C0F601BB96EE0FFF1F3A
:101A5000EE0DFF1D80819181DC01ED91FC910480F0
:101A6000F581E02D0F90DF91CF911F910F91FF90A5
:101A7000EF90DF90CF900994BFEFCB1ADB0A0E5F97
:101A80001F4FE0E1CE16D10469F680E00F90DF91A0
:101A9000CF911F910F91FF90EF90DF90CF9008951D
:101AA00020E030E041E0FC01E20FF31F55855617BE
:101AB00039F04F5F2B5F3F4F4031A9F780E0089529
:101AC000842F0895EF92FF921F93CF93DF9300D05E
:101AD000CDB7DEB77C01162F67FD5FC0283008F058
:101AE0005CC0442331F0DC0115968C91873009F4F9
:101AF00054C060E0C7012A8349830E94500D2A81A7
:101B00004981882309F449C0E82FF0E0111123C06E
:101B100085E08E9FD0018F9FB00D1124AE0DBF1DAB
:101B2000442359F081E418968C93D70115968C9133
:101B300015978F5F15968C9303C081E018968C9350
:101B400085E08E9FD0018F9FB00D1124AE0DBF1D7B
:101B500018968C9123C0612F6770660F660F660F11
:101B6000442361F06064D70115968C9115978F5FBF
:101B700015968C938770687F682B03C02770687BED
:101B8000622B85E08E9FD0018F9FB00D1124AE0D8A
:101B9000BF1D18966C93862F01C080E00F900F90A8
:101BA000DF91CF911F91FF90EF900895CF93DF9336
:101BB000EC01611102C006960FC00E94500D8823EF
:101BC00049F09E0145E0849F200D311D1124C9017B
:101BD000069602C080E090E0DF91CF910895CF9308
:101BE000DF931F92CDB7DEB749830E94D60D49819E
:101BF000009789F0DC01ED91FC911197309759F035
:101C000013969C9180E0891731F02081241731F0E0
:101C100033968F5FF8CF80E090E001C0CF010F9046
:101C2000DF91CF910895EF92FF921F93CF93DF93AF
:101C30001F92CDB7DEB7162F79012115310569F056
:101C400049830E94D60DFC014981009741F012831F
:101C5000F182E082438380E003C088ED01C086ED1D
:101C60000F90DF91CF911F91FF90EF9008952E98E4
:101C70000895CF93DF931F92CDB7DEB789830E947B
:101C8000370E89818EBD0DB407FEFDCF1EBC0DB48D
:101C900007FEFDCF0E94520A8EB50F90DF91CF91C3
:101CA0000895CF93DF9300D0CDB7DEB76A838983E1
:101CB0000E94370E898182608EBD6A810DB407FE55
:101CC000FDCF6EBD0DB407FEFDCF0F900F90DF91DD
:101CD000CF910C94520A8F929F92BF92CF92DF9233
:101CE000EF92FF920F931F93CF93DF931F92CDB785
:101CF000DEB74C01B62E690149830E94D60D7C01E6
:101D00004981009709F443C0FC0180819181892BAE
:101D100009F43FC06B2DC4010E94EF0DF6019183C1
:101D200080830097C1F1FC01228126952695822FA0
:101D300090E0409764F441E050E060E070E004C05F
:101D4000440F551F661F771F2A95D2F702C040E047
:101D500050E841505109F801518340836B2D80EECA
:101D60000E94510E88ED0E94390EF701948199234B
:101D700039F0F401EA58FF4F60816260682B02C0BD
:101D8000682F697F88ED0E94510E80E005C086EDC6
:101D900003C087ED01C08BED0F90DF91CF911F91B4
:101DA0000F91FF90EF90DF90CF90BF909F908F901A
:101DB00008958F929F92AF92BF92CF92DF92EF924F
:101DC000FF920F931F93CF93DF931F92CDB7DEB790
:101DD000A62E890149830E940D0C6B017C0188E8C5
:101DE000C80E83E1D81EE11CF11C812C912CB12C72
:101DF00020E04981A42A29830E940D0C6C197D09D9
:101E00008E099F09298197FF2DC06A2D80EF0E94BE
:101E1000510E0E940D0C6C197D098E099F0997FFC8
:101E200009C088EC0E94390E87FFF3CF60E888EC88
:101E30000E94510E88EF0E94390E282F2F702430F7
:101E400019F02E3059F00EC0EFEF8E1A9E0A0115D0
:101E5000110589F28016910671F604C0B394F3E07F
:101E6000BF12C9CF822F0F90DF91CF911F910F9199
:101E7000FF90EF90DF90CF90BF90AF909F908F90AA
:101E800008959F92AF92BF92CF92DF92EF92FF920E
:101E90000F931F93CF93DF937C01B42E122FAA24AC
:101EA000A394DC01A60FB11DA60FB11D6D0186E53F
:101EB000C80ED11CC42FD0E0AB96CC0FDD1FCE0DC9
:101EC000DF1DD6018D919C91DC01ED91FC9102808A
:101ED000F381E02D202F412F6B2D0995803EC1F419
:101EE000B1100BC061E088EE0E94510E66E670E012
:101EF00080E090E00E940F0C15C088819981DC0180
:101F0000ED91FC910284F385E02D612F09950AC0C3
:101F10008D3031F48FEF8A0D833008F042C017C046
:101F2000811142C0F60180819181DC01ED91FC912B
:101F30000190F081E02D202F412F6B2D0995982ED7
:101F4000BDE08B130CC08FEF8A0D833050F464E634
:101F500070E080E090E00E940F0CA394B2CF882341
:101F600011F1B1100BC061E088EE0E94510E66E6DF
:101F700070E080E090E00E940F0C11C0EB2DF0E0CB
:101F8000BB96EE0FFF1FEE0DFF1D80819181DC01DE
:101F9000ED91FC910284F385E02D612F0995892D47
:101FA00003C08DE001C080E0DF91CF911F910F91C0
:101FB000FF90EF90DF90CF90BF90AF909F900895EB
:101FC0000F931F93CF93DF9300D0CDB7DEB78A0175
:101FD0006A8389830E94370E898182608EBDF801F1
:101FE0006A81862F882339F00DB407FEFDCF9191C9
:101FF0009EBD8150F7CF060F111D0DB407FEFDCF1A
:102000000E94520AC8010F900F90DF91CF911F914B
:102010000F9108952F923F924F925F926F927F920D
:102020008F929F92AF92BF92CF92DF92EF92FF92E8
:102030000F931F93CF93DF9300D000D01F92CDB7A3
:10204000DEB77D836C835A016901FB0121808FEF2C
:10205000820D803408F06FC00E940D0C2B013C01F2
:10206000F8E84F0EF3E15F1E611C711CEC81FD81ED
:10207000828180FF02C060E801C060E488EE0E94B7
:10208000510E20E0312CC114D10409F444C0760172
:102090002C143D0408F47101EA82A8016E2D80E140
:1020A0000E94E00F6E2D88E30E94510EEC81FD81AD
:1020B0006081606280EF0E94510E88EC0E94390EB0
:1020C00087FFFBCF60E888EC0E94510E88EF0E94EA
:1020D000390E282F2F70812C912C1982222309F47C
:1020E0006BC02B830E940D0C641975098609970932
:1020F0002B8197FF61C0263001F12E3009F456C0C4
:10210000243049F4FFEF8F1A9F0AA114B10459F14A
:102110008A149B0441F588EF2B830E94390E85FBBE
:10212000882780F9EC81FD81928180FB90F9928370
:102130002B81822F46C08AED44C088EF0E94390E61
:1021400085FB882780F991E08927EC81FD819281C8
:1021500080FB90F9928390FF02C060E801C060E4C8
:1021600088EE0E94510E60E088E30E94510EF80153
:10217000608180E10E94510E6A8188E30E94510EC5
:10218000EC81FD816081606280EF0E94510E88ECDD
:102190000E94390E87FFFBCF60E888EC0E94510E49
:1021A00088EF0E94390E282F2F7098CF89818F5F7A
:1021B00089838330C1F6AFCFCE18DF080E0D1F1D07
:1021C00062CF0F900F900F900F900F90DF91CF91F3
:1021D0001F910F91FF90EF90DF90CF90BF90AF9045
:1021E0009F908F907F906F905F904F903F902F9037
:1021F00008952F923F924F925F926F927F928F92AB
:102200009F92AF92BF92CF92DF92EF92FF920F9385
:102210001F93CF93DF9300D000D0CDB7DEB75C0122
:102220007C836B834A017901F901C080D180FB0175
:102230004180F90111821082FB01828181FF02C07D
:1022400060E201C060E188EE0E94510E3C2C9401D6
:10225000EB81FC81408160E0C5010E94D90E582EBF
:10226000F6E08F1316C088EF0E94390E82958170B8
:1022700091E08927EB81FC81928180FB91F9928327
:1022800091FF02C060E201C060E188EE0E94510E41
:10229000DECF81115AC088EC0E94390E82FF53C0F4
:1022A00080E30E94390E282E282F30E0C216D30674
:1022B00008F4232CF70120813181622C712CA601B6
:1022C000421B530B57FF02C040E050E093014615FC
:1022D00057050CF49A0129833A830E94370EF8E0DF
:1022E000FEBD3A8129810DB407FEFDCFF801822F92
:1022F000800F8E1739F01EBC0DB407FEFDCF4EB512
:102300004193F7CF020F131F0E94520A64E088EC3A
:102310000E94510EF70120813181260D371D318336
:102320002083241420F02C153D0508F490CF88EF6D
:102330000E94390E82958170EB81FC81928180FB35
:1023400091F9928302C030EF532E852D0F900F909C
:102350000F900F90DF91CF911F910F91FF90EF9011
:10236000DF90CF90BF90AF909F908F907F906F90B5
:102370005F904F903F902F9008952F923F924F92F1
:102380005F926F927F928F929F92AF92BF92CF9205
:10239000DF92EF92FF920F931F93CF93DF93CDB70E
:1023A000DEB762970FB6F894DEBF0FBECDBF3C011B
:1023B000542ED22E402E5E2D2FA038A4E9A4FAA4CC
:1023C000188A1F861E861D868E01035F1F4F9E0181
:1023D000215F3F4F598B0E946B0E5989811193C029
:1023E000D9824A825B83CC82BE82AD8298868F82FC
:1023F000AE014F5F5F4F68E080E20E94E00F2D85E5
:102400003E85452D60E1C3010E94D90E182F811130
:1024100079C0BD2CBB1CBB24BB1CE114F10409F426
:1024200065C0EF85F8898281BB2009F452C08260C3
:1024300082836401AA24A394C114D10409F454C072
:102440003C862B864D855E856F85788987019E0148
:10245000255F3F4FC3010E94F910182F8630B1F459
:102460002F85388988EF298B3A8B0E94390E85FB9E
:10247000882780F98A2529893A89D90112969C9161
:10248000129780FB91F912969C93D6CF81113AC096
:10249000EBA5FCA53097A1F00190F081E02D019013
:1024A000F081E02DC4018C199D099A8789876B857D
:1024B0007C859E01275F3F4FA7018BA59CA50995B1
:1024C0008B859C85C81AD90A8215930508F0B4CF6C
:1024D0000DC0816082834D855E8587019101BF01BA
:1024E000C3010E940A10182F11110CC02D853E85C2
:1024F000BB2011F060EA01C060E8452DC3010E94D5
:10250000D90E01C0812F62960FB6F894DEBF0FBEC0
:10251000CDBFDF91CF911F910F91FF90EF90DF9092
:10252000CF90BF90AF909F908F907F906F905F9073
:102530004F903F902F9008958F929F92AF92BF92AD
:10254000CF92EF920F931F931F921F921F930F939F
:102550003F932F934901A12CB12CCC24C394E12C9F
:1025600006E020E80E94BD110F900F900F900F9091
:102570000F900F901F910F91EF90CF90BF90AF9061
:102580009F908F9008958F929F92AF92BF92CF921B
:10259000EF92FF920F931F921F92FF92EF923F9341
:1025A0002F934901A12CB12C52E0C52EE02E06E05C
:1025B00020E80E94BD110F900F900F900F900F9088
:1025C0000F900F91FF90EF90CF90BF90AF909F90A2
:1025D0008F9008953F924F925F926F927F928F9269
:1025E0009F92AF92BF92CF92DF92EF92FF920F93A2
:1025F0001F93CF93DF93CDB7DEB7C054D1090FB689
:10260000F894DEBF0FBECDBF3C01562E442E322EB5
:10261000B02ECE0101966C017C01022F29E030E042
:10262000C3010E94C31281111BC08B809C801F9329
:10263000BF92DF92CF921F9280E48F93A12CB12C96
:1026400062E0C62EE32C06E020E8442D652DC30190
:102650000E94BD110F900F900F900F900F900F9050
:10266000C05CDF4F0FB6F894DEBF0FBECDBFDF9169
:10267000CF911F910F91FF90EF90DF90CF90BF907F
:10268000AF909F908F907F906F905F904F903F9012
:1026900008958F929F92AF92BF92CF92EF920F9335
:1026A000CF931F921F921F921F921F921F92812CF5
:1026B000912CA12CB12CC12CE22E05E020E00E942F
:1026C000BD11C82F6CE271E080E090E00E940F0C19
:1026D0000F900F900F900F900F900F908C2FCF9125
:1026E0000F91EF90CF90BF90AF909F908F900895F3
:1026F0008F929F92AF92BF92CF92EF920F931F92C1
:102700001F921F921F921F921F92812C912CA12C1D
:10271000B12CC12CE22E09E020E00E94BD110F90E7
:102720000F900F900F900F900F900F91EF90CF9010
:10273000BF90AF909F908F900895AF92BF92CF922D
:10274000DF92EF92FF920F931F93CF93DF9300D00E
:1027500000D0CDB7DEB77C01690158011C821B8215
:102760001A8219828E010F5F1F4F9E012D5F3F4F0E
:102770000E946B0E811109C049815A816B817C8155
:1027800085019601C7010E94F9100F900F900F90DC
:102790000F90DF91CF911F910F91FF90EF90DF90FD
:1027A000CF90BF90AF900895CF92DF92FF920F939A
:1027B0001F93CF93DF9300D0CDB7DEB76C016623B4
:1027C00009F442C0062F10E085E0689FB001112493
:1027D000F601E60FF71F8085282F277086FF19C0A6
:1027E00031E0E5E0FE2EF601F39EE00DF11D11242F
:1027F000808586958695869587708217E1F03F5F84
:10280000303188F3F6018581821303C02150F6012F
:10281000258385E0809FF001819FF00D1124EC0D50
:10282000FD1D108681E08187128682E0C80ED11CD2
:10283000D782C68209C0632FC6012A8339830E94CA
:10284000D4132A813981CFCF0F900F90DF91CF9190
:102850001F910F91FF90DF90CF900895CF93DF935A
:10286000EC016134A1F4FC01855B9F4F41E09E01C6
:102870002E5F3F4F15864687178634872387359608
:10288000E817F907B9F71D82DF91CF9108950E94EB
:10289000500D682FCE01DF91CF910C94D4130F937C
:1028A0001F93CF93DF93EC01022FCA3F8FEFD8071E
:1028B00011F486ED29C08E819F81892B01F12A8731
:1028C000242F40E0CE010E94620D182F8823C9F00A
:1028D000682FCE010E94D60D009759F3FC010483A6
:1028E000212F40E060E0CE010E944913082F882389
:1028F00051F0612FCE010E942E14802F05C087ED6C
:1029000003C084ED01C080E0DF91CF911F910F9152
:1029100008952F923F924F925F926F927F928F9283
:102920009F92AF92BF92CF92DF92EF92FF920F935E
:102930001F93CF93DF93CDB7DEB766970FB6F894AA
:10294000DEBF0FBECDBF7C01862E742E922E1B8A59
:1029500088E08C8B8CE38D8BD701ED91FC910190FD
:10296000F081E02D60E0C70109956C01009709F442
:10297000ABC0FC01A080B180CE01439691838083DF
:1029800094828E010F5F1F4F22E130E040E060E053
:10299000C7010E949C12D601AD92BC928111ACC0BD
:1029A00029843A844B845C84BD81BE8B1E8157018F
:1029B000612C6501E6E5CE0ED11CD6018D919C916E
:1029C000009789F1DC01ED91FC910084F185E02D07
:1029D0000995811128C0F60180819181DC01ED917A
:1029E000FC910088F189E02D612F09958823D9F0A9
:1029F000F60180819181DC01ED91FC910484F585E3
:102A0000E02DA201B1010995811160C0F60180811C
:102A10009181DC01ED91FC910684F785E02D6E89B2
:102A20000995811153C06394B2E0AB0EB11CE0E193
:102A30006E12BFCF5701612C6501F6E5CF0ED11C98
:102A4000D6018D919C91009789F1DC01ED91FC916B
:102A50000084F185E02D0995811128C0F60180815F
:102A60009181DC01ED91FC910088F189E02D612FCD
:102A700009958823B1F1F60180819181DC01ED9106
:102A8000FC910484F585E02DA201B1010995811125
:102A90000DC0F60180819181DC01ED91FC910684ED
:102AA000F785E02D6E8909958823D9F06394B2E00B
:102AB000AB0EB11CE0E16E12BFCF292D472D682D62
:102AC000C7010E944F1418C086ED16C0092D272D8E
:102AD000482D662DC7010E94410F813D09F4A3CF07
:102AE0000BC0092D272D482D662DC7010E94410FCF
:102AF000982F977F913DD1F266960FB6F894DEBF7E
:102B00000FBECDBFDF91CF911F910F91FF90EF903E
:102B1000DF90CF90BF90AF909F908F907F906F90FD
:102B20005F904F903F902F900895FF920F931F93C7
:102B3000CF93DF93EC011D990EC088EC0E94390EF3
:102B400085FF05C0CE010E946D0A60E201C060E011
:102B500088EC0E94510E8091CB01813051F058F0E9
:102B6000823029F0833039F5FF24F3940DC0F12C25
:102B70000BC083E106C080911803807F8031D9F0BB
:102B800081E18093180317C080911803807F803102
:102B900099F40E940D0C68537F4F8F4F9F4F6093A5
:102BA000140370931503809316039093170380E228
:102BB0008093180301C0F12C00E010E0FE01E00F4B
:102BC000F11FEA5AFF4F80819181009739F0DC01B3
:102BD000ED91FC910680F781E02D09950E5F1F4F66
:102BE0000032110559F780911803803409F446C06A
:102BF00070F4803269F18033D9F1813109F088C0F5
:102C0000FE01EA58FF4F108200E010E00AC0813553
:102C100009F45AC0803809F46AC0803509F078C0D8
:102C20003CC0FE01E00FF11FEA5AFF4F8081918105
:102C3000009739F0DC01ED91FC910480F581E02DE5
:102C400009950E5F1F4F0032110559F782E15EC0F2
:102C50000E940D0C0091140310911503209116038E
:102C600030911703601B710B820B930B97FD50C0C3
:102C700061E088EE0E94510E80E448C088EE0E9418
:102C8000390E80FD45C088ED0E94390E682F6860BE
:102C900088ED0E94510E80E539C088EC0E94390E03
:102CA00086FF36C081E5809318030E940D0C6C5E90
:102CB0007F4F8F4F9F4F6093140370931503809342
:102CC00016039093170324C00E940D0C0091140367
:102CD000109115032091160330911703601B710B9F
:102CE000820B930B97FD14C080E8809318032F2D5F
:102CF00040E060E0CE010E948914882331F0823DDB
:102D000039F08093190380EA01C080E980931803A9
:102D1000DF91CF911F910F91FF9008958F929F9215
:102D2000AF92BF92CF92EF920F93CF93DF93CDB735
:102D3000DEB7C054D1090FB6F894DEBF0FBECDBFC9
:102D40005F934F939E012F5F3F4F3F932F931F92AF
:102D500020E42F9320E8822E912C5B0132E2C32ED7
:102D6000E12C06E021E840E0FC0166818481958148
:102D70000E94BD110F900F900F900F900F900F9029
:102D8000C05CDF4F0FB6F894DEBF0FBECDBFDF9142
:102D9000CF910F91EF90CF90BF90AF909F908F9079
:102DA00008958F929F92AF92BF92CF92DF92EF924F
:102DB000FF920F938E2CA42EB12C1F921F92DF92A4
:102DC000CF92FF92EF929F2CC22EE02E09E021E2DB
:102DD000462FFC016681848195810E94BD110F9070
:102DE0000F900F900F900F900F900F91FF90EF901A
:102DF000DF90CF90BF90AF909F908F9008958F926B
:102E00009F92AF92BF92CF92EF920F93A62EB12CCA
:102E10001F921F921F921F921F921F92812C912C22
:102E2000C22EE42E0AE021E240E0FC0166818481AA
:102E300095810E94BD110F900F900F900F900F90F1
:102E40000F900F91EF90CF90BF90AF909F908F9089
:102E500008958F929F92AF92BF92CF92EF920F936D
:102E6000A62EB12C1F921F921F921F921F921F928B
:102E7000812C912CC12CE42E0BE021E240E0FC01DE
:102E80006681848195810E94BD110F900F900F90F3
:102E90000F900F900F900F91EF90CF90BF90AF9049
:102EA0009F908F900895FC018285089581E069309C
:102EB00009F080E00895CF93DF93EC018A819B8134
:102EC000DC01ED91FC910480F581E02D6A85099586
:102ED0008A85813439F4EA81FB81EA58FF4F808189
:102EE000846080831A861B861C861D861E861F862C
:102EF000188A80E0DF91CF9108958F929F92AF92D0
:102F0000BF92CF92EF920F93A42EB12CB22A1F92B0
:102F10001F921F921F921F921F92812C912CC12CE5
:102F2000E62E01E023E240E0FC016285828193818C
:102F30000E94BD110F900F900F900F900F900F9067
:102F40000F91EF90CF90BF90AF909F908F9008958A
:102F50008F929F92AF92BF92CF92EF920F93A62E35
:102F6000B12C1F921F923F932F935F934F934A016F
:102F7000C12CE12C00E023EA40E0FC016285828163
:102F800093810E94BD110F900F900F900F900F90A2
:102F90000F900F91EF90CF90BF90AF909F908F9038
:102FA00008958F929F92AF92BF92CF92EF920F931C
:102FB000A42EB12CB22A1F921F921F921F921F9211
:102FC0001F92812C912CC12CE62E03E023E240E0DD
:102FD000FC016285828193810E94BD110F900F9048
:102FE0000F900F900F900F900F91EF90CF90BF9098
:102FF000AF909F908F9008952F923F924F925F9243
:103000006F927F928F929F92AF92BF92CF92DF92F8
:10301000EF92FF920F931F93CF93DF93CDB7DEB75D
:10302000E9970FB6F894DEBF0FBECDBF3C01362E38
:10303000242EDC011296ED90FC9013971A968C9139
:10304000811103C1D701ED91FC910190F081E02D38
:1030500060E0C70129AF09956C0129AD009709F41B
:10306000F6C0FC01A080B180A114B10409F4F1C044
:103070004301F4E08F0E911CDC0111969C928E921C
:1030800014962C93FE0131962F018F0128E030E039
:1030900040E060E0D30112968D919C9113970E94BD
:1030A0009C12F60114828111DAC019818D81893058
:1030B00009F0D1C0D701ED91FC910280F381E02DA0
:1030C000222D41E0632DC7010995F30182878823F2
:1030D00009F4C3C098859583282F40E060E0828181
:1030E00093810E944913082F882391F0D601AD9255
:1030F000BC92D701ED91FC910480F581E02DD301C4
:103100001A966C91C7010995F3011286102FABC076
:10311000113208F010E2D601AD92BC9211110BC031
:10312000940142E0F3016285828193810E94130E33
:10313000811198C011C0212F30E0820140E0D301FD
:103140001A966C911A9712968D919C9113970E94E2
:103150009C12811187C0E4CF1F921F925F924F9201
:103160001F9288E08F9388E0882E912CA12CB12C9F
:1031700099E2C92EE12C06E020EA40E0F3016285E5
:10318000828193810E94BD11182F0F900F900F9094
:103190000F900F900F90811166C08B81D3011B9609
:1031A0008C931B97720100E028E030E040E01A9613
:1031B0006C911A9712968D919C9113970E94C3124D
:1031C000811150C02B813C8140E0F30162858281F6
:1031D00093810E94C312811145C0298130E0CE0144
:1031E00081967C0140E0D3011A966C911A97129651
:1031F0008D919C9113970E94C312811133C02E812F
:1032000040E0F3016285828193810E9478138111ED
:1032100029C001E0D3011B968C911B97801740F0C9
:1032200020E0402F68E0C3010E94D1170F5FF2CF6A
:103230001296ED91FC911397EA58FF4F80818460BC
:10324000808381E050968C930EC019ED0CC016ED72
:103250000AC017ED08C011ED06C014ED04C0F60158
:10326000B182A082182F812FE9960FB6F894DEBFA5
:103270000FBECDBFDF91CF911F910F91FF90EF90C7
:10328000DF90CF90BF90AF909F908F907F906F9086
:103290005F904F903F902F900895BF92CF92DF9212
:1032A000EF92FF920F931F93CF93DF9300D000D044
:1032B000CDB7DEB77C01B62E19821A821B821C8222
:1032C00020E0462F61E10E947D1720E04B2D60E158
:1032D000C7010E947D1720E04B2D64E0C7010E94CA
:1032E000D11723E0C22ED12C9E012F5F3F4F44E027
:1032F00050E06B2DC7010E94A817882301F120E040
:103300004B2D64E1C7010E947D1720E04B2D60E149
:10331000C7010E947D1764E170E080E090E00E94A8
:103320000F0C0F900F900F900F90DF91CF911F9186
:103330000F91FF90EF90DF90CF90BF90089509819B
:103340001A812B813C811D7F0330114020413105C2
:10335000B1F264E670E080E090E00E940F0C81E042
:10336000C81AD108C114D10409F0BECFC8CFCF9379
:10337000DF93FC018AE991E0918380837383628308
:10338000128613861486158616861786108A14826E
:1033900088E085839CE3968391E09783808784E02F
:1033A000818761157105B9F0CB01A0E0B0E0EC01B7
:1033B000CA5ADF4F28813981232B41F49B96AA0FEB
:1033C000BB1FA60FB71FED93FC9305C01196029685
:1033D000A031B10561F7DF91CF910895DF92EF92AF
:1033E000FF920F931F93CF93DF93EC01D62E7A01B8
:1033F000FA0100811181228133810130F3E01F073E
:10340000F1E02F073105D1F060F40115E1E01E076E
:103410002E07310571F1013011402140310571F065
:1034200062C0033081E0180780E128073105E1F12F
:103430000330134020413105B9F155C080911A0382
:10344000811151C020E04D2D61E1CE010E947D1718
:1034500020E04D2D60E1CE010E947D1720E04D2D32
:1034600064E0CE010E94D11781E080931A0381EBC2
:103470003BC020E0462F61E1CE010E947D1720E095
:103480004D2D60E1CE010E947D1710921A036A85CE
:1034900067708D2D8770660F660F660F682B8A81A7
:1034A0009B810E94010D1FC020E04D2D64E1CE01E3
:1034B0000E947D1720E04D2D60E1CE010E947D1716
:1034C00064E170E080E090E00E940F0C6A85F701F3
:1034D00021812695217067704D2D8A819B810E94E4
:1034E000891410921A0380E0DF91CF911F910F9100
:1034F000FF90EF90DF900895EF92FF920F931F934C
:10350000CF93DF93CDB7DEB72E970FB6F894DEBF1B
:103510000FBECDBF7C0181E090E09E878D878E013C
:103520000F5F1F4F9E01235F3F4F41E0F701628510
:10353000828193810E949D13811151C002E011E0AC
:1035400089818023D1F019861A861B861C869E01EC
:10355000275F3F4F44E050E0612FC7010E94A8174A
:1035600081110BC0AE01475F5F4F612FC7010E9401
:10357000EE19813B99F1811132C0000F1F5F1830A5
:10358000F9F611E0F7018385811740F119861A8653
:103590001B861C869E01275F3F4F44E050E0612F51
:1035A000C7010E94A817811117C089859A85877065
:1035B00091708130914081F48B859C8581609C87DE
:1035C0008B87AE01475F5F4F612FC7010E94EE19E5
:1035D000813B21F0811103C01F5FD4CF80E02E9684
:1035E0000FB6F894DEBF0FBECDBFDF91CF911F9114
:1035F0000F91FF90EF9008950F931F93CF93DF9358
:10360000EC0188898823F1F00E940D0C0C851D8542
:103610002E853F85601B710B820B930B97FD0FC0AE
:10362000CE010E947C1A182F0E940D0C6C597F4FFE
:103630008F4F9F4F6C877D878E879F8701C010E0DB
:10364000812F01C080E0DF91CF911F910F910895EC
:10365000CF93DF93FC01EA0180819181892B21F5D1
:1036600080E028C088819981892BD1F3DB018D917D
:103670009C91DC015C91238130E0241B3109808125
:103680009181820F931FDC015C9382818150828340
:1036900088819981019799838883DB018D919C9121
:1036A000119701968D939C9342814111DBCF8381C9
:1036B000828381E0DF91CF910895CF92DF92EF92E4
:1036C000FF920F931F93CF93DF936C017A01EB016D
:1036D000E60EF71E00E010E0CE15DF0561F06991FF
:1036E000D601ED91FC910190F081E02DC601099584
:1036F000080F191FF1CFC801DF91CF911F910F91D2
:10370000FF90EF90DF90CF90089580912703089568
:103710009FB7F89410921E039FBF9091AA04943013
:1037200009F058C09091E9009F702091EC0020FFB3
:1037300002C020E801C020E0292B94E09093E9002A
:103740009091EB0090FF43C09091EE0097FF3FC037
:1037500090911B03992321F09091E80095FF37C0C9
:1037600010921B0396E03091E80035FD15C03091B2
:10377000AA04343061F53091EB0035FD28C091503A
:1037800021F481E080931B0322C0EFE9FFE0319731
:10379000F1F700C00000E7CF8093F1008091E800CE
:1037A00085FD0AC08091E80080FFFCCF8091E80091
:1037B0008E778093E80006C08FB7F89491E09093DD
:1037C0001E038FBF2F702093E90080E008952F70B3
:1037D0002093E9008FEF0895CF93DF9300D01F92DD
:1037E000CDB7DEB72091AA04243019F523E0298350
:1037F0009B838A832093E9008FEF9091E8008150AA
:1038000095FD06C095ED9A95F1F700008111F5CF71
:103810008091E80085FF0DC040E050E063E070E07B
:10382000CE0101960E94361E8091E8008E7780932B
:10383000E8000F900F900F90DF91CF910895CF93F4
:10384000DF9300D01F92CDB7DEB72091AA042430B9
:1038500021F522E029839B838A8383E08093E9001A
:103860008FEF9091E800815095FD06C095ED9A95F7
:10387000F1F700008111F5CF8091E80085FF0DC0C0
:1038800040E050E063E070E0CE0101960E94361EF9
:103890008091E8008E778093E8000F900F900F9052
:1038A000DF91CF9108952091AA042430F1F422E011
:1038B0002093E9002FEF3091E800215035FD06C03C
:1038C00035ED3A95F1F700002111F5CF2091E80090
:1038D00025FF0BC040E050E065E070E00E94361E1E
:1038E0008091E8008E778093E8000895CF93DF936E
:1038F000EC018091AA04843039F581E08093E900DD
:103900008FEF9091E800815095FD06C095ED9A9556
:10391000F1F700008111F5CF8091E80085FF14C018
:1039200040E050E068E070E0CE010E94361E8091D9
:10393000E8008E778093E80088E0FE01AFE1B3E015
:1039400001900D928A95E1F7DF91CF91089588E477
:1039500093E00E9427038091A904811109C00E946D
:10396000C81F0E9425208091E20084608093E200BD
:10397000089584E493E00E9427031092A904089517
:10398000089580911C038F5F80931C0362E30E9463
:103990006333911135C010921C0380911E0388235C
:1039A00079F18091AA04843049F58091E9008F7003
:1039B0009091EC0090FF02C090E801C090E0982B3D
:1039C00084E08093E9008091EB0080FF14C0809137
:1039D000EE0087FF10C08091E80085FF03C01092C1
:1039E000F100F9CF8091E80080FF05C08091E800E8
:1039F0008E778093E8009F709093E90010921E03E9
:103A0000089542E061EC81E00E94421F42E061ECD7
:103A100082E00E94421F42E061EC83E00E94421F6C
:103A200042E261EC84E00C94421F8091AC0483304C
:103A300009F453C030F4813071F0823009F48CC045
:103A400008958A3009F478C08B3009F45EC089305B
:103A500009F09AC020C08091AB04813A09F094C06B
:103A60008091E800877F8093E8008091AF04909177
:103A7000B004892B21F060E080E090E003C068E0B2
:103A80008FE193E070E00E947F1E8091E8008B77C9
:103A90008093E80008958091AB04813209F074C0EE
:103AA0008091AF049091B004892B09F06DC0809192
:103AB000E800877F8093E8008091E80082FD05C0E0
:103AC0008091AA048111F8CF5FC08091F1008093AA
:103AD00027038091E8008B7753C08091AB04813A33
:103AE00009F052C08091AF049091B004892B09F085
:103AF0004BC08091E800877F8093E8008091E800C8
:103B000080FFFCCF80910A0136C08091AB048132E6
:103B1000D9F58091AF049091B004892BA9F58091DB
:103B2000E800877F8093E8000E94771F8091AD04B2
:103B300080930A010C943C288091AB04813221F5DA
:103B40008091E800877F8093E8000E94771F809132
:103B5000AE048093280308958091AB04813AA1F4C8
:103B60008091E800877F8093E8008091E80080FFE3
:103B7000FCCF809128038093F1008091E8008E773C
:103B80008093E8000C94771F089580912703809319
:103B90001D031092270380E00E94DD090E942D245E
:103BA0000C943C280C94C51D0E94082F80911D0385
:103BB0008093270308950C94D41D292F3327233095
:103BC0003105A9F06CF42130310509F442C02230EE
:103BD000310509F043C084E790E02EE933E042C0AC
:103BE00021323105C9F02232310519F137C0992748
:103BF0008130910541F08230910541F0892B71F5BA
:103C0000EAE9F3E005C0EAE8F3E002C0ECE4F3E03F
:103C1000849190E09F0126C0643000F5E62FF0E02B
:103C2000EE0FFF1FE854FE4F2081318189E090E0C4
:103C300019C0643098F4E62FF0E0DF01AA0FBB1F33
:103C4000A055BE4F2D913C91E455FE4F808190E0F0
:103C500009C082E190E022E134E004C080E090E01D
:103C600020E030E0FA01318320830895CF92DF9283
:103C7000EF92FF920F931F93CF93DF937C018B0101
:103C8000EA010E94981F811131C0209731F088818C
:103C90009981081B190BE80EF91EC12CD12C0115B6
:103CA000110519F18091E80085FD14C08091E800AC
:103CB0008E778093E800209741F0888199818C0D60
:103CC0009D1D9983888385E011C00E94981F8823D9
:103CD00031F30CC0F70181917F018093F100015015
:103CE0001109FFEFCF1ADF0ADACF80E0DF91CF9121
:103CF0001F910F91FF90EF90DF90CF90089520914A
:103D0000B1043091B2042617370748F061157105E8
:103D100039F42091E8002E772093E80001C0B90122
:103D2000FC0120E061157105B9F18091AA04882396
:103D300009F440C0853009F43FC08091E80083FD5C
:103D40003DC08091E80082FF06C08091E80082FFBC
:103D500026C080E008958091E80080FFE3CF2091A5
:103D6000F3008091F20090E0922B6115710551F003
:103D70008830910538F421912093F1006150710948
:103D80000196F3CF21E0089709F020E08091E80048
:103D90008E778093E800C6CF2111C7CFD6CF809110
:103DA000AA04882339F0853039F08091E80083FF38
:103DB000CCCF04C082E0089583E0089581E00895A7
:103DC0002091B1043091B2042617370748F06115ED
:103DD000710539F42091E8002E772093E80001C0A6
:103DE000B901FC0120E061157105C1F18091AA04BF
:103DF000882309F441C0853009F440C08091E8006F
:103E000083FD3EC08091E80082FF06C08091E800FB
:103E100082FF27C080E008958091E80080FFE3CF13
:103E20002091F3008091F20090E0922B61157105D2
:103E300059F08830910540F424912093F100319697
:103E4000615071090196F2CF21E0089709F020E056
:103E50008091E8008E778093E800C5CF2111C6CF0E
:103E6000D5CF8091AA04882339F0853039F080912C
:103E7000E80083FFCBCF04C082E0089583E008957B
:103E800081E00895982F973058F59093E90098179E
:103E900039F07091EC002091ED005091F00003C0DA
:103EA000242F762F50E021FF19C03091EB003E7F88
:103EB0003093EB003091ED003D7F3093ED00309179
:103EC000EB0031603093EB007093EC002093ED0039
:103ED0005093F0002091EE0027FF07C09F5FD3CFE3
:103EE0008F708093E90081E0089580E008958091CB
:103EF000AB0487FD05C08091E80080FF0EC012C0B2
:103F00008091E80082FD05C08091AA048111F8CF5C
:103F100008958091E8008B7708C08091AA048111F0
:103F2000EACF08958091E8008E778093E8000895A5
:103F30008091E4009091E50045E62091EC0020FF9F
:103F400021C02091E80020FD21C02091AA04222355
:103F500089F0253089F02091EB0025FD0FC02091DC
:103F6000E4003091E5002817390739F3415041F05A
:103F7000C901E3CF82E0089583E0089581E00895C8
:103F800084E008952091E80022FFDFCF80E00895CB
:103F90000E9436200E943E20E0EEF0E080818160A9
:103FA0008083E8EDF0E080818F77808319BCA7EDF6
:103FB000B0E08C918E7F8C9380818F7E8083109275
:103FC000A90408950F931F93CF93DF930E94362087
:103FD0000E943E20C8EDD0E088818F778883888159
:103FE0008068888388818F7D888319BC1092AA0499
:103FF0001092A6041092A8041092A70400EE10E0FC
:10400000F80180818B7F808388818160888342E092
:1040100060E080E00E94421FE1EEF0E080818E7F50
:104020008083E2EEF0E0808181608083808188601F
:104030008083F80180818E7F80838881806188837E
:10404000DF91CF911F910F910895E8EDF0E080810D
:104050008F7E8083E7EDF0E080818160808384E063
:1040600082BF81E08093A9040C94E21FE8EDF0E0A8
:1040700080818E7F80831092E20008951092DA0092
:104080001092E10008951F920F920FB60F92112423
:104090002F933F934F935F936F937F938F939F9350
:1040A000AF93BF93EF93FF938091E10082FF0BC02A
:1040B0008091E20082FF07C08091E1008B7F8093B6
:1040C000E1000E94C11C8091DA0080FF1FC0809136
:1040D000D80080FF1BC08091DA008E7F8093DA00C9
:1040E0008091D90080FF0DC080E189BD82E189BD4A
:1040F00009B400FEFDCF81E08093AA040E94A71CB2
:1041000005C019BC1092AA040E94B91C8091E1005C
:1041100080FF19C08091E20080FF15C08091E2000D
:104120008E7F8093E2008091E20080618093E200C4
:104130008091D80080628093D80019BC85E080937C
:10414000AA040E94D21D8091E10084FF30C08091BA
:10415000E20084FF2CC080E189BD82E189BD09B401
:1041600000FEFDCF8091D8008F7D8093D800809194
:10417000E1008F7E8093E1008091E2008F7E80934A
:10418000E2008091E20081608093E2008091A604C9
:10419000882311F084E007C08091E30087FF02C00C
:1041A00083E001C081E08093AA040E94DB1D80911E
:1041B000E10083FF29C08091E20083FF25C0809148
:1041C000E100877F8093E10082E08093AA0410924F
:1041D000A6048091E1008E7F8093E1008091E2004F
:1041E0008E7F8093E2008091E20080618093E20004
:1041F00042E060E080E00E94421F8091F000886011
:104200008093F0000E94C01CFF91EF91BF91AF918D
:104210009F918F917F916F915F914F913F912F91DE
:104220000F900FBE0F901F9018951F920F920FB610
:104230000F9211242F933F934F935F936F937F932C
:104240008F939F93AF93BF93CF93EF93FF93C091BF
:10425000E900CF708091EC001092E9008091F000AD
:10426000877F8093F00078940E9451211092E9009A
:104270008091F00088608093F000C093E900FF9186
:10428000EF91CF91BF91AF919F918F917F916F915E
:104290005F914F913F912F910F900FBE0F901F9004
:1042A00018951F93CF93DF93CDB7DEB7AA970FB6BC
:1042B000F894DEBF0FBECDBFEBEAF4E08091F100D1
:1042C000819324E0E33BF207C9F70E94151D80911A
:1042D000E80083FF1CC12091AB043091AC04832F14
:1042E00090E08A30910508F012C1FC01EA5AFF4FB4
:1042F0000C948333203881F0223809F008C1809172
:10430000AF048F708093E9008091EB0085FB8827D4
:1043100080F91092E90006C08091A7049091A8044A
:10432000911182609091E800977F9093E8008093CC
:10433000F1001092F100C5C0822F8D7F09F0E7C017
:10434000222319F0223061F0E2C08091AD04813067
:1043500009F0DDC0333009F080E08093A80428C064
:104360008091AD04811124C02091AF042F7009F415
:10437000CEC02093E9008091EB0080FF19C08091AE
:10438000EB00333011F4806211C080618093EB0048
:1043900081E090E0022E01C0880F0A94EAF7809332
:1043A000EA001092EA008091EB0088608093EB00B5
:1043B0001092E9008091E800877F86C02111A7C094
:1043C0001091AD041F778091E3008078812B80935A
:1043D000E3008091E800877F8093E8000E94771FC8
:1043E0008091E80080FFFCCF8091E300806880939B
:1043F000E300112311F083E001C082E08093AA045E
:1044000086C02058223008F082C08091AD0490917F
:10441000AE048C3D23E0920779F583E08A838AE23B
:1044200089834FB7F894DE01139620E03EE051E215
:10443000E32FF0E050935700E49120FF03C0E29592
:10444000EF703F5FEF708E2F90E0EA3010F0C7966C
:1044500001C0C0968D939D932F5F243149F74FBFC4
:104460008091E800877F8093E8006AE270E0CE01E7
:1044700001960E947F1E14C0AE014F5F5F4F609196
:10448000AF040E94DD1D009709F441C02091E800AF
:10449000277F2093E800BC0189819A810E94E01E59
:1044A0008091E8008B778093E80031C0203879F55F
:1044B0008091E800877F8093E8008091A604809334
:1044C000F1008091E8008E778093E8000E94771FCA
:1044D0001EC021111CC09091AD049230C0F4809197
:1044E000E800877F8093E8009093A6040E94771FDE
:1044F0008091A604811104C08091E30087FF02C06F
:1045000084E001C081E08093AA040E94011D809193
:10451000E80083FF0AC08091E800877F8093E8006D
:104520008091EB0080628093EB00AA960FB6F8941E
:10453000DEBF0FBECDBFDF91CF911F910895909345
:104540002E0380932D030895E0912D03F0912E0307
:10455000309721F00190F081E02D099480E00895DA
:10456000FF920F931F93CF93DF938C01E0912D0364
:10457000F0912E03309799F10280F381E02D099597
:1045800080919B0482FF2BC080FF04C08FE295E0E6
:104590000E942703E80188E0F82E09E215E08091E7
:1045A0009B0480FF0BC088811F928F931F930F93F2
:1045B0000E94C0030F900F900F900F90FA942196D5
:1045C000F110EDCF80919B0480FF09C087E295E058
:1045D000DF91CF911F910F91FF900C942703DF91F2
:1045E000CF911F910F91FF900895E0912D03F091CD
:1045F0002E03309721F00480F581E02D0994089571
:10460000CF93DF93EC0180912B0390912C03C8177B
:10461000D90709F1D0932C03C0932B03E0912D030C
:10462000F0912E033097B9F00680F781E02DCE018E
:10463000099580919B0482FF0EC080FF0CC0DF9320
:10464000CF9389E195E09F938F930E94C0030F90D1
:104650000F900F900F90DF91CF910895CF93DF933C
:10466000EC018091290390912A03C817D90709F119
:10467000D0932A03C0932903E0912D03F0912E03D8
:104680003097B9F00084F185E02DCE010995809135
:104690009B0482FF0EC080FF0CC0DF93CF9389E0A4
:1046A00095E09F938F930E94C0030F900F900F90FF
:1046B0000F90DF91CF9108950E945D0C0C94EA0A4F
:1046C0005F926F927F928F929F92AF92BF92CF92A2
:1046D000DF92EF92FF920F931F93CF93DF9300D05F
:1046E00000D01F92CDB7DEB70E94430800E313E06D
:1046F000512C88248394912C852D0E9473095C0190
:10470000F801C080D180C826D926C114D10439F45B
:1047100053940E5F1F4FF0E15F12EECF3FC08091C8
:104720009B0481FD0E94A309E12CF12C34010E2C85
:1047300002C0660C771C0A94E2F7C3018C219D210C
:10474000892B21F1E9825A8221E0C3018A219B2130
:10475000892B09F420E02B830E94660C8160782F5E
:104760009D838C8349815A816B818D810E942E2487
:1047700049815A816B817C818D810E94F52EF801DF
:10478000208131812625372531832083FFEFEF1AE1
:10479000FF0A80E1E816F10449F6BACF8FEF89836A
:1047A0008A831B820E94660C8160782F9D838C8394
:1047B00049815A816B818D810E942E240E94F42EA2
:1047C0000E94683110912F030E94A422181771F1E2
:1047D0000E94A42280932F0390919B0492FF0EC00D
:1047E00090FF0CC01F928F938AE395E09F938F9365
:1047F0000E94C0030F900F900F900F9080912F0395
:104800000F900F900F900F900F90DF91CF911F910D
:104810000F91FF90EF90DF90CF90BF90AF909F905F
:104820008F907F906F905F900C94062F0F900F9059
:104830000F900F900F90DF91CF911F910F91FF90EC
:10484000EF90DF90CF90BF90AF909F908F907F9030
:104850006F905F9008950C94DD090895CF93DF93D6
:10486000CDB7DEB72B970FB6F894DEBF0FBECDBF26
:104870004F83588769877A878B878A859B85892BA1
:1048800031F05F3F11F080E003C04F3FE1F781E07E
:10489000811107C04F81588569857A858B850E9473
:1048A000F52EDE01119686E0FD0111928A95E9F759
:1048B00085E0FE01379601900D928A95E1F74981D6
:1048C0005A816B817C818D819E810E94552B2B9614
:1048D0000FB6F894DEBF0FBECDBFDF91CF91089524
:1048E000882309F45CC09CEF980F913A20F090E582
:1048F000980F9E3218F40E941C2E0DC090E2980F63
:10490000983058F4877091E001C0990F8A95EAF7C2
:10491000892F0E94612E0C949D2E9BE5980F933059
:1049200070F4853A29F0863A31F482E890E005C0C7
:1049300081E890E002C083E890E00C94002398E5C1
:10494000980F953160F5883A89F0893A91F08A3A62
:1049500099F08B3AA1F08C3AA9F08D3AB1F08E3AE9
:10496000B9F08F3AC1F487EB90E017C082EE90E087
:1049700014C089EE90E011C08AEE90E00EC085EB85
:1049800090E00BC086EB90E008C083EB90E005C0A0
:1049900084EB90E002C080E090E00C942E23089518
:1049A000882349F19CEF980F913A20F090E5980FF9
:1049B0009E3218F40E943D2E0DC090E2980F983060
:1049C00058F4877091E001C0990F8A95EAF7892F12
:1049D0000E94672E0C949D2E9BE5980F933020F437
:1049E00080E090E00C940023885A853120F480E028
:1049F00090E00C942E230895882321F00E94612ECC
:104A00000C949D2E0895882321F00E94672E0C940B
:104A10009D2E0895CF92DF92EF92FF920F931F93F6
:104A2000CF93DF93CDB7DEB728970FB6F894DEBFEC
:104A30000FBECDBF8C0185E0F801DE01119601901B
:104A40000D928A95E1F7F80140815181F2808381CE
:104A50009481258122952F70009731F05F3F31F4CA
:104A600031E04F3F19F403C031E001C030E030FDC8
:104A7000E2C2782F9D838C836F2D8D812F830E94BE
:104A8000982D9E8388870E94972D0E94A92C4E8185
:104A9000E42FE295EF70F0E0E05AFF4F2F81688538
:104AA0000C948333842F807F142F1F70882311F080
:104AB0001295107FFF2059F0112309F471C2812F44
:104AC00068870E94742E0E949D2E688569C2862F79
:104AD0000E94D024112309F4AEC2812F0E947A2EA5
:104AE00028960FB6F894DEBF0FBECDBFDF91CF91F1
:104AF0001F910F91FF90EF90DF90CF900C949D2E1F
:104B0000842F807F942F9F70E92E803219F0E294D9
:104B100080EFE822662319F0613001F129C0FF20FF
:104B2000A9F08E2D222349F1213039F528960FB6B0
:104B3000F894DEBF0FBECDBFDF91CF911F910F91D3
:104B4000FF90EF90DF90CF900C94842E222319F0E9
:104B5000213009F470C20E94872E2CC0FF20E9F09A
:104B6000263008F068C20E945E2E8E2129F022C0F5
:104B7000FF20F1F0211115C08E2D28960FB6F89464
:104B8000DEBF0FBECDBFDF91CF911F910F91FF9080
:104B9000EF90DF90CF900C94FC24253008F04BC2AE
:104BA00009C0F801858180FFFBC18F708583E4CF48
:104BB00021110AC28E2D78C1242F269526952370A7
:104BC00030E02115310521F021303105C9F033C223
:104BD000FF2021F0862F942F937002C080E090E098
:104BE00028960FB6F894DEBF0FBECDBFDF91CF91F0
:104BF0001F910F91FF90EF90DF90CF900C940023C6
:104C0000FF2021F0862F942F937002C080E090E067
:104C100028960FB6F894DEBF0FBECDBFDF91CF91BF
:104C20001F910F91FF90EF90DF90CF900C942E2367
:104C3000862FFF2019F00E94EE2F02C00E945630EE
:104C400028960FB6F894DEBF0FBECDBFDF91CF918F
:104C50001F910F91FF90EF90DF90CF900C94DB307D
:104C6000842F837009F076C0F110E5C1262F2295BC
:104C700026952770220F220F862F8F70C82ED12CD9
:104C8000E12CF12C022E04C0CC0CDD1CEE1CFF1C10
:104C90000A94D2F764FF10C06FE070E080E090E00B
:104CA00004C0660F771F881F991F2A95D2F7609559
:104CB00070958095909503C060E070E0CB01242F43
:104CC000269526952370422F50E042305105D1F0B1
:104CD0004330510559F16C297D298E299F29413096
:104CE000510541F128960FB6F894DEBF0FBECDBF37
:104CF000DF91CF911F910F91FF90EF90DF90CF90B8
:104D00000C94C42C6C297D298E299F2928960FB6D6
:104D1000F894DEBF0FBECDBFDF91CF911F910F91F1
:104D2000FF90EF90DF90CF900C94DE2C0E94C42C6B
:104D3000C701B60128960FB6F894DEBF0FBECDBFEF
:104D4000DF91CF911F910F91FF90EF90DF90CF9067
:104D50000C94AA2CFF2019F0842F817001C0869535
:104D6000882309F468C1262F229526952770220FE3
:104D7000220F862F8F70C82ED12CE12CF12C022E01
:104D800004C0CC0CDD1CEE1CFF1C0A94D2F764FF9F
:104D900010C06FE070E080E090E004C0660F771F05
:104DA000881F991F2A95D2F76095709580959095E8
:104DB00003C060E070E0CB01242F26952695237078
:104DC000422F50E042305105D1F04330510559F1A6
:104DD0006C297D298E299F294130510541F1289662
:104DE0000FB6F894DEBF0FBECDBFDF91CF911F91FC
:104DF0000F91FF90EF90DF90CF900C94732D6C2962
:104E00007D298E299F2928960FB6F894DEBF0FBE04
:104E1000CDBFDF91CF911F910F91FF90EF90DF9069
:104E2000CF900C94852D0E94732DC701B601289652
:104E30000FB6F894DEBF0FBECDBFDF91CF911F91AB
:104E40000F91FF90EF90DF90CF900C94612D603F19
:104E5000D9F128F480E4860F803250F09CC0623F84
:104E600009F461C008F44BC0633F09F470C093C0FB
:104E7000162F1071842F8F716887FF2059F00E94C0
:104E80000C2D6885862F112319F08295807F75CEB1
:104E90008F7073CE0E94272D6885862F112319F0FD
:104EA0008295807F01C08F7028960FB6F894DEBF80
:104EB0000FBECDBFDF91CF911F910F91FF90EF906B
:104EC000DF90CF900C940325FF20A9F0253008F047
:104ED000B2C0842F8F7128960FB6F894DEBF0FBE34
:104EE000CDBFDF91CF911F910F91FF90EF90DF9099
:104EF000CF900C94462D263008F09DC0EACFFF20BD
:104F0000A1F0842F8F7128960FB6F894DEBF0FBEE4
:104F1000CDBFDF91CF911F910F91FF90EF90DF9068
:104F2000CF900C940C2DFF2061F3842F8F71289665
:104F30000FB6F894DEBF0FBECDBFDF91CF911F91AA
:104F40000F91FF90EF90DF90CF900C94272DFF20D2
:104F500091F0842F8F7128960FB6F894DEBF0FBEA4
:104F6000CDBFDF91CF911F910F91FF90EF90DF9018
:104F7000CF900C94FD2C28960FB6F894DEBF0FBE90
:104F8000CDBFDF91CF911F910F91FF90EF90DF90F8
:104F9000CF900C94F82CFF20A1F0222309F4B1CF7C
:104FA000862F28960FB6F894DEBF0FBECDBFDF91D7
:104FB000CF911F910F91FF90EF90DF90CF900C94C5
:104FC0007024222309F4B1CF862F28960FB6F894C7
:104FD000DEBF0FBECDBFDF91CF911F910F91FF902C
:104FE000EF90DF90CF900C94D0244F70C8010E94B6
:104FF000290428960FB6F894DEBF0FBECDBFDF910F
:10500000CF911F910F91FF90EF90DF90CF900C9474
:10501000022C4F70C80128960FB6F894DEBF0FBE61
:10502000CDBFDF91CF911F910F91FF90EF90DF9057
:10503000CF900C94D10328960FB6F894DEBF0FBE24
:10504000CDBFDF91CF911F910F91FF90EF90DF9037
:10505000CF9008950E94812E0E94502E0E949D2E76
:105060000E9409320E94DB3080E090E00E94002321
:1050700080E090E00C942E230E94712E0C942A283C
:105080001F93CF93DF9300D000D01F92CDB7DEB730
:1050900049835A836B837C838D838C819D81892B8B
:1050A00031F05F3F11F010E003C04F3FE1F711E036
:1050B0001170C9F549815A816B817C818D810E9473
:1050C000982D482F292F22952F7030E02C30310554
:1050D0004CF42A303105C4F4225031092230310514
:1050E00040F024C02C303105D1F02F303105B9F01B
:1050F0001DC0853A28F48430C0F4823028F415C0ED
:1051000080E2840F883088F0483E30F4403E68F4F6
:105110004450413A58F409C0403F41F406C093FB63
:10512000112710F903C010E001C011E0812F0F908A
:105130000F900F900F900F90DF91CF911F910895D6
:10514000CF93DF9300D000D01F92CDB7DEB70F9082
:105150000F900F900F900F90DF91CF910895CF9304
:10516000DF9300D000D000D0CDB7DEB726960FB6C3
:10517000F894DEBF0FBECDBFDF91CF9108951F938E
:10518000CF93DF93C091500316E080915103C8176D
:1051900099F0D0E01C9FF0011D9FF00D1124EE5AF4
:1051A000FC4F4081518162817381848195810E948D
:1051B000AF282196C770E9CFDF91CF911F91089555
:1051C0004091820350918303609184037091850321
:1051D00080918603909187030C94AF28CF938091A0
:1051E000870382958F7009F05FC0809184038823C4
:1051F00009F45AC020915003A09151036091820399
:1052000070918303809185039091860331E06F3F15
:1052100009F030E0B32FC6E02A1709F445C0009723
:1052200021F07F3F21F44B2F03C041E001C040E05B
:1052300030E040FD35C0C29FF001C39FF00D112446
:10524000EE5AFC4F418174132BC04081641328C077
:105250004281411125C0438154814817590710F4F8
:1052600041505109481B590B483C5105C8F48091E5
:1052700087038F7080618093870386E0829FF001AF
:10528000839FF00D1124E95AFC4F80818F7080615B
:10529000808382E893E00E940A25CF910C94BF2876
:1052A0002F5F3F4F2770B8CFCF910895BF92CF9215
:1052B000DF92EF92FF920F931F93CF93DF93CDB7BF
:1052C000DEB761970FB6F894DEBF0FBECDBF8C017D
:1052D00085E0F801DE011D9601900D928A95E1F7B7
:1052E000D8014C9111965C9111971296CC9012971F
:1052F0001396ED90FC901497609182037091830354
:1053000020918503309186032115310531F07F3FCF
:1053100031F481E06F3F19F403C081E001C080E007
:10532000B82FB170BB2E80FD77C1D0908403DD20F3
:1053300009F4FBC0E0918703E216F30638F0C701D9
:10534000821B930B883C910548F0A0C020953095B6
:105350002E0D3F1D283C310508F098C08E2F807F10
:1053600009F053C0751314C0641312C0DC2CC110B3
:105370000FC0EF70E061E09387030E94E02882E8AD
:1053800093E00E940A2580918703F80185837CC100
:10539000E114F10431F05F3F31F481E04F3F19F443
:1053A00003C081E001C080E080FD03C081E08C2566
:1053B00001C080E0F82FF170DF2E80FF1CC08091CB
:1053C00050032091510336E0821709F436C190E072
:1053D000389FF001399FF00D1124EE5AFC4F618186
:1053E000561306C06081461303C06281C61203C013
:1053F00001968770E9CFDC2CCC2009F445C180915F
:10540000870381608093870358C0751308C06413B5
:1054100006C0C11004C0D8011596EC93B3C04D87E7
:105420005E87CF867E2DF98AE88A6C2D89890E9455
:105430004028882339F1DC2CCC2021F120918703EE
:10544000822F82958F7090E002970CF463C0809158
:1054500082039091830398878F831986FB86EA865F
:105460002C87CE01079654C0751749F14D875E878A
:10547000CF867E2DF98AE88A6C2D89890E94402882
:1054800081112FC0C8010E940A25A9C08E2F807FDC
:1054900059F77E2DF98AE88A6C2D89890E94A02807
:1054A00082E893E00E940A25E2E8F3E086E0DF016B
:1054B0001D928A95E9F70E94E028D12CE5C064137B
:1054C000D5CFC110D3CFD8011596EC93C8010E9457
:1054D0000A25E2E8F3E086E0DF011D928A95E9F70C
:1054E000D3C0DC2CCC2071F220918703822F8295CF
:1054F0008F7090E0029774F0809182039091830303
:105500009A8389831B82FD82EC822E83CE010196D1
:105510000E940A2586E0F801A2E8B3E001900D920E
:105520008A95E1F70E94EE2874C0E216F30628F08F
:10553000F701E21BF30B9F0104C0209530952E0D5F
:105540003F1D283C310508F056C0DC2CCC2009F466
:1055500099CF75132CC064132AC08091870380FDF6
:105560001DC0982F92959F70C9F0D80115968C9305
:1055700015979F3039F09F5F9295907F8F70892BA0
:1055800015968C93C8010E940A2586E0F801A2E8CE
:10559000B3E001900D928A95E1F73BC086E0F801F7
:1055A000A2E8B3E001900D928A95E1F76DC04D87B6
:1055B0005E87CF867E2DF98AE88A6C2D89890E94C4
:1055C0004028882379F086E0F801A2E8B3E0019052
:1055D0000D928A95E1F70E94EE280E94E028DD24D2
:1055E000D39452C080918703816080938703C80160
:1055F0000E940A2549C07E2DF98AE88A6C2D898986
:105600000E94A028E2E8F3E086E0DF011D928A957F
:10561000E9F70E94E02838C0CC2009F433CF4D8749
:105620005E87CF867E2DF98AE88A6C2D89890E9453
:105630004028882309F426CFC6CF7E2DF98AE88A30
:105640006C2D89890E94982D292F22952F7030E08A
:10565000223031052CF49F7041F0811106C00CC03E
:10566000243031052CF49F7049F4805E883020F09E
:10567000C8010E940A25BD2CDB2C06C0D801159656
:105680009C91907F91F7F8CF8D2D61960FB6F8948D
:10569000DEBF0FBECDBFDF91CF911F910F91FF9065
:1056A000EF90DF90CF90BF9008951F93CF93DF933B
:1056B000CDB7DEB72C970FB6F894DEBF0FBECDBFC7
:1056C0004F83588769877A878B879C87CE01079697
:1056D0000E9456298823C1F02F8138858A859B85B1
:1056E000892B31F03F3F11F080E003C02F3FE1F7FD
:1056F00081E0811147C04F81588569857A858B8506
:105700009C850E94AF283EC086E0FE013796DE01F0
:10571000119601900D928A95E1F7FF81E8854A85FF
:105720005B854115510531F0EF3F31F481E0FF3FDA
:1057300019F403C081E001C080E080FD23C0209106
:10574000510330E0C9010196877099276091500399
:1057500070E086179707F1F1F983EA835D834C8344
:1057600096E0929FD001939FB00D1124AE5ABC4F8A
:10577000FE01319601900D929A95E1F780935103C5
:105780000E94BF2816E08091500390915103891721
:1057900079F1189FC00111248E5A9C4F0E945629FE
:1057A000882331F1E09150031E9FF0011124EE5A3D
:1057B000FC4F4081518162817381848195810E9477
:1057C000AF288091500390E00196877099278093CD
:1057D0005003D9CF0E943C281092510310925003DD
:1057E000E2E8F3E086E0DF011D928A95E9F7CACF8F
:1057F0002C960FB6F894DEBF0FBECDBFDF91CF91D0
:105800001F910895DF92EF92FF920F931F93CF9312
:10581000DF939C01009709F48AC0E12CF12CDD2470
:10582000D394E9012196F9018491853709F462C086
:1058300058F4843708F04EC0843008F069C08130D5
:10584000D1F0823071F173C0883709F45CC050F434
:10585000863709F454C0873709F069C08E2D0E943D
:105860006E2E53C09CE7980F903708F060C08F777A
:105870000E94D0244FC089010E5F1F4FFE01C491CA
:1058800080E28C0F883048F4C7708D2D01C0880FDE
:10589000CA95EAF70E94742E15C08C2F0E947024BE
:1058A00013C089010E5F1F4FFE01C49180E28C0F6F
:1058B000883060F4C7708D2D01C0880FCA95EAF753
:1058C0000E947A2E0E949D2EE80124C08C2F0E94F7
:1058D000D024FACF2E5F3F4FFE01C491CC2341F07C
:1058E0008FE99FE00197F1F700C00000C150F6CFAB
:1058F000E90110C0FE01F490E90122960BC00E945C
:105900005E2EE82E07C00E94712E0E949D2E02C0BE
:105910000E9470249F2D992341F0EFE9FFE0319719
:10592000F1F700C000009150F6CF9E017ACFDF91D1
:10593000CF911F910F91FF90EF90DF9008956093AA
:1059400088047093890480938A0490938B040C9448
:10595000052F08950F931F9300918C0410918D04CF
:1059600020918E0430918F04602B712B822B932B0E
:1059700060938C0470938D0480938E0490938F04B5
:105980001F910F910C94042F0F931F9300918C047F
:1059900010918D0420918E0430918F046023712327
:1059A0008223932360938C0470938D0480938E04E0
:1059B00090938F041F910F910C94042F0F931F93BA
:1059C00000918C0410918D0420918E0430918F04ED
:1059D000602771278227932760938C0470938D042E
:1059E00080938E0490938F041F910F910C94042F39
:1059F00060E070E0CB010C949F2C41E050E060E04F
:105A000070E004C0440F551F661F771F8A95D2F7B8
:105A1000CB01BA010C949F2C41E050E060E070E0B3
:105A200004C0440F551F661F771F8A95D2F78091D7
:105A3000880490918904A0918A04B0918B04482B2A
:105A4000592B6A2B7B2BCB01BA010C949F2C41E084
:105A500050E060E070E004C0440F551F661F771FE0
:105A60008A95D2F7409550956095709580918804FD
:105A700090918904A0918A04B0918B044823592302
:105A80006A237B23CB01BA010C949F2C41E050E0A8
:105A900060E070E004C0440F551F661F771F8A95B1
:105AA000D2F78091880490918904A0918A04B091E2
:105AB0008B04482759276A277B27CB01BA010C940E
:105AC0009F2C0F931F9300918804109189042091BB
:105AD0008A0430918B04602B712B822B932B1F91A6
