:100000000C9417020C9469020C9469020C94690216
:100010000C9469020C9469020C9469020C946902B4
:100020000C9469020C9469020C94521C0C94241DCB
:100030000C94532A0C9469020C9469020C94690282
:100040000C9469020C9469020C9469020C94690284
:100050000C9469020C94F5090C9469020C946902E1
:100060000C9469020C9469020C9469020C94690264
:100070000C9469020C9469020C9469020C94690254
:100080000C9469020C9469020C9469020C94690244
:100090000C9469020C9469020C9469020C94690234
:1000A0000C9469020C9469020C946902911DB31DB1
:1000B000A61EB31DA61EF81D1B1EA61E701E831EA7
:1000C000EB20EB20152115217021A42194239423EA
:1000D000BB219423A622A6226C239423942381235C
:1000E0007500012C022C01E10133023302E1012DE4
:1000F000022D01E10127022702E1012802280075F3
:1001000000012802280128022801E1011002100242
:10011000E101190219010B020B0136023601280216
:100120002801E201620262015A025A015902590190
:100130005E025E02E2011C021C0116021601170299
:100140001701080208010C020C011102110128021A
:10015000280128022801E1010C020C010E020E0107
:100160000E020E01080208012C022C0116021601D3
:100170000802080111021101160216010C020C01FD
:10018000170217010C020C011902190117021702BC
:10019000E101280228015202520152025201520288
:1001A00052014D024D01E1014A024A02E100808004
:1001B00080800405060708090A0B0C0D0E0F1011AC
:1001C00012131415161718191A1B1C1D1E1F202197
:1001D00022232425262728292A2B2C2D2E2F303187
:1001E00032333435363738393A3B3C3D3E3F404177
:1001F00042434445464748494A4B4C4D4E4F505167
:1002000052535455565758595A5B5C5D5E5F606156
:1002100062636465666768696A6B6C6D6E6F707146
:100220007273808080808080808080808003020163
:100230008080808080750074767780808080808068
:1002400080808080808080808080808080808080AE
:10025000808080808080808080808080808080809E
:10026000808080808080808080808080808080808E
:10027000808080808080808080808080808080807E
:10028000808080808080808080808080808078797D
:100290007A7B7C7D7E7F8080808080808080808073
:1002A00080808080808080808080808080803C030F
:1002B000550053004200200074006F0020005500DC
:1002C0005300420020006B006500790062006F005F
:1002D000610072006400200063006F006E00760011
:1002E0006500720074006500720000000E03740067
:1002F0002E006D002E006B002E0000000403090488
:1003000009025400030100A03209040000010301A6
:1003100001000921110100012240000705810308A5
:10032000000A090401000103010200092111010072
:1003300001224D000705820308000A09040200019A
:100340000300000009211101000122360007058386
:100350000308000A1201100100000008EDFE5B0016
:1003600014080102000105010980A101850216811E
:100370000026B7001A81002AB70075109501810088
:10038000C0050C0901A1018503160100269C021A73
:1003900001002A9C02751095018100C00501090227
:1003A000A1010901A100050919012905150025016F
:1003B00095057501810295017503810105010930DB
:1003C00009311581257F9502750881060938158147
:1003D000257F950175088106050C0A3802158125CF
:1003E0007F950175088106C0C005010906A10105B8
:1003F0000719E029E7150025019508750181029587
:1004000001750881010508190129059505750191F6
:10041000029501750391010507190029FF150026B2
:10042000FF00950675088100C000B908490911242C
:100430001FBECFEFDAE0DEBFCDBF04B603FE27C09C
:1004400080919F049091A004A091A104B091A20476
:100450008730904BA740B04BD1F410929F0410927C
:10046000A0041092A1041092A20414BE84B7877F46
:1004700084BF0FB6F894A89580916000886180933E
:100480006000109260000FBEE0E0F8E3099511E013
:10049000A0E0B1E0ECEDFCE502C005900D92A23BBE
:1004A000B107D9F724E0A2EBB1E001C01D92AF394A
:1004B000B207E1F712E0C7E1D2E004C02197FE01E4
:1004C0000E94522EC531D107C9F70E94F4080C943E
:1004D0006C2E0C940000EF92FF920F931F93CF931A
:1004E000DF938C01F62ED42F0E94D829C82FFF202D
:1004F00029F081E0F81609F43FC066C0F801828156
:10050000882309F461C0C6FF2DC00E94EB2980E456
:100510000E94E8290E94152A21E030E08C2F827287
:1005200011F420E030E085E0829F7001839FF00CA1
:100530001124FAE0DF9FE00CF11C112400E010E030
:10054000F801EE0DFF1DED5EFE4F81810E949020AF
:100550000F5F1F4F0430110599F78C2F8F7B0E947E
:10056000E8292AC08AE0D89FF0011124ED5EFE4FF1
:1005700080810E94902020C0F8018281882391F020
:10058000C073C03231F0C033F9F0C031E9F082E01D
:1005900001C083E0DF91CF911F910F91FF90EF9009
:1005A0000C947B2861E070E080E090E00E94F428E9
:1005B0000E94EB290E94FB29DF91CF911F910F919F
:1005C000FF90EF900C94152ADF91CF911F910F911E
:1005D000FF90EF900895662319F0613041F00EC04E
:1005E000FC018281882351F08FEF90E00895FC0197
:1005F0008281882319F080EE90E0089580E090E0F9
:10060000089580E00895089580E0089581E00895B8
:10061000CF93DF93CDB7DEB728970FB6F894DEBF40
:100620000FBECDBFE22F29833A834B835C836D835A
:100630007E838F8398878091EA02E82BE093EA0219
:10064000FE013396AE01475F5F4F2191243088F061
:10065000ACEEB2E080E090E03D91311106C0DC01EB
:10066000A651BD4F12962C9304C001968630910579
:1006700099F7E417F50749F728960FB6F894DEBF07
:100680000FBECDBFDF91CF910895860F911D860FCC
:10069000911DFC015687458781E00895CF93DF9334
:1006A000EC018C819D81DC01ED91FC910480F58150
:1006B000E02D6E8109951F86188A81E08A8B1E8243
:1006C0001B8A1C8A1D8A1E8A1F8A80E0DF91CF91B7
:1006D0000895FC018681089581E0633009F080E08F
:1006E000089581E0613009F080E00895860F911D42
:1006F000860F911DFC01858596850895FC018789EB
:100700000895EF92FF92CF93DF93DC01E7015296B9
:100710008C915297823049F11F966C931F97509697
:100720004C9350979B8193709330F9F49A8197FF83
:100730001CC09E8158962C915897291718F45896EA
:100740009C935897E82FF0E09F01220F331FE20F90
:10075000F31FEA0FFB1F9A819F7097839C819087FC
:1007600094E091878F5F52968C93DF91CF91FF90A9
:10077000EF900895EF92FF920F9302970E948103EA
:100780000F91FF90EF9008950895DF92EF92FF92FE
:100790000F931F93CF93DF93CDB7DEB762970FB65A
:1007A000F894DEBF0FBECDBFDC0157962C912223FB
:1007B00081F07C010E945A09F70103891489258977
:1007C0003689DC01CB01801B910BA20BB30BB7FF69
:1007D00002C0D12C39C0838590E09A8B898B8E0121
:1007E0000F5F1F4F9E012F5E3F4F428566818481C0
:1007F00095810E942C12D82E811118C029893A891E
:100800002330310598F0D7011D968D919C911E974C
:10081000009761F0DC01ED91FC910190F081E02DF9
:100820008E010F5F1F4F40E0B70109950E945A09E2
:10083000F701208DDC01CB01820F911DA11DB11D9F
:10084000838B948BA58BB68B8D2D62960FB6F89407
:10085000DEBF0FBECDBFDF91CF911F910F91FF90F3
:10086000EF90DF9008953F924F925F926F927F9248
:100870008F929F92AF92BF92CF92DF92EF92FF92B0
:100880000F931F93CF93DF93CDB7DEB7EC970FB6DF
:10089000F894DEBF0FBECDBFDC0116963C9131113E
:1008A0003BC1522E342E462E5C01FC018480958083
:1008B000108ED401ED91FC910190F081E02D60E06B
:1008C000C40109957C01009711F486ED2AC1FC0151
:1008D000608071806114710409F420C16501F7E042
:1008E000CF0ED11CDC011196DC92CE9214965C9254
:1008F0008E01065D1F4F28E030E040E060E0F5012A
:10090000848195810E94EE0F8CAF8111F8C01AA5E9
:10091000D7016D927C92D401ED91FC910280F3811C
:10092000E02D232D40E0642DC4010995F501868357
:10093000882309F4F5C099A99087282F40E060E04A
:10094000848195810E9499108CAFD401ED91FC9126
:10095000D70114961C92882359F00480F581E02D6C
:10096000D50116966C91C4010995F5011682D2C085
:100970000190F081E02DD50116966C91C401099586
:10098000FC01892B09F4A1CF912F133108F092E1DA
:100990005482992369F0292F30E08E01065D1F4FA4
:1009A00040E0F5016681848195810E94EE0F8CAF55
:1009B0008CAD8111A7C04BAC512C4FE3842E41E08C
:1009C000942E3501F2E06F0E711C7E0181E1E80E7C
:1009D000F11C541449F19A8289827C826B821E86B2
:1009E000188A1F8619A21AA21BA219A6FF82EE82DC
:1009F000F986E8868D818B878A87FD86EC868E0155
:100A00000F5F1F4F252D40E0D50116966C9116976C
:100A100014968D919C9115970E943C10F501828946
:100A2000823011F05394D5CFD50152968C918230FB
:100A300019F081ED8CAF66C0960142E0F501668148
:100A4000848195810E94450B8CAF68EE73E080E055
:100A500090E00E945C09D5011F962C911F9740E001
:100A600016966C91169714968D919C9115970E94ED
:100A700007128CAF811146C068EE73E080E090E011
:100A80000E945C0940E060E0C5010E94FA138CAF4F
:100A9000811138C020E040E060E0C5010E94D01321
:100AA0008CAF85E491E09A838983AE014F5F5F4FFD
:100AB00060E070E0C5010E94601380E28CAF8CADF5
:100AC0008823C1F090E0959587958CAFFE01FC9648
:100AD0006F01EE24E394F12C00E022E040E060E0BE
:100AE000C5010E94A31369E170E080E090E00E94DC
:100AF0005C09E5CF91E0D50157969C9312C0F701B0
:100B000071826082D501ED91FC910480F581E02D28
:100B1000C50109958CAD05C089ED03C087ED01C005
:100B200084EDEC960FB6F894DEBF0FBECDBFDF911B
:100B3000CF911F910F91FF90EF90DF90CF90BF90DA
:100B4000AF909F908F907F906F905F904F903F906D
:100B50000895CF93DF936091EA017091EB01E091EA
:100B6000B901F091BA014091DE015091DF0120916D
:100B7000D2013091D3018091C6019091C7016E17C7
:100B80007F07B1F4E091B701F091B8014E175F070C
:100B900079F4E091B501F091B6012E173F0741F4C9
:100BA000E091B301F091B4018E179F0709F463C07F
:100BB0007093BA016093B9015093B8014093B701A3
:100BC0003093B6012093B5019093B4018093B301A3
:100BD000EAEEF2E088E0DF011D928A95E9F72091C4
:100BE000E2013091E3014091E4015091E50160910F
:100BF000E6017091E7018091E8019091E9010E947E
:100C000008032091D6013091D7014091D80150912D
:100C1000D9016091DA017091DB018091DC01909142
:100C2000DD010E9408032091CA013091CB0140915F
:100C3000CC015091CD016091CE017091CF01809196
:100C4000D0019091D1010E9408032091BE01309102
:100C5000BF014091C0015091C1016091C2017091EA
:100C6000C3018091C4019091C5010E94080381E0F5
:100C70008093E90202C01092E9020E94B309EC01DC
:100C800082E792E00E946312CE010E94CB0982E7C4
:100C900092E00E94250B9091B201891761F082E7E2
:100CA00092E00E94250B8093B201803921F40E94CA
:100CB000C41E0E94BB1F81E0DF91CF910895482F91
:100CC00080E1489F90011124205E310928303105D0
:100CD00038F49091EA02992319F0892F90E002C02C
:100CE00080E090E0ECEEF2E061E070E021912430F1
:100CF00070F0322F32953F70431309C02F70DB0123
:100D000002C0AA0FBB1F2A95E2F78A2B9B2BB2E0E9
:100D1000E23FFB0759F708950895CF92DF92EF92D3
:100D2000FF920F93CF93DF931F92CDB7DEB78983E6
:100D3000CE0101966C01EE24E394F12C00E022E058
:100D400040E060E087E392E00E94A31322E040E0ED
:100D500060E08EE192E00E94A31322E040E060E0B8
:100D600085E092E00E94A31322E040E060E08CEE78
:100D700091E00E94A3130F90DF91CF910F91FF900C
:100D8000EF90DF90CF900895FC01758364838BE42E
:100D900091E09183808389E691E093838283138A33
:100DA000148A158A168A178A178288E080878CE34E
:100DB00081871286138684E0848781E0828B118A82
:100DC00017861686158661157105B1F0DB01AA5AE2
:100DD000BF4F80E090E02D913D91232B49F48B96FD
:100DE000880F991FDB01A80FB91FED93FC9308959D
:100DF00001968031910579F708952E9A08952E98DD
:100E00008EBD0DB407FEFDCF1EBC0DB407FEFDCF99
:100E10000E94FD068EB508952E9882608EBD0DB499
:100E200007FEFDCF6EBD0DB407FEFDCF0C94FD0691
:100E300088EF0E94FF06807C8034A1F018F488239C
:100E400001F10895803819F0803CB9F0089588EDDB
:100E50000E94FF0681FD0BC069EC88ED0E940C0723
:100E600082E00CC088ED0E94FF0681FDF5CF6BEC9F
:100E700088ED0E940C0783E001C081E08093BB01F4
:100E8000089561ED88ED0E940C071092BB01089552
:100E90000F931F93CF93DF938C01269A0E94FD0638
:100EA000219A229A2398209A80E58CBD81E08DBDFD
:100EB000259868E188E80E940C0760E288E70E94B4
:100EC0000C0760E088E70E940C07C0E0D0E088E6ED
:100ED0000E94FF06219680FD06C0CF3F8FEFD80706
:100EE000B1F78FEF1DC061EC88ED0E940C0760E642
:100EF00080ED0E940C0764E088EE0E940C0788EEEB
:100F00000E94FF0682FFFBCFC8010E94180760E223
:100F100088EC0E940C0761E080E80E940C0780E0EA
:100F2000DF91CF911F910F91089582E792E00E9487
:100F3000480780EE91E0909345028093440284ED4F
:100F400091E090932C0280932B0288EC91E0909397
:100F50001302809312028CEB91E09093FA0180933C
:100F6000F9010895EF92FF920F931F93CF93DF93B0
:100F7000EC017B018A0188A1823029F128F48823C1
:100F800041F0813081F0C8C0833019F18430D9F14B
:100F9000C3C082E08C832D813E8138872F838A876E
:100FA000898781E088A3A801B701CE0107960E9436
:100FB000EB17811102C080E0B0C0ED81FE8180811D
:100FC00089A381818AA3CE0142969E838D8383E08B
:100FD00088A38AA1843059F018F4823049F00AC0FD
:100FE000853039F0813231F489A1825002C01BA2D0
:100FF00087E08C838D819E8198878F838C818A87FF
:10100000898784E088A38AA1843081F0853091F1BA
:10101000823009F050C0A801B701CE0107960E94A6
:10102000EB17882341F28D898CA371C0A801B70109
:10103000CE0107960E94EB17882309F4BCCF8D8957
:10104000833009F064C08E89813009F060C098A5B2
:101050008F89992321F0882309F459C003C0813076
:1010600009F055C091E09BA39A899EA39B899FA3F9
:101070008DA34DC0A801B701CE0107960E94EB17C2
:10108000882309F498CF8BA1882309F440C08A8172
:101090009B810097E1F1DC01ED91FC910190F081E1
:1010A000E02D7E01B0E1EB0EF11C0DA12FA14EA1B0
:1010B0006CA109952CC08D85882319F0813041F0F1
:1010C00021C089A190E002979F878E8781E08D875C
:1010D0008E859F850097A9F0F80120813181232B0F
:1010E00089F001979F878E87D7018D919C911197E9
:1010F00001968D939C938081918101979183808348
:10110000E7CF1D868E859F85892B09F054CFCE01B0
:1011100040969E838D8318A281E0DF91CF911F912D
:101120000F91FF90EF9008950F931F93CF93DF934C
:1011300000D000D0CDB7DEB78C017C836B835A839F
:1011400049838B819C81892B59F0AE014D5F5F4FA4
:10115000BE016F5F7F4FC8010E94B2078111F1CFBE
:101160000F900F900F900F90DF91CF911F910F91E3
:10117000089582E792E00E94F50A62E772E081E654
:1011800092E00E947E1662E772E080E592E00E94A3
:101190007E1662E772E087E392E00E94C40662E78F
:1011A00072E08EE192E00E94C40662E772E085E0A0
:1011B00092E00E94C40662E772E08CEE91E00E9429
:1011C000C4068FE691E09093E1018093E001909353
:1011D000D5018093D4019093C9018093C801909365
:1011E000BD018093BC010895569A5E9A8091870450
:1011F000816084608093870480E091E00E94BF1E3C
:101200000E94121F84B7877F84BF0FB6F894A895F9
:1012100080916000886180936000109260000FBE32
:1012200090E080E80FB6F89480936100909361009D
:101230000FBE0E94D71B0E94341C8091E200846084
:101240008093E20078940E94161FFDCF0F931F93A6
:10125000CF93DF93EC01DC01129688E0F801019056
:101260000D928A95E1F70E945A097B876A87DF9180
:10127000CF911F910F91089580E090E008958FEF36
:101280009FEF08950895862F0E94D61981E090E07F
:101290000895E2EFF2E01382128288EE93E0A0E07C
:1012A000B0E084839583A683B78385E791E091833B
:1012B000808308950C94BF098F929F92AF92BF9242
:1012C000CF92DF92EF92FF920E941A2D4B015C01A8
:1012D00020E030E04AE755E40E94D12D6B017C010B
:1012E00020E030E040E85FE30E94DF2C87FD24C06F
:1012F00020E03FEF4FE757E4C701B6010E94CC2D35
:101300001816ACF420E030E040E251E4C501B4012D
:101310000E94D12D0E94EB2C20E931E0611571056E
:1013200081F0C9010197F1F761507109F7CFC70149
:10133000B6010E94EB2C02C061E070E0CB01019786
:10134000F1F7FF90EF90DF90CF90BF90AF909F901C
:101350008F90089582E084BD93E095BD9AEF97BD8C
:1013600080936E0008952FB7F894809100039091B8
:101370000103A0910203B09103032FBF08952FB77B
:10138000F8946091000370910103809102039091A1
:1013900003032FBF0895CF92DF92EF92FF920F9336
:1013A0001F932FB7F894409100035091010360916F
:1013B0000203709103032FBF6A017B01EE24FF2417
:1013C0008C0120E030E0C016D106E206F30610F4EE
:1013D000415051099A01281B390BC9011F910F91E6
:1013E000FF90EF90DF90CF9008951F920F920FB66D
:1013F0000F9211248F939F93AF93BF93809100031B
:1014000090910103A0910203B09103030196A11DE5
:10141000B11D8093000390930103A0930203B09346
:101420000303BF91AF919F918F910F900FBE0F90CB
:101430001F901895CF93DF93FC01862F8078A9F435
:10144000283008F04DC0442321F09581973009F4ED
:1014500047C0EF01A1E0B0E09D85992341F01196CE
:101460002596A031B105C1F73BC080E039C06111BC
:101470001CC085E08A9FE0018B9FD00D1124CE0F08
:10148000DF1F442331F081E4888785818F5F858366
:1014900002C081E0888725E02A9FC0012B9F900D24
:1014A0001124E80FF91F80851BC06770660F660F57
:1014B000660F442341F0606485818F5F8583877068
:1014C000687F682B03C02770687B622B25E02A9F0A
:1014D000C0012B9F900D1124E80FF91F6087862F04
:1014E000DF91CF910895611102C006960895FC0125
:1014F00021E03585631739F02F5F35962031C9F724
:1015000080E090E00895069635E0239F800D911DC0
:1015100011240895DF92EF92FF920F931F93CF93C0
:10152000DF93EC01E62EF12C85E0689FB0011124D9
:10153000FE01E60FF71F8085182F177086FF17C072
:1015400001E085E0D82EFE01D09EE00DF11D1124B2
:10155000808586958695869587701817F9F00F5FB8
:10156000003189F78D81811302C011501D8385E000
:101570008E9DF0018F9DF00D1124EC0FFD1F108644
:1015800081E0818712862296D783C683DF91CF912F
:101590001F910F91FF90EF90DF900895602FCE0183
:1015A0000E948A0AD0CFFC01613499F49C01255B2A
:1015B0003F4F61E0AC014E5F5F4F1586668717862F
:1015C000548743873596E217F307B9F7FC01158274
:1015D000089521E03585631729F02F5F3596203176
:1015E000C9F70895622F0C948A0AFC0187E891E0FC
:1015F000918380831582108681E081871286CF01D6
:10160000029697838683128228E023832CE3248327
:10161000DF019F01255B3F4F41E01D961C921D9706
:101620001E964C931E971F961C921F971C969C9378
:101630008E931B971596A217B30779F7EA58FF4FB9
:10164000108281E180930803089580910803089532
:10165000CF93C42F0E94730A009789F0DC01ED91AB
:10166000FC911197309759F013969C9180E089175F
:1016700031F020812C1731F033968F5FF8CF80E066
:1016800090E001C0CF01CF9108950F931F93CF93A6
:10169000DF932115310571F0E901042F162F0E9407
:1016A000730AFC01892B41F01283D183C083038329
:1016B00080E003C088ED01C086EDDF91CF911F91DE
:1016C0000F910895CF92DF92FF920F931F93CF93C4
:1016D000DF93662381F1F62E8C016C0186E5C80E3E
:1016E000D11CC0E0D0E0D6018D919D916D01009795
:1016F000F1F0DC01ED91FC910084F185E02D09957C
:10170000F81215C0AB96CC0FDD1FC00FD11F88811A
:101710009981DC01ED91FC910480F581E02DDF9150
:10172000CF911F910F91FF90DF90CF900994219658
:10173000C031D105C1F680E0DF91CF911F910F91AB
:10174000FF90DF90CF9008952E980895CF93C82FE3
:101750000E94A40BCEBD0DB407FEFDCF1EBC0DB480
:1017600007FEFDCF0E94FD068EB5CF910895CF9361
:10177000DF93C82FD62F0E94A40BC260CEBD0DB43C
:1017800007FEFDCFDEBD0DB407FEFDCFDF91CF918B
:101790000C94FD068F929F92AF92BF92CF92DF92F0
:1017A000EF92FF920F931F93CF93DF93EC01D62E0E
:1017B000C42E59010E94730A7C01009709F445C0A8
:1017C000FC0180819181892B09F441C04C2D6D2D44
:1017D000CE010E94280BF501918380830097C9F107
:1017E000FC0182818695869590E08031910514F008
:1017F0008FE090E041E050E060E070E04A015B0182
:1018000004C0880C991CAA1CBB1C8A95D2F7D50170
:10181000C4010197F801918380836D2D80EE0E94B1
:10182000B70B88ED0E94A60BF7019481992331F044
:10183000CA58DF4F68816260682B02C0682F697FD9
:1018400088ED0E94B70B80E005C086ED03C087EDF0
:1018500001C08BEDDF91CF911F910F91FF90EF9021
:10186000DF90CF90BF90AF909F908F9008958F9210
:101870009F92AF92BF92CF92DF92EF92FF920F931F
:101880001F93CF93DF93862E942E59010E945A09FD
:101890006B017C0128E8C20E23E1D21EE11CF11C81
:1018A00000E010E0D0E0C0E098280E945A09DC0176
:1018B000CB018C199D09AE09BF09B7FF2DC0692D59
:1018C00080EF0E94B70B0E945A09DC01CB018C19F2
:1018D0009D09AE09BF09B7FF09C088EC0E94A60B9D
:1018E00087FFF1CF60E888EC0E94B70B88EF0E9479
:1018F000A60BC82FCF70C43019F0CE3051F00CC0F9
:101900000F5F1F4FA114B10481F20A151B0569F680
:1019100003C0DF5FD33049F68C2FDF91CF911F9149
:101920000F91FF90EF90DF90CF90BF90AF909F907E
:101930008F9008959F92AF92BF92CF92DF92EF92D5
:10194000FF920F931F93CF93DF937C01D42F122F1D
:10195000902E00E06C01C60ED11CC60ED11C86E58F
:10196000C80ED11CA42EB12CABE2AA0EB11CAA0C3D
:10197000BB1CAE0CBF1CF60180819181DC01ED9196
:10198000FC910280F381E02D292D412F6D2F0995C7
:10199000803EC9F4D1110BC061E088EE0E94B70B04
:1019A00066E670E080E090E00E945C0914C0F501FA
:1019B00080819181DC01ED91FC910284F385E02D21
:1019C000612F099508C08D3021F4033008F03FC025
:1019D00014C081113FC0F60180819181DC01ED913D
:1019E000FC910190F081E02D292D412F6D2F09955B
:1019F000C82F8D3051F4033050F464E670E080E07D
:101A000090E00E945C090F5FB6CF882311F1D111DD
:101A10000BC061E088EE0E94B70B66E670E080E0E4
:101A200090E00E945C0911C0ED2FF0E0BB96EE0F34
:101A3000FF1FEE0DFF1D80819181DC01ED91FC9176
:101A40000284F385E02D612F09958C2F03C08DE072
:101A500001C080E0DF91CF911F910F91FF90EF9037
:101A6000DF90CF90BF90AF909F9008950F931F93FA
:101A7000CF93DF93182F062FEA010E94A40B126068
:101A80001EBDFE01802F882339F00DB407FEFDCF67
:101A900091919EBD8150F7CFC00FD11D0DB407FEAF
:101AA000FDCF0E94FD06CE01DF91CF911F910F91D6
:101AB00008952F923F924F925F926F927F928F92F2
:101AC0009F92AF92BF92CF92DF92EF92FF920F93CD
:101AD0001F93CF93DF9300D000D01F92CDB7DEB716
:101AE0007D836C834A016901FB01F1808FEF8F0DCB
:101AF000803408F074C00E945A092B013C01F8E8B8
:101B00004F0EF3E15F1E611C711CEC81FD8182812F
:101B100080FD02C060E401C060E888EE0E94B70B5F
:101B2000312C8F2D90E09A838983C114D10409F45C
:101B300048C0E980FA80CE14DF0408F47601EB8215
:101B4000A8016E2D80E10E94360D6E2D88E30E9463
:101B5000B70BEC81FD816081606280EF0E94B70B62
:101B600088EC0E94A60B87FFFBCF60E888EC0E9400
:101B7000B70B88EF0E94A60B8F70382EA12CB12CCA
:101B8000212C332009F46BC00E945A09DC01CB01DF
:101B900084199509A609B709B7FF61C0F6E03F1699
:101BA00001F12EE0321609F455C084E0381209C064
:101BB000FFEFAF1ABF0A8114910449F1A814B904C8
:101BC00031F588EF0E94A60B85FB882780F9EC8110
:101BD000FD81928180FB90F99283832D45C08AED2F
:101BE00043C088EF0E94A60B85FB882780F991E00F
:101BF0008927EC81FD81928180FB90F9928390FD91
:101C000002C060E401C060E888EE0E94B70B60E0AB
:101C100088E30E94B70BF801608180E10E94B70B56
:101C20006B8188E30E94B70BEC81FD81608160626B
:101C300080EF0E94B70B88EC0E94A60B87FFFBCFBA
:101C400060E888EC0E94B70B88EF0E94A60B8F70AB
:101C5000382E97CF239423E02212D9CFB2CFCE18BB
:101C6000DF080E0D1F1D61CF0F900F900F900F908A
:101C70000F90DF91CF911F910F91FF90EF90DF9028
:101C8000CF90BF90AF909F908F907F906F905F901C
:101C90004F903F902F9008952F923F924F925F92D6
:101CA0006F927F928F929F92AF92BF92CF92DF926C
:101CB000EF92FF920F931F93CF93DF9300D000D04A
:101CC0001F92CDB7DEB73C017B015A83498369017E
:101CD000F901A080B180FB012180F90111821082FD
:101CE000FB01828181FD02C060E101C060E288EEFB
:101CF0000E94B70BAB8229813A81F701408160E0F5
:101D0000C3010E94370C582EF6E08F1315C088EFE0
:101D10000E94A60B8295817021E08227F7019281B3
:101D200080FB91F9928391FD02C060E101C060E205
:101D300088EE0E94B70BDFCF81115AC088EC0E9459
:101D4000A60B82FF53C080E30E94A60B482E90E0B2
:101D5000A816B90608F44B80F6018081918195019F
:101D6000281B390B3D832C8337FF02C01D821C8248
:101D7000842C912C8C819D818816990614F49D8267
:101D80008C823C800E94A40B98E09EBD0DB407FE9F
:101D9000FDCFF801332041F01EBC3A940DB407FE8C
:101DA000FDCF8EB58193F6CFEC81FD810E0F1F1F05
:101DB0000E94FD0664E088EC0E94B70BF60180816A
:101DC0009181880E991E91828082421420F08A149B
:101DD0009B0408F490CF88EF0E94A60B8295817037
:101DE000F701928180FB91F9928302C080EF582E17
:101DF000852D0F900F900F900F900F90DF91CF9146
:101E00001F910F91FF90EF90DF90CF90BF90AF9018
:101E10009F908F907F906F905F904F903F902F900A
:101E200008952F923F924F925F926F927F928F927E
:101E30009F92AF92BF92CF92DF92EF92FF920F9359
:101E40001F93CF93DF93CDB7DEB761970FB6F894AA
:101E5000DEBF0FBECDBF3C01D42E322E202EE98A2C
:101E60004EA05FA0E8A4F9A4188A1F861E861D86CE
:101E70008E01035F1F4F9E01215F3F4F0E94CA0BDF
:101E8000811193C039822A8289898B83CC82BE8258
:101E9000AD8298868F82AE014F5F5F4F68E080E22F
:101EA0000E94360D2D853E854D2D60E1C3010E94B7
:101EB000370C182F811175C0932D9078C92EE1141D
:101EC000F10409F45FC0EF85F8898281992309F450
:101ED0004AC0826082835401A114B10409F457C03E
:101EE0005C864B864D855E856F85788987019E016E
:101EF000255F3F4FC3010E944C0E182F863081F49E
:101F00002F84388888EF0E94A60B85FB882780F9EC
:101F1000A1E08A27F101928180FB91F99283DCCFC5
:101F200081113FC08AA59BA50097A1F0DC01ED912E
:101F3000FC9111970190F081E02DC4018A199B0951
:101F40009A8789876B857C859E01275F3F4FA70114
:101F5000CD0109958B859C85A81AB90A841595052C
:101F600008F0BACF0FC0816082834D855E858701FE
:101F70009201BF01C3010E94590D811116C02D8528
:101F80003E8511C02D853E85C11005C00CC01111C4
:101F900008C02D853E8560EA4D2DC3010E94370C97
:101FA00004C0812F02C060E8F7CF61960FB6F894A5
:101FB000DEBF0FBECDBFDF91CF911F910F91FF907C
:101FC000EF90DF90CF90BF90AF909F908F907F90D9
:101FD0006F905F904F903F902F9008958F929F92B7
:101FE000AF92BF92CF92EF920F931F931F921F92C7
:101FF0001F930F933F932F934901A12CB12CCC2415
:10200000C394E12C06E020E80E94110F0F900F907E
:102010000F900F900F900F901F910F91EF90CF9016
:10202000BF90AF909F908F9008958F929F92AF92A4
:10203000BF92CF92EF92FF920F931F921F92FF9247
:10204000EF923F932F934901A12CB12C22E0C22E95
:10205000E02E06E020E80E94110F0F900F900F90E5
:102060000F900F900F900F91FF90EF90CF90BF9037
:10207000AF909F908F9008954F925F926F927F9252
:102080008F929F92AF92BF92CF92DF92EF92FF9288
:102090000F931F93CF93DF93CDB7DEB7C054D10911
:1020A0000FB6F894DEBF0FBECDBF3C01D62E542E26
:1020B000422EC02ECE0101965C017C01022F29E048
:1020C00030E0C3010E94151081111BC08B809C80E1
:1020D0001F93CF92BF92AF921F9280E48F93A12C57
:1020E000B12C82E0C82EE42C06E020E8452D6D2DB1
:1020F000C3010E94110F0F900F900F900F900F903F
:102100000F90C05CDF4F0FB6F894DEBF0FBECDBF9F
:10211000DF91CF911F910F91FF90EF90DF90CF90C3
:10212000BF90AF909F908F907F906F905F904F90F7
:1021300008958F929F92AF92BF92CF92EF920F939A
:10214000CF931F921F921F921F921F921F92812C5A
:10215000912CA12CB12CC12CE22E05E020E00E9494
:10216000110FC82F6CE271E080E090E00E945C09E2
:102170000F900F900F900F900F900F908C2FCF918A
:102180000F91EF90CF90BF90AF909F908F90089558
:102190000F931F93CF93DF938A3F3FEF930711F481
:1021A00086ED2DC0DC011696ED91FC911797EF2B73
:1021B00009F1122F242FEC011A8740E00E941A0A1D
:1021C000082F8823C9F0682FCE010E94730A009758
:1021D00039F3FC011483202F40E060E0CE010E941F
:1021E0009910182F882351F0602FCE010E94D30A36
:1021F000812F05C087ED03C084ED01C080E0DF9131
:10220000CF911F910F9108952F923F924F925F921D
:102210006F927F928F929F92AF92BF92CF92DF92F6
:10222000EF92FF920F931F93CF93DF93CDB7DEB75B
:1022300066970FB6F894DEBF0FBECDBF1B8A38E09D
:102240003C8B3CE33D8B8A3F3FEF930709F464C02E
:10225000522E342E462E7C01DC011696CD90DC9059
:102260001797CE01439617969C938E9316971A96BE
:102270002C938E010F5F1F4F22E130E040E060E0C1
:10228000C7010E94EE0FF701D782C6828111A6C056
:1022900089849A846B847C84FD81FE8B2E80670107
:1022A00036E5C30ED11C560110E0D5018D919C91ED
:1022B0000097F1F1DC01ED91FC910084F185E02DB6
:1022C0000995811135C0F50180819181DC01ED9185
:1022D000FC910088F189E02D622D0995882341F158
:1022E000F50180819181DC01ED91FC910484F585FB
:1022F000E02DA301B4010995811110C0F501808181
:102300009181DC01ED91FC910684F785E02D6E89C9
:102310000995811103C00CC086ED60C0052D232DE9
:10232000442D612FC7010E949A0C813D09F056C0CF
:102330001F5FB2E0AB0EB11C103109F0B6CF10E058
:10234000F601808191810097E1F1DC01ED91FC9132
:102350000084F185E02D0995811133C0F60180815B
:102360009181DC01ED91FC910088F189E02D622DD5
:1023700009958823D9F0F60180819181DC01ED91E6
:10238000FC910484F585E02DA301B4010995811128
:1023900018C0F60180819181DC01ED91FC910684E9
:1023A000F785E02D6E89099581110BC0052D232D30
:1023B000442D612FC7010E949A0C982F977F913D61
:1023C00069F41F5FE2E0CE0ED11C103109F0B8CFE6
:1023D000252D432D642DC7010E94C81066960FB6A7
:1023E000F894DEBF0FBECDBFDF91CF911F910F914B
:1023F000FF90EF90DF90CF90BF90AF909F908F9025
:102400007F906F905F904F903F902F9008958F92A4
:102410009F92AF92BF92CF92EF920F931F921F9213
:102420001F921F921F921F92812C912CA12CB12CD4
:10243000C12CE22E09E020E00E94110F0F900F90B6
:102440000F900F900F900F900F91EF90CF90BF9043
:10245000AF909F908F900895AF92BF92CF92DF92EE
:10246000EF92FF920F931F93CF93DF9300D000D092
:10247000CDB7DEB77C01690158011C821B821A822C
:1024800019828E010F5F1F4F9E012D5F3F4F0E94EB
:10249000CA0B811109C049815A816B817C818501F8
:1024A0009601C7010E944C0E0F900F900F900F9055
:1024B000DF91CF911F910F91FF90EF90DF90CF9020
:1024C000BF90AF900895AF92BF92CF92DF92EF92FC
:1024D000FF920F931F93CF938C011D990EC088EC30
:1024E0000E94A60B85FF05C0C8010E94180760E284
:1024F00001C060E088EC0E94B70B8091BB01813085
:1025000039F040F0823079F0833039F5C1E00CC009
:1025100083E106C080910803807F8031F1F081E182
:10252000809308031AC0C0E080910803807F803147
:10253000A9F40E945A09DC01CB0188539F4FAF4F89
:10254000BF4F8093040390930503A0930603B093B9
:10255000070380E28093080301C0C0E0780186E5AC
:10256000E80EF11C6801A6E7CA0ED11C5701F5015F
:10257000819191915F01009739F0DC01ED91FC911F
:102580000680F781E02D0995AC14BD0481F7809198
:102590000803803409F43FC050F4803221F18033C5
:1025A000A1F1813109F082C0F60110820AC08135A3
:1025B00009F458C0803809F46AC0803509F076C043
:1025C00039C0D7018D919D917D01009739F0DC01D3
:1025D000ED91FC910480F581E02D0995EC14FD044A
:1025E00081F782E161C00E945A09009104031091B1
:1025F00005032091060330910703DC01CB01801B0A
:10260000910BA20BB30BB7FD51C061E088EE0E94A5
:10261000B70B80E449C088EE0E94A60B80FD46C03F
:1026200088ED0E94A60B682F686088ED0E94B70BAA
:1026300080E53AC088EC0E94A60B86FF37C081E592
:10264000809308030E945A09DC01CB014496A11D26
:10265000B11D8093040390930503A0930603B093E8
:10266000070324C00E945A09C0900403D0900503B8
:10267000E0900603F0900703DC01CB018C199D0963
:10268000AE09BF09B7FD12C080E8809308032C2F64
:1026900040E060E0C8010E940411882321F0823DDF
:1026A00029F080EA01C080E980930803CF911F914F
:1026B0000F91FF90EF90DF90CF90BF90AF90089573
:1026C0008F929F92AF92BF92CF92EF920F93CF9340
:1026D000DF93CDB7DEB7C054D1090FB6F894DEBF93
:1026E0000FBECDBF5F934F939E012F5F3F4F3F9330
:1026F0002F931F9220E42F9320E8822E912C5B01D0
:1027000032E2C32EE12C06E021E840E0FC016681C4
:10271000848195810E94110F0F900F900F900F9060
:102720000F900F90C05CDF4F0FB6F894DEBF0FBE66
:10273000CDBFDF91CF910F91EF90CF90BF90AF9031
:102740009F908F9008958F929F92AF92BF92CF9259
:10275000DF92EF92FF920F93A42EB12C1F921F9243
:10276000DF92CF92FF92EF924701C22EE02E09E056
:1027700021E2462FFC016681848195810E94110F20
:102780000F900F900F900F900F900F900F91FF9060
:10279000EF90DF90CF90BF90AF909F908F90089573
:1027A0008F929F92AF92BF92CF92EF920F93A62EED
:1027B000B12C1F921F921F921F921F921F92812C69
:1027C000912CC22EE42E0AE021E240E0FC01668159
:1027D000848195810E94110F0F900F900F900F90A0
:1027E0000F900F900F91EF90CF90BF90AF909F9070
:1027F0008F9008958F929F92AF92BF92CF92EF9257
:102800000F93A62EB12C1F921F921F921F921F9200
:102810001F92812C912CC12CE42E0BE021E240E090
:10282000FC016681848195810E94110F0F900F90A9
:102830000F900F900F900F900F91EF90CF90BF904F
:10284000AF909F908F900895FC018285089581E05C
:10285000693009F080E00895CF93DF93EC018A811D
:102860009B81DC01ED91FC910480F581E02D6A856E
:1028700009958A85813439F4EA81FB81EA58FF4F52
:102880008081846080831A861B861C861D861E8636
:102890001F86188A80E0DF91CF9108958F929F92D2
:1028A000AF92BF92CF92EF920F93A42EB12CB22A87
:1028B0001F921F921F921F921F921F92812C912C88
:1028C000C12CE62E01E023E240E0FC01628582811A
:1028D00093810E94110F0F900F900F900F900F9007
:1028E0000F900F91EF90CF90BF90AF909F908F90EF
:1028F00008958F929F92AF92BF92CF92EF920F93D3
:10290000A62EB12C1F921F923F932F935F934F934C
:102910004A01C12CE12C00E023EA40E0FC01628581
:10292000828193810E94110F0F900F900F900F9052
:102930000F900F900F91EF90CF90BF90AF909F901E
:102940008F9008958F929F92AF92BF92CF92EF9205
:102950000F93A42EB12CB22A1F921F921F921F9286
:102960001F921F92812C912CC12CE62E03E023E2B2
:1029700040E0FC016285828193810E94110F0F90DB
:102980000F900F900F900F900F900F91EF90CF90AE
:10299000BF90AF909F908F9008952F923F924F924B
:1029A0005F926F927F928F929F92AF92BF92CF92DF
:1029B000DF92EF92FF920F931F93CF93DF93CDB7E8
:1029C000DEB7E8970FB6F894DEBF0FBECDBFDC01CF
:1029D0001A963C91311107C1122F242E362E3C013C
:1029E000FC01C280D380D601ED91FC910190F08171
:1029F000E02D60E0C60109957C01009709F4F5C05F
:102A0000FC01A080B180A114B10409F4F0C043011D
:102A1000F4E08F0E911CDC0111969C928E9214961C
:102A20001C93FE0131962F018F0128E030E040E039
:102A300060E0D30112968D919C9113970E94EE0F46
:102A4000F70114828111D9C08D81893009F0D1C07C
:102A50000981D601ED91FC910280F381E02D222DB8
:102A600041E0632DC6010995F3018287882309F4AB
:102A7000C2C098859583282F40E060E082819381D1
:102A80000E949910182F882389F0D701AD92BC922B
:102A9000D601ED91FC910480F581E02DD3011A96C9
:102AA0006C91C6010995F3011286ABC0202F01324B
:102AB00008F020E2D701AD92BC9221110BC0940125
:102AC00042E0F3016285828193810E94450B81116E
:102AD00097C010C030E0820140E0D3011A966C919B
:102AE0001A9712968D919C9113970E94EE0F811167
:102AF00087C0E5CF1F921F925F924F921F9288E08E
:102B00008F9388E0882E912CA12CB12C99E2C92EAC
:102B1000E12C06E020EA40E0F301628582819381A6
:102B20000E94110F182F0F900F900F900F900F9081
:102B30000F90811166C08B81D3011B968C931B97DC
:102B4000720100E028E030E040E01A966C911A979C
:102B500012968D919C9113970E941510811150C06F
:102B60002B813C8140E0F3016285828193810E9448
:102B70001510811145C0298130E0CE0181967C017C
:102B800040E0D3011A966C911A9712968D919C9100
:102B900013970E941510811133C02E8140E0F3017C
:102BA0006285828193810E940712811129C001E010
:102BB000D3011B968C91801740F020E0402F68E0F5
:102BC000C3010E94A2140F5FF3CFD3011296ED91BF
:102BD000FC911397EA58FF4F80818460808381E0E5
:102BE00050968C930EC019ED0CC016ED0AC017ED6F
:102BF00008C011ED06C014ED04C0F701B182A08237
:102C0000182F812FE8960FB6F894DEBF0FBECDBF08
:102C1000DF91CF911F910F91FF90EF90DF90CF90B8
:102C2000BF90AF909F908F907F906F905F904F90EC
:102C30003F902F900895CF92DF92FF920F931F93B2
:102C4000CF93DF9300D000D0CDB7DEB78C01F62E46
:102C500019821A821B821C8220E0462F61E10E94A9
:102C60004E1420E04F2D60E1C8010E944E1420E078
:102C70004F2D64E0C8010E94A21483E0C82ED12C1D
:102C80009E012F5F3F4F44E050E06F2DC8010E942E
:102C900079148823F1F020E04F2D64E1C8010E94EF
:102CA0004E1420E04F2D60E1C8010E944E1464E1F3
:102CB00070E080E090E00E945C090F900F900F9010
:102CC0000F90DF91CF911F910F91FF90DF90CF90E8
:102CD000089589819A81AB81BC819D7F8330914029
:102CE000A041B105C1F264E670E080E090E00E948E
:102CF0005C0981E0C81AD10819F6CDCFFC0181E941
:102D000091E0918380837383628312861386148695
:102D1000158616861786108A148288E085839CE3C0
:102D2000968391E09783808784E0818761157105A0
:102D3000B1F0DB01AA5ABF4F80E090E02D913D91A8
:102D4000232B49F48B96880F991FDB01A80FB91F1D
:102D5000ED93FC93089501968031910579F70895DC
:102D6000EF92FF920F931F93CF938C01C62F7A019E
:102D7000FA0180819181A281B3818130F3E09F07C4
:102D8000F1E0AF07B105D1F060F48115E1E09E07F5
:102D9000AE07B10571F181309140A140B10571F0EC
:102DA00064C0833021E0920720E1A207B105E1F180
:102DB00083309340A041B105B9F157C08091090318
:102DC000811153C020E04C2F61E1C8010E944E14D4
:102DD00020E04C2F60E1C8010E944E1420E04C2FEF
:102DE00064E0C8010E94A21481E08093090381EB92
:102DF0003DC020E0462F61E1C8010E944E1420E052
:102E00004C2F60E1C8010E944E1410920903F80192
:102E100062856770C770660F660F660F6C2B8281C4
:102E200093810E94620B21C020E04C2F64E1C80115
:102E30000E944E1420E04C2F60E1C8010E944E1405
:102E400064E170E080E090E00E945C09F801628536
:102E5000F70121812695217067704C2FF80182813E
:102E600093810E9404111092090380E0CF911F9179
:102E70000F91FF90EF900895EF92FF920F931F93A1
:102E8000CF93DF93CDB7DEB72E970FB6F894DEBFA2
:102E90000FBECDBF7C0181E090E09E878D878E01C3
:102EA0000F5F1F4F9E01235F3F4F41E0F701628597
:102EB000828193810E942C12811151C002E011E0A5
:102EC00089818023D1F019861A861B861C869E0173
:102ED000275F3F4F44E050E0612FC7010E94791403
:102EE00081110BC0AE01475F5F4F612FC7010E9488
:102EF000B016813B99F1811132C0000F1F5F18306D
:102F0000F9F611E0F7018385811740F119861A86D9
:102F10001B861C869E01275F3F4F44E050E0612FD7
:102F2000C7010E947914811117C089859A8587701D
:102F300091708130914081F48B859C8581609C8764
:102F40008B87AE01475F5F4F612FC7010E94B016AC
:102F5000813B21F0811103C01F5FD4CF80E02E960A
:102F60000FB6F894DEBF0FBECDBFDF91CF911F919A
:102F70000F91FF90EF9008950F931F93CF93DF93DE
:102F8000FC012089211102C080E020C0EC010E94D8
:102F90005A090C851D852E853F85DC01CB01801BE0
:102FA000910BA20BB30BB7FDEFCFCE010E943C17E4
:102FB000182F0E945A09DC01CB018C599F4FAF4F4B
:102FC000BF4F8C879D87AE87BF87812FDF91CF91C1
:102FD0001F910F910895CF93DF93FC01EB01808146
:102FE0009181892B21F18281882319F1DA012D91B8
:102FF0003C91232BE1F0A881B9819C91A381B0E0A1
:10300000A81BB10920813181A20FB31F9C9382813B
:1030100081508283DA018D919C91119701978D9354
:103020009C9388819981019699838883DCCF80E085
:1030300003C08381828381E0DF91CF910895CF9295
:10304000DF92EF92FF920F931F93CF93DF936C0168
:10305000EB017B01E40EF51E00E010E0CE15DF056C
:1030600061F06991D601ED91FC910190F081E02D24
:10307000C6010995080F191FF1CFC801DF91CF9143
:103080001F910F91FF90EF90DF90CF900895809166
:1030900013030895CF93DF9300D01F92CDB7DEB70F
:1030A0009C0180919604843019F593E099833B83C9
:1030B0002A839093E9008FEF9091E800815095FD6D
:1030C00006C095ED9A95F1F700008111F5CF80913A
:1030D000E80085FF0DC040E050E063E070E0CE0105
:1030E00001960E94461A8091E8008E778093E8004E
:1030F0000F900F900F90DF91CF910895CF93DF93B2
:1031000000D01F92CDB7DEB720919604243021F570
:1031100022E029839B838A8383E08093E9008FEFF9
:103120009091E800815095FD06C095ED9A95F1F7D4
:1031300000008111F5CF8091E80085FF0DC040E0CF
:1031400050E063E070E0CE0101960E94461A809143
:10315000E8008E778093E8000F900F900F90DF913A
:10316000CF910895209196042430F1F422E0209329
:10317000E9002FEF3091E800215035FD06C035ED14
:103180003A95F1F700002111F5CF2091E80025FFD5
:103190000BC040E050E065E070E00E94461A80916C
:1031A000E8008E778093E8000895CF93DF93209115
:1031B0009604243039F521E02093E9002FEF309177
:1031C000E800215035FD06C035ED3A95F1F70000D5
:1031D0002111F5CF2091E80025FF14C0EC0140E05B
:1031E00050E068E070E00E94461A8091E8008E7717
:1031F0008093E80088E0FE01ABE0B3E001900D921F
:103200008A95E1F7DF91CF9108958091950481111E
:1032100009C00E94D71B0E94341C8091E200846088
:103220008093E2000895109295040895089542E075
:1032300061EC81E00E94501B42E061EC82E00E9460
:10324000501B42E061EC83E00C94501B8091980489
:10325000833009F453C030F4813071F0823009F4C6
:103260008CC008958A3009F478C08B3009F45EC0B0
:10327000893009F09AC020C080919704813A09F002
:1032800094C08091E800877F8093E80080919B0440
:1032900090919C04892B21F468E08BE093E003C0BB
:1032A00060E080E090E070E00E94911A8091E80078
:1032B0008B778093E800089580919704813209F01C
:1032C00074C080919B0490919C04892B09F06DC07F
:1032D0008091E800877F8093E8008091E80082FD7C
:1032E00005C0809196048111F8CF5FC08091F100F4
:1032F000809313038091E8008B7753C080919704EB
:10330000813A09F052C080919B0490919C04892BD2
:1033100009F04BC08091E800877F8093E80080919E
:10332000E80080FFFCCF80910A0136C080919704AD
:103330008132D9F580919B0490919C04892BA9F549
:103340008091E800877F8093E8000E94851B809130
:10335000990480930A010C94B423809197048132DC
:1033600021F58091E800877F8093E8000E94851B0B
:1033700080919A0480931403089580919704813A70
:10338000A1F48091E800877F8093E8008091E800B5
:1033900080FFFCCF809114038093F1008091E800BE
:1033A0008E778093E8000C94851B089580E0089543
:1033B0008091130380930A031092130380E00E940C
:1033C0008D060E94BD1F0C94B4230C94D8190E9442
:1033D0004F2A80910A038093130308950C94E719F0
:1033E000292F332723303105C9F060F4213031050E
:1033F00081F02230310509F041C084E590E020E001
:1034000033E040C021323105E1F02232310531F1A3
:1034100035C082E190E024E533E034C09927813063
:10342000910549F028F0029749F5EEEAF2E005C06F
:10343000ECEFF2E002C0ECEEF2E0849190E09F014C
:1034400021C06330D8F4E62FF0E0EE0FFF1FE45503
:10345000FE4F2081318189E090E014C0633070F428
:1034600070E0FB01EE0FFF1FEA55FE4F2081318116
:10347000FB01ED55FE4F808190E004C080E090E0BC
:1034800020E030E0FA01318320830895CF92DF926B
:10349000EF92FF920F931F93CF93DF93EC018B0179
:1034A0007A010E94A41B811133C0E114F10439F0A8
:1034B000F70180819181081B190BC80FD91FC12CFE
:1034C000D12C0115110519F18091E80085FD16C078
:1034D0008091E8008E778093E800E114F10449F0D0
:1034E000F70180819181C80ED91ED182C08285E00A
:1034F0000FC00E94A41B882321F30AC089918093E6
:10350000F10001501109FFEFCF1ADF0ADACF80E096
:10351000DF91CF911F910F91FF90EF90DF90CF90AF
:10352000089520919D0430919E042617370748F096
:103530006115710539F42091E8002E772093E80099
:1035400001C0B901FC0120E06115710579F180919C
:1035500096048823F1F18530F1F18091E80083FD34
:103560003CC08091E80082FD2EC08091E80080FF81
:10357000EBCF2091F3008091F20090E0922B611547
:10358000710551F08830910538F421912093F100B4
:10359000615071090196F3CF21E0089709F020E00E
:1035A0008091E8008E778093E800CECF2111CFCFB5
:1035B0000AC080919604882361F0853061F0809183
:1035C000E80083FD0AC08091E80082FFF2CF80E02E
:1035D000089582E0089583E0089581E008952091A0
:1035E0009D0430919E042617370748F06115710538
:1035F00039F42091E8002E772093E80001C0B9014A
:10360000FC0120E06115710591F1809196048823F9
:1036100009F440C0853009F43FC08091E80083FD83
:103620003DC08091E80082FD2FC08091E80080FFBE
:10363000E9CF2091F3008091F20090E0922B611588
:10364000710559F08830910540F424912093F100E0
:103650003196615071090196F2CF21E0089709F087
:1036600020E08091E8008E778093E800CBCF211195
:10367000CCCF0AC080919604882361F0853061F038
:103680008091E80083FD0AC08091E80082FFF2CFBC
:1036900080E0089582E0089583E0089581E0089530
:1036A000982F973068F59093E900981739F070914A
:1036B000EC002091ED005091F00003C0242F762FF4
:1036C00050E021FD02C09F5FECCF3091EB003E7FC8
:1036D0003093EB003091ED003D7F3093ED00309161
:1036E000EB0031603093EB007093EC002093ED0021
:1036F0005093F0002091EE0027FDE5CF80E0089583
:103700008F708093E90081E008958091970487FF8E
:1037100011C08091E80082FD05C08091960481115E
:10372000F8CF11C08091E8008B770BC08091960490
:10373000882349F08091E80080FFF8CF8091E8006D
:103740008E778093E80008952091E4003091E500A1
:1037500095E64091EC00842F817040FF23C080915A
:10376000E80080FD1DC080919604882399F0853083
:1037700099F08091EB0085FD11C04091E4005091DB
:10378000E5002417350729F3915011F09A01E1CF94
:1037900084E0089582E0089583E0089581E008952B
:1037A00080E008954091E80042FFDDCF08950E9437
:1037B000451C0E944D1CE0EEF0E08081816080831A
:1037C000E8EDF0E080818F77808319BCA7EDB0E051
:1037D0008C918E7F8C9380818F7E80831092950454
:1037E00008950F931F93CF93DF930E94451C0E946F
:1037F0004D1CC8EDD0E088818F77888388818068F0
:10380000888388818F7D888319BC109296041092DA
:103810009204109294041092930400EE10E0F801C8
:1038200080818B7F808388818160888342E060E033
:1038300080E00E94501BE1EEF0E080818E7F80836B
:10384000E2EEF0E080818160808380818860808307
:10385000F80180818E7F8083888180618883DF91F9
:10386000CF911F910F910895E8EDF0E080818F7E58
:103870008083E7EDF0E080818160808384E082BF17
:1038800081E0809395040C94F11BE8EDF0E08081D9
:103890008E7F80831092E20008951092DA001092D9
:1038A000E10008951F920F920FB60F9211242F93EB
:1038B0003F934F935F936F937F938F939F93AF93B8
:1038C000BF93EF93FF938091E10082FF0BC0809143
:1038D000E20082FF07C08091E1008B7F8093E100CE
:1038E0000E94BE1E8091DA0080FF1FC08091D80028
:1038F00080FF1BC08091DA008E7F8093DA00809178
:10390000D90080FF0DC080E189BD82E189BD09B485
:1039100000FEFDCF81E0809396040E94051905C04A
:1039200019BC109296040E9413198091E10080FF47
:1039300019C08091E20080FF15C08091E2008E7F67
:103940008093E2008091E20080618093E2008091A8
:10395000D80080628093D80019BC85E080939604DB
:103960000E94E5198091E10084FF30C08091E2005F
:1039700084FF2CC080E189BD82E189BD09B400FECD
:10398000FDCF8091D8008F7D8093D8008091E10099
:103990008F7E8093E1008091E2008F7E8093E20031
:1039A0008091E20081608093E200809192048823FC
:1039B00011F084E007C08091E30087FD02C081E040
:1039C00001C083E0809396040E94EE198091E1008B
:1039D00083FF29C08091E20083FF25C08091E10030
:1039E000877F8093E10082E0809396041092920496
:1039F0008091E1008E7F8093E1008091E2008E7FD4
:103A00008093E2008091E20080618093E20042E0D6
:103A100060E080E00E94501B8091F00088608093FD
:103A2000F0000E941619FF91EF91BF91AF919F9105
:103A30008F917F916F915F914F913F912F910F9057
:103A40000FBE0F901F9018951F920F920FB60F92F6
:103A500011242F933F934F935F936F937F938F9393
:103A60009F93AF93BF93CF93DF93EF93FF93C09157
:103A7000E900CF708091EC00D82FD17080FDD0E8A4
:103A80001092E9008091F000877F8093F000789495
:103A90000E94681D1092E9008091F0008860809378
:103AA000F000CD2BCF70C093E900FF91EF91DF9133
:103AB000CF91BF91AF919F918F917F916F915F91C6
:103AC0004F913F912F910F900FBE0F901F9018951F
:103AD0001F93CF93DF93CDB7DEB7AA970FB6F894B5
:103AE000DEBF0FBECDBFE7E9F4E08091F100819326
:103AF00024E0EF39F207C9F70E9426198091E80007
:103B000083FF24C18091970490919804492F50E03D
:103B10004A30510508F01AC1FA01EA5AFF4F0C94D5
:103B2000522E803881F0823809F010C180919B04B8
:103B30008F708093E9008091EB0085FB882780F9E6
:103B40001092E90006C08091930490919404911121
:103B500082609091E800977F9093E8008093F10055
:103B60001092F100C8C0282F2D7F09F0EFC08823E4
:103B700019F0823061F0EAC080919904813009F037
:103B8000E5C0933009F080E0809394042BC08091CD
:103B90009904811127C080919B048F7009F4D6C0CD
:103BA0008093E9002091EB0020FF1CC0933021F4AA
:103BB0008091EB00806214C09091EB009061909333
:103BC000EB0021E030E0A90102C0440F551F8A95A7
:103BD000E2F74093EA001092EA008091EB008860DF
:103BE0008093EB001092E9008091E800877F86C007
:103BF0008111ACC0109199041F778091E300807807
:103C0000812B8093E3008091E800877F8093E80018
:103C10000E94851B8091E80080FFFCCF8091E3002B
:103C200080688093E300111102C082E001C083E04C
:103C3000809396048BC08058823008F087C08091B2
:103C4000990490919A048C3D53E0950779F583E0AF
:103C50008A838AE289834FB7F894DE01139620E0C5
:103C60003EE051E2E32FF0E050935700E49120FF53
:103C700003C0E295EF703F5FEF708E2F90E0EA3067
:103C800010F0C79601C0C0968D939D932F5F24318D
:103C900049F74FBF8091E800877F8093E8006AE290
:103CA00070E0CE0101960E94911A14C0AE014F5FE0
:103CB0005F4F60919B040E94F019BC01892B09F4AD
:103CC00045C09091E800977F9093E80089819A81A0
:103CD0000E94EF1A8091E8008B778093E80036C04D
:103CE0008038A1F58091E800877F8093E80080917B
:103CF00092048093F1008091E8008E778093E80031
:103D00000E94851B23C0811121C08091990490914C
:103D10009A0499270297D4F48091E800877F8093D2
:103D2000E80080919904809392040E94851B809101
:103D30009204811106C08091E30087FD02C081E0FA
:103D400001C084E0809396040E9417198091E800D6
:103D500083FF0AC08091E800877F8093E80080910C
:103D6000EB0080628093EB00AA960FB6F894DEBF5A
:103D70000FBECDBFDF91CF911F910895089590930D
:103D80001A03809319030895E0911903F0911A031F
:103D9000309721F00190F081E02D099480E00895A2
:103DA000E0911903F0911A03309721F00280F3811A
:103DB000E02D09940895E0911903F0911A033097CA
:103DC00021F00480F581E02D0994089520911703D6
:103DD000309118032817390771F0909318038093D6
:103DE0001703E0911903F0911A03309721F0068030
:103DF000F781E02D09940895209115033091160361
:103E00002817390771F09093160380931503E091FA
:103E10001903F0911A03309721F00084F185E02D09
:103E2000099408950E94AA090C9495078F929F9275
:103E3000AF92BF92CF92DF92EF92FF920F931F93B8
:103E4000CF93DF9300D000D01F92CDB7DEB70E9492
:103E5000A9050CE113E0F12C8F2D0E945F064C01A7
:103E6000F801A080B180A826B926A114B10439F4C4
:103E7000F3940E5F1F4FF0E1FF12EECF39C0809137
:103E8000870481FD0E948C06E12CCC24C394D12CA4
:103E9000C5018C219D21892B21F1E982FA8221E043
:103EA000C4018C219D21892B09F420E02B830E94E1
:103EB000B3098160782F9D838C8349815A816B81FE
:103EC0008D810E94BE1F49815A816B817C818D81C9
:103ED0000E943C2AF801808191818C259D25918347
:103EE0008083E394CC0CDD1CF0E1EF12D1CFC0CF86
:103EF0008FEF89838A831B820E94B3098160782FA8
:103F00009D838C8349815A816B818D810E94BE1F64
:103F10000E943B2A0E942E2C0E94C41E90911B03DB
:103F20008917B9F00E94C41E80931B030F900F9055
:103F30000F900F900F90DF91CF911F910F91FF90F5
:103F4000EF90DF90CF90BF90AF909F908F900C94A8
:103F50004D2A0F900F900F900F900F90DF91CF91FF
:103F60001F910F91FF90EF90DF90CF90BF90AF9097
:103F70009F908F9008950C948D060895CF93DF93B2
:103F8000CDB7DEB72B970FB6F894DEBF0FBECDBF0F
:103F9000942F4F83252F588769877A878B874A8587
:103FA0005B85452B31F02F3F31F481E09F3F19F4C1
:103FB00003C081E001C080E080FD07C04F815885CB
:103FC00069857A858B850E943C2ADE01119686E000
:103FD000FD0111928A95E9F785E0FE01379601907F
:103FE0000D928A95E1F749815A816B817C818D819F
:103FF0009E810E94BF262B960FB6F894DEBF0FBE9F
:10400000CDBFDF91CF910895882309F45CC09CEF68
:10401000980F913A20F090E5980F9E3218F40E9484
:104020009D290DC090E2980F983058F4877091E068
:1040300001C0990F8A95EAF7892F0E94DB290C9419
:10404000152A9BE5980F933070F4853A29F0863A4B
:1040500031F083E890E005C081E890E002C082E89A
:1040600090E00C94E61E98E5980F953160F5883A3B
:1040700089F0893A91F08A3A99F08B3AA1F08C3A1A
:10408000A9F08D3AB1F08E3AB9F08F3AC1F080E0E4
:1040900090E017C082EE90E014C089EE90E011C06D
:1040A0008AEE90E00EC085EB90E00BC086EB90E0CE
:1040B00008C083EB90E005C084EB90E002C087EB82
:1040C00090E00C94FC1E0895882349F19CEF980F12
:1040D000913A20F090E5980F9E3218F40E94BA2988
:1040E0000DC090E2980F983058F4877091E001C0AD
:1040F000990F8A95EAF7892F0E94E1290C94152AD5
:104100009BE5980F933020F480E090E00C94E61E3D
:10411000885A853120F480E090E00C94FC1E0895CC
:10412000CF93C82F0E9404208C2FCF910C94642031
:10413000882321F00E94DB290C94152A08958823F6
:1041400021F00E94E1290C94152A0895CF92DF9264
:10415000EF92FF920F931F93CF93DF9300D000D085
:104160001F92CDB7DEB76C0185E0F601DE01119636
:1041700001900D928A95E1F7F601408151812381EA
:1041800034812115310531F05F3F31F491E04F3F2B
:1041900019F403C091E001C090E090FDC5C2F601A2
:1041A000F280E580E2948FE0E822722F3D832C8339
:1041B0006F2D8D810E9419298C010E9418290E945F
:1041C0001228E12FE295EF708E2F90E0FC01E05A6B
:1041D000FF4F0C94522E812F807F1F70882311F087
:1041E0001295107FFF2049F0112309F452C2812F4C
:1041F0000E94EE290E94152A4CC2802F0E94642042
:10420000112309F491C2812F0E94F4290F900F907D
:104210000F900F900F90DF91CF911F910F91FF9012
:10422000EF90DF90CF900C94152A812F807F1F7024
:10423000803211F01295107F002319F0013009F13E
:104240002BC0FF20A9F0EE2059F1F1E0812FEF12F1
:1042500028C00F900F900F900F900F90DF91CF918B
:104260001F910F91FF90EF90DF90CF900C94FE295B
:10427000EE2021F081E0E81609F456C20E94012ADE
:104280002DC0FF20E9F0E5E0EE1508F44DC20E94D4
:10429000D829812329F022C0FF20F1F0E11015C0B8
:1042A000812F0F900F900F900F900F90DF91CF9173
:1042B0001F910F91FF90EF90DF90CF900C9498207A
:1042C000F4E0FE1508F430C209C0F601858180FFD4
:1042D000E0C18F708583E4CFE110EEC1812F61C111
:1042E000812F86958695837019F08130B9F01CC2B4
:1042F000FF2019F0C801937002C080E090E00F9099
:104300000F900F900F900F90DF91CF911F910F9111
:10431000FF90EF90DF90CF900C94E61EFF2019F0F5
:10432000C801937002C080E090E00F900F900F9052
:104330000F900F90DF91CF911F910F91FF90EF9011
:10434000DF90CF900C94FC1E802FFF2019F00E946C
:10435000362B02C00E949E2B0F900F900F900F9053
:104360000F90DF91CF911F910F91FF90EF90DF9011
:10437000CF900C94232C812F837009F070C0F11022
:10438000D3C1202F229526952770220F220F602F50
:104390006F70862F90E0A0E0B0E06C017D01022EEE
:1043A00004C0CC0CDD1CEE1CFF1C0A94D2F704FFE9
:1043B00012C08FE090E0A0E0B0E004C0880F991F29
:1043C000AA1FBB1F2A95D2F7BC01CD01609570953D
:1043D0008095909503C060E070E0CB01169516952E
:1043E00013701230B1F040F56C297D298E299F2978
:1043F000113031F10F900F900F900F900F90DF91CF
:10440000CF911F910F91FF90EF90DF90CF900C9480
:104410002D286C297D298E299F290F900F900F90B0
:104420000F900F90DF91CF911F910F91FF90EF9020
:10443000DF90CF900C9447280E942D28C701B60129
:104440000F900F900F900F900F90DF91CF911F91D1
:104450000F91FF90EF90DF90CF900C941328FF20E6
:1044600019F0812F817001C08695882309F45CC101
:10447000202F229526952770220F220F602F6F7014
:10448000862F90E0A0E0B0E06C017D01022E04C018
:10449000CC0CDD1CEE1CFF1C0A94D2F704FF12C0EA
:1044A0008FE090E0A0E0B0E004C0880F991FAA1F41
:1044B000BB1F2A95D2F7BC01CD0160957095809500
:1044C000909503C060E070E0CB01169516951370CF
:1044D0001230B1F040F56C297D298E299F291130C9
:1044E00031F10F900F900F900F900F90DF91CF91BF
:1044F0001F910F91FF90EF90DF90CF900C94F428D4
:104500006C297D298E299F290F900F900F900F9075
:104510000F90DF91CF911F910F91FF90EF90DF905F
:10452000CF900C9406290E94F428C701B6010F9081
:104530000F900F900F900F90DF91CF911F910F91DF
:10454000FF90EF90DF90CF900C94E228003FC1F1F4
:1045500028F480E4800F803250F096C0023F09F4C6
:104560005EC008F449C0033F09F46CC08DC0F02F51
:10457000F071EF2E812F8F71FF2051F00E947B2868
:10458000802FEE2019F08295807F8BCE8F7089CEA0
:104590000E949C28802FEE2019F08295807F01C018
:1045A0008F700F900F900F900F900F90DF91CF9121
:1045B0001F910F91FF90EF90DF90CF900C949F2070
:1045C000FF20A9F084E08E1508F4AEC0812F8F7112
:1045D0000F900F900F900F900F90DF91CF911F9140
:1045E0000F91FF90EF90DF90CF900C94C128E5E001
:1045F000EE1508F499C0EACFFF2099F0812F8F7152
:104600000F900F900F900F900F90DF91CF911F910F
:104610000F91FF90EF90DF90CF900C947B28FF20BC
:1046200069F3812F8F710F900F900F900F900F9063
:10463000DF91CF911F910F91FF90EF90DF90CF907E
:104640000C949C28FF2089F0812F8F710F900F9080
:104650000F900F900F90DF91CF911F910F91FF90CE
:10466000EF90DF90CF900C9466280F900F900F90F2
:104670000F900F90DF91CF911F910F91FF90EF90CE
:10468000DF90CF900C946128FF2099F0EE2009F480
:10469000B5CF802F0F900F900F900F900F90DF915C
:1046A000CF911F910F91FF90EF90DF90CF900C94DE
:1046B0000420EE2009F4B5CF802F0F900F900F90BB
:1046C0000F900F90DF91CF911F910F91FF90EF907E
:1046D000DF90CF900C946420412F4F70602FC60163
:1046E0000E94EB020F900F900F900F900F90DF91B0
:1046F000CF911F910F91FF90EF90DF90CF900C948E
:104700006D27412F4F70602FC6010F900F900F90B3
:104710000F900F90DF91CF911F910F91FF90EF902D
:10472000DF90CF900C946B020F900F900F900F9032
:104730000F90DF91CF911F910F91FF90EF90DF903D
:10474000CF9008950E94FB290E94CA290E94152A31
:104750000E94D32C0E94232C80E090E00E94E61E51
:1047600080E090E00C94FC1E0E94EB290C94A223A4
:104770001F93CF93DF9300D000D01F92CDB7DEB749
:10478000942F4983252F5A836B837C838D834C819F
:104790005D81452B31F02F3F31F481E09F3F19F4CB
:1047A00003C081E001C080E0182F117080FD31C08E
:1047B00049815A816B817C818D810E941929292F21
:1047C00022952F702C3030F42A30A0F42250223061
:1047D00030F022C02C30C9F02F30B9F01DC0853A1E
:1047E00028F48430C0F4823028F415C090E2980F89
:1047F000983088F0883E30F4803E68F48450813AE6
:1048000058F409C0803F41F406C093FB112710F90A
:1048100003C010E001C011E0812F0F900F900F90A6
:104820000F900F90DF91CF911F910895CF93DF9359
:1048300000D000D01F92CDB7DEB70F900F900F9031
:104840000F900F90DF91CF910895CF93DF9300D019
:1048500000D000D0CDB7DEB726960FB6F894DEBFF5
:104860000FBECDBFDF91CF9108951F93CF93DF93FC
:10487000C0913C0316E080913D03C81799F0D0E049
:104880001C9FF0011D9FF00D1124E25CFC4F408144
:10489000518162817381848195810E9425242196B2
:1048A000C770E9CFDF91CF911F91089540916E03BA
:1048B00050916F0360917003709171038091720346
:1048C000909173030C942524CF9380917303829568
:1048D0008F7009F05FC080917003882309F45AC07B
:1048E00080913C03B0913D0370916E03A0916F03E2
:1048F000409171035091720391E07F3F09F090E085
:10490000692FC6E08B1709F445C04115510521F008
:10491000AF3F21F020E003C021E001C0262F90E04E
:1049200020FD35C0C89FF001C99FF00D1124E25C45
:10493000FC4F21812A132BC02081271328C02281FC
:10494000211125C0238134812417350710F421500B
:104950003109241B350B283C3105C8F42091730321
:104960002F7020612093730326E0289FF001299F78
:10497000F00D1124ED5BFC4F80818F70806180838E
:104980008EE693E00E94A620CF910C9435240196E8
:104990008770B8CFCF910895AF92BF92CF92DF9238
:1049A000EF92FF920F931F93CF93DF93CDB7DEB7B4
:1049B00061970FB6F894DEBF0FBECDBF7C0185E0D6
:1049C000F701DE011D9601900D928A95E1F7D7015E
:1049D0004C9111965C9111971296DC901297139658
:1049E0000D911C91149730916E0360916F0380912B
:1049F000710390917203009731F06F3F31F421E021
:104A00003F3F19F403C021E001C020E0B22FB17094
:104A1000BB2E20FD6EC1A0907003AA2009F4CCC06B
:104A2000209173030817190728F0F801E81BF90B08
:104A3000CF0104C080959095800F911FCC24C39422
:104A4000883C910580F0C12C207F09F0A1C0702F17
:104A5000198B088B6D2D89890E9416248EE693E0B0
:104A60000E94A620BDC0822F807F09F056C0561339
:104A700015C0431313C0CD2CD11010C02F7020616E
:104A8000209373030E9456248EE693E00E94A62092
:104A900080917303D70115968C935FC101151105A1
:104AA00031F05F3F31F481E04F3F19F403C081E002
:104AB00001C080E080FD03C081E08D2502C080E060
:104AC00090E0B82FB170CB2E80FF1CC080913C03CA
:104AD00020913D0336E0821709F41CC190E0389F15
:104AE000F001399FF00D1124E25CFC4F61815613F7
:104AF00006C06081461303C06281D61203C00196CE
:104B00008770E9CFCD2CDD2009F427C18091730394
:104B1000816080937303C12C20C1561308C04313D6
:104B200006C0D11004C080917303D701B6C04D8771
:104B30005E87DF86702F198B088B6D2D89890E9407
:104B4000B823882399F1DD2089F120917303822F06
:104B500082958F7090E0029774F080916E0390912F
:104B60006F0398878F8319861B870A872C87CE014E
:104B700007960E94A62086E0F701AEE6B3E001901A
:104B80000D928A95E1F70E9464240E94562411C078
:104B9000561781F14D875E87DF86702F198B088B42
:104BA0006D2D89890E94B823811138C0C7010E94E8
:104BB000A620CC24C394D1C00817190708F446C016
:104BC000F801E81BF90BCF01883C910508F443C0BC
:104BD000C12C702F198B088B6D2D89890E9416248A
:104BE000EEE6F3E086E0DF011D928A95E9F70E9488
:104BF0005624B3C04313CECFD110CCCF80917303D2
:104C0000F7018583C7010E94A62086E0EEE6F3E067
:104C1000DF011D928A95E9F7CA2C9FC0DD2031F291
:104C200020917303822F82958F7090E002970CF48D
:104C3000A2CF80916E0390916F039A8389831B8228
:104C40001D830C832E83CE01019693CF8095909582
:104C5000800F911FB9CFCD2CDD2009F4A7CF5613BB
:104C600033C0431331C02091730320FD24C0822F31
:104C700082958F70482F50E041155105E1F0D70122
:104C800015962C9315974F30510549F08F5F982F4B
:104C90009295907F822F8F70892B15968C93C701E8
:104CA0000E94A62086E0F701AEE6B3E001900D92E7
:104CB0008A95E1F79CCF86E0F701AEE6B3E001907C
:104CC0000D928A95E1F749C04D875E87DF86702F88
:104CD000198B088B6D2D89890E94B82381114BCFC8
:104CE00080917303816080937303C7010E94A620A3
:104CF00034C0DD2009F45ACF4D875E87DF86702FE0
:104D0000198B088B6D2D89890E94B823882309F49B
:104D10004DCF31CF702F198B088B6D2D89890E9453
:104D20001929292F22952F70223028F49F7039F0ED
:104D3000811105C00BC0243028F49F7049F4805EB7
:104D4000883020F0C7010E94A620BC2CCB2C05C0C7
:104D5000F7019581907F99F7F9CF8C2D61960FB669
:104D6000F894DEBF0FBECDBFDF91CF911F910F91A1
:104D7000FF90EF90DF90CF90BF90AF9008951F937A
:104D8000CF93DF93CDB7DEB72C970FB6F894DEBF85
:104D90000FBECDBF4F83588769877A878B879C87E3
:104DA000CE0107960E94CC248823D1F09F8188856C
:104DB0002A853B85232B31F08F3F31F481E09F3FE3
:104DC00019F403C081E001C080E080FD47C04F813D
:104DD000588569857A858B859C850E9425243EC0EF
:104DE00086E0FE013796DE01119601900D928A95BC
:104DF000E1F7FF81E8856A857B856115710531F0F2
:104E0000EF3F31F481E0FF3F19F403C081E001C0BE
:104E100080E080FD23C020913D0330E0C901019670
:104E20008770992740913C0350E084179507F1F172
:104E3000F983EA837D836C8396E0929FD001939FF0
:104E4000B00D1124A25CBC4FFE01319601900D9271
:104E50009A95E1F780933D030E94352416E08091F6
:104E60003C0390913D03891771F1189FC0011124F3
:104E7000825C9C4F0E94CC24882329F1E0913C0362
:104E80001E9FF0011124E25CFC4F40815181628140
:104E90007381848195810E94252480913C0390E058
:104EA00001968770992780933C03D9CF0E94B42341
:104EB00010923D0310923C03EEE6F3E086E0DF0142
:104EC0001D928A95E9F72C960FB6F894DEBF0FBEB7
:104ED000CDBFDF91CF911F910895DF92EF92FF92A6
:104EE0000F931F93CF93DF93FC01892B09F488C0A4
:104EF000E12CF12CDD24D394EF01219684918537A8
:104F000009F460C058F4843708F04EC0843008F0CB
:104F100068C08130D1F0823071F172C0883709F4F5
:104F20005BC050F4863709F453C0873709F068C076
:104F30008E2D0E94E82952C09CE7980F903708F008
:104F40005FC08F770E9464204EC08F010E5F1F4F9D
:104F5000FE01849190E2980F983050F48770FD2DF7
:104F600001C0FF0F8A95EAF78F2F0E94EE2915C026
:104F70000E94042014C08F010E5F1F4FFE01849118
:104F800090E2980F983068F48770FD2D01C0FF0FF4
:104F90008A95EAF78F2F0E94F4290E94152AE801CA
:104FA00022C00E946420FBCFCF010296FE01C49173
:104FB000CC2361F0EFE9FFE03197F1F700C000008A
:104FC000C150F6CFCF010296FE01F490EC010BC068
:104FD0000E94D829E82E07C00E94EB290E94152ABA
:104FE00002C00E9404208F2D882341F0EFE9FFE0EA
:104FF0003197F1F700C000008150F6CFFE017CCF61
:10500000DF91CF911F910F91FF90EF90DF90089566
:10501000609374047093750480937604909377047E
:105020000C944C2A08950F931F93009178041091CB
:10503000790420917A0430917B04602B712B822BB0
:10504000932B609378047093790480937A049093FF
:105050007B041F910F910C944B2A0F931F93009187
:1050600078041091790420917A0430917B046023B4
:10507000712382239323609378047093790480933F
:105080007A0490937B041F910F910C944B2A0F93F9
:105090001F93009178041091790420917A04309143
:1050A0007B0460277127822793276093780470938D
:1050B000790480937A0490937B041F910F910C9450
:1050C0004B2A60E070E0CB010C9408280F931F93EB
:1050D00041E050E060E070E08A019B0104C0000FF5
:1050E000111F221F331F8A95D2F7C901B8011F91E2
:1050F0000F910C9408280F931F9341E050E060E05B
:1051000070E004C0440F551F661F771F8A95D2F7C1
:105110008091740490917504A0917604B091770405
:105120008A019B01082B192B2A2B3B2BC901B801A3
:105130001F910F910C9408280F931F9341E050E0AA
:1051400060E070E004C0440F551F661F771F8A950A
:10515000D2F7409550956095709580917404909128
:105160007504A0917604B09177048A019B0108230D
:1051700019232A233B23C901B8011F910F910C94D5
:1051800008280F931F9341E050E060E070E004C0F6
:10519000440F551F661F771F8A95D2F780917404BC
:1051A00090917504A0917604B09177048A019B01D7
:1051B000082719272A273B27C901B8011F910F91FA
:1051C0000C9408280F931F93009174041091750498
:1051D0002091760430917704602B712B822B932BD6
:1051E0001F910F910C9408280F931F930091740442
:1051F0001091750420917604309177046023712317
:10520000822393231F910F910C9408280F931F93CF
:105210000091740410917504209176043091770404
:1052200060277127822793271F910F910C940828DC
:1052300008958F929F92AF92BF92DF92EF92FF926A
:105240000F931F93CF93DF9300D000D01F92CDB761
:10525000DEB76B837C838D838A018C819D81892B52
:1052600031F01F3F31F481E04F3F19F403C081E07A
:1052700001C080E080FF03C080E090E04DC08B81E2
:105280008823D1F18090740490907504A0907604E6
:10529000B09077048091780490917904A0917A0479
:1052A000B0917B04882A992AAA2ABB2A8FE1E82E8A
:1052B000F12CD501C4010E2C04C0B695A795979585
:1052C00087950A94D2F780FD06C081E0E81AF108BC
:1052D00080F7D12C07C0DE2CB8018E2D0E948B2ABE
:1052E000019799F380E1189FF0011124EC58FC4FCD
:1052F000E00FF11DD08209C080E1189FF001112458
:10530000EC58FC4FE00FF11DD08009831A836981AE
:105310007A818D2D0E948B2A0F900F900F900F9005
:105320000F90DF91CF911F910F91FF90EF90DF9041
:10533000BF90AF909F908F90089520910B01309176
:105340000C01F90132969FEF40E05191851789F0E9
:105350009F3F19F4511101C0942F4F5F4630A9F7B8
:105360009F3F39F0F901E90FF11D97FDFA9582830E
:1053700008950895E0910B01F0910C019F012A5FBF
:105380003F4F9281891301C012823196E217F307D1
:10539000C1F7089581E090E0E0910B01F0910C01DC
:1053A000E80FF91F1082019688309105A9F708953A
:1053B00080918604089590918604892B80938604B9
:1053C000089580959091860489238093860408959A
:1053D0008093860408951092860408959091850420
:1053E000892B809385040895809590918504892365
:1053F00080938504089510928504089580937C0419
:10540000089510927C04089580910B0190910C01F5
:10541000FC0131969C01285F3F4F80E091919111F2
:105420008F5FE217F307D1F70895E0910B01F09138
:105430000C01809186048083E0910B01F0910C01B6
:10544000908180918504892B808380917C048823BE
:1054500061F0E0910B01F0910C019081892B808328
:105460000E94042A811110927C0480910B0190917A
:105470000C010C94D01E0895CF93DF9300D000D080
:105480001F92CDB7DEB70F900F900F900F900F9037
:10549000DF91CF910895089508950C94BB1F0E9449
:1054A000BD1F0C94B4231F920F920FB60F921124BC
:1054B0008F939F93AF93BF9380918804811113C002
:1054C0008091000390910103A0910203B091030326
:1054D0004196A11DB11D8093000390930103A093F9
:1054E0000203B0930303BF91AF919F918F910F90EF
:1054F0000FBE0F901F901895E82FF0E080E1989F65
:10550000E00DF11D1124E255FE4F9491892F8F700B
:1055100092959F700895CF93C82FCB010E947C2A4B
:10552000E92F90E040E1E49F90011124282B392BD2
:105530002038310519F480E090E014C0E770F0E005
:1055400028E0C29FE00DF11D112424E0EE0FFF1FA3
:105550002A95E1F7E80FF91FEE0FFF1FE050F84919
:1055600085919491CF91089580918B0480FF0BC019
:105570006091100185E0689FB001112475956795D1
:10558000759567952BC081FF09C06091100185E07A
:10559000689FB00111247595679520C082FF07C0F0
:1055A0006091100185E0689FB001112417C09091AF
:1055B0008C049923D1F060910F01961788F7209100
:1055C000100185E0289F90011124929FA001939FD4
:1055D000500D112470E0CA010E943E2E6038710502
:1055E00040F46115710519F406C065E070E0862F7E
:1055F00008958FE7089581E0089580918B0480FFDE
:1056000008C060910E0170E0759567957595679576
:1056100021C081FF06C060910E0170E0759567950D
:1056200019C082FF04C060910E0170E010C090911B
:105630008C04992399F060910D019617A0F7809141
:105640000E01899FC001112470E00E943E2E603837
:10565000710540F46115710519F406C061E070E050
:10566000862F08958FE7089581E00895803F21F403
:105670000E94B42A819504C0813F29F40E94B42A73
:1056800080938F040895823F21F40E94B42A81956B
:1056900004C0833F29F40E94B42A80938E040895A5
:1056A000893F19F40E94FD2A05C08A3F31F40E9407
:1056B000FD2A81958093900408958B3F21F40E94E8
:1056C000FD2A819504C08C3F29F40E94FD2A809315
:1056D00091040895843F21F480918D04816017C066
:1056E000853F21F480918D04826011C0863F21F4B2
:1056F00080918D0484600BC0873F21F480918D04DC
:10570000886005C0883F31F480918D04806180936A
:105710008D0408958D3F21F480918B0481600BC02E
:105720008E3F21F480918B04826005C08F3F29F465
:1057300080918B04846080938B040895803F39F4BA
:1057400080918F0487FF6CC010928F0469C0813FE5
:1057500029F480918F041816BCF362C090918E04D6
:10576000823F29F497FF5CC010928E0459C0833F9A
:1057700019F41916CCF354C0893F41F48091900478
:1057800018160CF04DC0109290044AC08A3F29F4BC
:105790008091900487FF44C0F6CF8B3F39F480910D
:1057A000910487FF3DC0109291043AC08C3F29F4C8
:1057B000809191041816BCF333C0843F21F480918A
:1057C0008D048E7F17C0853F21F480918D048D7FDD
:1057D00011C0863F21F480918D048B7F0BC0873FE1
:1057E00021F480918D04877F05C0883F31F480913A
:1057F0008D048F7E80938D0413C08D3F21F48091A2
:105800008B048E7F0BC08E3F21F480918B048D7FA3
:1058100005C08F3F29F480918B048B7F80938B048C
:1058200080918E0481110EC080918F0481110AC075
:1058300080919004811106C080919104811102C071
:1058400010928C0408958DE894E00E94DB1E0E9463
:10585000B30990938A048093890408951F93CF938A
:10586000DF938091890490918A040E94CB09AC0156
:1058700090918C04992321F02091110130E006C011
:10588000209112018AE0289F9001112442175307AA
:1058900008F485C080918E04C0918F04D09190044B
:1058A00010919104811107C0C11175C0D11173C04D
:1058B000111171C074C09F3F19F09F5F90938C04C9
:1058C000181624F40E94B42A80938E0480918E04CA
:1058D00087FF05C00E94B42A819580938E041C1610
:1058E00024F40E94B42A80938F0480918F0487FF50
:1058F00005C00E94B42A819580938F0460918E0424
:10590000662331F1C0918F04CC2311F1062E000CD7
:10591000770B880B990B0E941C2D23E333E343E3A1
:105920005FE30E94D12D0E94E42C60938E046C2FC3
:10593000CC0F770B880B990B0E941C2D23E333E3CC
:1059400043E35FE30E94D12D0E94E42C60938F0417
:105950001D1624F40E94FD2A8093900480919004E7
:1059600087FF05C00E94FD2A81958093900411163F
:1059700024F40E94FD2A809391048091910487FF72
:1059800005C00E94FD2A819580939104DF91CF91FB
:105990001F910C94232C9F3F09F08FCFA0CFDF9154
:1059A000CF911F910895EDE8F4E085E0DF011D92AD
:1059B0008A95E9F710928C0410928B0408950E9446
:1059C000572D08F481E008950E94EB2C6894B111E2
:1059D0000C94C62D08950E94AB2D88F09F5798F027
:1059E000B92F9927B751B0F0E1F0660F771F881FE4
:1059F000991F1AF0BA95C9F714C0B13091F00E94FE
:105A0000C52DB1E008950C94C52D672F782F8827F8
:105A1000B85F39F0B93FCCF3869577956795B39524
:105A2000D9F73EF490958095709561957F4F8F4F93
:105A30009F4F0895E89409C097FB3EF49095809598
:105A4000709561957F4F8F4F9F4F9923A9F0F92F44
:105A500096E9BB279395F695879577956795B795C2
:105A6000F111F8CFFAF4BB0F11F460FF1BC06F5FA8
:105A70007F4F8F4F9F4F16C0882311F096E911C0BA
:105A8000772321F09EE8872F762F05C0662371F0DB
:105A900096E8862F70E060E02AF09A95660F771FEF
:105AA000881FDAF7880F9695879597F90895990FCB
:105AB0000008550FAA0BE0E8FEEF16161706E807D8
:105AC000F907C0F012161306E407F50798F0621BF9
:105AD000730B840B950B39F40A2661F0232B242BCE
