:100000000C9464050C94B6050C94B6050C94B605D6
:100010000C94B6050C94B6050C94B6050C94B60574
:100020000C94B6050C94B6050C949E210C94702289
:100030000C94A92F0C94B6050C94B6050C94B60537
:100040000C94B6050C94B6050C94B6050C94B60544
:100050000C94B6050C945E0E0C94B6050C94B60583
:100060000C94B6050C94B6050C94B6050C94B60524
:100070000C94B6050C94B6050C94B6050C94B60514
:100080000C94B6050C94B6050C94B6050C94B60504
:100090000C94B6050C94B6050C94B6050C94B605F4
:1000A0000C94B6050C94B6050C94B605DD22FF221F
:1000B000ED23FF22ED2344236723ED23BC23CF232D
:1000C000BF26BF26EC26EC26472783277B297B29E2
:1000D0009B277B299628962851297B297B296729EC
:1000E0002BA6F1A5F1A60000000000000000E20030
:1000F000E600000017081E021F0220022102220251
:1001000023021D011B010601190100000000040566
:1001100006160917070B0C11080F100E1C331413C9
:10012000150A18191A1B0D1D1E1F20212223242514
:10013000262728292AC02C2D2E2F30313212343573
:10014000363738C13A3B3C3D3E3F4041424344454F
:10015000464748494A4B4C4D4E4F505152535455C7
:10016000565758595A5B5C5D5E5F606162636465B7
:10017000A56768696A6B6C6D6E6F70717273747568
:10018000767778797A7B7C7D7EA8A9AA00000085A5
:10019000008788898A8B0000000090910000000091
:1001A000000000000000000000000000000000004F
:1001B000000000000000000000000000000000003F
:1001C000000000000000000000000000000000002F
:1001D000000000000000000000000000000000001F
:1001E00000000000000000000000E0E1C7E3E4E5DB
:1001F000C8E7000000000000000000000000000050
:1002000000000000000000000000000000000000EE
:1002100000000000000000000000000000000000DE
:1002200000000000000000000000000000000000CE
:1002300000000000000000000000000000000000BE
:1002400000000000000000000000000000000000AE
:10025000000000000000000000000000000000009E
:10026000000000000000000000000000000000008E
:10027000000000000000000000000000000000007E
:10028000000000000000000000000000000000006E
:10029000000000000000000000000000000000005E
:1002A000000000000000000000000000000000004E
:1002B000000000000000000000000000000000003E
:1002C000000000000000000000000000000000002E
:1002D000000000000000000000000000000000001E
:1002E000000000000000000000000000000000000E
:1002F00000000000000000000000000000000000FE
:1003000000000000000000000000000000000101EB
:1003100001010101010101010101010101010101CD
:1003200001010101010101010101010101010101BD
:1003300001010101010101010101010101010101AD
:10034000010101C2010101010101010101010101DC
:10035000010101010101010101010101010101018D
:10036000010101010101010101010101010101017D
:10037000010100000000000000000000000000007B
:100380000000000000000000000101010000000169
:100390000001010101010000000001010000000056
:1003A000000000000000000000000000000000004D
:1003B000000000000000000000000000000000003D
:1003C000000000000000000000000000000000002D
:1003D000000000000000000000000000000000001D
:1003E000000000000000000000000101E201010126
:1003F000E601000000000000000000000000000016
:1004000000000000000000000000000000000000EC
:1004100000000000000000000000000000000000DC
:1004200000000000000000000000000000000000CC
:1004300000000000000000000000000000000000BC
:1004400000000000000000000000000000000000AC
:10045000000000000000000000000000000000009C
:10046000000000000000000000000000000000008C
:10047000000000000000000000000000000000007C
:10048000000000000000000000000000000000006C
:10049000000000000000000000000000000000005C
:1004A000000000000000000000000000000000004C
:1004B000000000000000000000000000000000003C
:1004C000000000000000000000000000000000002C
:1004D000000000000000000000000000000000001C
:1004E000000000000000000000000000000000000C
:1004F00000000000000000000000000000000000FC
:1005000000000000000000000000000000000000EB
:1005100000000000000000000000000000000000DB
:1005200000000000000000000000000000000000CB
:1005300000000000000000000000000000000000BB
:1005400000000000000000000000000000000000AB
:10055000000000000000000000000000000000009B
:10056000000000000000000000000000000000008B
:10057000000000000000000000000000000000007B
:10058000000000000000000000000000000000006B
:10059000000000000000000000000000000000005B
:1005A000000000000000000000000000000000004B
:1005B000000000000000000000000000000000003B
:1005C000000000000000000000000000000000002B
:1005D000000000000000000000000000000000001B
:1005E000000000000000000000000000000000000B
:1005F00000000000000000000000000000000000FB
:100600000000000000000000000000000000E2F414
:10061000D3E1B8E0F14E5250514FF6F54D4C29B9A7
:10062000FAF04AD4F9D24BD13A3B3C3D3E3F4041EF
:1006300042434639482B284445294965BC2A65CAA6
:10064000F2F3FCC1B0ACABAFA8AAA9B2B7B6B5B4CF
:10065000464748494A4B4C4D4E4F505152535455C2
:10066000565758595A5B5C5D5E5F60616263FB651B
:10067000A567FDFEFFF7F80000A7000000007475F5
:10068000767778797A7B7C7D7EA8A9AA00000085A0
:10069000008788898A8B000000009091000000008C
:1006A000000000000000000000000000000000004A
:1006B000000000000000000000000000000000003A
:1006C000000000000000000000000000000000002A
:1006D000000000000000000000000000000000001A
:1006E00000000000000000000000E0E1C7E3E4E5D6
:1006F000C8E700000000000000000000000000004B
:10070000000000000000000000000000000050F4A5
:10071000D34F4D2A534E5D595A5B62365E574A4C51
:1007200051295CD452D24BD1CBCCCDCECFD05F604F
:10073000615528392AC0015601010131015801CA09
:10074000626354C2B0ACABBABBAAA9A6B7B3B5B486
:10075000464748494A4B4C4D4E4F505152535455C1
:10076000565758595A5B5C5D5E5F60616263016514
:10077000A56768696A6B6C6D6E6F70717273747562
:10078000767778797A7B7C7D7EA8A9AA000000859F
:10079000008788898A8B000000009091000000008B
:1007A0000000000000000000000000000000000049
:1007B0000000000000000000000000000000000039
:1007C0000000000000000000000000000000000029
:1007D0000000000000000000000000000000000019
:1007E00000000000000000000000E0E1C7E3E4E5D5
:1007F000C8E700000000000000000000000000004A
:10080000000000000000000000000A002530313622
:100810006200253032643A20000A722F63203031A2
:1008200032333435363738394142434445460A007D
:10083000686F73742E5461736B3A2025640A000D3F
:100840000A0020253032580073746174653A202004
:1008500025303258202530325800696E69743A20AC
:10086000646F6E650A000D0A002025303258006959
:100870006E7075742025643A20202530325820256A
:10088000303258005B575D005B535D005B525D008A
:100890005B445D005B435D003C0355005300420038
:1008A000200074006F00200055005300420020001B
:1008B0006B006500790062006F00610072006400E7
:1008C000200063006F006E00760065007200740007
:1008D0006500720000000E0374002E006D002E00F3
:1008E0006B002E00000004030904090274000401D7
:1008F00000A03209040000010301010009211101D7
:1009000000012240000705810308000A09040100D4
:100910000103010200092111010001224D00070518
:10092000820308000A0904020001030000000921F3
:10093000110100012236000705830308000A09049B
:10094000030002030000000921110100012222001E
:10095000070584032000010705040320000112019C
:10096000100100000008EDFE5B0014080102000108
:100970000631FF0974A1010975150026FF009520B5
:10098000750881020976150026FF009520750891EB
:1009900002C005010980A101850216010026B700E9
:1009A0001A01002AB700751095018100C0050C09D5
:1009B00001A1018503160100269C021A01002A9C50
:1009C00002751095018100C005010902A10109010C
:1009D000A1000509190129051500250195057501D5
:1009E00081029501750381010501093009311581E5
:1009F000257F95027508810609381581257F9501A7
:100A000075088106050C0A38021581257F95017548
:100A1000088106C0C005010906A101050719E029E2
:100A2000E71500250195087501810295017508817A
:100A300001050819012905950575019102950175B2
:100A40000391010507190029FF150026FF009506EF
:100A500075088100C00A002530325820006B657986
:100A6000626F6172645F7265706F72743A20004CDD
:100A700045443A20253032580A00290A00257500DD
:100A80002F002575005D28002564002000256400E6
:100A9000200025640020002564007C0025303258A9
:100AA000006D6F7573656B6579205B62746E7C7821
:100AB0002079207620685D287265702F61636C292B
:100AC0003A205B00B30CB20D11241FBECFEFDAE069
:100AD000DEBFCDBF04B603FE27C080918103909195
:100AE0008203A0918303B09184038730904BA74089
:100AF000B04BD1F4109281031092820310928303C1
:100B00001092840314BE84B7877F84BF0FB6F89415
:100B1000A8958091600088618093600010926000C9
:100B20000FBEE0E0F8E3099511E0A0E0B1E0E6E1F6
:100B3000FAE602C005900D92A039B107D9F723E07B
:100B4000A0E9B1E001C01D92A138B207E1F715E0BC
:100B5000C4E6D5E004C02197FE010E94EF34C236FE
:100B6000D107C9F70E94EE0C0C9409350C940000D3
:100B7000FF93EF93E0919001F0919101309709F08C
:100B80000995EF91FF910895FC018591803011F056
:100B9000EFDFFBCF0895FF27E0E230E247FF0CC014
:100BA000419597FF09C0EDE260957095809590950D
:100BB000611D711D811D911D27FF02C0219530E32C
:100BC00050E2AA27660F771F881F991FAA1FA41734
:100BD00010F0A41B63955A95A9F7AA3008F0A95FF5
:100BE000A05DAF93F395611571058105910541F7FE
:100BF000ED3211F4EF93F395F21718F43F93F39558
:100C0000FBCF8F91B5DFFA95E1F70895E991F9915E
:100C10008591803021F0853219F0AADFF9CF08954F
:100C200020E0E89455915532C1F3503311F46894A3
:100C300055915A3348F4505390F3220F022E220F4D
:100C4000220F200D250FF4CF0EF421958991999153
:100C5000533619F3533729F1533559F1BC0188271D
:100C60009927E8945C3621F489919991689455917B
:100C7000543639F446EF7EF077FF0DC08FEF9FEFCB
:100C80000AC055374AE039F0583540E121F0523674
:100C900042E009F00895FF93EF937DDFEF91FF911C
:100CA000B7CFFF93EF93FC0181918030B9F360DF00
:100CB000FBCFFF93EF9368DFF1CFDF93CF93CDB7F7
:100CC000DEB72596A3DFCF91DF910895E72FF0E0FF
:100CD00090E1899FE00DF11D112484E0EE0FFF1FCC
:100CE0008A95E1F7E60FF11DE65FFE4F84910895C6
:100CF000E82FF0E0EE0FFF1FE05AF040859194914D
:100D0000089580E00895089580E0089581E00895B1
:100D1000CF93DF93CDB7DEB728970FB6F894DEBF39
:100D20000FBECDBF29833A834B835C836D837E8363
:100D30008F8398878091C902282B2093C902FE01D6
:100D40003396AE01475F5F4F2191243088F080E0F9
:100D500090E0DC01A753BD4F12963C9112973111E0
:100D600003C012962C9304C001968630910589F732
:100D7000E417F50749F728960FB6F894DEBF0FBEC3
:100D8000CDBFDF91CF910895860F911D860F911DE4
:100D9000FC015687458781E00895CF93DF93EC01EE
:100DA0008C819D81DC01ED91FC910480F581E02D29
:100DB0006E8109951F86188A81E08A8B1E821B8AA4
:100DC0001C8A1D8A1E8A1F8A80E0DF91CF910895B8
:100DD000FC018681089581E0633009F080E0089588
:100DE00081E0613009F080E00895860F911D860F43
:100DF000911DFC01858596850895FC0187890895DC
:100E0000EF92FF92CF93DF93DC01E70152968C9132
:100E10005297823049F11F966C931F9750964C93CE
:100E200050979B8193709330F9F49A8197FF1CC07F
:100E30009E8158962C915897291718F458969C9390
:100E40005897E82FF0E09F01220F331FE20FF31FA6
:100E5000EA0FFB1F9A819F7097839C81908794E093
:100E600091878F5F52968C93DF91CF91FF90EF9097
:100E70000895EF92FF920F9302970E9400070F913F
:100E8000FF90EF9008950895DF92EF92FF920F93F5
:100E90001F93CF93DF93CDB7DEB762970FB6F89469
:100EA000DEBF0FBECDBFDC0157962C91222381F00F
:100EB0007C010E94C30DF7010389148925893689B5
:100EC000DC01CB01801B910BA20BB30BB7FF02C05F
:100ED000D12C39C0838590E09A8B898B8E010F5F6E
:100EE0001F4F9E012F5E3F4F428566818481958111
:100EF0000E94C516D82E811118C029893A8923303D
:100F0000310598F0D7011D968D919C911E97009701
:100F100061F0DC01ED91FC910190F081E02D8E01FA
:100F20000F5F1F4F40E0B70109950E94C30DF70105
:100F3000208DDC01CB01820F911DA11DB11D838B82
:100F4000948BA58BB68B8D2D62960FB6F894DEBF71
:100F50000FBECDBFDF91CF911F910F91FF90EF900A
:100F6000DF9008953F924F925F926F927F928F929F
:100F70009F92AF92BF92CF92DF92EF92FF920F9328
:100F80001F93CF93DF93CDB7DEB7EC970FB6F894EE
:100F9000DEBF0FBECDBFDC0114968D909C901597DF
:100FA00016963C91311139C1522E342E462E5C01D9
:100FB000FC01108ED401ED91FC910190F081E02DA7
:100FC00060E0C40109957C01009711F486ED2AC107
:100FD000FC01608071806114710409F420C1650115
:100FE000F7E0CF0ED11CDC011196DC92CE92149664
:100FF0005C928E01065D1F4F28E030E040E060E02B
:10100000F501848195810E9488148CAF8111F8C00C
:101010001AA5D7016D927C92D401ED91FC910280CA
:10102000F381E02D232D40E0642DC4010995F501E5
:101030008683882309F4F5C099A99087282F40E07A
:1010400060E0848195810E9433158CAFD401ED91CD
:10105000FC91D70114961C92882359F00480F581E5
:10106000E02DD50116966C91C4010995F501168203
:10107000D2C00190F081E02DD50116966C91C4018B
:101080000995FC01892B09F4A1CF912F133108F0A8
:1010900092E15482992369F0292F30E08E01065D98
:1010A0001F4F40E0F5016681848195810E9488147C
:1010B0008CAF8CAD8111A7C0EBACF12C47E1642E55
:1010C00041E0742E2501F2E04F0E511C4E0181E1EA
:1010D000880E911CFE1449F17A8269825C824B82EF
:1010E0001E86188A1F8619A21AA21BA219A69F8201
:1010F0008E82998688868D818B878A879D868C864D
:101100008E010F5F1F4F2F2D40E0D50116966C9179
:10111000169714968D919C9115970E94D614F501FF
:101120008289823011F0F394D5CFD50152968C91FB
:10113000823019F081ED8CAF66C0960142E0F50176
:101140006681848195810E94C20F8CAF68EE73E046
:1011500080E090E00E94C50DD5011F962C911F974D
:1011600040E016966C91169714968D919C91159768
:101170000E94A0168CAF811146C068EE73E080E03B
:1011800090E00E94C50D40E060E0C5010E94961805
:101190008CAF811138C020E040E060E0C5010E94C2
:1011A0006C188CAF8DE191E09A838983AE014F5F1B
:1011B0005F4F60E070E0C5010E94FB1780E28CAFDA
:1011C0008CAD8823C1F090E0959587958CAFFE019A
:1011D000FC966F01EE24E394F12C00E022E040E065
:1011E00060E0C5010E943E1869E170E080E090E097
:1011F0000E94C50DE5CF91E0D50157969C9312C092
:10120000F70171826082D501ED91FC910480F58136
:10121000E02DC50109958CAD05C089ED03C087EDB2
:1012200001C084EDEC960FB6F894DEBF0FBECDBFC3
:10123000DF91CF911F910F91FF90EF90DF90CF90B2
:10124000BF90AF909F908F907F906F905F904F90E6
:101250003F9008950F931F93CF93DF936091C9013F
:101260007091CA01E0919801F09199014091BD01FE
:101270005091BE012091B1013091B2018091A50140
:101280009091A6016E177F07B1F4E0919601F0915D
:1012900097014E175F0779F4E0919401F091950161
:1012A0002E173F0741F4E0919201F09193018E17C0
:1012B0009F0709F49DC07093990160939801509322
:1012C0009701409396013093950120939401909358
:1012D000930180939201E9ECF2E088E0DF011D9236
:1012E0008A95E9F72091C1013091C2014091C30173
:1012F0005091C4016091C5017091C6018091C701F0
:101300009091C8010E9488062091B5013091B601E4
:101310004091B7015091B8016091B9017091BA0143
:101320008091BB019091BC010E9488062091A90187
:101330003091AA014091AB015091AC016091AD0197
:101340007091AE018091AF019091B0010E9488062A
:1013500020919D0130919E0140919F015091A001EB
:101360006091A1017091A2018091A3019091A401CB
:101370000E94880681E08093C8028091690380FF03
:1013800014C08091CA021F928F938091C9021F924C
:101390008F9388E498E09F938F930E945D060F904F
:1013A0000F900F900F900F900F90C0E0D0E002E4EC
:1013B00018E08091690380FF0EC0FE01E753FD4FE6
:1013C00082811F928F931F930F930E945D060F904F
:1013D0000F900F900F902196C630D10551F7809154
:1013E000690380FF07C08FE398E00E94C40502C034
:1013F0001092C8020E941C0EEC0181E592E00E944E
:10140000FC16CE010E94340E8536910580F02091A5
:10141000690320FF0CC09F938F9380E398E09F9314
:101420008F930E945D060F900F900F900F9081E0B8
:10143000DF91CF911F910F910895482F50E0CA017D
:1014400024E0880F991F2A95E1F7805E910908979B
:1014500030F48091C902882311F090E002C080E04E
:1014600090E0EBECF2E0A1E0B0E036E03E0F21913D
:10147000243080F0622F62956F7070E04617570736
:1014800049F42F70BD0102C0660F771F2A95E2F75D
:10149000862B972B3E13EBCF0895EF92FF920F937D
:1014A0001F93CF93DF9389E198E00E94C405C0E0C9
:1014B000D0E082E1E82E88E0F82E0CE018E0DF931F
:1014C000CF93FF92EF920E945D068C2F0E941D0A1F
:1014D0000E94792F9F938F931F930F930E945D0615
:1014E0008AE098E00E94C40521968DB79EB70896C1
:1014F0000FB6F8949EBF0FBE8DBFC031D105F9F66F
:10150000DF91CF911F910F91FF90EF900895CF92AF
:10151000DF92EF92FF920F93CF93DF931F92CDB79D
:10152000DEB78983CE0101966C01EE24E394F12CA1
:1015300000E022E040E060E086E192E00E943E1898
:1015400022E040E060E08DEF91E00E943E1822E052
:1015500040E060E084EE91E00E943E1822E040E02E
:1015600060E08BEC91E00E943E180F90DF91CF91EC
:101570000F91FF90EF90DF90CF900895FC0175835D
:10158000648383E291E09183808381E491E093839B
:101590008283138A148A158A168A178A178288E02A
:1015A00080878CE381871286138684E0848781E0BC
:1015B000828B118A17861686158661157105B1F022
:1015C000DB01AA5ABF4F80E090E02D913D91232B83
:1015D00049F48B96880F991FDB01A80FB91FED9373
:1015E000FC93089501968031910579F708952E9A1C
:1015F00008952E988EBD0DB407FEFDCF1EBC0DB410
:1016000007FEFDCF0E94F70A8EB508952E988260DE
:101610008EBD0DB407FEFDCF6EBD0DB407FEFDCF30
:101620000C94F70A88EF0E94F90A807C8034A1F0BC
:1016300018F4882301F10895803819F0803CB9F03E
:10164000089588ED0E94F90A81FD0BC069EC88EDD0
:101650000E94060B82E00CC088ED0E94F90A81FD11
:10166000F5CF6BEC88ED0E94060B83E001C081E0B2
:1016700080939A01089561ED88ED0E94060B109207
:101680009A0108950F931F93CF93DF938C01269AAD
:101690000E94F70A219A229A2398209A80E58CBD0D
:1016A00081E08DBD259868E188E80E94060B60E224
:1016B00088E70E94060B60E088E70E94060BC1E005
:1016C000D0E0209799F088E60E94F90A219680FFE1
:1016D000F8CF61EC88ED0E94060B60E680ED0E9479
:1016E000060B64E088EE0E94060B02C08FEF11C06B
:1016F00088EE0E94F90A82FFFBCFC8010E94120BFC
:1017000060E288EC0E94060B61E080E80E94060B14
:1017100080E0DF91CF911F910F91089581E592E0D4
:101720000E94420B8FEB91E090932402809323025E
:1017300083EB91E090930B0280930A0287EA91E099
:101740009093F2018093F1018BE991E09093D9019C
:101750008093D8010895EF92FF920F931F93CF9338
:10176000DF93EC017B018A0188A1823029F128F402
:10177000882341F0813081F0C9C0833019F1843071
:10178000D9F1C4C082E08C832D813E8138872F83BC
:101790008A87898781E088A3A801B701CE010796CF
:1017A0000E94881C811102C080E0B1C0ED81FE81E1
:1017B000808189A381818AA3CE0142969E838D83F5
:1017C00083E088A38AA1843059F018F4823049F06C
:1017D0000AC0853039F0813231F489A1825002C0CB
:1017E0001BA287E08C838D819E8198878F838C815B
:1017F0008A87898784E088A38AA1843081F0853034
:1018000091F1823009F050C0A801B701CE010796CE
:101810000E94881C882341F28D898CA372C0A80184
:10182000B701CE0107960E94881C882309F4BCCF1B
:101830008D89833009F065C08E89813009F061C0DF
:1018400098A58F89992321F0882309F45AC003C0F1
:10185000813009F056C091E09BA39A899EA39B8991
:101860009FA38DA34EC0A801B701CE0107960E9489
:10187000881C882309F498CF8BA1882309F441C0E0
:101880008A819B810097E9F1DC01ED91FC91019047
:10189000F081E02D7E01B0E1EB0EF11C0DA12FA136
:1018A0004EA16CA109952DC089A19D85992319F0A0
:1018B0009130E9F021C090E002979F878E8781E008
:1018C0008D8715C0F80120813181232BA9F0019764
:1018D0009F878E87F7018081918101969183808314
:1018E000D8018D919C91119701978D939C938E8532
:1018F0009F85009739F71D868E859F85892B09F076
:1019000053CFCE0140969E838D8318A281E0DF9154
:10191000CF911F910F91FF90EF9008950F931F9318
:10192000CF93DF9300D000D0CDB7DEB78C017C839E
:101930006B835A8349832B813C81232B59F0AE0161
:101940004D5F5F4FBE016F5F7F4FC8010E94AB0BC1
:101950008111F1CF0F900F900F900F90DF91CF91E9
:101960001F910F91089581E592E00E946D0F61E54E
:1019700072E080E492E00E941B1B61E572E08FE25E
:1019800092E00E941B1B61E572E086E192E00E94FA
:10199000BE0A61E572E08DEF91E00E94BE0A61E54A
:1019A00072E084EE91E00E94BE0A61E572E08BEC89
:1019B00091E00E94BE0A87E491E09093C001809379
:1019C000BF019093B4018093B3019093A8018093D9
:1019D000A70190939C0180939B010895569A5E9A6B
:1019E00080916903816084608093690380E091E065
:1019F0000E9405240E94962484B7877F84BF0FB677
:101A0000F894A8958091600088618093600010929E
:101A100060000FBE90E080E80FB6F89480936100FC
:101A2000909361000FBE0E9423210E94802180912B
:101A3000E20084608093E20087EE9CE10E945E2FCA
:101A40007894809178038430E1F78091690380FF76
:101A500009C02FEF83ED90E3215080409040E1F7E3
:101A600000C000008091690380FF04C08AE598E00F
:101A70000E94C4050E949A24FDCFEF92FF920F931B
:101A80001F93CF93DF93EC017B01DC01129688E07A
:101A9000F80101900D928A95E1F70E94C30D7B87B2
:101AA0006A878091690380FF1EC00B811A81D7016C
:101AB000ED91FC910084F185E02DC70109951F92FD
:101AC0000F931F921F931F928F938FE698E09F931F
:101AD0008F930E945D068DB79EB708960FB6F89457
:101AE0009EBF0FBE8DBF249616E089E6E82E88E0E3
:101AF000F82E8091690380FF0BC088811F928F931D
:101B0000FF92EF920E945D060F900F900F900F9042
:101B1000115021961111EDCF8091690380FF0AC009
:101B200086E698E0DF91CF911F910F91FF90EF90A3
:101B30000C94C405DF91CF911F910F91FF90EF900E
:101B40000895089580E090E008958FEF9FEF089545
:101B50008FEF9FEF08950895862F0E94E71C81E084
:101B600090E00895E1EDF2E01382128288EE93E0B6
:101B7000A0E0B0E084839583A683B7838DE491E0F1
:101B80009183808308950C94280E8F929F92AF9238
:101B9000BF92CF92DF92EF92FF920E94AB334B0144
:101BA0005C0120E030E04AE755E40E9462346B01BA
:101BB0007C0120E030E040E85FE30E94703387FD65
:101BC00024C020E03FEF4FE757E4C701B6010E9471
:101BD0005D341816ACF420E030E040E251E4C50179
:101BE000B4010E9462340E947C3320E931E0611527
:101BF000710581F0C9010197F1F761507109F7CFC3
:101C0000C701B6010E947C3302C061E070E0CB01E5
:101C10000197F1F7FF90EF90DF90CF90BF90AF90DA
:101C20009F908F90089582E084BD93E095BD9AEFD8
:101C300097BD80936E0008952FB7F8948091DF02CE
:101C40009091E002A091E102B091E2022FBF0895CD
:101C50002FB7F8946091DF027091E0028091E10269
:101C60009091E2022FBF0895CF92DF92EF92FF9200
:101C70000F931F932FB7F8944091DF025091E00229
:101C80006091E1027091E2022FBF6A017B01EE24B4
:101C9000FF248C0120E030E0C016D106E206F306F6
:101CA00010F4415051099A01281B390BC9011F91A9
:101CB0000F91FF90EF90DF90CF9008951F920F92B9
:101CC0000FB60F9211248F939F93AF93BF93809180
:101CD000DF029091E002A091E102B091E202019650
:101CE000A11DB11D8093DF029093E002A093E10259
:101CF000B093E202BF91AF919F918F910F900FBE71
:101D00000F901F901895CF93DF93FC01862F80785A
:101D100009F051C0283008F04FC0442321F09581CC
:101D2000973009F449C0EF012D96A0E0B0E011967C
:101D30009881911103C0662331F021C02596AF3000
:101D4000B105A9F739C085E08A9FE0018B9FD00DCE
:101D50001124CE0FDF1F442331F081E48887858171
:101D60008F5F858302C081E0888725E02A9FC001BC
:101D70002B9F900D1124E80FF91F80851DC06770FF
:101D8000660F660F660F442341F0606485818F5FA4
:101D900085838770687F682B03C02770687B622B00
:101DA00025E02A9FC0012B9F900D1124E80FF91FF9
:101DB0006087862F01C080E0DF91CF910895DF9288
:101DC000EF92FF920F931F93CF93DF93EC01E62ED8
:101DD000F12C85E0689FB0011124FE01E60FF71F8A
:101DE0008085182F177086FF21C001E085E0D82E6E
:101DF0008FEF800F8F3008F001E0FE01D09EE00DE4
:101E0000F11D1124808586958695869587708113AE
:101E100005C0602FCE010E94DF0EEACF0F5F0031B8
:101E200061F78D81811302C011501D8385E08E9D65
:101E3000F0018F9DF00D1124EC0FFD1F108681E045
:101E4000818712862296D783C683DF91CF911F9117
:101E50000F91FF90EF90DF900895611102C00696F8
:101E60000895FC013D9621E03081361307C035E02E
:101E7000239F800D911D1124069608952F5F35969E
:101E8000203191F780E090E00895FC016134C1F4C5
:101E90003F969C01265A3F4F61E0AC014E5F5F4F79
:101EA000DF0112971C9211966C93108213974D9339
:101EB0005C933596E217F30799F7FC0115820895B4
:101EC0003D9621E03081361303C0622F0C94DF0E63
:101ED0002F5F35962031B1F70895CF93DF93FC0142
:101EE0008FE591E0918380831582108681E0818760
:101EF0001286CF01029697838683128228E023837D
:101F00002CE32483DF011F969F01265A3F4F41E0B7
:101F1000ED0122971882219648831C92239799837A
:101F200088831596A217B30799F7EA58FF4F1082D6
:101F300081E18093E702DF91CF910895CF93DF9302
:101F40001F92CDB7DEB749830E942D0F49810097BC
:101F500089F0DC01ED91FC911197309759F01396BF
:101F60009C9180E0891731F02081241731F033965D
:101F70008F5FF8CF80E090E001C0CF010F90DF913C
:101F8000CF9108950F931F93CF93DF9321153105C0
:101F900071F0E901042F162F0E942D0FFC01892BEF
:101FA00041F01283D183C083038380E003C088EDB6
:101FB00001C086EDDF91CF911F910F910895CF92CF
:101FC000DF92FF920F931F93CF93DF93662381F1EC
:101FD000F62E8C016C0186E5C80ED11CC0E0D0E065
:101FE000D6018D919D916D010097F1F0DC01ED918D
:101FF000FC910084F185E02D09958F1115C0AB96F9
:10200000CC0FDD1FC00FD11F88819981DC01ED91BC
:10201000FC910480F581E02DDF91CF911F910F910C
:10202000FF90DF90CF9009942196C031D105C1F681
:1020300080E0DF91CF911F910F91FF90DF90CF90C3
:1020400008952E980895CF93DF931F92CDB7DEB7F2
:1020500089830E94211089818EBD0DB407FEFDCFBA
:102060001EBC0DB407FEFDCF0E94F70A8EB50F907F
:10207000DF91CF910895CF93DF9300D0CDB7DEB736
:102080006A8389830E942110898182608EBD6A8162
:102090000DB407FEFDCF6EBD0DB407FEFDCF0F9052
:1020A0000F90DF91CF910C94F70A8F929F92AF928D
:1020B000BF92DF92EF92FF920F931F93CF93DF9324
:1020C0001F92CDB7DEB74C01D62E590149830E942D
:1020D0002D0F7C014981009709F440C0FC018081EB
:1020E0009181892BE9F16D2DC4010E949E0FF501AC
:1020F000918380830097B1F1FC012281269526957A
:1021000030E02031310514F02FE030E081E090E044
:10211000A0E0B0E004C0880F991FAA1FBB1F2A953A
:10212000D2F70197F801918380836D2D80EE0E9494
:102130003B1088ED0E942310682FF70184818823CB
:1021400039F0F401EA58FF4F80818260682B01C0AA
:10215000697F88ED0E943B1080E005C086ED03C0DA
:1021600087ED01C08BED0F90DF91CF911F910F9103
:10217000FF90EF90DF90BF90AF909F908F90089569
:102180008F929F92AF92BF92CF92DF92EF92FF9287
:102190000F931F93CF93DF93862E942E59010E94A5
:1021A000C30D6B017C0128E8C20E23E1D21EE11CA5
:1021B000F11C00E010E0D0E0C0E098280E94C30DC0
:1021C000DC01CB018C199D09AE09BF09B7FF2DC0F9
:1021D000692D80EF0E943B100E94C30DDC01CB01F2
:1021E0008C199D09AE09BF09B7FF09C088EC0E9490
:1021F000231087FFF1CF60E888EC0E943B1088EF46
:102200000E942310C82FCF70C43019F0CE3051F087
:102210000CC00F5F1F4FA114B10481F20A151B05FA
:1022200069F603C0DF5FD33049F68C2FDF91CF9181
:102230001F910F91FF90EF90DF90CF90BF90AF90E4
:102240009F908F9008959F92AF92BF92CF92DF920E
:10225000EF92FF920F931F93CF93DF937C01C42FD4
:10226000122F992493946C01C60ED11CC60ED11C5A
:1022700086E5C80ED11CA42EB12CABE2AA0EB11C6F
:10228000AA0CBB1CAE0CBF1CF60180819181DC0145
:10229000ED91FC910280F381E02D202F412F6C2FD6
:1022A0000995803EC9F4C1110BC061E088EE0E941F
:1022B0003B1066E670E080E090E00E94C50D16C01D
:1022C000F50180819181DC01ED91FC910284F3851F
:1022D000E02D612F09950AC08D3031F49FEF990DE3
:1022E000933008F040C016C081113DC0F6018081D6
:1022F0009181DC01ED91FC910190F081E02D202F86
:10230000412F6C2F0995D82F8D3061F48FEF890DF7
:10231000833050F464E670E080E090E00E94C50DE8
:102320009394B2CF8823F1F0C1110BC061E088EE25
:102330000E943B1066E670E080E090E00E94C50DD0
:1023400011C0EC2FF0E0BB96EE0FFF1FEE0DFF1D4E
:1023500080819181DC01ED91FC910284F385E02D77
:10236000612F09958D2FDF91CF911F910F91FF90D4
:10237000EF90DF90CF90BF90AF909F9008950F9314
:102380001F93CF93DF9300D0CDB7DEB78A016A8366
:1023900089830E942110898182608EBDF8016A8143
:1023A000862F882339F00DB407FEFDCF91919EBD95
:1023B0008150F7CF060F111D0DB407FEFDCF0E940F
:1023C000F70AC8010F900F90DF91CF911F910F91E5
:1023D00008952F923F924F925F926F927F928F92C9
:1023E0009F92AF92BF92CF92DF92EF92FF920F93A4
:1023F0001F93CF93DF9300D000D01F92CDB7DEB7ED
:102400007D836C835A016901FB0121808FEF820D6E
:10241000803408F075C00E94C30D2B013C01F8E820
:102420004F0EF3E15F1E611C711CEC81FD81828106
:1024300080FD02C060E401C060E888EE0E943B10AD
:1024400020E0312CC114D10409F44AC076012C14C7
:102450003D0408F47101EA82A8016E2D80E10E941A
:10246000BF116E2D88E30E943B10EC81FD816081DD
:10247000606280EF0E943B1088EC0E94231087FF6F
:10248000FBCF60E888EC0E943B1088EF0E9423108D
:10249000282F2F70812C912C1982222361F02B83FD
:1024A0000E94C30DDC01CB0184199509A609B70967
:1024B0002B81B7FD05C0CE18DF080E0D1F1DC2CF42
:1024C000263001F12E3009F456C0243049F4FFEFD4
:1024D0008F1A9F0AA114B10459F18A149B0441F583
:1024E00088EF2B830E94231085FB882780F9EC81DD
:1024F000FD81928180FB90F992832B81822F41C0D4
:102500008AED3FC088EF0E94231085FB882780F961
:1025100091E08927EC81FD81928180FB90F9928383
:1025200090FD02C060E401C060E888EE0E943B10AC
:1025300060E088E30E943B10F801608180E10E9426
:102540003B106A8188E30E943B10EC81FD81608131
:10255000606280EF0E943B1088EC0E94231087FF8E
:10256000FBCF60E888EC0E943B1088EF0E942310AC
:10257000282F2F7092CF89818F5F89838330C1F696
:10258000AFCF0F900F900F900F900F90DF91CF91E2
:102590001F910F91FF90EF90DF90CF90BF90AF9081
:1025A0009F908F907F906F905F904F903F902F9073
:1025B00008952F923F924F925F926F927F928F92E7
:1025C0009F92AF92BF92CF92DF92EF92FF920F93C2
:1025D0001F93CF93DF9300D000D01F92CDB7DEB70B
:1025E0005C017D836C834A017901F901C080D1804F
:1025F000FB014180F90111821082FB01828181FD82
:1026000002C060E101C060E288EE0E943B103C2CF9
:102610009401EC81FD81408160E0C5010E94C01001
:10262000582EF6E08F1316C088EF0E942310829573
:10263000817091E08927EC81FD81928180FB91F985
:10264000928391FD02C060E101C060E288EE0E94C9
:102650003B10DECF81115BC088EC0E94231082FF0B
:1026600054C080E30E942310282E282F30E0C21689
:10267000D30608F4232CF70120813181622C712CC0
:10268000A601421B530B57FF02C040E050E09301EC
:10269000461557050CF49A0129833A832B830E942F
:1026A0002110F8E0FEBD8B813A8129810DB407FE2F
:1026B000FDCFF801882341F01EBC81500DB407FE08
:1026C000FDCF4EB54193F6CF020F131F0E94F70ABC
:1026D00064E088EC0E943B10F70120813181620E9A
:1026E000731E71826082241420F06C147D0408F43F
:1026F0008FCF88EF0E94231082958170EC81FD813D
:10270000928180FB91F9928302C080EF582E852D33
:102710000F900F900F900F900F90DF91CF911F911E
:102720000F91FF90EF90DF90CF90BF90AF909F9070
:102730008F907F906F905F904F903F902F90089573
:102740002F923F924F925F926F927F928F929F92C1
:10275000AF92BF92CF92DF92EF92FF920F931F93AF
:10276000CF93DF93CDB7DEB762970FB6F894DEBF95
:102770000FBECDBF3C01542ED22E402E5E2D2FA079
:1027800038A4E9A4FAA4188A1F861E861D868E0125
:10279000035F1F4F9E01215F3F4F598B0E945510D1
:1027A000598981119CC0D9824A825B83CC82BE82C6
:1027B000AD8298868F82AE014F5F5F4F68E080E206
:1027C0000E94BF112D853E85452D60E1C3010E9409
:1027D000C010182F81117FC0BD2CBB1CBB24BB1C9B
:1027E000E114F10409F46AC0EF85F8898281BB2005
:1027F00009F455C0826082836401AA24A394C114A1
:10280000D10409F449C03C862B864D855E856F85D1
:10281000788987019E01255F3F4FC3010E94D9122D
:10282000182F8630B1F42F85388988EF298B3A8BA1
:102830000E94231085FB882780F98A2529893A89F7
:10284000D90112969C91129780FB91F912969C9354
:10285000D6CF811140C0EBA5FCA53097A1F0019027
:10286000F081E02D0190F081E02DC4018C199D09CB
:102870009A8789876B857C859E01275F3F4FA701DB
:102880008BA59CA509958B859C85C81AD90A8215AC
:10289000930508F0B4CF12C011111DC014C081609F
:1028A00082834D855E8587019101BF01C3010E942E
:1028B000E911811114C02D853E850FC02D853E85FF
:1028C000B11003C00AC02D853E8560EA452DC301C5
:1028D0000E94C01004C0812F02C060E8F7CF62964A
:1028E0000FB6F894DEBF0FBECDBFDF91CF911F9121
:1028F0000F91FF90EF90DF90CF90BF90AF909F909F
:102900008F907F906F905F904F903F902F900895A1
:102910008F929F92AF92BF92CF92EF920F931F939D
:102920001F921F921F930F933F932F934901A12C46
:10293000B12CCC24C394E12C06E020E80E94A01323
:102940000F900F900F900F900F900F901F910F917D
:10295000EF90CF90BF90AF909F908F9008958F92FF
:102960009F92AF92BF92CF92EF92FF920F931F92DE
:102970001F92FF92EF923F932F934901A12CB12C0C
:1029800022E0C22EE02E06E020E80E94A0130F9065
:102990000F900F900F900F900F900F91FF90EF906E
:1029A000CF90BF90AF909F908F9008954F925F927D
:1029B0006F927F928F929F92AF92BF92CF92DF924F
:1029C000EF92FF920F931F93CF93DF93CDB7DEB7B4
:1029D000C054D1090FB6F894DEBF0FBECDBF3C0185
:1029E000D62E542E422EC02ECE0101965C017C01C3
:1029F000022F29E030E0C3010E94AF1481111BC0F7
:102A00008B809C801F93CF92BF92AF921F9280E4E5
:102A10008F93A12CB12C82E0C82EE42C06E020E894
:102A2000452D6D2DC3010E94A0130F900F900F90A4
:102A30000F900F900F90C05CDF4F0FB6F894DEBF81
:102A40000FBECDBFDF91CF911F910F91FF90EF90FF
:102A5000DF90CF90BF90AF909F908F907F906F90BE
:102A60005F904F9008958F929F92AF92BF92CF92B6
:102A7000EF920F93CF931F921F921F921F921F925C
:102A80001F92812C912CA12CB12CC12CE22E05E09F
:102A900020E00E94A013C82F6CE271E080E090E07B
:102AA0000E94C50D0F900F900F900F900F900F90F8
:102AB0008C2FCF910F91EF90CF90BF90AF909F90C0
:102AC0008F9008950F931F93CF93DF938A3F3FEF2B
:102AD000930711F486ED2DC0DC011696ED91FC9163
:102AE0001797EF2B09F1122F242FEC011A8740E0E2
:102AF0000E94830E082F8823C9F0682FCE010E9400
:102B00002D0F009739F3FC011483202F40E060E083
:102B1000CE010E943315182F882351F0602FCE016B
:102B20000E94450F812F05C087ED03C084ED01C0D1
:102B300080E0DF91CF911F910F9108952F923F92E6
:102B40004F925F926F927F928F929F92AF92BF92BD
:102B5000CF92DF92EF92FF920F931F93CF93DF9369
:102B6000CDB7DEB766970FB6F894DEBF0FBECDBF08
:102B70001B8A38E03C8B3CE33D8B8A3F3FEF930759
:102B800009F4ADC0B22E342EA62E7C01DC011696BF
:102B9000CD90DC901797CE01439617969C938E9319
:102BA00016971A962C938E010F5F1F4F22E130E08B
:102BB00040E060E0C7010E948814F701D782C68216
:102BC0008111A5C069847A844B845C843D813E8BED
:102BD0002E80670186E5C80ED11C460110E0D401A5
:102BE0008D919C91009789F1DC01ED91FC9100841D
:102BF000F185E02D0995811128C0F4018081918132
:102C0000DC01ED91FC910088F189E02D622D0995A0
:102C10008823D9F0F40180819181DC01ED91FC9150
:102C20000484F585E02DA201B3010995811159C0F5
:102C3000F40180819181DC01ED91FC910684F7859E
:102C4000E02D6E89099581114CC01F5FB2E08B0E9B
:102C5000911C103121F610E0F601808191810097DE
:102C600089F1DC01ED91FC910084F185E02D09955D
:102C7000811128C0F60180819181DC01ED91FC91E8
:102C80000088F189E02D622D09958823A9F1F601CC
:102C900080819181DC01ED91FC910484F585E02D2A
:102CA000A201B301099581110DC0F60180819181C6
:102CB000DC01ED91FC910684F785E02D6E89099584
:102CC0008823D1F01F5FB2E0CB0ED11C103121F66A
:102CD0002B2D432D6A2DC7010E94621518C086ED69
:102CE00016C00B2D232D4A2D612FC7010E942311E1
:102CF000813D09F4AACF0BC00B2D232D4A2D612F46
:102D0000C7010E942311982F977F913DD9F26696B3
:102D10000FB6F894DEBF0FBECDBFDF91CF911F91EC
:102D20000F91FF90EF90DF90CF90BF90AF909F906A
:102D30008F907F906F905F904F903F902F9008956D
:102D40008F929F92AF92BF92CF92EF920F931F926A
:102D50001F921F921F921F921F92812C912CA12CC7
:102D6000B12CC12CE22E09E020E00E94A0130F90AC
:102D70000F900F900F900F900F900F91EF90CF90BA
:102D8000BF90AF909F908F900895AF92BF92CF92D7
:102D9000DF92EF92FF920F931F93CF93DF9300D0B8
:102DA00000D0CDB7DEB77C01690158011C821B82BF
:102DB0001A8219828E010F5F1F4F9E012D5F3F4FB8
:102DC0000E945510811109C049815A816B817C8113
:102DD00085019601C7010E94D9120F900F900F90A4
:102DE0000F90DF91CF911F910F91FF90EF90DF90A7
:102DF000CF90BF90AF900895AF92BF92CF92DF92E5
:102E0000EF92FF920F931F93CF938C011D990EC0E9
:102E100088EC0E94231085FF05C0C8010E94120B98
:102E200060E201C060E088EC0E943B1080919A0152
:102E3000813039F040F0823079F0833039F5C1E0EB
:102E40000CC083E106C08091E702807F8031F1F001
:102E500081E18093E7021AC0C0E08091E702807FA1
:102E60008031A9F40E94C30DDC01CB0188539F4F30
:102E7000AF4FBF4F8093E3029093E402A093E5022B
:102E8000B093E60280E28093E70201C0C0E07801DF
:102E900086E5E80EF11C6801A6E7CA0ED11C5701B1
:102EA000F501819191915F01009739F0DC01ED917D
:102EB000FC910680F781E02D0995AC14BD0481F7E3
:102EC0009091E702903409F43FC050F4903221F120
:102ED0009033A1F1913109F084C0F60110820AC04B
:102EE000913509F458C0903809F46AC0903509F05A
:102EF00078C039C0D7018D919D917D01009739F03F
:102F0000DC01ED91FC910480F581E02D0995EC1434
:102F1000FD0481F782E163C00E94C30D0091E302CA
:102F20001091E4022091E5023091E602DC01CB0130
:102F3000801B910BA20BB30BB7FD53C061E088EE71
:102F40000E943B1080E44BC088EE0E94231080FD5D
:102F500048C088ED0E942310682F686088ED0E94A9
:102F60003B1080E53CC088EC0E94231086FF39C0EE
:102F700081E58093E7020E94C30DDC01CB014496FA
:102F8000A11DB11D8093E3029093E402A093E5029A
:102F9000B093E60226C00E94C30DC090E302D09019
:102FA000E402E090E502F090E602DC01CB018C192E
:102FB0009D09AE09BF09B7FD14C080E88093E70200
:102FC0002C2F40E060E0C8010E949E15882331F05C
:102FD000823D39F08093E80280EA01C080E9809365
:102FE000E702CF911F910F91FF90EF90DF90CF906C
:102FF000BF90AF9008958F929F92AF92BF92CF9261
:10300000EF920F93CF93DF93CDB7DEB7C054D109C2
:103010000FB6F894DEBF0FBECDBF5F934F939E01F6
:103020002F5F3F4F3F932F931F9220E42F9320E871
:10303000822E912C5B0132E2C32EE12C06E021E8C6
:1030400040E0FC016681848195810E94A0130F906D
:103050000F900F900F900F900F90C05CDF4F0FB646
:10306000F894DEBF0FBECDBFDF91CF910F91EF90EF
:10307000CF90BF90AF909F908F9008958F929F9226
:10308000AF92BF92CF92DF92EF92FF920F938E2C6E
:10309000A42EB12C1F921F92DF92CF92FF92EF923B
:1030A0009F2CC22EE02E09E021E2462FFC01668112
:1030B000848195810E94A0130F900F900F900F9024
:1030C0000F900F900F91FF90EF90DF90CF90BF90F7
:1030D000AF909F908F9008958F929F92AF92BF92E2
:1030E000CF92EF920F93A62EB12C1F921F921F9298
:1030F0001F921F921F92812C912CC22EE42E0AE067
:1031000021E240E0FC016681848195810E94A01348
:103110000F900F900F900F900F900F900F91EF90D6
:10312000CF90BF90AF909F908F9008958F929F9275
:10313000AF92BF92CF92EF920F93A62EB12C1F9217
:103140001F921F921F921F921F92812C912CC12CB3
:10315000E42E0BE021E240E0FC0166818481958150
:103160000E94A0130F900F900F900F900F900F9050
:103170000F91EF90CF90BF90AF909F908F90089558
:10318000FC018285089581E0693009F080E00895AE
:10319000CF93DF93EC018A819B81DC01ED91FC915F
:1031A0000480F581E02D6A8509958A85813439F49A
:1031B000EA81FB81EA58FF4F8081846080831A8610
:1031C0001B861C861D861E861F86188A80E0DF915E
:1031D000CF9108958F929F92AF92BF92CF92EF922C
:1031E0000F93A42EB12CB22A1F921F921F921F92EE
:1031F0001F921F92812C912CC12CE62E01E023E21C
:1032000040E0FC016285828193810E94A0130F90AF
:103210000F900F900F900F900F900F91EF90CF9015
:10322000BF90AF909F908F9008958F929F92AF9292
:10323000BF92CF92EF920F93A62EB12C1F921F92A6
:103240003F932F935F934F934A01C12CE12C00E0F1
:1032500023EA40E0FC016285828193810E94A013F1
:103260000F900F900F900F900F900F900F91EF9085
:10327000CF90BF90AF909F908F9008958F929F9224
:10328000AF92BF92CF92EF920F93A42EB12CB22A9D
:103290001F921F921F921F921F921F92812C912C9E
:1032A000C12CE62E03E023E240E0FC01628582812E
:1032B00093810E94A0130F900F900F900F900F908A
:1032C0000F900F91EF90CF90BF90AF909F908F9005
:1032D00008952F923F924F925F926F927F928F92BA
:1032E0009F92AF92BF92CF92DF92EF92FF920F9395
:1032F0001F93CF93DF93CDB7DEB7E8970FB6F8945F
:10330000DEBF0FBECDBFDC011296ED90FC9013978F
:103310001A963C91311104C1122F242E362E3C01F5
:10332000D701ED91FC910190F081E02D60E0C701A3
:1033300009956C01009709F4F5C0FC01A080B180EB
:10334000A114B10409F4F0C04301F4E08F0E911C04
:10335000DC0111969C928E9214961C93FE0131967C
:103360002F018F0128E030E040E060E0D3011296A9
:103370008D919C9113970E948814F60114828111FB
:10338000D9C009818D81893009F0D0C0D701ED9174
:10339000FC910280F381E02D222D41E0632DC701D5
:1033A0000995F3018287882309F4C2C09885958323
:1033B000282F40E060E0828193810E943315182F0E
:1033C000882389F0D601AD92BC92D701ED91FC9192
:1033D0000480F581E02DD3011A966C91C7010995FF
:1033E000F3011286ABC0202F013208F020E2D60193
:1033F000AD92BC9221110BC0940142E0F3016285B1
:10340000828193810E94C20F811197C010C030E069
:10341000820140E0D3011A966C911A9712968D9111
:103420009C9113970E948814811187C0E5CF1F9249
:103430001F925F924F921F9288E08F9388E0882EB0
:10344000912CA12CB12C99E2C92EE12C06E020EAA6
:1034500040E0F3016285828193810E94A013182FBE
:103460000F900F900F900F900F900F90811166C0EA
:103470008B81D3011B968C931B97720100E028E08F
:1034800030E040E01A966C911A9712968D919C91BB
:1034900013970E94AF14811150C02B813C8140E0F2
:1034A000F3016285828193810E94AF14811145C02E
:1034B000298130E0CE0181967C0140E0D3011A964B
:1034C0006C911A9712968D919C9113970E94AF144C
:1034D000811133C02E8140E0F301628582819381A6
:1034E0000E94A016811129C001E0D3011B968C9186
:1034F0001B97801740F020E0402F68E0C3010E9436
:103500003E190F5FF2CF1296ED91FC911397EA5896
:10351000FF4F80818460808381E050968C930EC041
:1035200019ED0CC016ED0AC017ED08C011ED06C06C
:1035300014ED04C0F601B182A082182F812FE89605
:103540000FB6F894DEBF0FBECDBFDF91CF911F91B4
:103550000F91FF90EF90DF90CF90BF90AF909F9032
:103560008F907F906F905F904F903F902F90089535
:10357000CF92DF92FF920F931F93CF93DF9300D0F0
:1035800000D0CDB7DEB78C01F62E19821A821B82CD
:103590001C8220E0462F61E10E94EA1820E04F2DB6
:1035A00060E1C8010E94EA1820E04F2D64E0C801E4
:1035B0000E943E1983E0C82ED12C9E012F5F3F4F01
:1035C00044E050E06F2DC8010E9415198823F1F0E6
:1035D00020E04F2D64E1C8010E94EA1820E04F2D41
:1035E00060E1C8010E94EA1864E170E080E090E0C8
:1035F0000E94C50D0F900F900F900F90DF91CF910B
:103600001F910F91FF90DF90CF90089589819A814B
:10361000AB81BC819D7F83309140A041B105C1F257
:1036200064E670E080E090E00E94C50D81E0C81A79
:10363000D10819F6CDCFFC0189E691E09183808312
:103640007383628312861386148615861686178600
:10365000108A148288E085839CE3968391E09783A7
:10366000808784E0818761157105B1F0DB01AA5A7A
:10367000BF4F80E090E02D913D91232B49F48B9634
:10368000880F991FDB01A80FB91FED93FC930895D4
:1036900001968031910579F70895EF92FF920F938B
:1036A0001F93CF938C01C62F7A01FA0180819181FB
:1036B000A281B3818130F3E09F07F1E0AF07B1054C
:1036C000D1F060F48115E1E09E07AE07B10571F11C
:1036D00081309140A140B10571F064C0833021E098
:1036E000920720E1A207B105E1F183309340A041A8
:1036F000B105B9F157C08091E902811153C020E0B2
:103700004C2F61E1C8010E94EA1820E04C2F60E1D3
:10371000C8010E94EA1820E04C2F64E0C8010E9412
:103720003E1981E08093E90281EB3DC020E0462F05
:1037300061E1C8010E94EA1820E04C2F60E1C80155
:103740000E94EA181092E902F80162856770C7705A
:10375000660F660F660F6C2B828193810E94DF0FCC
:1037600021C020E04C2F64E1C8010E94EA1820E04B
:103770004C2F60E1C8010E94EA1864E170E080E02B
:1037800090E00E94C50DF8016285F7012181269520
:10379000217067704C2FF801828193810E949E15E1
:1037A0001092E90280E0CF911F910F91FF90EF906E
:1037B0000895EF92FF920F931F93CF93DF93CDB7AE
:1037C000DEB72E970FB6F894DEBF0FBECDBF7C01DB
:1037D00081E090E09E878D878E010F5F1F4F9E01D5
:1037E000235F3F4F41E0F7016285828193810E9410
:1037F000C516811151C002E011E089818023D1F00A
:1038000019861A861B861C869E01275F3F4F44E05F
:1038100050E0612FC7010E94151981110BC0AE0144
:10382000475F5F4F612FC7010E944D1B813B99F19C
:10383000811132C0000F1F5F1830F9F611E0F70157
:103840008385811740F119861A861B861C869E0186
:10385000275F3F4F44E050E0612FC7010E941519D8
:10386000811117C089859A85877091708130914048
:1038700081F48B859C8581609C878B87AE01475F37
:103880005F4F612FC7010E944D1B813B21F08111C9
:1038900003C01F5FD4CF80E02E960FB6F894DEBF32
:1038A0000FBECDBFDF91CF911F910F91FF90EF9091
:1038B00008950F931F93CF93DF93FC01208921116B
:1038C00002C080E020C0EC010E94C30D0C851D8564
:1038D0002E853F85DC01CB01801B910BA20BB30B26
:1038E000B7FDEFCFCE010E94D91B182F0E94C30D48
:1038F000DC01CB018C599F4FAF4FBF4F8C879D8709
:10390000AE87BF87812FDF91CF911F910F910895CF
:10391000CF93DF93FC01EA0180819181892B19F516
:1039200080E027C028813981232BD1F3DB012D9141
:103930003C91D9019C91A381B0E0A81BB1092081E1
:103940003181A20FB31F9C93828181508283888131
:103950009981019799838883DB018D919C911197BF
:1039600001968D939C9382818111DCCF8381828328
:1039700081E0DF91CF910895CF92DF92EF92FF9295
:103980000F931F93CF93DF936C01EB017B01E40E48
:10399000F51E00E010E0CE15DF0561F06991D6015B
:1039A000ED91FC910190F081E02DC6010995080F81
:1039B000191FF1CFC801DF91CF911F910F91FF9097
:1039C000EF90DF90CF9008958091F50208959FB712
:1039D000F8941092EC029FBF90917803943009F014
:1039E00057C09091E9009F703091EC00232F217017
:1039F00030FD20E8922B24E02093E9002091EB0099
:103A000020FF43C02091EE0027FF3FC02091EA0233
:103A1000222321F02091E80025FF37C01092EA020E
:103A200026E03091E80035FD15C030917803343040
:103A300061F53091EB0035FD28C0215021F481E083
:103A40008093EA0222C0EFE9FFE03197F1F700C06E
:103A50000000E7CF8093F1008091E80085FD0AC067
:103A60008091E80080FFFCCF8091E8008E77809302
:103A7000E80006C08FB7F89421E02093EC028FBFD6
:103A80009F709093E90080E008959F709093E90003
:103A90008FEF0895CF93DF9300D01F92CDB7DEB79D
:103AA0009C0180917803843019F593E099833B83DE
:103AB0002A839093E9008FEF9091E800815095FD63
:103AC00006C095ED9A95F1F700008111F5CF809130
:103AD000E80085FF0DC040E050E063E070E0CE01FB
:103AE00001960E948E1F8091E8008E778093E800F7
:103AF0000F900F900F90DF91CF910895CF93DF93A8
:103B000000D01F92CDB7DEB720917803243021F585
:103B100022E029839B838A8383E08093E9008FEFEF
:103B20009091E800815095FD06C095ED9A95F1F7CA
:103B300000008111F5CF8091E80085FF0DC040E0C5
:103B400050E063E070E0CE0101960E948E1F8091EC
:103B5000E8008E778093E8000F900F900F90DF9130
:103B6000CF910895209178032430F1F422E020933E
:103B7000E9002FEF3091E800215035FD06C035ED0A
:103B80003A95F1F700002111F5CF2091E80025FFCB
:103B90000BC040E050E065E070E00E948E1F809115
:103BA000E8008E778093E8000895CF93DF9320910B
:103BB0007803243039F521E02093E9002FEF30918C
:103BC000E800215035FD06C035ED3A95F1F70000CB
:103BD0002111F5CF2091E80025FF14C0EC0140E051
:103BE00050E068E070E00E948E1F8091E8008E77C0
:103BF0008093E80088E0FE01ADEEB2E001900D9206
:103C00008A95E1F7DF91CF91089584E998E00E94C9
:103C1000C40580917703811109C00E9423210E946D
:103C200080218091E20084608093E200089580E921
:103C300098E00E94C4051092770308958CE898E0FC
:103C40000C94C4052091EB022F5F822F62E30E9447
:103C5000CF34992319F02093EB0208951092EB02D0
:103C60008091EC02882371F180917803843041F5D2
:103C70008091E9008F702091EC00922F917020FDCF
:103C800090E8892B94E09093E9009091EB0090FFED
:103C900014C09091EE0097FF10C09091E80095FF3E
:103CA00003C01092F100F9CF9091E80090FF05C099
:103CB0009091E8009E779093E8008F708093E900E0
:103CC0001092EC02089542E061EC81E00E949D2098
:103CD00042E061EC82E00E949D2042E061EC83E0E2
:103CE0000E949D2042E261EC84E00C949D20809132
:103CF0007A03833009F453C030F4813071F082309C
:103D000009F48CC008958A3009F478C08B3009F426
:103D10005EC0893009F09AC020C080917903813A51
:103D200009F094C08091E800877F8093E80080913B
:103D30007D0390917E03892B21F468E08DEE92E063
:103D400003C060E080E090E070E00E94D91F8091A5
:103D5000E8008B778093E8000895809179038132A1
:103D600009F074C080917D0390917E03892B09F046
:103D70006DC08091E800877F8093E8008091E80023
:103D800082FD05C0809178038111F8CF5FC08091DA
:103D9000F1008093F5028091E8008B7753C0809109
:103DA0007903813A09F052C080917D0390917E039E
:103DB000892B09F04BC08091E800877F8093E80051
:103DC0008091E80080FFFCCF80910A0136C080918D
:103DD00079038132D9F580917D0390917E03892BFF
:103DE000A9F58091E800877F8093E8000E94D220A7
:103DF00080917B0380930A010C949C298091790324
:103E0000813221F58091E800877F8093E8000E944D
:103E1000D22080917C038093F602089580917903EB
:103E2000813AA1F48091E800877F8093E800809137
:103E3000E80080FFFCCF8091F6028093F100809132
:103E4000E8008E778093E8000C94D22008950895BE
:103E500088E898E00E94C4050C94271F0C94A72FB3
:103E600084E898E00E94C4050C942E1F292F332764
:103E700023303105C9F064F42130310581F022305E
:103E8000310509F043C084E790E02AEE38E042C0F3
:103E900021323105F1F02232310541F137C082E1A2
:103EA00090E02EE539E036C099278130910541F048
:103EB0008230910541F0892B49F5E6EEF8E005C026
:103EC000E6EDF8E002C0E8E9F8E0849190E09F01B7
:103ED00021C06430D8F4E62FF0E0EE0FFF1FE95761
:103EE000FE4F2081318189E090E014C0643070F48D
:103EF00070E0FB01EE0FFF1FE158FE4F2081318182
:103F0000FB01E558FE4F808190E004C080E090E026
:103F100020E030E0FA01318320830895CF92DF92D0
:103F2000EF92FF920F931F93CF93DF93EC018B01DE
:103F30006A010E94F120811133C0C114D10439F00B
:103F4000F60180819181081B190BC80FD91FE12C44
:103F5000F12C0115110519F18091E80085FD16C0BD
:103F60008091E8008E778093E800C114D10449F075
:103F7000F60180819181E80EF91EF182E08285E0F0
:103F80000FC00E94F120882321F30AC089918093F9
:103F9000F10001501109FFEFEF1AFF0ADACF80E0BC
:103FA000DF91CF911F910F91FF90EF90DF90CF9015
:103FB000089520917F03309180032617370748F03A
:103FC0006115710539F42091E8002E772093E800FF
:103FD00001C0B90140E061157105A9F12091780394
:103FE000222309F443C0253009F442C02091E8009F
:103FF00023FD40C02091E80022FD32C02091E8005E
:1040000020FFE9CF4091F3002091F20030E0342B03
:10401000FC01CF016115710559F02830310540F4DC
:1040200081918093F100615071092F5F3F4FF1CF73
:1040300041E02830310509F040E02091E8002E777A
:104040002093E800C8CF4111C9CF0AC080917803FE
:10405000882361F0853061F08091E80083FD0AC01B
:104060008091E80082FFF2CF80E0089582E0089519
:1040700083E0089581E0089520917F0330918003CB
:104080002617370748F06115710539F42091E800CB
:104090002E772093E80001C0B901FC0120E06115F2
:1040A000710591F180917803882309F440C085302F
:1040B00009F43FC08091E80083FD3DC08091E80095
:1040C00082FD2FC08091E80080FFE9CF2091F300AE
:1040D0008091F20090E0922B6115710559F08830C3
:1040E000910540F424912093F100319661507109BB
:1040F0000196F2CF21E0089709F020E08091E800D6
:104100008E778093E800CBCF2111CCCF0AC080916D
:104110007803882361F0853061F08091E80083FDA9
:104120000AC08091E80082FFF2CF80E0089582E02B
:10413000089583E0089581E00895982F973058F509
:104140009093E900981739F07091EC002091ED0000
:104150005091F00003C0242F762F50E021FF19C0AA
:104160003091EB003E7F3093EB003091ED003D7FCE
:104170003093ED003091EB0031603093EB007093A1
:10418000EC002093ED005093F0002091EE0027FF0B
:1041900007C09F5FD3CF8F708093E90081E00895BF
:1041A00080E008958091790387FF11C08091E80035
:1041B00082FD05C0809178038111F8CF11C08091F4
:1041C000E8008B770BC080917803882349F08091B9
:1041D000E80080FFF8CF8091E8008E778093E800B8
:1041E00008952091E4003091E50095E64091EC00BF
:1041F000842F817040FF22C08091E80080FD1CC0A8
:1042000080917803882391F0853091F08091EB00C4
:1042100085FD10C04091E4005091E500421753071E
:1042200029F39A01915011F784E0089582E00895EE
:1042300083E0089581E0089580E008954091E800CA
:1042400042FFDECF08950E9491210E949921E0EE65
:10425000F0E0808181608083E8EDF0E080818F77FD
:10426000808319BCA7EDB0E08C918E7F8C93808108
:104270008F7E80831092770308950F931F93CF93BF
:10428000DF930E9491210E949921C8EDD0E088819E
:104290008F77888388818068888388818F7D8883F1
:1042A00019BC109278031092740310927603109246
:1042B000750300EE10E0F80180818B7F8083888198
:1042C0008160888342E060E080E00E949D20E1EE12
:1042D000F0E080818E7F8083E2EEF0E0808181607B
:1042E0008083808188608083F80180818E7F8083D5
:1042F000888180618883DF91CF911F910F9108950C
:10430000E8EDF0E080818F7E8083E7EDF0E0808152
:104310008160808384E082BF81E0809377030C9486
:104320003D21E8EDF0E080818E7F80831092E200F5
:1043300008951092DA001092E10008951F920F92F2
:104340000FB60F9211242F933F934F935F936F9368
:104350007F938F939F93AF93BF93EF93FF9380913E
:10436000E10082FF0BC08091E20082FF07C08091D4
:10437000E1008B7F8093E1000E94221E8091DA0091
:1043800080FF1FC08091D80080FF1BC08091DA00A1
:104390008E7F8093DA008091D90080FF0DC080E18C
:1043A00089BD82E189BD09B400FEFDCF81E0809323
:1043B00078030E94051E05C019BC109278030E9464
:1043C000171E8091E10080FF19C08091E20080FFFC
:1043D00015C08091E2008E7F8093E2008091E20020
:1043E00080618093E2008091D80080628093D80041
:1043F00019BC85E0809378030E94281F8091E1001A
:1044000084FF30C08091E20084FF2CC080E189BD30
:1044100082E189BD09B400FEFDCF8091D8008F7D77
:104420008093D8008091E1008F7E8093E10080919D
:10443000E2008F7E8093E2008091E20081608093B1
:10444000E20080917403882311F084E007C080911A
:10445000E30087FD02C081E001C083E08093780320
:104460000E94301F8091E10083FF29C08091E2000B
:1044700083FF25C08091E100877F8093E10082E087
:1044800080937803109274038091E1008E7F809373
:10449000E1008091E2008E7F8093E2008091E20053
:1044A00080618093E20042E060E080E00E949D2015
:1044B0008091F00088608093F0000E941E1EFF91A2
:1044C000EF91BF91AF919F918F917F916F915F918C
:1044D0004F913F912F910F900FBE0F901F90189505
:1044E0001F920F920FB60F9211242F933F934F9369
:1044F0005F936F937F938F939F93AF93BF93CF936C
:10450000DF93EF93FF93C091E900CF708091EC00AF
:10451000D82FD17080FDD0E81092E9008091F00092
:10452000877F8093F00078940E94B4221092E90073
:104530008091F00088608093F000CD2BCF70C09305
:10454000E900FF91EF91DF91CF91BF91AF919F91E2
:104550008F917F916F915F914F913F912F910F902C
:104560000FBE0F901F9018951F93CF93DF93CDB779
:10457000DEB7AA970FB6F894DEBF0FBECDBFE9E74E
:10458000F3E088E08E0F9091F10091938E13FBCFB2
:104590000E94771E8091E80083FF1FC180917903FC
:1045A00090917A03492F50E04A30510508F015C127
:1045B000FA01EA5AFF4F0C94EF34803881F08238C8
:1045C00009F00BC180917D038F708093E900809189
:1045D000EB0085FB882780F91092E90006C08091E6
:1045E000750390917603911182609091E800977F16
:1045F0009093E8008093F1001092F100C8C0282F3A
:104600002D7F09F0EAC0882319F0823061F0E5C0FF
:1046100080917B03813009F0E0C0933009F080E0A5
:10462000809376032BC080917B03811127C08091FA
:104630007D038F7009F4D1C08093E9002091EB00D5
:1046400020FF1CC0933021F48091EB00806214C0E5
:104650009091EB0090619093EB0021E030E0A90194
:1046600002C0440F551F8A95E2F74093EA0010926A
:10467000EA008091EB0088608093EB001092E900E3
:104680008091E800877F86C08111A7C010917B03CD
:104690001F778091E3008078812B8093E3008091E5
:1046A000E800877F8093E8000E94D2208091E80094
:1046B00080FFFCCF8091E30080688093E3001111BC
:1046C00002C082E001C083E08093780386C08058F6
:1046D000823008F082C080917B0390917C038C3DF6
:1046E00053E0950779F583E08A838AE289834FB79F
:1046F000F894DE01139620E03EE051E2E32FF0E073
:1047000050935700E49120FF03C0E295EF703F5FA4
:10471000EF708E2F90E0EA3010F0C79601C0C0967F
:104720008D939D932F5F243149F74FBF8091E8000F
:10473000877F8093E8006AE270E0CE0101960E94D4
:10474000D91F14C0AE014F5F5F4F60917D030E947F
:10475000361FBC01892B09F440C09091E800977F77
:104760009093E80089819A810E943C208091E80022
:104770008B778093E80031C0803879F58091E8002C
:10478000877F8093E800809174038093F10080918B
:10479000E8008E778093E8000E94D2201EC081112D
:1047A0001CC090917B039230C0F48091E800877F19
:1047B0008093E800909374030E94D2208091740348
:1047C000811106C08091E30087FD02C081E001C035
:1047D00084E0809378030E94631E8091E80083FF49
:1047E0000AC08091E800877F8093E8008091EB0009
:1047F00080628093EB00AA960FB6F894DEBF0FBEDE
:10480000CDBFDF91CF911F9108959093FC028093CB
:10481000FB020895E091FB02F091FC02309721F039
:104820000190F081E02D099480E00895EF92FF92CD
:104830000F931F93CF93DF93E091FB02F091FC0263
:104840003097B1F18C010280F381E02D09958091C0
:10485000690382FF2DC080FF04C08DE59AE00E94AD
:10486000C405E80118E087E5E82E8AE0F82E80917B
:10487000690380FF0BC088811F928F93FF92EF9294
:104880000E945D060F900F900F900F90115021968F
:104890001111EDCF8091690380FF0AC085E59AE090
:1048A000DF91CF911F910F91FF90EF900C94C40571
:1048B000DF91CF911F910F91FF90EF900895E091BC
:1048C000FB02F091FC02309721F00480F581E02D8D
:1048D000099408952091F9023091FA028217930702
:1048E00071F09093FA028093F902E091FB02F0914B
:1048F000FC02309721F00680F781E02D099408959D
:104900002091F7023091F8028217930771F090938B
:10491000F8028093F702E091FB02F091FC023097DD
:1049200021F00084F185E02D099408950E94130E72
:104930000C948E0B4F925F927F928F929F92AF92C8
:10494000BF92CF92DF92EF92FF920F931F93CF937C
:10495000DF9300D000D01F92CDB7DEB70E942A09A6
:104960009EEFC92E92E0D92E00E010E0AA24A39475
:10497000B12C702E802F0E941D0A4C01F60141902F
:1049800051906F014826592641145104B1F40F5F2C
:104990001F4F0031110569F78FEF89838A831B82CE
:1049A0000E941C0E8160782F9D838C8349815A81DF
:1049B0006B818D810E946D2541C08091690381FDCD
:1049C0000E944D0A20E030E07501022E02C0EE0C7C
:1049D000FF1C0A94E2F7C70184219521892B41F13C
:1049E00029837A828E209F2091E0892809F490E023
:1049F0009B830E941C0E8160782F9D838C8349814C
:104A00005A816B818D810E946D2549815A816B810C
:104A10007C818D810E94942F000F111FF801E250BC
:104A2000FD4F80819181E826F926F182E08206C05F
:104A30002F5F3F4F2031310539F6A9CF0E94932FC8
:104A40000E94BF321091FD020E940A24181771F1D2
:104A50000E940A248093FD029091690392FF0EC088
:104A600090FF0CC01F928F938FE69AE09F938F93D5
:104A70000E945D060F900F900F900F908091FD02A5
:104A80000F900F900F900F900F90DF91CF911F918B
:104A90000F91FF90EF90DF90CF90BF90AF909F90DD
:104AA0008F907F905F904F900C94A52F0F900F9058
:104AB0000F900F900F90DF91CF911F910F91FF906A
:104AC000EF90DF90CF90BF90AF909F908F907F90AE
:104AD0005F904F9008950C94870ACF93DF93CDB7E2
:104AE000DEB72B970FB6F894DEBF0FBECDBF942F65
:104AF0004F83252F588769877A878B874A855B85FF
:104B0000452B21F02F3F09F59F3FF9F4DE01119667
:104B100086E0FD0111928A95E9F785E0FE0137965E
:104B200001900D928A95E1F749815A816B817C81D0
:104B30008D819E810E94362C2B960FB6F894DEBF95
:104B40000FBECDBFDF91CF9108954F815885698504
:104B50007A858B850E94942FD9CF882309F49BC036
:104B60009CEF980F913A18F40E94BF2E0DC090E26E
:104B7000980F983058F4877091E001C0990F8A958A
:104B8000EAF7892F0E94FE2E0C94382F9BE5980F90
:104B9000933070F4853A29F0863A31F083E890E05A
:104BA00005C081E890E002C082E890E00C946A249D
:104BB00098E5980F953108F06EC0883A61F1893A0E
:104BC00069F18A3A71F18B3A79F18C3A81F18D3A37
:104BD00089F18E3A91F18F3A99F1813BA1F1803BB5
:104BE000A9F1823BB1F1833BB9F1843BC1F1853B33
:104BF000C9F1863BD1F1873BD9F1883BE1F1893B93
:104C0000E9F18A3BF1F18B3BF9F18C3B09F43FC0B0
:104C100080E090E03EC082EE90E03BC089EE90E004
:104C200038C08AEE90E035C085EB90E032C086EB6C
:104C300090E02FC083EB90E02CC084EB90E029C083
:104C400087EB90E026C08CEC90E023C08DEC90E0E8
:104C500020C083E891E01DC08AE891E01AC082E993
:104C600091E017C084E991E014C081E292E011C0A4
:104C700083E292E00EC084E292E00BC085E292E013
:104C800008C086E292E005C087E292E002C08AE2B4
:104C900092E00C9480240895882329F19CEF980FCA
:104CA000913A18F40E94DC2E0DC090E2980F9830D3
:104CB00058F4877091E001C0990F8A95EAF7892F1F
:104CC0000E94042F0C94382F9BE5980F933020F40A
:104CD00080E090E00C946A24885A853120F480E0CA
:104CE00090E00C9480240895882321F00E94FE2EE9
:104CF0000C94382F0895882321F00E94042F0C94DF
:104D0000382F0895CF92DF92EF92FF920F931F9367
:104D1000CF93DF9300D000D000D0CDB7DEB725E031
:104D2000FC01DE01119601900D922A95E1F7FC013C
:104D300040813181F280258122952F7063817481B9
:104D4000672B09F4D8C23F3F19F44F3F09F4D3C28F
:104D50006C0149833A8389819A812E830E947E2E39
:104D6000182F092F0E947D2E0E948F2DE02FE29593
:104D7000EF70F0E0E05AFF4F2E810C94EF34802F5B
:104D8000807F902F9F70092F882311F00295007F5C
:104D9000FF2049F0002309F45FC2802F0E94112FE9
:104DA0000E94382F59C2812F0E944C26002309F4FB
:104DB000A2C2802F0E94172F26960FB6F894DEBF4E
:104DC0000FBECDBFDF91CF911F910F91FF90EF905C
:104DD000DF90CF900C94382F802F807F902F9F7082
:104DE000092F803211F00295007F112319F0113044
:104DF00001F129C0FF20A9F0802F222349F12130A1
:104E000039F526960FB6F894DEBF0FBECDBFDF9101
:104E1000CF911F910F91FF90EF90DF90CF900C9466
:104E2000212F222319F0213009F465C20E94242F7A
:104E30002CC0FF20E9F0263008F05DC20E94FB2E56
:104E4000802329F022C0FF20F1F0211115C0802F0E
:104E500026960FB6F894DEBF0FBECDBFDF91CF917F
:104E60001F910F91FF90EF90DF90CF900C947426DC
:104E7000253008F040C209C0F601858180FFECC1F1
:104E80008F708583E4CF2111FBC1802F69C1202F52
:104E900026952695237030E02115310521F021302B
:104EA0003105C9F028C2FF2021F0812F902F937087
:104EB00002C080E090E026960FB6F894DEBF0FBEE9
:104EC000CDBFDF91CF911F910F91FF90EF90DF90B9
:104ED000CF900C946A24FF2021F0812F902F9370A3
:104EE00002C080E090E026960FB6F894DEBF0FBEB9
:104EF000CDBFDF91CF911F910F91FF90EF90DF9089
:104F0000CF900C948024812FFF2019F00E9445310E
:104F100002C00E94AD3126960FB6F894DEBF0FBED8
:104F2000CDBFDF91CF911F910F91FF90EF90DF9058
:104F3000CF900C943232802F837009F078C0F1103A
:104F4000DAC1812F829586958770880F880F912FFF
:104F50009F70C92ED12CE12CF12C082E04C0CC0C52
:104F6000DD1CEE1CFF1C0A94D2F714FF12C04FE0A8
:104F700050E060E070E004C0440F551F661F771FCB
:104F80008A95D2F7CB01BA0160957095809590957E
:104F900003C060E070E0CB01202F2695269523709A
:104FA000422F50E042305105D1F04330510559F1C4
:104FB0006C297D298E299F294130510541F1269682
:104FC0000FB6F894DEBF0FBECDBFDF91CF911F911A
:104FD0000F91FF90EF90DF90CF900C94A22D6C2951
:104FE0007D298E299F2926960FB6F894DEBF0FBE25
:104FF000CDBFDF91CF911F910F91FF90EF90DF9088
:10500000CF900C94B42D0E94A22DC701B601269614
:105010000FB6F894DEBF0FBECDBFDF91CF911F91C9
:105020000F91FF90EF90DF90CF900C94902DFF2088
:1050300019F0802F817001C08695882309F45BC127
:10504000812F829586958770880F880F912F9F708A
:10505000C92ED12CE12CF12C082E04C0CC0CDD1C67
:10506000EE1CFF1C0A94D2F714FF12C04FE050E070
:1050700060E070E004C0440F551F661F771F8A95DB
:10508000D2F7CB01BA01609570958095909503C0D9
:1050900060E070E0CB01202F269526952370422FEB
:1050A00050E042305105D1F04330510559F16C299F
:1050B0007D298E299F294130510541F126960FB651
:1050C000F894DEBF0FBECDBFDF91CF911F910F913E
:1050D000FF90EF90DF90CF900C94592E6C297D2992
:1050E0008E299F2926960FB6F894DEBF0FBECDBF3E
:1050F000DF91CF911F910F91FF90EF90DF90CF90B4
:105100000C946B2E0E94592EC701B60126960FB63D
:10511000F894DEBF0FBECDBFDF91CF911F910F91ED
:10512000FF90EF90DF90CF900C94472E103F41F10D
:1051300018F4103E48F48BC0123F09F450C0D8F167
:10514000133F09F460C083C01F70802F8F71FF2050
:1051500021F00E94E02D812F7BCE0E94012E812F15
:1051600026960FB6F894DEBF0FBECDBFDF91CF916C
:105170001F910F91FF90EF90DF90CF900C947B26C2
:10518000FF20A9F0253008F0B6C0802F8F71269639
:105190000FB6F894DEBF0FBECDBFDF91CF911F9148
:1051A0000F91FF90EF90DF90CF900C94262E263039
:1051B00008F0A1C0EACFFF20A1F0802F8F712696C2
:1051C0000FB6F894DEBF0FBECDBFDF91CF911F9118
:1051D0000F91FF90EF90DF90CF900C94E02DFF2087
:1051E00061F3802F8F7126960FB6F894DEBF0FBE45
:1051F000CDBFDF91CF911F910F91FF90EF90DF9086
:10520000CF900C94012EFF2091F0802F8F71269665
:105210000FB6F894DEBF0FBECDBFDF91CF911F91C7
:105220000F91FF90EF90DF90CF900C94CB2D2696AE
:105230000FB6F894DEBF0FBECDBFDF91CF911F91A7
:105240000F91FF90EF90DF90CF900C94C62DFF2030
:10525000A1F0222309F4B1CF812F26960FB6F8943E
:10526000DEBF0FBECDBFDF91CF911F910F91FF9099
:10527000EF90DF90CF900C94AD25222309F4B1CFAD
:10528000812F26960FB6F894DEBF0FBECDBFDF91FB
:10529000CF911F910F91FF90EF90DF90CF900C94E2
:1052A0004C26402F4F70612FC6010E94BF302696BA
:1052B0000FB6F894DEBF0FBECDBFDF91CF911F9127
:1052C0000F91FF90EF90DF90CF900C94DA2C402F4D
:1052D0004F70612FC60126960FB6F894DEBF0FBE41
:1052E000CDBFDF91CF911F910F91FF90EF90DF9095
:1052F000CF900C94C23026960FB6F894DEBF0FBE46
:10530000CDBFDF91CF911F910F91FF90EF90DF9074
:10531000CF9008950E941E2F0E94ED2E0E94382FDC
:105320000E9464330E94323280E090E00E946A243E
:1053300080E090E00C9480240E940E2F0C948A2927
:105340000E947E2E292F22952F7030E02C303105BF
:105350004CF42A3031056CF42250310922303105E9
:1053600088F407C02C30310549F02F30310531F079
:1053700009C0803E48F0803F29F406C093FB88278F
:1053800080F9089580E0089581E00895CF93DF9338
:1053900000D000D01F92CDB7DEB70F900F900F90C6
:1053A0000F900F90DF91CF910895CF93DF9300D0AE
:1053B00000D000D0CDB7DEB726960FB6F894DEBF8A
:1053C0000FBECDBFDF91CF9108951F93CF93DF9391
:1053D000C0911E0316E080911F03C81799F0D0E01A
:1053E0001C9FF0011D9FF00D1124E05EFC4F4081D9
:1053F000518162817381848195810E94D529219692
:10540000C770E9CFDF91CF911F910895409150036C
:105410005091510360915203709153038091540352
:10542000909155030C94D5298091550382958F70E6
:1054300009F054C080915203882309F44FC0809131
:105440001E03A0911F03609150037091510340917E
:10545000530350915403B6E08A1709F43FC090E01B
:1054600041155105C1F17F3F11F46F3FA1F1B89F84
:10547000F001B99FF00D1124E05EFC4F2181721301
:105480002AC02081621327C02281211124C02381D8
:1054900034812417350710F421503109241B350BB2
:1054A000283C3105C0F4209155032F7020612093D2
:1054B000550326E0289FF001299FF00D1124EB5D94
:1054C000FC4F80818F708061808380E593E00E9433
:1054D00082260C94E52901968770BECF0895CF925D
:1054E000DF92EF92FF920F931F93CF93DF93CDB78D
:1054F000DEB762970FB6F894DEBF0FBECDBF8C014A
:1055000085E0F801DE011D9601900D928A95E1F784
:10551000D8014C9111965C91119712966C9112974B
:105520001396CD90DC9014973091500370915103F5
:105530008091530390915403009709F46BC17F3F0E
:1055400019F43F3F09F466C1E0905203EE2009F4DC
:10555000C0C020915503C816D90628F0F601E81BF3
:10556000F90BCF0104C0809590958C0D9D1DFF24F3
:10557000F394883C910578F0F12C207F09F0C6C0A7
:105580007C2DD98AC88A89890E94C62980E593E042
:105590000E948226B1C0822F807F09F046C0751319
:1055A00014C0341312C0611110C02F7020612093F9
:1055B00055030E94062A80E593E00E94822680918E
:1055C0005503D80115968C932EC0CD2819F15F3F55
:1055D00011F44F3FF9F0F62E61111CC080911E03AB
:1055E00020911F0336E0821709F45AC090E0389FDB
:1055F000F001399FF00D1124E05EFC4F71815713CB
:1056000006C07081471303C07281711103C00196F7
:105610008770E9CFF62E662309F418C180915503EF
:10562000816080935503F12C11C1751308C03413A8
:1056300006C0611104C080915503D801C3C04D87D5
:105640005E878D859E856A8B0E94A0296A89882342
:10565000E1F16623D1F120915503822F82958F705D
:1056600090E0029774F080915003909151039887D5
:105670008F831986DB86CA862C87CE0107960E9407
:10568000822686E0F801A0E5B3E001900D928A95AC
:10569000E1F70E94142A0E94062AFF24F394D6C040
:1056A0004D875E878D859E850E947E2E292F2295AF
:1056B0002F7030E0223031050CF0BCC09F7009F033
:1056C000B6C0805E883008F4C1C0C8010E9482263E
:1056D000E4CFC816D90608F453C0F601E81BF90B4D
:1056E000CF01883C910508F450C0F12C7C2DD98A5B
:1056F000C88A89890E94C629E0E5F3E086E0DF01D7
:105700001D928A95E9F70E94062AA0C0751314C05D
:10571000341312C0611110C080915503F8018583C4
:10572000C8010E94822686E0E0E5F3E0DF011D92D9
:105730008A95E9F7FE2C8AC04D875E878D859E8508
:105740006A8B0E94A0296A89882309F4BECF662348
:1057500009F4BBCF20915503822F82958F7090E082
:1057600002970CF48ECF80915003909151039A834D
:1057700089831B82DD82CC822E83CE0101967FCF6E
:10578000809590958C0D9D1DACCFF62E662309F467
:105790009CCF75132EC034132CC02091550320FDCF
:1057A0001FC0822F82958F70D9F0D80115962C9347
:1057B00015978F3049F08F5F982F9295907F822FA9
:1057C0008F70892B15968C93C8010E94822686E0E3
:1057D000F801A0E5B3E001900D928A95E1F793CF2F
:1057E00086E0F801A0E5B3E001900D928A95E1F71B
:1057F0002DC04D875E878D859E850E94A0298111D1
:1058000040CF80915503816080935503C8010E9469
:1058100082261CC0662309F458CF4D875E878D858C
:105820009E850E94A029882309F44FCF2ACF811199
:1058300048CF0CC0243031050CF047CF9F7009F4DD
:1058400040CFF8019581907F09F03BCF8F2D629674
:105850000FB6F894DEBF0FBECDBFDF91CF911F9181
:105860000F91FF90EF90DF90CF9008951F93CF930B
:10587000DF93CDB7DEB72C970FB6F894DEBF0FBE1F
:10588000CDBF4F83588769877A878B879C87CE01E6
:1058900007960E946F2A882369F08F8198852A8550
:1058A0003B85232BF1F19F3F09F063C08F3F09F047
:1058B00060C037C086E0FE013796DE011196019088
:1058C0000D928A95E1F76F817885EA85FB8530979F
:1058D00041F17F3F11F46F3F21F120911F0330E030
:1058E000C90101968770992740911E0350E08417E3
:1058F000950709F447C069837A83FD83EC8396E0BA
:10590000929FD001939FB00D1124A05EBC4FFE0169
:10591000319601900D929A95E1F780931F030E94B2
:10592000E52916E080911E0390911F038917C1F1AC
:10593000189FC0011124805E9C4F0E946F2A88230B
:1059400079F1E0911E031E9FF0011124E05EFC4FEF
:105950004081518162817381848195810E94D52922
:1059600080911E0390E001968770992780931E0313
:10597000D9CF4F81588569857A858B859C850E9412
:10598000D529CFCF0E949C2910921F0310921E038D
:10599000E0E5F3E086E0DF011D928A95E9F7C1CFEB
:1059A0002C960FB6F894DEBF0FBECDBFDF91CF911E
:1059B0001F910895DF92EF92FF920F931F93CF9361
:1059C000DF93FC01892B09F48AC0E12CF12CDD2442
:1059D000D394EF0121968491853709F461C058F47E
:1059E000843708F04EC0843008F06AC08130D1F0AE
:1059F000823071F174C0883709F45DC050F4863785
:105A000009F455C0873709F06AC08E2D0E940B2F0C
:105A100054C09CE7980F903708F061C08F770E94C0
:105A20004C2650C08F010E5F1F4FFE01849190E203
:105A3000980F983050F48770FD2D01C0FF0F8A95A4
:105A4000EAF78F2F0E94112F14C00E94AD2513C0BA
:105A50008F010E5F1F4FFE01C49180E28C0F8830D2
:105A600060F4C7708D2D01C0880FCA95EAF70E94B7
:105A7000172F0E94382FE80125C08C2F0E944C263A
:105A8000FACF9F012E5F3F4FFE01C491CC2369F0F6
:105A90008FE99FE00197F1F700C00000C150F6CFF9
:105AA0009F012E5F3F4FFE01F490E9010BC00E9461
:105AB000FB2EE82E07C00E940E2F0E94382F02C036
:105AC0000E94AD258F2D882341F0EFE9FFE031974B
:105AD000F1F700C000008150F6CFFE017ACFDF91D0
