:100000000C94C2020C9411030C9411030C94110370
:100010000C9411030C9411030C9411030C94110310
:100020000C9411030C9411030C94DB1F0C94AD2061
:100030000C94712E0C9411030C9411030C94110365
:100040000C9411030C9411030C9411030C941103E0
:100050000C9411030C943F0C0C9411030C94110399
:100060000C9411030C9411030C9411030C941103C0
:100070000C9411030C9411030C9411030C941103B0
:100080000C9411030C9411030C9411030C941103A0
:100090000C9411030C9411030C9411030C94110390
:1000A0000C9411030C9411030C94110312213421AC
:1000B0001F2234211F22762199211F22EE210122A5
:1000C000EA24EA24182518257425B025B327B32778
:1000D000C825B327BF26BF268D27B327B327A1275F
:1000E0007502012C022C01E10137023702E10138CF
:1000F000023801E10126022602E1012802280075EA
:100100000201280228012802280110021001190208
:1001100019010B020B013602360128022801E10108
:1001200033023302E1011C021C0116021601170200
:100130001701080208010C020C011102110128022A
:10014000280128022801E1010C020C010E020E0117
:100150000E020E01080208012C022C0116021601E3
:100160000802080111021101160216010C020C010D
:10017000170217010C020C011902190117021702CC
:10018000E101280228015202520152025201520298
:1001900052014D024D01E1014A024A02E100000113
:1001A00002030405060708090A0B0C0D0E0F1011B7
:1001B00012131415161718191A1B1C1D1E1F2021A7
:1001C00022232425262728292A2B2C2D2E2F303197
:1001D00032333435363738393A3B3C3D3E3F404187
:1001E00042434445464748494A4B4C4D4E4F505177
:1001F00052535455565758595A5B5C5D5E5F606167
:1002000062636465666768696A6B6C6D6E6F707156
:1002100072738080808080808080808080808080F9
:1002200080808080807580747677808080808080F8
:1002300080808080808080808080808080808080BE
:1002400080808080808080808080808080808080AE
:10025000808080808080808080808080808080809E
:10026000808080808080808080808080808080808E
:10027000808080808080808080808080808078798D
:100280007A7B7C7D7E7F8080808080808080808083
:1002900080808080808080808080808080800A0054
:1002A000253031366200253032643A20000A722F40
:1002B00063203031323334353637383941424344A4
:1002C00045460A0073706565643A2025730A007517
:1002D00073625F73746174653A20253032580A0086
:1002E000686F73742E5461736B3A2025640A000D95
:1002F0000A0020253032580073746174653A20205A
:1003000025303258202530325800696E69743A2001
:10031000646F6E650A000D0A0020253032580069AE
:100320006E7075742025643A2020253032582025BF
:10033000303258005B445D005B435D003C03550078
:1003400053004200200074006F002000550053004D
:10035000420020006B006500790062006F006100C0
:1003600072006400200063006F006E00760065007C
:10037000720074006500720000000E0374002E000D
:100380006D002E006B002E0000000403090409021A
:100390007400040100A032090400000103010100FF
:1003A0000921110100012240000705810308000A0C
:1003B00009040100010301020009211101000122C9
:1003C0004D000705820308000A090402000103002A
:1003D00000000921110100012236000705830308EE
:1003E000000A0904030002030000000921110100B2
:1003F00001222200070584032000010705040320D1
:1004000000011201100100000008EDFE5B0014085D
:10041000010200010631FF0974A1010975150026CA
:10042000FF009520750881020976150026FF0095CA
:100430002075089102C005010980A101850216817D
:100440000026B7001A81002AB700751095018100B7
:10045000C0050C0901A1018503160100269C021AA2
:1004600001002A9C02751095018100C00501090256
:10047000A1010901A100050919012905150025019E
:10048000950575018102950175038101050109300A
:1004900009311581257F9502750881060938158176
:1004A000257F950175088106050C0A3802158125FE
:1004B0007F950175088106C0C005010906A10105E7
:1004C0000719E029E71500250195087501810295B6
:1004D0000175088101050819012905950575019126
:1004E000029501750391010507190029FF150026E2
:1004F000FF00950675088100C0636F6E73756D65AA
:10050000723A20253034580A0073797374656D3A55
:1005100020253034580A000A002530325820006B5C
:100520006579626F6172643A20004C45443A202537
:100530003032580A00290A002575002F0025750061
:100540005D2800256400200025640020002564004B
:1005500020002564007C0025303258006D6F7573D3
:10056000656B6579205B62746E7C782079207620DB
:10057000685D287265702F61636C293A205B00000A
:100580009F0A8E0B11241FBECFEFDAE0DEBFCDBF76
:1005900004B603FE24C080918B0490918C04A0913A
:1005A0008D04B0918E048730904BA740B04BB9F4C6
:1005B00010928B0410928C0410928D0410928E0471
:1005C00014BE84B7877F84BF88E10FB6F894809308
:1005D0006000109260000FBEE0E0F8E3099511E0C2
:1005E000A0E0B1E0EAE0F6E602C005900D92A8397D
:1005F000B107D9F714E0A8E9B1E001C01D92AB380A
:10060000B107E1F715E0C4E8D5E004C02297FE0188
:100610000E94EB32C038D107C9F70E94DA0A0C9465
:1006200003330C940000FF93EF93E0919801F09155
:100630009901309709F00995EF91FF910895FC0118
:100640008591803011F0EFDFFBCF0895FF27E0E2C6
:1006500030E247FF0CC0419597FF09C0EDE260957D
:10066000709580959095611D711D811D911D27FFCD
:1006700002C0219530E350E2AA27660F771F881F3A
:10068000991FAA1FA41710F0A41B63955A95A9F7E8
:10069000AA3008F0A95FA05DAF93F39561157105CD
:1006A0008105910541F7ED3211F4EF93F395F217BF
:1006B00018F43F93F395FBCF8F91B5DFFA95E1F7EF
:1006C0000895E991F9918591803021F0853219F0F2
:1006D000AADFF9CF089520E0E89455915532C1F38F
:1006E000503311F4689455915A3348F4505390F3B1
:1006F000220F022E220F220F200D250FF4CF0EF411
:10070000219589919991533619F3533729F153352E
:1007100059F1BC0188279927E8945C3621F4899126
:10072000999168945591543639F446EF7EF077FFED
:100730000DC08FEF9FEF0AC055374AE039F05835AA
:1007400040E121F0523642E009F00895FF93EF9323
:100750007DDFEF91FF91B7CFFF93EF93FC01819184
:100760008030B9F360DFFBCFFF93EF9368DFF1CF09
:10077000DF93CF93CDB7DEB72596A3DFCF91DF917F
:100780000895662319F0613041F00EC0FC018281AA
:10079000882351F08FEF90E00895FC018281882337
:1007A00019F080EE90E0089580E090E0089580E0F8
:1007B0000895089580E0089581E00895CF93DF9330
:1007C000CDB7DEB728970FB6F894DEBF0FBECDBF0A
:1007D000E22F29833A834B835C836D837E838F83EF
:1007E00098878091D202E82BE093D202FE013396E3
:1007F0009E01275F3F4F4191443088F0A4EDB2E065
:1008000080E090E05D91511106C0DC01AE52BD4F19
:1008100012964C9304C001968630910599F7E21721
:10082000F30749F728960FB6F894DEBF0FBECDBF89
:10083000DF91CF910895860F911D860F911DFC01C8
:100840005687458781E00895CF93DF93EC018C8133
:100850009D81DC01ED91FC910480F581E02D6E819C
:1008600009951F86188A81E08A8B1E821B8A1C8A42
:100870001D8A1E8A1F8A80E0DF91CF910895FC01B6
:100880008681089581E0633009F080E0089581E079
:10089000613009F080E00895860F911D860F911D4B
:1008A000FC01858596850895FC0187890895EF925E
:1008B000FF92CF93DF93FC01E7012289223029F1D7
:1008C0006787408B8B8183708330F9F48A8187FF3F
:1008D0001CC08E81908D981708F4808F822F90E035
:1008E000DC01AA0FBB1FA80FB91FAE0FBF1F8A8163
:1008F0008F7017968C9317978C8118968C931897F6
:1009000084E019968C932F5F228BDF91CF91FF901B
:10091000EF900895EF92FF920F9302970E94570471
:100920000F91FF90EF90089508952F923F924F926C
:100930005F926F927F928F929F92AF92BF92CF926F
:10094000DF92EF92FF920F931F93CF93DF9300D02C
:1009500000D0CDB7DEB76C017C836B835A834983AB
:100960004C0180E1880E911C5601A7E0AA0EB11C33
:1009700011E044E0442E57E0352E3601B2E16B0E13
:10098000711C63E0262E72E0572E8B819C81892B8F
:1009900009F412C1F60180A1823061F128F48823A4
:1009A00049F0813079F0F1CF833041F1843009F49E
:1009B0004BC0EBCF54828581968190878783528686
:1009C000518610A3AE014D5F5F4FBE016F5F7F4F39
:1009D000C5010E94C01A882309F4EEC0D6011596FD
:1009E000ED91FC911697808191968C9391978181DE
:1009F00092968C93F6017682658220A2D601929619
:100A00008C91843081F018F4823079F014C08530F4
:100A100081F0813281F4D60191968C919197825028
:100A200014968C9308C0F60113A2D60114963C923A
:100A300002C0F6018483F6018581968190878783C1
:100A400084818287818740A2D60192968C918430DE
:100A5000B1F0853009F442C0823009F06EC0AE01B9
:100A60004D5F5F4FBE016F5F7F4FC5010E94C01A8F
:100A7000882309F4A1C0F601858984A38EC0AE0144
:100A80004D5F5F4FBE016F5F7F4FC5010E94C01A6F
:100A9000882309F491C0D60155968C9155978330DF
:100AA00009F07BC056968C915697813009F075C03D
:100AB00098969C91989757968C91992321F088232A
:100AC00009F46BC003C0813009F067C0F60113A3BD
:100AD000928996A3938997A385A35FC0AE014D5FCA
:100AE0005F4FBE016F5F7F4FC5010E94C01A882310
:100AF00009F462C0D60193968C919397882309F4E8
:100B00004CC012968D919C911397009709F445C0A3
:100B1000DC01ED91FC910190F081E02D7401D60192
:100B200095960C91959797962C91979796964C91B0
:100B3000969794966C91099530C0F60181A19585A0
:100B4000992319F0913031F023C090E002979787F4
:100B5000868715872B813C8189819A81782F692F1F
:100B6000D6011E964D915C911F9741155105E9F0F4
:100B700001962115310541F041505109F601578781
:100B8000468721503109EACF79836A831C821B8210
:100B9000F60186859785892B79F4D60116969C9265
:100BA0008E92159790961C92F0CE9A8389833C83FF
:100BB0002B83F6011586ECCF0F900F900F900F90BE
:100BC000DF91CF911F910F91FF90EF90DF90CF9029
:100BD000BF90AF909F908F907F906F905F904F905D
:100BE0003F902F900895DF92EF92FF920F931F9303
:100BF000CF93DF93CDB7DEB762970FB6F894DEBF21
:100C00000FBECDBF7C01DC0157968C91882369F023
:100C10000E94A50BF7010389148925893689601B79
:100C2000710B820B930B97FF02C0D12C38C0F701D8
:100C3000838590E09A8B898B8E010F5F1F4F9E01F9
:100C40002F5E3F4F42856681848195810E943513D6
:100C5000D82E811118C029893A892330310598F09E
:100C6000D7011D968D919C911E97009761F0DC0134
:100C7000ED91FC910190F081E02D8E010F5F1F4FEF
:100C800040E0B70109950E94A50BF701208D620F86
:100C9000711D811D911D638B748B858B968B8D2DA2
:100CA00062960FB6F894DEBF0FBECDBFDF91CF9135
:100CB0001F910F91FF90EF90DF9008953F924F9218
:100CC0005F926F927F928F929F92AF92BF92CF92DC
:100CD000DF92EF92FF920F931F93CF93DF93CDB7E5
:100CE000DEB7EC970FB6F894DEBF0FBECDBF5C0148
:100CF000462E342E522EDC011496CD90DC901597A2
:100D000016968C911697811139C158961C92D6016E
:100D1000ED91FC910190F081E02D60E0C601099514
:100D20007C01009711F486ED2EC1FC01808091803A
:100D30008114910409F424C13501F7E06F0E711C90
:100D4000DC0111967C926E9214965C928E01065D87
:100D50001F4F28E030E040E060E0F501848195819C
:100D60000E9434128CAF8111FCC01AA5D7018D925C
:100D70009C92D601ED91FC910280F381E02D232D10
:100D800040E0642DC6010995F5018683882309F4A6
:100D9000F9C099A99087282F40E060E0848195816F
:100DA0000E94E1128CAFD601ED91FC91D70114960F
:100DB0001C92882359F00480F581E02DD501169608
:100DC0006C91C6010995F5011682D6C00190F0819B
:100DD000E02DD50116966C91C6010995009709F48E
:100DE000A2CF133108F012E1FC015482112389F0E3
:100DF000212F30E08E01065D1F4F40E0D501169691
:100E00006C91169714968D919C9115970E943412AF
:100E10008CAF8CAD8111A8C04BAC512CA0E2CA2E76
:100E2000A1E0DA2E4501B2E08B0E911C7E01E1E1DA
:100E3000EE0EF11C541449F1DA82C9829C828B8235
:100E40001E86188A1F8619A21AA21BA219A6FF8243
:100E5000EE82F986E8868D818B878A87FD86EC860F
:100E60008E010F5F1F4F252D40E0D50116966C9126
:100E7000169714968D919C9115970E948212F501F8
:100E80008289823011F05394D5CFD50152968C913E
:100E9000823019F081ED8CAF67C0930142E0F5011B
:100EA0006681848195810E94AB0D8CAF68EE73E002
:100EB00080E090E00E94A70BD5011F962C911F9710
:100EC00040E016966C91169714968D919C9115970B
:100ED0000E9410138CAF811147C068EE73E080E070
:100EE00090E00E94A70B40E060E0C5010E94C1169F
:100EF0008CAF811139C020E040E060E0C5010E9464
:100F000097168CAF86E291E09A838983AE014F5F9A
:100F10005F4F60E070E0C5010E94261680E28CAF52
:100F20008CAD8823C1F090E0959587958CAFFE013C
:100F3000FC966F01EE24E394F12C00E022E040E007
:100F400060E0C5010E94691669E170E080E090E010
:100F50000E94A70BE5CF81E0D50157968C9380E0E6
:100F600012C0F70191828082D501ED91FC9104803D
:100F7000F581E02DC50109958CAD05C089ED03C053
:100F800087ED01C084EDEC960FB6F894DEBF0FBE7E
:100F9000CDBFDF91CF911F910F91FF90EF90DF9028
:100FA000CF90BF90AF909F908F907F906F905F9009
:100FB0004F903F9008950F931F93CF93DF936091CD
:100FC000D2017091D301E091A101F091A201409171
:100FD000C6015091C7012091BA013091BB018091A7
:100FE000AE019091AF016E177F07B1F4E0919F01C0
:100FF000F091A0014E175F0779F4E0919D01F09107
:101000009E012E173F0741F4E0919B01F0919C0156
:101010008E179F0709F49BC07093A2016093A101F2
:101020005093A00140939F0130939E0120939D0116
:1010300090939C0180939B01E2EDF2E088E0DF0158
:101040001D928A95E9F72091CA013091CB01409118
:10105000CC015091CD016091CE017091CF01809172
:10106000D0019091D1010E94DE032091BE01309108
:10107000BF014091C0015091C1016091C2017091C6
:10108000C3018091C4019091C5010E94DE032091AB
:10109000B2013091B3014091B4015091B50160911A
:1010A000B6017091B7018091B8019091B9010E9489
:1010B000DE032091A6013091A7014091A801509133
:1010C000A9016091AA017091AB018091AC0190914E
:1010D000AD010E94DE0381E08093D1028091730410
:1010E00080FF14C08091D3021F928F938091D2020F
:1010F0001F928F9388EF92E09F938F930E94B80383
:101100000F900F900F900F900F900F90C4EDD2E0C2
:1011100002EF12E08091730480FF0BC088811F9260
:101120008F931F930F930E94B8030F900F900F900F
:101130000F902196B2E0CA3DDB0761F780917304FE
:1011400080FF07C08FEE92E00E941F0302C0109242
:10115000D1020E94FE0BEC018AE592E00E942D155F
:10116000CE010E94160C8536910580F02091730403
:1011700020FF0CC09F938F9380EE92E09F938F93FC
:101180000E94B8030F900F900F900F90C0919A019A
:101190008AE592E00E94960CC817B9F18AE592E0C0
:1011A0000E94960C80939A019091730490FF0CC05A
:1011B0001F928F938FEC92E09F938F930E94B803BE
:1011C0000F900F900F900F9080919A018039E9F461
:1011D0008091730480FF15C08091A301823019F4BF
:1011E00083E191E002C088E191E09F938F9384ECCA
:1011F00092E09F938F930E94B8030F900F900F90EF
:101200000F900E943C220E94C32381E0DF91CF9186
:101210001F910F910895282F30E0C901B4E0880F85
:10122000991FBA95E1F7805E9109089730F4809193
:10123000D202882311F090E002C080E090E0E4ED5B
:10124000F2E041E050E06191643080F0A62FA29579
:10125000AF70B0E02A173B0749F46F70DA0102C0A3
:10126000AA0FBB1F6A95E2F78A2B9B2BB2E0EA3DDF
:10127000FB0749F70895EF92FF920F931F93CF93C7
:10128000DF938DEA92E00E941F03C0E0D0E016EAEF
:10129000E12E12E0F12E00EA12E0DF93CF93FF92ED
:1012A000EF920E94B8038C2F0E940B090E943F2EE0
:1012B0009F938F931F930F930E94B8038EE992E040
:1012C0000E941F0321968DB79EB708960FB6F8941B
:1012D0009EBF0FBE8DBFC031D105F9F6DF91CF9112
:1012E0001F910F91FF90EF900895CF92DF92EF92B0
:1012F000FF920F93CF93DF931F92CDB7DEB7898311
:10130000CE0101966C01EE24E394F12C00E022E082
:1013100040E060E08FE192E00E94691622E040E048
:1013200060E086E092E00E94691622E040E060E022
:101330008DEE91E00E94691622E040E060E084EDCD
:1013400091E00E9469160F90DF91CF910F91FF906D
:10135000EF90DF90CF900895CF93DF93FC017583DA
:1013600064838CE291E0918380838AE491E09383AB
:101370008283138A148A158A168A178A178288E04C
:1013800080878CE381871286138684E0848781E0DE
:10139000828B118A17861686158661157105B9F03C
:1013A000CB01A0E0B0E0EC01CA5ADF4F28813981BF
:1013B000232B41F49B96AA0FBB1FA60FB71FED93DB
:1013C000FC9305C011960296A031B10561F7DF913B
:1013D000CF9108952E9A08952E988EBD0DB407FED4
:1013E000FDCF1EBC0DB407FEFDCF0E94EA098EB5ED
:1013F00008952E9882608EBD0DB407FEFDCF6EBDA0
:101400000DB407FEFDCF0C94EA0988EF0E94EC09A9
:10141000807C8034A1F018F4882301F1089580388D
:1014200019F0803CB9F0089588ED0E94EC0981FD27
:101430000BC069EC88ED0E94F90982E00CC088EDD0
:101440000E94EC0981FDF5CF6BEC88ED0E94F90953
:1014500083E001C081E08093A301089561ED88EDF0
:101460000E94F9091092A30108950F931F93CF933F
:10147000DF938C01269A0E94EA09219A229A2398E6
:10148000209A80E58CBD81E08DBD259868E188E8D3
:101490000E94F90960E288E70E94F90960E088E7A4
:1014A0000E94F909C0E0D0E088E60E94EC0921968C
:1014B00080FD06C0CF3F8FEFD807B1F78FEF1DC07B
:1014C00061EC88ED0E94F90960E680ED0E94F9095F
:1014D00064E088EE0E94F90988EE0E94EC0982FF20
:1014E000FBCFC8010E94050A60E288EC0E94F9095E
:1014F00061E080E80E94F90980E0DF91CF911F91BF
:101500000F9108958AE592E00E94350A88EC91E0F7
:1015100090932D0280932C028CEB91E09093140217
:101520008093130280EB91E09093FB018093FA018A
:1015300084EA91E09093E2018093E10108958AE5C5
:1015400092E00E94640C6AE572E089E492E00E94F5
:101550004F196AE572E088E392E00E944F196AE54C
:1015600072E08FE192E00E94AC096AE572E086E0E9
:1015700092E00E94AC096AE572E08DEE91E00E9473
:10158000AC096AE572E084ED91E00E94AC0980E567
:1015900091E09093C9018093C8019093BD0180931D
:1015A000BC019093B1018093B0019093A501809309
:1015B000A4010895569A5E9A8091730481608460B4
:1015C0008093730480E091E00E9437220E94F4220D
:1015D00084B7877F84BF88E10FB6F894809360005A
:1015E000109260000FBE90E080E80FB6F8948093F0
:1015F0006100909361000FBE0E94601F0E94BD1F9A
:101600008091E20084608093E20080E29BE10E948E
:10161000282E78948091730480FF04C08AE093E0C0
:101620000E941F030E94F822FDCFEF92FF920F93BA
:101630001F93CF93DF93EC017B01DC01129688E0CE
:10164000F80101900D928A95E1F70E94A50B7B8726
:101650006A878091730480FF1EC00B811A81D701B5
:10166000ED91FC910084F185E02DC70109951F9251
:101670000F931F921F931F928F938FE193E09F937D
:101680008F930E94B8038DB79EB708960FB6F89453
:101690009EBF0FBE8DBF00E010E089E1E82E83E021
:1016A000F82E8091730480FF0EC0FE01E00FF11F41
:1016B00084811F928F93FF92EF920E94B8030F9044
:1016C0000F900F900F900F5F1F4F0630110549F7D5
:1016D0008091730480FF0AC086E193E0DF91CF918F
:1016E0001F910F91FF90EF900C941F03DF91CF910A
:1016F0001F910F91FF90EF900895089580E090E082
:1017000008958FEF9FEF08958FEF9FEF089508954D
:10171000862F0E94201B81E090E008951092DD0248
:101720001092DC0288EE93E0A0E0B0E08093DE024D
:101730009093DF02A093E002B093E10286E591E08E
:101740009093DB028093DA0208950C940A0C8F9236
:101750009F92AF92BF92CF92DF92EF92FF920E9440
:10176000B0314B015C0120E030E04AE755E40E94D3
:1017700066326B017C0120E030E040E85FE30E94CC
:101780007B3187FD24C020E03FEF4FE757E4C701DE
:10179000B6010E9462321816ACF420E030E040E25C
:1017A00051E4C501B4010E9466320E94843120E9EF
:1017B00031E06115710581F0C9010197F1F76150C0
:1017C0007109F7CFC701B6010E94843102C061E000
:1017D00070E0CB010197F1F7FF90EF90DF90CF9091
:1017E000BF90AF909F908F90089582E084BD93E06A
:1017F00095BD9AEF97BD80936E0008952FB7F8942A
:101800008091E8029091E902A091EA02B091EB0286
:101810002FBF08952FB7F8946091E8027091E90204
:101820008091EA029091EB022FBF0895CF92DF9250
:10183000EF92FF920F931F932FB7F8944091E80215
:101840005091E9026091EA027091EB022FBF6A01A8
:101850007B01EE24FF248C0120E030E0C016D1068D
:10186000E206F30610F441505109481B590BCA0116
:101870001F910F91FF90EF90DF90CF9008951F92EE
:101880000F920FB60F9211248F939F93AF93BF9334
:101890008091E8029091E902A091EA02B091EB02F6
:1018A0000196A11DB11D8093E8029093E902A093D7
:1018B000EA02B093EB02BF91AF919F918F910F908D
:1018C0000FBE0F901F901895FC0188E691E0918360
:1018D00080831582108681E0818712869F012E5FAA
:1018E0003F4F37832683128288E083838CE384838F
:1018F00080E090E041E0DF01A80FB91F1D961C9227
:101900001D971E964C931E971F961C921F971C9610
:101910003C932E931B9705968B34910561F7EA58FB
:10192000FF4F108281E18093F00208958091F002D0
:101930000895CF92DF92EF92FF920F931F93CF9370
:10194000DF931F92CDB7DEB77C016623B1F18C0126
:10195000C12CD12CF801EA5AFF4F80819181009768
:1019600019F1DC01ED91FC910084F185E02D698392
:1019700009956981861318C0F601BB96EE0FFF1F0B
:10198000EE0DFF1D80819181DC01ED91FC910480C1
:10199000F581E02D0F90DF91CF911F910F91FF9076
:1019A000EF90DF90CF900994BFEFCB1ADB0A0E5F68
:1019B0001F4FE0E1CE16D10469F680E00F90DF9171
:1019C000CF911F910F91FF90EF90DF90CF900895EE
:1019D00020E030E041E0FC01E20FF31F558556178F
:1019E00039F04F5F2B5F3F4F4031A9F780E00895FA
:1019F000842F0895EF92FF921F93CF93DF9300D02F
:101A0000CDB7DEB77C01162F67FD5FC0283008F028
:101A10005CC0442331F0DC0115968C91873009F4C9
:101A200054C060E0C7012A8349830E94E80C2A81E0
:101A30004981882309F449C0E82FF0E0111123C03F
:101A400085E08E9FD0018F9FB00D1124AE0DBF1D7C
:101A5000442359F081E418968C93D70115968C9104
:101A600015978F5F15968C9303C081E018968C9321
:101A700085E08E9FD0018F9FB00D1124AE0DBF1D4C
:101A800018968C9123C0612F6770660F660F660FE2
:101A9000442361F06064D70115968C9115978F5F90
:101AA00015968C938770687F682B03C02770687BBE
:101AB000622B85E08E9FD0018F9FB00D1124AE0D5B
:101AC000BF1D18966C93862F01C080E00F900F9079
:101AD000DF91CF911F91FF90EF900895CF93DF9307
:101AE000EC01611102C006960FC00E94E80C882329
:101AF00049F09E0145E0849F200D311D1124C9014C
:101B0000069602C080E090E0DF91CF910895CF93D8
:101B1000DF931F92CDB7DEB749830E946E0D4981D6
:101B2000009789F0DC01ED91FC911197309759F005
:101B300013969C9180E0891731F02081241731F0B1
:101B400033968F5FF8CF80E090E001C0CF010F9017
:101B5000DF91CF910895EF92FF921F93CF93DF9380
:101B60001F92CDB7DEB7162F79012115310569F027
:101B700049830E946E0DFC014981009741F0128358
:101B8000F182E082438380E003C088ED01C086EDEE
:101B90000F90DF91CF911F91FF90EF9008952E98B5
:101BA0000895CF93DF931F92CDB7DEB789830E944C
:101BB000CF0D89818EBD0DB407FEFDCF1EBC0DB4C7
:101BC00007FEFDCF0E94EA098EB50F90DF91CF91FD
:101BD0000895CF93DF9300D0CDB7DEB76A838983B2
:101BE0000E94CF0D898182608EBD6A810DB407FE8F
:101BF000FDCF6EBD0DB407FEFDCF0F900F90DF91AE
:101C0000CF910C94EA098F929F92BF92CF92DF926C
:101C1000EF92FF920F931F93CF93DF931F92CDB755
:101C2000DEB74C01B62E690149830E946E0D7C011E
:101C30004981009709F443C0FC0180819181892B7F
:101C400009F43FC06B2DC4010E94870DF6019183FA
:101C500080830097C1F1FC01228126952695822F71
:101C600090E0409764F441E050E060E070E004C030
:101C7000440F551F661F771F2A95D2F702C040E018
:101C800050E841505109F801518340836B2D80EE9B
:101C90000E94E90D88ED0E94D10DF70194819923EE
:101CA00039F0F401EA58FF4F60816260682B02C08E
:101CB000682F697F88ED0E94E90D80E005C086ED00
:101CC00003C087ED01C08BED0F90DF91CF911F9185
:101CD0000F91FF90EF90DF90CF90BF909F908F90EB
:101CE00008958F929F92AF92BF92CF92DF92EF9220
:101CF000FF920F931F93CF93DF931F92CDB7DEB761
:101D0000A62E890149830E94A50B6B017C0188E8FE
:101D1000C80E83E1D81EE11CF11C812C912CB12C42
:101D200020E04981A42A29830E94A50B6C197D0912
:101D30008E099F09298197FF2DC06A2D80EF0E948F
:101D4000E90D0E94A50B6C197D098E099F0997FF6B
:101D500009C088EC0E94D10D87FFF3CF60E888ECC2
:101D60000E94E90D88EF0E94D10D282F2F7024309A
:101D700019F02E3059F00EC0EFEF8E1A9E0A0115A1
:101D8000110589F28016910671F604C0B394F3E050
:101D9000BF12C9CF822F0F90DF91CF911F910F916A
:101DA000FF90EF90DF90CF90BF90AF909F908F907B
:101DB00008959F92AF92BF92CF92DF92EF92FF92DF
:101DC0000F931F93CF93DF937C01B42E122FAA247D
:101DD000A394DC01A60FB11DA60FB11D6D0186E510
:101DE000C80ED11CC42FD0E0AB96CC0FDD1FCE0D9A
:101DF000DF1DD6018D919C91DC01ED91FC9102805B
:101E0000F381E02D202F412F6B2D0995803EC1F4E9
:101E1000B1100BC061E088EE0E94E90D66E670E04B
:101E200080E090E00E94A70B15C088819981DC01B9
:101E3000ED91FC910284F385E02D612F09950AC094
:101E40008D3031F48FEF8A0D833008F042C017C017
:101E5000811142C0F60180819181DC01ED91FC91FC
:101E60000190F081E02D202F412F6B2D0995982EA8
:101E7000BDE08B130CC08FEF8A0D833050F464E605
:101E800070E080E090E00E94A70BA394B2CF88237B
:101E900011F1B1100BC061E088EE0E94E90D66E619
:101EA00070E080E090E00E94A70B11C0EB2DF0E005
:101EB000BB96EE0FFF1FEE0DFF1D80819181DC01AF
:101EC000ED91FC910284F385E02D612F0995892D18
:101ED00003C08DE001C080E0DF91CF911F910F9191
:101EE000FF90EF90DF90CF90BF90AF909F900895BC
:101EF0000F931F93CF93DF9300D0CDB7DEB78A0146
:101F00006A8389830E94CF0D898182608EBDF8012A
:101F10006A81862F882339F00DB407FEFDCF919199
:101F20009EBD8150F7CF060F111D0DB407FEFDCFEA
:101F30000E94EA09C8010F900F90DF91CF911F9185
:101F40000F9108952F923F924F925F926F927F92DE
:101F50008F929F92AF92BF92CF92DF92EF92FF92B9
:101F60000F931F93CF93DF9300D000D01F92CDB774
:101F7000DEB77D836C835A016901FB0121808FEFFD
:101F8000820D803408F06FC00E94A50B2B013C012C
:101F9000F8E84F0EF3E15F1E611C711CEC81FD81BE
:101FA000828180FF02C060E801C060E488EE0E9488
:101FB000E90D20E0312CC114D10409F444C07601AC
:101FC0002C143D0408F47101EA82A8016E2D80E111
:101FD0000E94780F6E2D88E30E94E90DEC81FD814F
:101FE0006081606280EF0E94E90D88EC0E94D10D53
:101FF00087FFFBCF60E888EC0E94E90D88EF0E9424
:10200000D10D282F2F70812C912C1982222309F4B5
:102010006BC02B830E94A50B64197509860997096B
:102020002B8197FF61C0263001F12E3009F456C094
:10203000243049F4FFEF8F1A9F0AA114B10459F11B
:102040008A149B0441F588EF2B830E94D10D85FBF8
:10205000882780F9EC81FD81928180FB90F9928341
:102060002B81822F46C08AED44C088EF0E94D10D9B
:1020700085FB882780F991E08927EC81FD81928199
:1020800080FB90F9928390FF02C060E801C060E499
:1020900088EE0E94E90D60E088E30E94E90DF801F6
:1020A000608180E10E94E90D6A8188E30E94E90D68
:1020B000EC81FD816081606280EF0E94E90D88EC17
:1020C0000E94D10D87FFFBCF60E888EC0E94E90DEC
:1020D00088EF0E94D10D282F2F7098CF89818F5FB4
:1020E00089838330C1F6AFCFCE18DF080E0D1F1DD8
:1020F00062CF0F900F900F900F900F90DF91CF91C4
:102100001F910F91FF90EF90DF90CF90BF90AF9015
:102110009F908F907F906F905F904F903F902F9007
:1021200008952F923F924F925F926F927F928F927B
:102130009F92AF92BF92CF92DF92EF92FF920F9356
:102140001F93CF93DF9300D000D0CDB7DEB75C01F3
:102150007C836B834A017901F901C080D180FB0146
:102160004180F90111821082FB01828181FF02C04E
:1021700060E201C060E188EE0E94E90D3C2C940110
:10218000EB81FC81408160E0C5010E94710E582EF8
:10219000F6E08F1316C088EF0E94D10D82958170F2
:1021A00091E08927EB81FC81928180FB91F99283F8
:1021B00091FF02C060E201C060E188EE0E94E90D7B
:1021C000DECF81115AC088EC0E94D10D82FF53C02E
:1021D00080E30E94D10D282E282F30E0C216D306AE
:1021E00008F4232CF70120813181622C712CA60187
:1021F000421B530B57FF02C040E050E093014615CD
:1022000057050CF49A0129833A830E94CF0DF8E018
:10221000FEBD3A8129810DB407FEFDCFF801822F62
:10222000800F8E1739F01EBC0DB407FEFDCF4EB5E2
:102230004193F7CF020F131F0E94EA0964E088EC74
:102240000E94E90DF70120813181260D371D318370
:102250002083241420F02C153D0508F490CF88EF3E
:102260000E94D10D82958170EB81FC81928180FB6F
:1022700091F9928302C030EF532E852D0F900F906D
:102280000F900F90DF91CF911F910F91FF90EF90E2
:10229000DF90CF90BF90AF909F908F907F906F9086
:1022A0005F904F903F902F9008952F923F924F92C2
:1022B0005F926F927F928F929F92AF92BF92CF92D6
:1022C000DF92EF92FF920F931F93CF93DF93CDB7DF
:1022D000DEB762970FB6F894DEBF0FBECDBF3C01EC
:1022E000542ED22E402E5E2D2FA038A4E9A4FAA49D
:1022F000188A1F861E861D868E01035F1F4F9E0152
:10230000215F3F4F598B0E94030E5989811193C061
:10231000D9824A825B83CC82BE82AD8298868F82CC
:10232000AE014F5F5F4F68E080E20E94780F2D851D
:102330003E85452D60E1C3010E94710E182F811169
:1023400079C0BD2CBB1CBB24BB1CE114F10409F4F7
:1023500065C0EF85F8898281BB2009F452C0826094
:1023600082836401AA24A394C114D10409F454C043
:102370003C862B864D855E856F85788987019E0119
:10238000255F3F4FC3010E949110182F8630B1F492
:102390002F85388988EF298B3A8B0E94D10D85FBD8
:1023A000882780F98A2529893A89D90112969C9132
:1023B000129780FB91F912969C93D6CF81113AC067
:1023C000EBA5FCA53097A1F00190F081E02D0190E4
:1023D000F081E02DC4018C199D099A8789876B854E
:1023E0007C859E01275F3F4FA7018BA59CA5099582
:1023F0008B859C85C81AD90A8215930508F0B4CF3D
:102400000DC0816082834D855E8587019101BF018A
:10241000C3010E94A20F182F11110CC02D853E85FB
:10242000BB2011F060EA01C060E8452DC3010E94A5
:10243000710E01C0812F62960FB6F894DEBF0FBEF9
:10244000CDBFDF91CF911F910F91FF90EF90DF9063
:10245000CF90BF90AF909F908F907F906F905F9044
:102460004F903F902F9008958F929F92AF92BF927E
:10247000CF92EF920F931F931F921F921F930F9370
:102480003F932F934901A12CB12CCC24C394E12C70
:1024900006E020E80E9455110F900F900F900F90CA
:1024A0000F900F901F910F91EF90CF90BF90AF9032
:1024B0009F908F9008958F929F92AF92BF92CF92EC
:1024C000EF92FF920F931F921F92FF92EF923F9312
:1024D0002F934901A12CB12C52E0C52EE02E06E02D
:1024E00020E80E9455110F900F900F900F900F90C1
:1024F0000F900F91FF90EF90CF90BF90AF909F9073
:102500008F9008953F924F925F926F927F928F9239
:102510009F92AF92BF92CF92DF92EF92FF920F9372
:102520001F93CF93DF93CDB7DEB7C054D1090FB659
:10253000F894DEBF0FBECDBF3C01562E442E322E86
:10254000B02ECE0101966C017C01022F29E030E013
:10255000C3010E945B1281111BC08B809C801F9362
:10256000BF92DF92CF921F9280E48F93A12CB12C67
:1025700062E0C62EE32C06E020E8442D652DC30161
:102580000E9455110F900F900F900F900F900F9089
:10259000C05CDF4F0FB6F894DEBF0FBECDBFDF913A
:1025A000CF911F910F91FF90EF90DF90CF90BF9050
:1025B000AF909F908F907F906F905F904F903F90E3
:1025C00008958F929F92AF92BF92CF92EF920F9306
:1025D000CF931F921F921F921F921F921F92812CC6
:1025E000912CA12CB12CC12CE22E05E020E00E9400
:1025F0005511C82F6CE271E080E090E00E94A70BBB
:102600000F900F900F900F900F900F908C2FCF91F5
:102610000F91EF90CF90BF90AF909F908F900895C3
:102620008F929F92AF92BF92CF92EF920F931F9291
:102630001F921F921F921F921F92812C912CA12CEE
:10264000B12CC12CE22E09E020E00E9455110F9020
:102650000F900F900F900F900F900F91EF90CF90E1
:10266000BF90AF909F908F900895AF92BF92CF92FE
:10267000DF92EF92FF920F931F93CF93DF9300D0DF
:1026800000D0CDB7DEB77C01690158011C821B82E6
:102690001A8219828E010F5F1F4F9E012D5F3F4FDF
:1026A0000E94030E811109C049815A816B817C818E
:1026B00085019601C7010E9491100F900F900F9015
:1026C0000F90DF91CF911F910F91FF90EF90DF90CE
:1026D000CF90BF90AF900895CF92DF92FF920F936B
:1026E0001F93CF93DF9300D0CDB7DEB76C01662385
:1026F00009F442C0062F10E085E0689FB001112464
:10270000F601E60FF71F8085282F277086FF19C076
:1027100031E0E5E0FE2EF601F39EE00DF11D1124FF
:10272000808586958695869587708217E1F03F5F54
:10273000303188F3F6018581821303C02150F60100
:10274000258385E0809FF001819FF00D1124EC0D21
:10275000FD1D108681E08187128682E0C80ED11CA3
:10276000D782C68209C0632FC6012A8339830E949B
:102770006C132A813981CFCF0F900F90DF91CF91C9
:102780001F910F91FF90DF90CF900895CF93DF932B
:10279000EC016134A1F4FC01855B9F4F41E09E0197
:1027A0002E5F3F4F158646871786348723873596D9
:1027B000E817F907B9F71D82DF91CF9108950E94BC
:1027C000E80C682FCE01DF91CF910C946C130F931E
:1027D0001F93CF93DF93EC01022FCA3F8FEFD807EF
:1027E00011F486ED29C08E819F81892B01F12A8702
:1027F000242F40E0CE010E94FA0C182F8823C9F044
:10280000682FCE010E946E0D009759F3FC010483DE
:10281000212F40E060E0CE010E94E112082F8823C2
:1028200051F0612FCE010E94C613802F05C087EDA5
:1028300003C084ED01C080E0DF91CF911F910F9123
:1028400008952F923F924F925F926F927F928F9254
:102850009F92AF92BF92CF92DF92EF92FF920F932F
:102860001F93CF93DF93CDB7DEB766970FB6F8947B
:10287000DEBF0FBECDBF7C01862E742E922E1B8A2A
:1028800088E08C8B8CE38D8BD701ED91FC910190CE
:10289000F081E02D60E0C70109956C01009709F413
:1028A000ABC0FC01A080B180CE01439691838083B0
:1028B00094828E010F5F1F4F22E130E040E060E024
:1028C000C7010E943412D601AD92BC928111ACC0F6
:1028D00029843A844B845C84BD81BE8B1E81570160
:1028E000612C6501E6E5CE0ED11CD6018D919C913F
:1028F000009789F1DC01ED91FC910084F185E02DD8
:102900000995811128C0F60180819181DC01ED914A
:10291000FC910088F189E02D612F09958823D9F079
:10292000F60180819181DC01ED91FC910484F585B3
:10293000E02DA201B1010995811160C0F6018081ED
:102940009181DC01ED91FC910684F785E02D6E8983
:102950000995811153C06394B2E0AB0EB11CE0E164
:102960006E12BFCF5701612C6501F6E5CF0ED11C69
:10297000D6018D919C91009789F1DC01ED91FC913C
:102980000084F185E02D0995811128C0F601808130
:102990009181DC01ED91FC910088F189E02D612F9E
:1029A00009958823B1F1F60180819181DC01ED91D7
:1029B000FC910484F585E02DA201B10109958111F6
:1029C0000DC0F60180819181DC01ED91FC910684BE
:1029D000F785E02D6E8909958823D9F06394B2E0DC
:1029E000AB0EB11CE0E16E12BFCF292D472D682D33
:1029F000C7010E94E71318C086ED16C0092D272DC8
:102A0000482D662DC7010E94D90E813D09F4A3CF40
:102A10000BC0092D272D482D662DC7010E94D90E08
:102A2000982F977F913DD1F266960FB6F894DEBF4E
:102A30000FBECDBFDF91CF911F910F91FF90EF900F
:102A4000DF90CF90BF90AF909F908F907F906F90CE
:102A50005F904F903F902F900895FF920F931F9398
:102A6000CF93DF93EC011D990EC088EC0E94D10D2D
:102A700085FF05C0CE010E94050A60E201C060E04A
:102A800088EC0E94E90D8091A301813051F058F04B
:102A9000823029F0833039F5FF24F3940DC0F12CF6
:102AA0000BC083E106C08091F002807F8031D9F0B5
:102AB00081E18093F00217C08091F002807F803125
:102AC00099F40E94A50B68537F4F8F4F9F4F6093DF
:102AD000EC027093ED028093EE029093EF0280E29D
:102AE0008093F00201C0F12C00E010E0FE01E00F45
:102AF000F11FEA5AFF4F80819181009739F0DC0184
:102B0000ED91FC910680F781E02D09950E5F1F4F36
:102B10000032110559F78091F002803409F446C063
:102B200070F4803269F18033D9F1813109F088C0C5
:102B3000FE01EA58FF4F108200E010E00AC0813524
:102B400009F45AC0803809F46AC0803509F078C0A9
:102B50003CC0FE01E00FF11FEA5AFF4F80819181D6
:102B6000009739F0DC01ED91FC910480F581E02DB6
:102B700009950E5F1F4F0032110559F782E15EC0C3
:102B80000E94A50B0091EC021091ED022091EE0243
:102B90003091EF02601B710B820B930B97FD50C0BD
:102BA00061E088EE0E94E90D80E448C088EE0E9452
:102BB000D10D80FD45C088ED0E94D10D682F686061
:102BC00088ED0E94E90D80E539C088EC0E94D10DA6
:102BD00086FF36C081E58093F0020E94A50B6C5EF3
:102BE0007F4F8F4F9F4F6093EC027093ED02809365
:102BF000EE029093EF0224C00E94A50B0091EC021C
:102C00001091ED022091EE023091EF02601B710BEA
:102C1000820B930B97FD14C080E88093F0022F2D58
:102C200040E060E0CE010E942114882331F0823D13
:102C300039F08093F10280EA01C080E98093F002CC
:102C4000DF91CF911F910F91FF9008958F929F92E6
:102C5000AF92BF92CF92EF920F93CF93DF93CDB706
:102C6000DEB7C054D1090FB6F894DEBF0FBECDBF9A
:102C70005F934F939E012F5F3F4F3F932F931F9280
:102C800020E42F9320E8822E912C5B0132E2C32EA8
:102C9000E12C06E021E840E0FC0166818481958119
:102CA0000E9455110F900F900F900F900F900F9062
:102CB000C05CDF4F0FB6F894DEBF0FBECDBFDF9113
:102CC000CF910F91EF90CF90BF90AF909F908F904A
:102CD00008958F929F92AF92BF92CF92DF92EF9220
:102CE000FF920F938E2CA42EB12C1F921F92DF9275
:102CF000CF92FF92EF929F2CC22EE02E09E021E2AC
:102D0000462FFC016681848195810E9455110F90A8
:102D10000F900F900F900F900F900F91FF90EF90EA
:102D2000DF90CF90BF90AF909F908F9008958F923B
:102D30009F92AF92BF92CF92EF920F93A62EB12C9B
:102D40001F921F921F921F921F921F92812C912CF3
:102D5000C22EE42E0AE021E240E0FC01668184817B
:102D600095810E9455110F900F900F900F900F902A
:102D70000F900F91EF90CF90BF90AF909F908F905A
:102D800008958F929F92AF92BF92CF92EF920F933E
:102D9000A62EB12C1F921F921F921F921F921F925C
:102DA000812C912CC12CE42E0BE021E240E0FC01AF
:102DB0006681848195810E9455110F900F900F902C
:102DC0000F900F900F900F91EF90CF90BF90AF901A
:102DD0009F908F900895FC018285089581E069306D
:102DE00009F080E00895CF93DF93EC018A819B8105
:102DF000DC01ED91FC910480F581E02D6A85099557
:102E00008A85813439F4EA81FB81EA58FF4F808159
:102E1000846080831A861B861C861D861E861F86FC
:102E2000188A80E0DF91CF9108958F929F92AF92A0
:102E3000BF92CF92EF920F93A42EB12CB22A1F9281
:102E40001F921F921F921F921F92812C912CC12CB6
:102E5000E62E01E023E240E0FC016285828193815D
:102E60000E9455110F900F900F900F900F900F90A0
:102E70000F91EF90CF90BF90AF909F908F9008955B
:102E80008F929F92AF92BF92CF92EF920F93A62E06
:102E9000B12C1F921F923F932F935F934F934A0140
:102EA000C12CE12C00E023EA40E0FC016285828134
:102EB00093810E9455110F900F900F900F900F90DB
:102EC0000F900F91EF90CF90BF90AF909F908F9009
:102ED00008958F929F92AF92BF92CF92EF920F93ED
:102EE000A42EB12CB22A1F921F921F921F921F92E2
:102EF0001F92812C912CC12CE62E03E023E240E0AE
:102F0000FC016285828193810E9455110F900F9080
:102F10000F900F900F900F900F91EF90CF90BF9068
:102F2000AF909F908F9008952F923F924F925F9213
:102F30006F927F928F929F92AF92BF92CF92DF92C9
:102F4000EF92FF920F931F93CF93DF93CDB7DEB72E
:102F5000E9970FB6F894DEBF0FBECDBF3C01362E09
:102F6000242EDC011296ED90FC9013971A968C910A
:102F7000811103C1D701ED91FC910190F081E02D09
:102F800060E0C70129AF09956C0129AD009709F4EC
:102F9000F6C0FC01A080B180A114B10409F4F1C015
:102FA0004301F4E08F0E911CDC0111969C928E92ED
:102FB00014962C93FE0131962F018F0128E030E00A
:102FC00040E060E0D30112968D919C9113970E948E
:102FD0003412F60114828111DAC019818D81893091
:102FE00009F0D1C0D701ED91FC910280F381E02D71
:102FF000222D41E0632DC7010995F30182878823C3
:1030000009F4C3C098859583282F40E060E0828151
:1030100093810E94E112082F882391F0D601AD928E
:10302000BC92D701ED91FC910480F581E02DD30194
:103030001A966C91C7010995F3011286102FABC047
:10304000113208F010E2D601AD92BC9211110BC002
:10305000940142E0F3016285828193810E94AB0D6D
:10306000811198C011C0212F30E0820140E0D301CE
:103070001A966C911A9712968D919C9113970E94B3
:103080003412811187C0E4CF1F921F925F924F923A
:103090001F9288E08F9388E0882E912CA12CB12C70
:1030A00099E2C92EE12C06E020EA40E0F3016285B6
:1030B000828193810E945511182F0F900F900F90CD
:1030C0000F900F900F90811166C08B81D3011B96DA
:1030D0008C931B97720100E028E030E040E01A96E4
:1030E0006C911A9712968D919C9113970E945B1286
:1030F000811150C02B813C8140E0F30162858281C7
:1031000093810E945B12811145C0298130E0CE017C
:1031100081967C0140E0D3011A966C911A97129621
:103120008D919C9113970E945B12811133C02E8167
:1031300040E0F3016285828193810E941013811126
:1031400029C001E0D3011B968C911B97801740F09A
:1031500020E0402F68E0C3010E9469170F5FF2CFA3
:103160001296ED91FC911397EA58FF4F808184608D
:10317000808381E050968C930EC019ED0CC016ED43
:103180000AC017ED08C011ED06C014ED04C0F60129
:10319000B182A082182F812FE9960FB6F894DEBF76
:1031A0000FBECDBFDF91CF911F910F91FF90EF9098
:1031B000DF90CF90BF90AF909F908F907F906F9057
:1031C0005F904F903F902F900895BF92CF92DF92E3
:1031D000EF92FF920F931F93CF93DF9300D000D015
:1031E000CDB7DEB77C01B62E19821A821B821C82F3
:1031F00020E0462F61E10E94151720E04B2D60E191
:10320000C7010E94151720E04B2D64E0C7010E9402
:10321000691723E0C22ED12C9E012F5F3F4F44E05F
:1032200050E06B2DC7010E944017882301F120E078
:103230004B2D64E1C7010E94151720E04B2D60E182
:10324000C7010E94151764E170E080E090E00E94E1
:10325000A70B0F900F900F900F90DF91CF911F91C0
:103260000F91FF90EF90DF90CF90BF90089509816C
:103270001A812B813C811D7F033011402041310593
:10328000B1F264E670E080E090E00E94A70B81E07C
:10329000C81AD108C114D10409F0BECFC8CFCF934A
:1032A000DF93FC0182E791E09183808373836283E3
:1032B000128613861486158616861786108A14823F
:1032C00088E085839CE3968391E09783808784E000
:1032D000818761157105B9F0CB01A0E0B0E0EC0188
:1032E000CA5ADF4F28813981232B41F49B96AA0FBC
:1032F000BB1FA60FB71FED93FC9305C01196029656
:10330000A031B10561F7DF91CF910895DF92EF927F
:10331000FF920F931F93CF93DF93EC01D62E7A0188
:10332000FA0100811181228133810130F3E01F070E
:10333000F1E02F073105D1F060F40115E1E01E073F
:103340002E07310571F1013011402140310571F036
:1033500062C0033081E0180780E128073105E1F100
:103360000330134020413105B9F155C08091F2027C
:10337000811151C020E04D2D61E1CE010E94151751
:1033800020E04D2D60E1CE010E94151720E04D2D6B
:1033900064E0CE010E94691781E08093F20281EB24
:1033A0003BC020E0462F61E1CE010E94151720E0CE
:1033B0004D2D60E1CE010E9415171092F2026A8530
:1033C00067708D2D8770660F660F660F682B8A8178
:1033D0009B810E94990C1FC020E04D2D64E1CE011D
:1033E0000E94151720E04D2D60E1CE010E941517B7
:1033F00064E170E080E090E00E94A70B6A85F7012D
:1034000021812695217067704D2D8A819B810E94B4
:1034100021141092F20280E0DF91CF911F910F9161
:10342000FF90EF90DF900895EF92FF920F931F931C
:10343000CF93DF93CDB7DEB72E970FB6F894DEBFEC
:103440000FBECDBF7C0181E090E09E878D878E010D
:103450000F5F1F4F9E01235F3F4F41E0F7016285E1
:10346000828193810E943513811151C002E011E0E5
:1034700089818023D1F019861A861B861C869E01BD
:10348000275F3F4F44E050E0612FC7010E94401783
:1034900081110BC0AE01475F5F4F612FC7010E94D2
:1034A0008619813B99F1811132C0000F1F5F1830DE
:1034B000F9F611E0F7018385811740F119861A8624
:1034C0001B861C869E01275F3F4F44E050E0612F22
:1034D000C7010E944017811117C089859A8587709E
:1034E00091708130914081F48B859C8581609C87AF
:1034F0008B87AE01475F5F4F612FC7010E9486191E
:10350000813B21F0811103C01F5FD4CF80E02E9654
:103510000FB6F894DEBF0FBECDBFDF91CF911F91E4
:103520000F91FF90EF9008950F931F93CF93DF9328
:10353000EC0188898823F1F00E94A50B0C851D857C
:103540002E853F85601B710B820B930B97FD0FC07F
:10355000CE010E94141A182F0E94A50B6C597F4FA0
:103560008F4F9F4F6C877D878E879F8701C010E0AC
:10357000812F01C080E0DF91CF911F910F910895BD
:10358000CF93DF93FC01EA0180819181892B21F5A2
:1035900080E028C088819981892BD1F3DB018D914E
:1035A0009C91DC015C91238130E0241B31098081F6
:1035B0009181820F931FDC015C9382818150828311
:1035C00088819981019799838883DB018D919C91F2
:1035D000119701968D939C9342814111DBCF83819A
:1035E000828381E0DF91CF910895CF92DF92EF92B5
:1035F000FF920F931F93CF93DF936C017A01EB013E
:10360000E60EF71E00E010E0CE15DF0561F06991CF
:10361000D601ED91FC910190F081E02DC601099554
:10362000080F191FF1CFC801DF91CF911F910F91A2
:10363000FF90EF90DF90CF9008958091FF02089562
:103640009FB7F8941092F6029FBF90918204943035
:1036500009F058C09091E9009F702091EC0020FF84
:1036600002C020E801C020E0292B94E09093E900FB
:103670009091EB0090FF43C09091EE0097FF3FC008
:103680009091F302992321F09091E80095FF37C0C3
:103690001092F30296E03091E80035FD15C03091AC
:1036A0008204343061F53091EB0035FD28C0915033
:1036B00021F481E08093F30222C0EFE9FFE031972B
:1036C000F1F700C00000E7CF8093F1008091E8009F
:1036D00085FD0AC08091E80080FFFCCF8091E80062
:1036E0008E778093E80006C08FB7F89491E09093AE
:1036F000F6028FBF2F702093E90080E008952F70AD
:103700002093E9008FEF0895CF93DF9300D01F92AD
:10371000CDB7DEB720918204243019F523E0298348
:103720009B838A832093E9008FEF9091E80081507A
:1037300095FD06C095ED9A95F1F700008111F5CF42
:103740008091E80085FF0DC040E050E063E070E04C
:10375000CE0101960E94CE1D8091E8008E77809365
:10376000E8000F900F900F90DF91CF910895CF93C5
:10377000DF9300D01F92CDB7DEB7209182042430B2
:1037800021F522E029839B838A8383E08093E900EB
:103790008FEF9091E800815095FD06C095ED9A95C8
:1037A000F1F700008111F5CF8091E80085FF0DC091
:1037B00040E050E063E070E0CE0101960E94CE1D33
:1037C0008091E8008E778093E8000F900F900F9023
:1037D000DF91CF910895209182042430F1F422E00A
:1037E0002093E9002FEF3091E800215035FD06C00D
:1037F00035ED3A95F1F700002111F5CF2091E80061
:1038000025FF0BC040E050E065E070E00E94CE1D57
:103810008091E8008E778093E8000895CF93DF933E
:10382000EC0180918204843039F581E08093E900D5
:103830008FEF9091E800815095FD06C095ED9A9527
:10384000F1F700008111F5CF8091E80085FF14C0E9
:1038500040E050E068E070E0CE010E94CE1D809113
:10386000E8008E778093E80088E0FE01A7EFB2E0E1
:1038700001900D928A95E1F7DF91CF91089588E349
:1038800093E00E941F0380918104811109C00E946E
:10389000601F0E94BD1F8091E20084608093E2005F
:1038A000089584E393E00E941F0310928104089519
:1038B00008958091F4028F5F8093F40262E30E9486
:1038C000C932911135C01092F4028091F60288231A
:1038D00079F180918204843049F58091E9008F70FC
:1038E0009091EC0090FF02C090E801C090E0982B0E
:1038F00084E08093E9008091EB0080FF14C0809108
:10390000EE0087FF10C08091E80085FF03C0109291
:10391000F100F9CF8091E80080FF05C08091E800B8
:103920008E778093E8009F709093E9001092F602E2
:10393000089542E061EC81E00E94DA1E42E061EC11
:1039400082E00E94DA1E42E061EC83E00E94DA1E0F
:1039500042E261EC84E00C94DA1E809184048330AE
:1039600009F453C030F4813071F0823009F48CC016
:1039700008958A3009F478C08B3009F45EC089302C
:1039800009F09AC020C080918304813A09F094C064
:103990008091E800877F8093E80080918704909170
:1039A0008804892B21F060E080E090E003C068E0AB
:1039B00087EF92E070E00E94171E8091E8008B77FD
:1039C0008093E800089580918304813209F074C0E7
:1039D0008091870490918804892B09F06DC08091B3
:1039E000E800877F8093E8008091E80082FD05C0B1
:1039F000809182048111F8CF5FC08091F1008093A3
:103A0000FF028091E8008B7753C080918304813A54
:103A100009F052C08091870490918804892B09F0A5
:103A20004BC08091E800877F8093E8008091E80098
:103A300080FFFCCF80910A0136C0809183048132DF
:103A4000D9F58091870490918804892BA9F58091FC
:103A5000E800877F8093E8000E940F1F8091850413
:103A600080930A010C94D42780918304813221F53C
:103A70008091E800877F8093E8000E940F1F80916B
:103A8000860480930003089580918304813AA1F411
:103A90008091E800877F8093E8008091E80080FFB4
:103AA000FCCF809100038093F1008091E8008E7735
:103AB0008093E8000C940F1F08958091FF0280937B
:103AC000F5021092FF0280E00E9475090E94C52352
:103AD0000C94D4270C945D1D0E946D2E8091F502EC
:103AE0008093FF0208950C946C1D292F33272330F7
:103AF0003105A9F06CF42130310509F442C02230BF
:103B0000310509F043C084E790E02EE833E042C07D
:103B100021323105C9F02232310519F137C0992718
:103B20008130910541F08230910541F0892B71F58A
:103B3000EAE8F3E005C0EAE7F3E002C0ECE3F3E013
:103B4000849190E09F0126C0643000F5E62FF0E0FC
:103B5000EE0FFF1FE057FE4F2081318189E090E09A
:103B600019C0643098F4E62FF0E0DF01AA0FBB1F04
:103B7000A857BE4F2D913C91EC57FE4F808190E0AD
:103B800009C082E190E022E034E004C080E090E0EF
:103B900020E030E0FA01318320830895CF92DF9254
:103BA000EF92FF920F931F93CF93DF937C018B01D2
:103BB000EA010E94301F811131C0209731F08881C5
:103BC0009981081B190BE80EF91EC12CD12C011587
:103BD000110519F18091E80085FD14C08091E8007D
:103BE0008E778093E800209741F0888199818C0D31
:103BF0009D1D9983888385E011C00E94301F882312
:103C000031F30CC0F70181917F018093F1000150E5
:103C10001109FFEFCF1ADF0ADACF80E0DF91CF91F1
:103C20001F910F91FF90EF90DF90CF90089520911A
:103C3000890430918A042617370748F06115710509
:103C400039F42091E8002E772093E80001C0B901F3
:103C5000FC0120E061157105B9F18091820488238F
:103C600009F440C0853009F43FC08091E80083FD2D
:103C70003DC08091E80082FF06C08091E80082FF8D
:103C800026C080E008958091E80080FFE3CF209176
:103C9000F3008091F20090E0922B6115710551F0D4
:103CA0008830910538F421912093F1006150710919
:103CB0000196F3CF21E0089709F020E08091E80019
:103CC0008E778093E800C6CF2111C7CFD6CF8091E1
:103CD0008204882339F0853039F08091E80083FF31
:103CE000CCCF04C082E0089583E0089581E0089578
:103CF0002091890430918A042617370748F061150E
:103D0000710539F42091E8002E772093E80001C076
:103D1000B901FC0120E061157105C1F180918204B7
:103D2000882309F441C0853009F440C08091E8003F
:103D300083FD3EC08091E80082FF06C08091E800CC
:103D400082FF27C080E008958091E80080FFE3CFE4
:103D50002091F3008091F20090E0922B61157105A3
:103D600059F08830910540F424912093F100319668
:103D7000615071090196F2CF21E0089709F020E027
:103D80008091E8008E778093E800C5CF2111C6CFDF
:103D9000D5CF80918204882339F0853039F0809125
:103DA000E80083FFCBCF04C082E0089583E008954C
:103DB00081E00895982F973058F59093E90098176F
:103DC00039F07091EC002091ED005091F00003C0AB
:103DD000242F762F50E021FF19C03091EB003E7F59
:103DE0003093EB003091ED003D7F3093ED0030914A
:103DF000EB0031603093EB007093EC002093ED000A
:103E00005093F0002091EE0027FF07C09F5FD3CFB3
:103E10008F708093E90081E0089580E0089580919B
:103E2000830487FD05C08091E80080FF0EC012C0AA
:103E30008091E80082FD05C0809182048111F8CF55
:103E400008958091E8008B7708C0809182048111E9
:103E5000EACF08958091E8008E778093E800089576
:103E60008091E4009091E50045E62091EC0020FF70
:103E700021C02091E80020FD21C02091820422234E
:103E800089F0253089F02091EB0025FD0FC02091AD
:103E9000E4003091E5002817390739F3415041F02B
:103EA000C901E3CF82E0089583E0089581E0089599
:103EB00084E008952091E80022FFDFCF80E008959C
:103EC0000E94CE1F0E94D61FE0EEF0E0808181604C
:103ED0008083E8EDF0E080818F77808319BCA7EDC7
:103EE000B0E08C918E7F8C9380818F7E8083109246
:103EF000810408950F931F93CF93DF930E94CE1FE9
:103F00000E94D61FC8EDD0E088818F778883888192
:103F10008068888388818F7D888319BC1092820491
:103F200010927E041092800410927F0400EE10E044
:103F3000F80180818B7F808388818160888342E063
:103F400060E080E00E94DA1EE1EEF0E080818E7F8A
:103F50008083E2EEF0E080818160808380818860F0
:103F60008083F80180818E7F80838881806188834F
:103F7000DF91CF911F910F910895E8EDF0E08081DE
:103F80008F7E8083E7EDF0E080818160808384E034
:103F900082BF81E0809381040C947A1FE8EDF0E009
:103FA00080818E7F80831092E20008951092DA0063
:103FB0001092E10008951F920F920FB60F921124F4
:103FC0002F933F934F935F936F937F938F939F9321
:103FD000AF93BF93EF93FF938091E10082FF0BC0FB
:103FE0008091E20082FF07C08091E1008B7F809387
:103FF000E1000E94591C8091DA0080FF1FC080916F
:10400000D80080FF1BC08091DA008E7F8093DA0099
:104010008091D90080FF0DC080E189BD82E189BD1A
:1040200009B400FEFDCF81E0809382040E943F1C12
:1040300005C019BC109282040E94511C8091E100BD
:1040400080FF19C08091E20080FF15C08091E200DE
:104050008E7F8093E2008091E20080618093E20095
:104060008091D80080628093D80019BC85E080934D
:1040700082040E946A1D8091E10084FF30C080911B
:10408000E20084FF2CC080E189BD82E189BD09B4D2
:1040900000FEFDCF8091D8008F7D8093D800809165
:1040A000E1008F7E8093E1008091E2008F7E80931B
:1040B000E2008091E20081608093E20080917E04C2
:1040C000882311F084E007C08091E30087FF02C0DD
:1040D00083E001C081E0809382040E94731D80917F
:1040E000E10083FF29C08091E20083FF25C0809119
:1040F000E100877F8093E10082E080938204109248
:104100007E048091E1008E7F8093E1008091E20047
:104110008E7F8093E2008091E20080618093E200D4
:1041200042E060E080E00E94DA1E8091F00088604A
:104130008093F0000E94581CFF91EF91BF91AF91C6
:104140009F918F917F916F915F914F913F912F91AF
:104150000F900FBE0F901F9018951F920F920FB6E1
:104160000F9211242F933F934F935F936F937F93FD
:104170008F939F93AF93BF93CF93EF93FF93C09190
:10418000E900CF708091EC001092E9008091F0007E
:10419000877F8093F00078940E94E9201092E900D4
:1041A0008091F00088608093F000C093E900FF9157
:1041B000EF91CF91BF91AF919F918F917F916F912F
:1041C0005F914F913F912F910F900FBE0F901F90D5
:1041D00018951F93CF93DF93CDB7DEB7AA970FB68D
:1041E000F894DEBF0FBECDBFE3E8F4E08091F100AC
:1041F000819324E0EB38F207C9F70E94AD1C80914F
:10420000E80083FF1CC12091830430918404832F34
:1042100090E08A30910508F012C1FC01EA5AFF4F84
:104220000C94E932203881F0223809F008C18091DD
:1042300087048F708093E9008091EB0085FB8827CD
:1042400080F91092E90006C080917F04909180046B
:10425000911182609091E800977F9093E80080939D
:10426000F1001092F100C5C0822F8D7F09F0E7C0E8
:10427000222319F0223061F0E2C080918504813060
:1042800009F0DDC0333009F080E08093800428C05D
:1042900080918504811124C0209187042F7009F436
:1042A000CEC02093E9008091EB0080FF19C080917F
:1042B000EB00333011F4806211C080618093EB0019
:1042C00081E090E0022E01C0880F0A94EAF7809303
:1042D000EA001092EA008091EB0088608093EB0086
:1042E0001092E9008091E800877F86C02111A7C065
:1042F000109185041F778091E3008078812B809353
:10430000E3008091E800877F8093E8000E940F1F00
:104310008091E80080FFFCCF8091E300806880936B
:10432000E300112311F083E001C082E08093820456
:1043300086C02058223008F082C080918504909178
:1043400086048C3D23E0920779F583E08A838AE234
:1043500089834FB7F894DE01139620E03EE051E2E6
:10436000E32FF0E050935700E49120FF03C0E29563
:10437000EF703F5FEF708E2F90E0EA3010F0C7963D
:1043800001C0C0968D939D932F5F243149F74FBF95
:104390008091E800877F8093E8006AE270E0CE01B8
:1043A00001960E94171E14C0AE014F5F5F4F6091CF
:1043B00087040E94751D009709F441C02091E80010
:1043C000277F2093E800BC0189819A810E94781E92
:1043D0008091E8008B778093E80031C0203879F530
:1043E0008091E800877F8093E80080917E0480932D
:1043F000F1008091E8008E778093E8000E940F1F03
:104400001EC021111CC0909185049230C0F480918F
:10441000E800877F8093E80090937E040E940F1F3E
:1044200080917E04811104C08091E30087FF02C067
:1044300084E001C081E0809382040E94991C8091F5
:10444000E80083FF0AC08091E800877F8093E8003E
:104450008091EB0080628093EB00AA960FB6F894EF
:10446000DEBF0FBECDBFDF91CF911F910895909316
:104470000603809305030895E0910503F091060378
:10448000309721F00190F081E02D099480E00895AB
:10449000FF920F931F93CF93DF938C01E09105035D
:1044A000F0910603309799F10280F381E02D099590
:1044B0008091730482FF2BC080FF04C08FE195E0E0
:1044C0000E941F03E80188E0F82E09E115E08091C1
:1044D000730480FF0BC088811F928F931F930F93EB
:1044E0000E94B8030F900F900F900F90FA942196AE
:1044F000F110EDCF8091730480FF09C087E195E052
:10450000DF91CF911F910F91FF900C941F03DF91CA
:10451000CF911F910F91FF900895E0910503F091C5
:104520000603309721F00480F581E02D0994089569
:10453000CF93DF93EC018091030390910403C8179C
:10454000D90709F1D0930403C0930303E091050355
:10455000F09106033097B9F00680F781E02DCE0187
:1045600009958091730482FF0EC080FF0CC0DF9319
:10457000CF9389E095E09F938F930E94B8030F90AB
:104580000F900F900F90DF91CF910895CF93DF930D
:10459000EC018091010390910203C817D90709F13A
:1045A000D0930203C0930103E0910503F091060349
:1045B0003097B9F00084F185E02DCE010995809106
:1045C000730482FF0EC080FF0CC0DF93CF9389EF8E
:1045D00094E09F938F930E94B8030F900F900F90D9
:1045E0000F90DF91CF9108950E94F50B0C94820AF1
:1045F0005F926F927F928F929F92AF92BF92CF9273
:10460000DF92EF92FF920F931F93CF93DF9300D02F
:1046100000D01F92CDB7DEB70E94DB0708E013E0A1
:10462000512C88248394912C852D0E940B095C01C8
:10463000F801C080D180C826D926C114D10439F42C
:1046400053940E5F1F4FF0E15F12EECF3FC0809199
:10465000730481FD0E943B09E12CF12C34010E2CE6
:1046600002C0660C771C0A94E2F7C3018C219D21DD
:10467000892B21F1E9825A8221E0C3018A219B2101
:10468000892B09F420E02B830E94FE0B8160782F98
:104690009D838C8349815A816B818D810E94C623C1
:1046A00049815A816B817C818D810E945A2EF8014B
:1046B000208131812625372531832083FFEFEF1AB2
:1046C000FF0A80E1E816F10449F6BACF8FEF89833B
:1046D0008A831B820E94FE0B8160782F9D838C83CE
:1046E00049815A816B818D810E94C6230E94592E77
:1046F0000E94CE30109107030E943C22181771F1DE
:104700000E943C22809307039091730492FF0EC095
:1047100090FF0CC01F928F938AE295E09F938F9336
:104720000E94B8030F900F900F900F908091070395
:104730000F900F900F900F900F90DF91CF911F91DE
:104740000F91FF90EF90DF90CF90BF90AF909F9030
:104750008F907F906F905F900C946B2E0F900F90C6
:104760000F900F900F90DF91CF911F910F91FF90BD
:10477000EF90DF90CF90BF90AF909F908F907F9001
:104780006F905F9008950C9475090895CF93DF930F
:10479000CDB7DEB72B970FB6F894DEBF0FBECDBFF7
:1047A0004F83588769877A878B878A859B85892B72
:1047B00031F05F3F11F080E003C04F3FE1F781E04F
:1047C000811107C04F81588569857A858B850E9444
:1047D0005A2EDE01119686E0FD0111928A95E9F7C5
:1047E00085E0FE01379601900D928A95E1F74981A7
:1047F0005A816B817C818D819E810E94D22A2B9669
:104800000FB6F894DEBF0FBECDBFDF91CF910895F4
:10481000882309F45CC09CEF980F913A20F090E552
:10482000980F9E3218F40E94812D0DC090E2980FCF
:10483000983058F4877091E001C0990F8A95EAF793
:10484000892F0E94C62D0C94022E9BE5980F933061
:1048500070F4853A29F0863A31F482E890E005C098
:1048600081E890E002C083E890E00C94982298E5FB
:10487000980F953160F5883A89F0893A91F08A3A33
:1048800099F08B3AA1F08C3AA9F08D3AB1F08E3ABA
:10489000B9F08F3AC1F487EB90E017C082EE90E058
:1048A00014C089EE90E011C08AEE90E00EC085EB56
:1048B00090E00BC086EB90E008C083EB90E005C071
:1048C00084EB90E002C080E090E00C94C622089552
:1048D000882349F19CEF980F913A20F090E5980FCA
:1048E0009E3218F40E94A22D0DC090E2980F9830CD
:1048F00058F4877091E001C0990F8A95EAF7892FE3
:104900000E94CC2D0C94022E9BE5980F933020F43E
:1049100080E090E00C949822885A853120F480E061
:1049200090E00C94C6220895882321F00E94C62DA1
:104930000C94022E0895882321F00E94CC2D0C9413
:10494000022E0895CF92DF92EF92FF920F931F9362
:10495000CF93DF93CDB7DEB728970FB6F894DEBFBD
:104960000FBECDBF8C0185E0F801DE0111960190EC
:104970000D928A95E1F7F80140815181F28083819F
:104980009481258122952F70009731F05F3F31F49B
:1049900031E04F3F19F403C031E001C030E030FD99
:1049A000E2C2782F9D838C836F2D8D812F830E948F
:1049B000152D9E8388870E94142D0E94262C4E81DF
:1049C000E42FE295EF70F0E0E05AFF4F2F81688509
:1049D0000C94E932842F807F142F1F70882311F0EC
:1049E0001295107FFF2059F0112309F471C2812F15
:1049F00068870E94D92D0E94022E688569C2862F81
:104A00000E946824112309F4AEC2812F0E94DF2D79
:104A100028960FB6F894DEBF0FBECDBFDF91CF91C1
:104A20001F910F91FF90EF90DF90CF900C94022E8A
:104A3000842F807F942F9F70E92E803219F0E294AA
:104A400080EFE822662319F0613001F129C0FF20D0
:104A5000A9F08E2D222349F1213039F528960FB681
:104A6000F894DEBF0FBECDBFDF91CF911F910F91A4
:104A7000FF90EF90DF90CF900C94E92D222319F056
:104A8000213009F470C20E94EC2D2CC0FF20E9F007
:104A9000263008F068C20E94C32D8E2129F022C062
:104AA000FF20F1F0211115C08E2D28960FB6F89435
:104AB000DEBF0FBECDBFDF91CF911F910F91FF9051
:104AC000EF90DF90CF900C949424253008F04BC2E7
:104AD00009C0F801858180FFFBC18F708583E4CF19
:104AE00021110AC28E2D78C1242F26952695237078
:104AF00030E02115310521F021303105C9F033C2F4
:104B0000FF2021F0862F942F937002C080E090E068
:104B100028960FB6F894DEBF0FBECDBFDF91CF91C0
:104B20001F910F91FF90EF90DF90CF900C949822FF
:104B3000FF2021F0862F942F937002C080E090E038
:104B400028960FB6F894DEBF0FBECDBFDF91CF9190
:104B50001F910F91FF90EF90DF90CF900C94C622A1
:104B6000862FFF2019F00E94542F02C00E94BC2FF4
:104B700028960FB6F894DEBF0FBECDBFDF91CF9160
:104B80001F910F91FF90EF90DF90CF900C944130E8
:104B9000842F837009F076C0F110E5C1262F22958D
:104BA00026952770220F220F862F8F70C82ED12CAA
:104BB000E12CF12C022E04C0CC0CDD1CEE1CFF1CE1
:104BC0000A94D2F764FF10C06FE070E080E090E0DC
:104BD00004C0660F771F881F991F2A95D2F760952A
:104BE00070958095909503C060E070E0CB01242F14
:104BF000269526952370422F50E042305105D1F082
:104C00004330510559F16C297D298E299F29413066
:104C1000510541F128960FB6F894DEBF0FBECDBF07
:104C2000DF91CF911F910F91FF90EF90DF90CF9088
:104C30000C94412C6C297D298E299F2928960FB62A
:104C4000F894DEBF0FBECDBFDF91CF911F910F91C2
:104C5000FF90EF90DF90CF900C945B2C0E94412C42
:104C6000C701B60128960FB6F894DEBF0FBECDBFC0
:104C7000DF91CF911F910F91FF90EF90DF90CF9038
:104C80000C94272CFF2019F0842F817001C0869589
:104C9000882309F468C1262F229526952770220FB4
:104CA000220F862F8F70C82ED12CE12CF12C022ED2
:104CB00004C0CC0CDD1CEE1CFF1C0A94D2F764FF70
:104CC00010C06FE070E080E090E004C0660F771FD6
:104CD000881F991F2A95D2F76095709580959095B9
:104CE00003C060E070E0CB01242F26952695237049
:104CF000422F50E042305105D1F04330510559F177
:104D00006C297D298E299F294130510541F1289632
:104D10000FB6F894DEBF0FBECDBFDF91CF911F91CC
:104D20000F91FF90EF90DF90CF900C94F02C6C29B6
:104D30007D298E299F2928960FB6F894DEBF0FBED5
:104D4000CDBFDF91CF911F910F91FF90EF90DF903A
:104D5000CF900C94022D0E94F02CC701B60128962A
:104D60000FB6F894DEBF0FBECDBFDF91CF911F917C
:104D70000F91FF90EF90DF90CF900C94DE2C603F6E
:104D8000D9F128F480E4860F803250F09CC0623F55
:104D900009F461C008F44BC0633F09F470C093C0CC
:104DA000162F1071842F8F716887FF2059F00E9491
:104DB000892C6885862F112319F08295807F75CE06
:104DC0008F7073CE0E94A42C6885862F112319F052
:104DD0008295807F01C08F7028960FB6F894DEBF51
:104DE0000FBECDBFDF91CF911F910F91FF90EF903C
:104DF000DF90CF900C949B24FF20A9F0253008F081
:104E0000B2C0842F8F7128960FB6F894DEBF0FBE04
:104E1000CDBFDF91CF911F910F91FF90EF90DF9069
:104E2000CF900C94C32C263008F09DC0EACFFF2011
:104E3000A1F0842F8F7128960FB6F894DEBF0FBEB5
:104E4000CDBFDF91CF911F910F91FF90EF90DF9039
:104E5000CF900C94892CFF2061F3842F8F712896BA
:104E60000FB6F894DEBF0FBECDBFDF91CF911F917B
:104E70000F91FF90EF90DF90CF900C94A42CFF2027
:104E800091F0842F8F7128960FB6F894DEBF0FBE75
:104E9000CDBFDF91CF911F910F91FF90EF90DF90E9
:104EA000CF900C947A2C28960FB6F894DEBF0FBEE4
:104EB000CDBFDF91CF911F910F91FF90EF90DF90C9
:104EC000CF900C94752CFF20A1F0222309F4B1CFD0
:104ED000862F28960FB6F894DEBF0FBECDBFDF91A8
:104EE000CF911F910F91FF90EF90DF90CF900C9496
:104EF0000824222309F4B1CF862F28960FB6F89400
:104F0000DEBF0FBECDBFDF91CF911F910F91FF90FC
:104F1000EF90DF90CF900C9468244F70C8010E94EE
:104F2000C10328960FB6F894DEBF0FBECDBFDF9148
:104F3000CF911F910F91FF90EF90DF90CF900C9445
:104F40007F2B4F70C80128960FB6F894DEBF0FBEB6
:104F5000CDBFDF91CF911F910F91FF90EF90DF9028
:104F6000CF900C94D22E28960FB6F894DEBF0FBEC9
:104F7000CDBFDF91CF911F910F91FF90EF90DF9008
:104F8000CF9008950E94E62D0E94B52D0E94022E1A
:104F90000E946F310E94413080E090E00E94982290
:104FA00080E090E00C94C6220E94D62D0C94C2277B
:104FB000CF93DF9300D000D01F92CDB7DEB70E9411
:104FC000152D292F22952F7030E02C3031054CF40F
:104FD0002A303105C4F4225031092230310540F025
:104FE00021C02C303105D1F02F303105B9F01AC075
:104FF000853A28F48430C0F4823028F415C090E259
:10500000980F983088F0883E30F4803E68F48450E1
:10501000813A40F409C0803F29F406C093FB8827F9
:1050200080F903C080E001C081E00F900F900F90E5
:105030000F900F90DF91CF910895CF93DF9300D021
:1050400000D01F92CDB7DEB70F900F900F900F904A
:105050000F90DF91CF910895CF93DF9300D000D0D0
:1050600000D0CDB7DEB726960FB6F894DEBF0FBEE0
:10507000CDBFDF91CF9108951F93CF93DF93C09160
:10508000280316E080912903C81799F0D0E01C9FEF
:10509000F0011D9FF00D1124E65DFC4F4081518110
:1050A00062817381848195810E942C282196C7702A
:1050B000E9CFDF91CF911F91089540915A0350910C
:1050C0005B0360915C0370915D0380915E0390913E
:1050D0005F030C942C28CF9380915F0382958F708F
:1050E00009F05FC080915C03882309F45AC02091C5
:1050F0002803A091290360915A0370915B0380916A
:105100005D0390915E0331E06F3F09F030E0B32F13
:10511000C6E02A1709F445C0009721F07F3F21F42B
:105120004B2F03C041E001C040E030E040FD35C0FE
:10513000C29FF001C39FF00D1124E65DFC4F418139
:1051400074132BC04081641328C04281411125C0D3
:10515000438154814817590710F441505109481BA5
:10516000590B483C5105C8F480915F038F708061F2
:1051700080935F0386E0829FF001839FF00D1124EE
:10518000E15DFC4F80818F70806180838AE593E0D0
:105190000E94A224CF910C943C282F5F3F4F277090
:1051A000B8CFCF910895BF92CF92DF92EF92FF9246
:1051B0000F931F93CF93DF93CDB7DEB761970FB6F1
:1051C000F894DEBF0FBECDBF8C0185E0F801DE0193
:1051D0001D9601900D928A95E1F7D8014C91119698
:1051E0005C9111971296CC9012971396ED90FC90CB
:1051F000149760915A0370915B0320915D03309185
:105200005E032115310531F07F3F31F481E06F3FBE
:1052100019F403C081E001C080E0B82FB170BB2E4B
:1052200080FD77C1D0905C03DD2009F4FBC0E091E4
:105230005F03E216F30638F0C701821B930B883C2C
:10524000910548F0A0C0209530952E0D3F1D283CBB
:10525000310508F098C08E2F807F09F053C0751378
:1052600014C0641312C0DC2CC1100FC0EF70E061D9
:10527000E0935F030E945D288AE593E00E94A224E8
:1052800080915F03F80185837CC1E114F10431F062
:105290005F3F31F481E04F3F19F403C081E001C06A
:1052A00080E080FD03C081E08C2501C080E0F82F04
:1052B000F170DF2E80FF1CC080912803209129030C
:1052C00036E0821709F436C190E0389FF001399F2B
:1052D000F00D1124E65DFC4F6181561306C060811C
:1052E000461303C06281C61203C001968770E9CFDE
:1052F000DC2CCC2009F445C180915F038160809350
:105300005F0358C0751308C0641306C0C11004C001
:10531000D8011596EC93B3C04D875E87CF867E2D5E
:10532000F98AE88A6C2D89890E94D827882339F167
:10533000DC2CCC2021F120915F03822F82958F708D
:1053400090E002970CF463C080915A0390915B0344
:1053500098878F831986FB86EA862C87CE0107966D
:1053600054C0751749F14D875E87CF867E2DF98A27
:10537000E88A6C2D89890E94D82781112FC0C80125
:105380000E94A224A9C08E2F807F59F77E2DF98A12
:10539000E88A6C2D89890E941D288AE593E00E9485
:1053A000A224EAE5F3E086E0DF011D928A95E9F7A1
:1053B0000E945D28D12CE5C06413D5CFC110D3CF96
:1053C000D8011596EC93C8010E94A224EAE5F3E007
:1053D00086E0DF011D928A95E9F7D3C0DC2CCC2052
:1053E00071F220915F03822F82958F7090E0029777
:1053F00074F080915A0390915B039A8389831B8296
:10540000FD82EC822E83CE0101960E94A22486E0CA
:10541000F801AAE5B3E001900D928A95E1F70E94A8
:105420006B2874C0E216F30628F0F701E21BF30BB9
:105430009F0104C0209530952E0D3F1D283C31055D
:1054400008F056C0DC2CCC2009F499CF75132CC081
:1054500064132AC080915F0380FD1DC0982F929530
:105460009F70C9F0D80115968C9315979F3039F02D
:105470009F5F9295907F8F70892B15968C93C801B2
:105480000E94A22486E0F801AAE5B3E001900D9203
:105490008A95E1F73BC086E0F801AAE5B3E0019008
:1054A0000D928A95E1F76DC04D875E87CF867E2D80
:1054B000F98AE88A6C2D89890E94D827882379F097
:1054C00086E0F801AAE5B3E001900D928A95E1F734
:1054D0000E946B280E945D28DD24D39452C08091E5
:1054E0005F03816080935F03C8010E94A22449C0CA
:1054F0007E2DF98AE88A6C2D89890E941D28EAE5AB
:10550000F3E086E0DF011D928A95E9F70E945D28AD
:1055100038C0CC2009F433CF4D875E87CF867E2DEF
:10552000F98AE88A6C2D89890E94D827882309F492
:1055300026CFC6CF7E2DF98AE88A6C2D89890E94F4
:10554000152D292F22952F7030E0223031052CF4B3
:105550009F7041F0811106C00CC0243031052CF43D
:105560009F7049F4805E883020F0C8010E94A22418
:10557000BD2CDB2C06C0D80115969C91907F91F72D
:10558000F8CF8D2D61960FB6F894DEBF0FBECDBF5C
:10559000DF91CF911F910F91FF90EF90DF90CF900F
:1055A000BF9008951F93CF93DF93CDB7DEB72C97AD
:1055B0000FB6F894DEBF0FBECDBF4F835887698703
:1055C0007A878B879C87CE0107960E94D3288823F1
:1055D000C1F02F8138858A859B85892B31F03F3F2B
:1055E00011F080E003C02F3FE1F781E0811147C057
:1055F0004F81588569857A858B859C850E942C28EA
:105600003EC086E0FE013796DE01119601900D92B4
:105610008A95E1F7FF81E8854A855B85411551054B
:1056200031F0EF3F31F481E0FF3F19F403C081E036
:1056300001C080E080FD23C02091290330E0C90132
:105640000196877099276091280370E08617970765
:10565000F1F1F983EA835D834C8396E0929FD00158
:10566000939FB00D1124A65DBC4FFE0131960190B1
:105670000D929A95E1F7809329030E943C2816E049
:105680008091280390912903891779F1189FC0010F
:105690001124865D9C4F0E94D328882331F1E0912C
:1056A00028031E9FF0011124E65DFC4F40815181CB
:1056B00062817381848195810E942C2880912803C6
:1056C00090E001968770992780932803D9CF0E9494
:1056D000D4271092290310922803EAE5F3E086E02C
:1056E000DF011D928A95E9F7CACF2C960FB6F89480
:1056F000DEBF0FBECDBFDF91CF911F910895DF9226
:10570000EF92FF920F931F93CF93DF939C0100972B
:1057100009F48AC0E12CF12CDD24D394E90121960F
:10572000F9018491853709F462C058F4843708F090
:105730004EC0843008F069C08130D1F0823071F100
:1057400073C0883709F45CC050F4863709F454C03C
:10575000873709F069C08E2D0E94D32D53C09CE776
:10576000980F903708F060C08F770E9468244FC070
:1057700089010E5F1F4FFE01C49180E28C0F8830BB
:1057800048F4C7708D2D01C0880FCA95EAF70E94B2
:10579000D92D15C08C2F0E94082413C089010E5FDB
:1057A0001F4FFE01C49180E28C0F883060F4C770F7
:1057B0008D2D01C0880FCA95EAF70E94DF2D0E9447
:1057C000022EE80124C08C2F0E946824FACF2E5F9D
:1057D0003F4FFE01C491CC2341F08FE99FE0019738
:1057E000F1F700C00000C150F6CFE90110C0FE0182
:1057F000F490E90122960BC00E94C32DE82E07C049
:105800000E94D62D0E94022E02C00E9408249F2DC5
:10581000992341F0EFE9FFE03197F1F700C0000074
:105820009150F6CF9E017ACFDF91CF911F910F91CA
:10583000FF90EF90DF90089560936004709361048F
:1058400080936204909363040C946A2E08950F93DE
:105850001F930091640410916504209166043091B7
:105860006704602B712B822B932B609364047093DD
:10587000650480936604909367041F910F910C94C4
:10588000692E0F931F930091640410916504209179
:10589000660430916704602371238223932360930D
:1058A00064047093650480936604909367041F9169
:1058B0000F910C94692E0F931F9300916404109123
:1058C0006504209166043091670460277127822760
:1058D00093276093640470936504809366049093A7
:1058E00067041F910F910C94692E60E070E0CB016A
:1058F0000C941C2C41E050E060E070E004C0440FC8
:10590000551F661F771F8A95D2F7CB01BA010C94F9
:105910001C2C41E050E060E070E004C0440F551FD3
:10592000661F771F8A95D2F7809160049091610479
:10593000A0916204B0916304482B592B6A2B7B2BF6
:10594000CB01BA010C941C2C41E050E060E070E007
:1059500004C0440F551F661F771F8A95D2F74095E4
:105960005095609570958091600490916104A0912C
:105970006204B0916304482359236A237B23CB013B
:10598000BA010C941C2C41E050E060E070E004C0CF
:10599000440F551F661F771F8A95D2F780916004C8
:1059A00090916104A0916204B09163044827592743
:1059B0006A277B27CB01BA010C941C2C0F931F93F1
:1059C000009160041091610420916204309163049D
:1059D000602B712B822B932B1F910F910C941C2CFD
:1059E0000F931F9300916004109161042091620451
:1059F0003091630460237123822393231F910F91BD
:105A00000C941C2C0F931F9300916004109161045F
:105A100020916204309163046027712782279327C5
:105A20001F910F910C941C2C08959F92AF92BF92DE
:105A3000CF92DF92EF92FF920F931F93CF93DF935A
:105A400000D000D01F92CDB7DEB75A016623C1F156
:105A5000C0906404D0906504E0906604F090670400
:105A60008091600490916104A0916204B0916304FC
:105A7000C82AD92AEA2AFB2A0FE110E0D701C60179
:105A8000002E04C0B695A795979587950A94D2F7EE
:105A900080FD05C00150110988F7912C07C0902E98
:105AA000B501802F0E94A82E0197A1F380E1B89E36
:105AB000F0011124EA0DF11DE05AFC4F908209C05B
:105AC00080E1B89EF0011124E40FF11DE05AFC4F73
:105AD0009080A982BA8269817A81892D0E94A82E3C
